{
  "_format": "hh-sol-artifact-1",
  "contractName": "Dungeon",
  "sourceName": "contracts/Dungeon.sol",
  "abi": [
    {
      "inputs": [
        {
          "internalType": "uint256",
          "name": "_tokenId",
          "type": "uint256"
        },
        {
          "internalType": "address",
          "name": "_user",
          "type": "address"
        }
      ],
      "name": "bossFight",
      "outputs": [],
      "stateMutability": "nonpayable",
      "type": "function"
    },
    {
      "inputs": [
        {
          "internalType": "uint256",
          "name": "_tokenId",
          "type": "uint256"
        },
        {
          "internalType": "address",
          "name": "_user",
          "type": "address"
        }
      ],
      "name": "claimBossFight",
      "outputs": [],
      "stateMutability": "nonpayable",
      "type": "function"
    },
    {
      "inputs": [
        {
          "internalType": "address",
          "name": "_user",
          "type": "address"
        }
      ],
      "name": "getMyMonsters",
      "outputs": [
        {
          "components": [
            {
              "internalType": "uint256",
              "name": "tokenId",
              "type": "uint256"
            },
            {
              "internalType": "uint256",
              "name": "startTime",
              "type": "uint256"
            },
            {
              "internalType": "address",
              "name": "owner",
              "type": "address"
            }
          ],
          "internalType": "struct Dungeon.Details[]",
          "name": "",
          "type": "tuple[]"
        }
      ],
      "stateMutability": "view",
      "type": "function"
    },
    {
      "inputs": [
        {
          "internalType": "address",
          "name": "",
          "type": "address"
        },
        {
          "internalType": "uint256",
          "name": "",
          "type": "uint256"
        }
      ],
      "name": "monstersOnBoss",
      "outputs": [
        {
          "internalType": "uint256",
          "name": "",
          "type": "uint256"
        }
      ],
      "stateMutability": "view",
      "type": "function"
    },
    {
      "inputs": [
        {
          "internalType": "address",
          "name": "",
          "type": "address"
        },
        {
          "internalType": "uint256",
          "name": "",
          "type": "uint256"
        }
      ],
      "name": "monstersOnBossDetails",
      "outputs": [
        {
          "internalType": "uint256",
          "name": "tokenId",
          "type": "uint256"
        },
        {
          "internalType": "uint256",
          "name": "startTime",
          "type": "uint256"
        },
        {
          "internalType": "address",
          "name": "owner",
          "type": "address"
        }
      ],
      "stateMutability": "view",
      "type": "function"
    },
    {
      "inputs": [
        {
          "internalType": "address",
          "name": "monsterNFT",
          "type": "address"
        },
        {
          "internalType": "address",
          "name": "itemNFT",
          "type": "address"
        }
      ],
      "name": "setInterface",
      "outputs": [],
      "stateMutability": "nonpayable",
      "type": "function"
    }
  ],
  "bytecode": "0x608060405234801561001057600080fd5b50611e96806100206000396000f3fe608060405234801561001057600080fd5b50600436106100625760003560e01c806302d8f2b514610067578063510fbdb714610083578063858253cf146100b3578063d28272be146100cf578063dc2d24dc146100eb578063f78fb3241461011d575b600080fd5b610081600480360381019061007c919061167f565b61014d565b005b61009d600480360381019061009891906116bb565b610213565b6040516100aa9190611a81565b60405180910390f35b6100cd60048036038101906100c89190611720565b610244565b005b6100e960048036038101906100e49190611720565b610951565b005b610105600480360381019061010091906116bb565b610fca565b60405161011493929190611b17565b60405180910390f35b6101376004803603810190610132919061162d565b611021565b60405161014491906119bf565b60405180910390f35b816000806101000a81548173ffffffffffffffffffffffffffffffffffffffff021916908373ffffffffffffffffffffffffffffffffffffffff16021790555081600160006101000a81548173ffffffffffffffffffffffffffffffffffffffff021916908373ffffffffffffffffffffffffffffffffffffffff16021790555080600260006101000a81548173ffffffffffffffffffffffffffffffffffffffff021916908373ffffffffffffffffffffffffffffffffffffffff1602179055505050565b6004602052816000526040600020818154811061022f57600080fd5b90600052602060002001600091509150505481565b8181600080600460008473ffffffffffffffffffffffffffffffffffffffff1673ffffffffffffffffffffffffffffffffffffffff1681526020019081526020016000208054806020026020016040519081016040528092919081815260200182805480156102d257602002820191906000526020600020905b8154815260200190600101908083116102be575b5050505050905060005b8151811015610349576000828281518110610320577f4e487b7100000000000000000000000000000000000000000000000000000000600052603260045260246000fd5b602002602001015190508086141561033757600193505b508061034290611c2c565b90506102dc565b508161038a576040517f08c379a0000000000000000000000000000000000000000000000000000000008152600401610381906119e1565b60405180910390fd5b6000600160009054906101000a900473ffffffffffffffffffffffffffffffffffffffff1673ffffffffffffffffffffffffffffffffffffffff1663c7bd6c31886040518263ffffffff1660e01b81526004016103e79190611a81565b60206040518083038186803b1580156103ff57600080fd5b505afa158015610413573d6000803e3d6000fd5b505050506040513d601f19601f8201168201806040525081019061043791906116f7565b905060006014826104489190611b98565b90506000600890506000600160009054906101000a900473ffffffffffffffffffffffffffffffffffffffff1673ffffffffffffffffffffffffffffffffffffffff16635f273e188b6040518263ffffffff1660e01b81526004016104ad9190611a81565b60206040518083038186803b1580156104c557600080fd5b505afa1580156104d9573d6000803e3d6000fd5b505050506040513d601f19601f820116820180604052508101906104fd91906116f7565b9050600160009054906101000a900473ffffffffffffffffffffffffffffffffffffffff1673ffffffffffffffffffffffffffffffffffffffff16634fc3f41a8b6040518263ffffffff1660e01b815260040161055a9190611a81565b600060405180830381600087803b15801561057457600080fd5b505af1158015610588573d6000803e3d6000fd5b50505050600160009054906101000a900473ffffffffffffffffffffffffffffffffffffffff1673ffffffffffffffffffffffffffffffffffffffff16632d712c768b856040518363ffffffff1660e01b81526004016105e9929190611aee565b600060405180830381600087803b15801561060357600080fd5b505af1158015610617573d6000803e3d6000fd5b50505050600160009054906101000a900473ffffffffffffffffffffffffffffffffffffffff1673ffffffffffffffffffffffffffffffffffffffff1663a6cb826e8b846040518363ffffffff1660e01b8152600401610678929190611aee565b600060405180830381600087803b15801561069257600080fd5b505af11580156106a6573d6000803e3d6000fd5b50505050600181141561075957600260009054906101000a900473ffffffffffffffffffffffffffffffffffffffff1673ffffffffffffffffffffffffffffffffffffffff1663088d85338a6106fa6112ab565b610704601e61130b565b6040518463ffffffff1660e01b815260040161072293929190611988565b600060405180830381600087803b15801561073c57600080fd5b505af1158015610750573d6000803e3d6000fd5b505050506108ab565b600281141561080857600260009054906101000a900473ffffffffffffffffffffffffffffffffffffffff1673ffffffffffffffffffffffffffffffffffffffff1663088d85338a6107a96112ab565b6107b3603c61130b565b6040518463ffffffff1660e01b81526004016107d193929190611988565b600060405180830381600087803b1580156107eb57600080fd5b505af11580156107ff573d6000803e3d6000fd5b505050506108aa565b600260009054906101000a900473ffffffffffffffffffffffffffffffffffffffff1673ffffffffffffffffffffffffffffffffffffffff1663088d85338a61084f6112ab565b610859605a61130b565b6040518463ffffffff1660e01b815260040161087793929190611988565b600060405180830381600087803b15801561089157600080fd5b505af11580156108a5573d6000803e3d6000fd5b505050505b5b600160009054906101000a900473ffffffffffffffffffffffffffffffffffffffff1673ffffffffffffffffffffffffffffffffffffffff166382e408138b60006040518363ffffffff1660e01b8152600401610909929190611a9c565b600060405180830381600087803b15801561092357600080fd5b505af1158015610937573d6000803e3d6000fd5b505050506109458a8a61136c565b50505050505050505050565b8073ffffffffffffffffffffffffffffffffffffffff1660008054906101000a900473ffffffffffffffffffffffffffffffffffffffff1673ffffffffffffffffffffffffffffffffffffffff16636352211e846040518263ffffffff1660e01b81526004016109c19190611a81565b60206040518083038186803b1580156109d957600080fd5b505afa1580156109ed573d6000803e3d6000fd5b505050506040513d601f19601f82011682018060405250810190610a119190611656565b73ffffffffffffffffffffffffffffffffffffffff1614610a67576040517f08c379a0000000000000000000000000000000000000000000000000000000008152600401610a5e90611a01565b60405180910390fd5b6000600160009054906101000a900473ffffffffffffffffffffffffffffffffffffffff1673ffffffffffffffffffffffffffffffffffffffff16635f273e18846040518263ffffffff1660e01b8152600401610ac49190611a81565b60206040518083038186803b158015610adc57600080fd5b505afa158015610af0573d6000803e3d6000fd5b505050506040513d601f19601f82011682018060405250810190610b1491906116f7565b90506000600160009054906101000a900473ffffffffffffffffffffffffffffffffffffffff1673ffffffffffffffffffffffffffffffffffffffff166360e2f2fb856040518263ffffffff1660e01b8152600401610b739190611a81565b60206040518083038186803b158015610b8b57600080fd5b505afa158015610b9f573d6000803e3d6000fd5b505050506040513d601f19601f82011682018060405250810190610bc391906116f7565b90506000600160009054906101000a900473ffffffffffffffffffffffffffffffffffffffff1673ffffffffffffffffffffffffffffffffffffffff1663c7bd6c31866040518263ffffffff1660e01b8152600401610c229190611a81565b60206040518083038186803b158015610c3a57600080fd5b505afa158015610c4e573d6000803e3d6000fd5b505050506040513d601f19601f82011682018060405250810190610c7291906116f7565b90506000600160009054906101000a900473ffffffffffffffffffffffffffffffffffffffff1673ffffffffffffffffffffffffffffffffffffffff16634d85cebf876040518263ffffffff1660e01b8152600401610cd19190611a81565b60206040518083038186803b158015610ce957600080fd5b505afa158015610cfd573d6000803e3d6000fd5b505050506040513d601f19601f82011682018060405250810190610d2191906116f7565b905060008314610d66576040517f08c379a0000000000000000000000000000000000000000000000000000000008152600401610d5d90611a61565b60405180910390fd5b60008114610da9576040517f08c379a0000000000000000000000000000000000000000000000000000000008152600401610da090611a21565b60405180910390fd5b6014821015610ded576040517f08c379a0000000000000000000000000000000000000000000000000000000008152600401610de490611a41565b60405180910390fd5b600160009054906101000a900473ffffffffffffffffffffffffffffffffffffffff1673ffffffffffffffffffffffffffffffffffffffff166382e408138760036040518363ffffffff1660e01b8152600401610e4b929190611ac5565b600060405180830381600087803b158015610e6557600080fd5b505af1158015610e79573d6000803e3d6000fd5b50505050600460008673ffffffffffffffffffffffffffffffffffffffff1673ffffffffffffffffffffffffffffffffffffffff16815260200190815260200160002086908060018154018082558091505060019003906000526020600020016000909190919091505560405180606001604052808781526020014281526020013373ffffffffffffffffffffffffffffffffffffffff16815250600560008773ffffffffffffffffffffffffffffffffffffffff1673ffffffffffffffffffffffffffffffffffffffff1681526020019081526020016000206000888152602001908152602001600020600082015181600001556020820151816001015560408201518160020160006101000a81548173ffffffffffffffffffffffffffffffffffffffff021916908373ffffffffffffffffffffffffffffffffffffffff160217905550905050505050505050565b6005602052816000526040600020602052806000526040600020600091509150508060000154908060010154908060020160009054906101000a900473ffffffffffffffffffffffffffffffffffffffff16905083565b60606000600460008473ffffffffffffffffffffffffffffffffffffffff1673ffffffffffffffffffffffffffffffffffffffff1681526020019081526020016000208054806020026020016040519081016040528092919081815260200182805480156110ae57602002820191906000526020600020905b81548152602001906001019080831161109a575b505050505090506000815167ffffffffffffffff8111156110f8577f4e487b7100000000000000000000000000000000000000000000000000000000600052604160045260246000fd5b60405190808252806020026020018201604052801561113157816020015b61111e6115a2565b8152602001906001900390816111165790505b50905060005b82518110156112a057600083828151811061117b577f4e487b7100000000000000000000000000000000000000000000000000000000600052603260045260246000fd5b60200260200101519050600560008773ffffffffffffffffffffffffffffffffffffffff1673ffffffffffffffffffffffffffffffffffffffff168152602001908152602001600020600082815260200190815260200160002060405180606001604052908160008201548152602001600182015481526020016002820160009054906101000a900473ffffffffffffffffffffffffffffffffffffffff1673ffffffffffffffffffffffffffffffffffffffff1673ffffffffffffffffffffffffffffffffffffffff1681525050838381518110611283577f4e487b7100000000000000000000000000000000000000000000000000000000600052603260045260246000fd5b6020026020010181905250508061129990611c2c565b9050611137565b508092505050919050565b600080606442336003546040516020016112c79392919061194b565b6040516020818303038152906040528051906020012060001c6112ea9190611ca3565b9050600360008154809291906112ff90611c2c565b91905055508091505090565b6000808242336003546040516020016113269392919061194b565b6040516020818303038152906040528051906020012060001c6113499190611ca3565b90506003600081548092919061135e90611c2c565b919050555080915050919050565b600080600460008473ffffffffffffffffffffffffffffffffffffffff1673ffffffffffffffffffffffffffffffffffffffff16815260200190815260200160002090506000600560008573ffffffffffffffffffffffffffffffffffffffff1673ffffffffffffffffffffffffffffffffffffffff168152602001908152602001600020600086815260200190815260200160002090506000828054905090508160020160006101000a81549073ffffffffffffffffffffffffffffffffffffffff02191690558160010160009055816000016000905560005b818110156114b557600084828154811061148a577f4e487b7100000000000000000000000000000000000000000000000000000000600052603260045260246000fd5b90600052602060002001549050878114156114a3578195505b50806114ae90611c2c565b9050611447565b50826001826114c49190611b98565b815481106114fb577f4e487b7100000000000000000000000000000000000000000000000000000000600052603260045260246000fd5b906000526020600020015483858154811061153f577f4e487b7100000000000000000000000000000000000000000000000000000000600052603260045260246000fd5b906000526020600020018190555082805480611584577f4e487b7100000000000000000000000000000000000000000000000000000000600052603160045260246000fd5b60019003818190600052602060002001600090559055505050505050565b60405180606001604052806000815260200160008152602001600073ffffffffffffffffffffffffffffffffffffffff1681525090565b6000813590506115e881611e32565b92915050565b6000815190506115fd81611e32565b92915050565b60008135905061161281611e49565b92915050565b60008151905061162781611e49565b92915050565b60006020828403121561163f57600080fd5b600061164d848285016115d9565b91505092915050565b60006020828403121561166857600080fd5b6000611676848285016115ee565b91505092915050565b6000806040838503121561169257600080fd5b60006116a0858286016115d9565b92505060206116b1858286016115d9565b9150509250929050565b600080604083850312156116ce57600080fd5b60006116dc858286016115d9565b92505060206116ed85828601611603565b9150509250929050565b60006020828403121561170957600080fd5b600061171784828501611618565b91505092915050565b6000806040838503121561173357600080fd5b600061174185828601611603565b9250506020611752858286016115d9565b9150509250929050565b600061176883836118d4565b60608301905092915050565b61177d81611bcc565b82525050565b61178c81611bcc565b82525050565b6117a361179e82611bcc565b611c75565b82525050565b60006117b482611b5e565b6117be8185611b76565b93506117c983611b4e565b8060005b838110156117fa5781516117e1888261175c565b97506117ec83611b69565b9250506001810190506117cd565b5085935050505092915050565b61181081611c08565b82525050565b61181f81611c1a565b82525050565b6000611832601183611b87565b915061183d82611d3f565b602082019050919050565b6000611855601583611b87565b915061186082611d68565b602082019050919050565b6000611878601f83611b87565b915061188382611d91565b602082019050919050565b600061189b601183611b87565b91506118a682611dba565b602082019050919050565b60006118be602783611b87565b91506118c982611de3565b604082019050919050565b6060820160008201516118ea6000850182611916565b5060208201516118fd6020850182611916565b5060408201516119106040850182611774565b50505050565b61191f81611bfe565b82525050565b61192e81611bfe565b82525050565b61194561194082611bfe565b611c99565b82525050565b60006119578286611934565b6020820191506119678285611792565b6014820191506119778284611934565b602082019150819050949350505050565b600060608201905061199d6000830186611783565b6119aa6020830185611925565b6119b76040830184611925565b949350505050565b600060208201905081810360008301526119d981846117a9565b905092915050565b600060208201905081810360008301526119fa81611825565b9050919050565b60006020820190508181036000830152611a1a81611848565b9050919050565b60006020820190508181036000830152611a3a8161186b565b9050919050565b60006020820190508181036000830152611a5a8161188e565b9050919050565b60006020820190508181036000830152611a7a816118b1565b9050919050565b6000602082019050611a966000830184611925565b92915050565b6000604082019050611ab16000830185611925565b611abe6020830184611807565b9392505050565b6000604082019050611ada6000830185611925565b611ae76020830184611816565b9392505050565b6000604082019050611b036000830185611925565b611b106020830184611925565b9392505050565b6000606082019050611b2c6000830186611925565b611b396020830185611925565b611b466040830184611783565b949350505050565b6000819050602082019050919050565b600081519050919050565b6000602082019050919050565b600082825260208201905092915050565b600082825260208201905092915050565b6000611ba382611bfe565b9150611bae83611bfe565b925082821015611bc157611bc0611cd4565b5b828203905092915050565b6000611bd782611bde565b9050919050565b600073ffffffffffffffffffffffffffffffffffffffff82169050919050565b6000819050919050565b6000611c1382611bfe565b9050919050565b6000611c2582611bfe565b9050919050565b6000611c3782611bfe565b91507fffffffffffffffffffffffffffffffffffffffffffffffffffffffffffffffff821415611c6a57611c69611cd4565b5b600182019050919050565b6000611c8082611c87565b9050919050565b6000611c9282611d32565b9050919050565b6000819050919050565b6000611cae82611bfe565b9150611cb983611bfe565b925082611cc957611cc8611d03565b5b828206905092915050565b7f4e487b7100000000000000000000000000000000000000000000000000000000600052601160045260246000fd5b7f4e487b7100000000000000000000000000000000000000000000000000000000600052601260045260246000fd5b60008160601b9050919050565b7f4d6f6e73746572204e6f7420466f756e64000000000000000000000000000000600082015250565b7f49742773206e6f7420796f7572206d6f6e737465720000000000000000000000600082015250565b7f20596f7572206d6f6e73746572207374696c6c206f6e20636f6f6c646f776e00600082015250565b7f4e6f7420656e6f7567682068756e676572000000000000000000000000000000600082015250565b7f596f7572206d6f6e73746572207374696c6c20776f726b696e67206f6e20736f60008201527f6d657468696e6700000000000000000000000000000000000000000000000000602082015250565b611e3b81611bcc565b8114611e4657600080fd5b50565b611e5281611bfe565b8114611e5d57600080fd5b5056fea2646970667358221220f596aabfbd182b9ffbb32403ee0311bee00a72436f67e21bbd42e35b4482f46364736f6c63430008040033",
  "linkReferences": {},
  "deployedLinkReferences": {}
}