{
  "_format": "hh-sol-artifact-1",
  "contractName": "Dungeon",
  "sourceName": "contracts/Dungeon.sol",
  "abi": [
    {
      "inputs": [
        {
          "internalType": "bool",
          "name": "_status",
          "type": "bool"
        }
      ],
      "name": "IsDungeoning",
      "type": "error"
    },
    {
      "inputs": [
        {
          "internalType": "uint256",
          "name": "_amount",
          "type": "uint256"
        },
        {
          "internalType": "uint256",
          "name": "_limit",
          "type": "uint256"
        }
      ],
      "name": "MonstersAmountNotValid",
      "type": "error"
    },
    {
      "inputs": [
        {
          "internalType": "bool",
          "name": "_status",
          "type": "bool"
        }
      ],
      "name": "NotDungeoning",
      "type": "error"
    },
    {
      "inputs": [
        {
          "internalType": "uint256",
          "name": "_status",
          "type": "uint256"
        },
        {
          "internalType": "uint256",
          "name": "_cooldown",
          "type": "uint256"
        },
        {
          "internalType": "uint256",
          "name": "_energy",
          "type": "uint256"
        }
      ],
      "name": "NotValidToDungeon",
      "type": "error"
    },
    {
      "inputs": [
        {
          "internalType": "uint256",
          "name": "_timeElapsed",
          "type": "uint256"
        },
        {
          "internalType": "uint256",
          "name": "_timeNow",
          "type": "uint256"
        }
      ],
      "name": "NotValidToFinishDungeon",
      "type": "error"
    },
    {
      "anonymous": false,
      "inputs": [
        {
          "indexed": true,
          "internalType": "address",
          "name": "previousOwner",
          "type": "address"
        },
        {
          "indexed": true,
          "internalType": "address",
          "name": "newOwner",
          "type": "address"
        }
      ],
      "name": "OwnershipTransferred",
      "type": "event"
    },
    {
      "inputs": [
        {
          "internalType": "address",
          "name": "",
          "type": "address"
        }
      ],
      "name": "dungeoningStatus",
      "outputs": [
        {
          "internalType": "bool",
          "name": "",
          "type": "bool"
        }
      ],
      "stateMutability": "view",
      "type": "function"
    },
    {
      "inputs": [],
      "name": "finishDungeon",
      "outputs": [],
      "stateMutability": "nonpayable",
      "type": "function"
    },
    {
      "inputs": [
        {
          "internalType": "address",
          "name": "_user",
          "type": "address"
        }
      ],
      "name": "getMonstersOnDungeon",
      "outputs": [
        {
          "internalType": "uint256[]",
          "name": "_monsters",
          "type": "uint256[]"
        }
      ],
      "stateMutability": "view",
      "type": "function"
    },
    {
      "inputs": [],
      "name": "itemInterface",
      "outputs": [
        {
          "internalType": "contract IItems",
          "name": "",
          "type": "address"
        }
      ],
      "stateMutability": "view",
      "type": "function"
    },
    {
      "inputs": [],
      "name": "monstersInterface",
      "outputs": [
        {
          "internalType": "contract IMonster",
          "name": "",
          "type": "address"
        }
      ],
      "stateMutability": "view",
      "type": "function"
    },
    {
      "inputs": [
        {
          "internalType": "address",
          "name": "",
          "type": "address"
        }
      ],
      "name": "monstersOnDungeon",
      "outputs": [
        {
          "internalType": "uint8",
          "name": "monstersAmount",
          "type": "uint8"
        },
        {
          "internalType": "uint64",
          "name": "startTime",
          "type": "uint64"
        },
        {
          "internalType": "address",
          "name": "owner",
          "type": "address"
        }
      ],
      "stateMutability": "view",
      "type": "function"
    },
    {
      "inputs": [],
      "name": "owner",
      "outputs": [
        {
          "internalType": "address",
          "name": "",
          "type": "address"
        }
      ],
      "stateMutability": "view",
      "type": "function"
    },
    {
      "inputs": [],
      "name": "renounceOwnership",
      "outputs": [],
      "stateMutability": "nonpayable",
      "type": "function"
    },
    {
      "inputs": [
        {
          "internalType": "address",
          "name": "_monstersContract",
          "type": "address"
        },
        {
          "internalType": "address",
          "name": "_itemsContract",
          "type": "address"
        },
        {
          "internalType": "address",
          "name": "_usersDataContract",
          "type": "address"
        }
      ],
      "name": "setInterface",
      "outputs": [],
      "stateMutability": "nonpayable",
      "type": "function"
    },
    {
      "inputs": [
        {
          "internalType": "uint256[]",
          "name": "_monsters",
          "type": "uint256[]"
        }
      ],
      "name": "startDungeon",
      "outputs": [],
      "stateMutability": "nonpayable",
      "type": "function"
    },
    {
      "inputs": [
        {
          "internalType": "address",
          "name": "newOwner",
          "type": "address"
        }
      ],
      "name": "transferOwnership",
      "outputs": [],
      "stateMutability": "nonpayable",
      "type": "function"
    },
    {
      "inputs": [],
      "name": "usersDataInterface",
      "outputs": [
        {
          "internalType": "contract IUsersData",
          "name": "",
          "type": "address"
        }
      ],
      "stateMutability": "view",
      "type": "function"
    }
  ],
  "bytecode": "0x608060405234801561001057600080fd5b5061002d61002261003260201b60201c565b61003a60201b60201c565b6100fe565b600033905090565b60008060009054906101000a900473ffffffffffffffffffffffffffffffffffffffff169050816000806101000a81548173ffffffffffffffffffffffffffffffffffffffff021916908373ffffffffffffffffffffffffffffffffffffffff1602179055508173ffffffffffffffffffffffffffffffffffffffff168173ffffffffffffffffffffffffffffffffffffffff167f8be0079c531659141344cd1fd0a4f28419497f9722a3daafe3b4186f6b6457e060405160405180910390a35050565b6122fa806200010e6000396000f3fe608060405234801561001057600080fd5b50600436106100b45760003560e01c8063827532f811610071578063827532f8146101695780638da5cb5b1461019b578063aa5637e3146101b9578063accd55a1146101e9578063f2c2453014610205578063f2fde38b1461020f576100b4565b80631863ce3e146100b95780633de8f561146100d75780635805c10c146101075780636d3e125f14610123578063715018a6146101415780637fb2db161461014b575b600080fd5b6100c161022b565b6040516100ce9190611cc0565b60405180910390f35b6100f160048036038101906100ec9190611955565b610251565b6040516100fe9190611c83565b60405180910390f35b610121600480360381019061011c91906119f6565b6103b5565b005b61012b610b82565b6040516101389190611cdb565b60405180910390f35b610149610ba8565b005b610153610c30565b6040516101609190611cf6565b60405180910390f35b610183600480360381019061017e9190611955565b610c56565b60405161019293929190611e8c565b60405180910390f35b6101a3610cc1565b6040516101b09190611c68565b60405180910390f35b6101d360048036038101906101ce9190611955565b610cea565b6040516101e09190611ca5565b60405180910390f35b61020360048036038101906101fe91906119a7565b610d0a565b005b61020d610e4e565b005b61022960048036038101906102249190611955565b6114df565b005b600260009054906101000a900473ffffffffffffffffffffffffffffffffffffffff1681565b60606000600560008473ffffffffffffffffffffffffffffffffffffffff1673ffffffffffffffffffffffffffffffffffffffff168152602001908152602001600020905060008160000160009054906101000a900460ff1660ff1690508067ffffffffffffffff8111156102ef577f4e487b7100000000000000000000000000000000000000000000000000000000600052604160045260246000fd5b60405190808252806020026020018201604052801561031d5781602001602082028036833780820191505090505b50925060005b818110156103ad57600083600101600083815260200190815260200160002060009054906101000a900460ff1660ff1690508085838151811061038f577f4e487b7100000000000000000000000000000000000000000000000000000000600052603260045260246000fd5b60200260200101818152505050806103a6906120f4565b9050610323565b505050919050565b6000600660003373ffffffffffffffffffffffffffffffffffffffff1673ffffffffffffffffffffffffffffffffffffffff16815260200190815260200160002060009054906101000a900460ff169050801561044957806040517f91d24c890000000000000000000000000000000000000000000000000000000081526004016104409190611ca5565b60405180910390fd5b600360009054906101000a900473ffffffffffffffffffffffffffffffffffffffff1673ffffffffffffffffffffffffffffffffffffffff1663f5d8bcb4336040518263ffffffff1660e01b81526004016104a49190611c68565b60006040518083038186803b1580156104bc57600080fd5b505afa1580156104d0573d6000803e3d6000fd5b505050506006838390501115610523578282905060066040517f2f0e817c00000000000000000000000000000000000000000000000000000000815260040161051a929190611e03565b60405180910390fd5b6000600560003373ffffffffffffffffffffffffffffffffffffffff1673ffffffffffffffffffffffffffffffffffffffff168152602001908152602001600020905060005b84849050811015610a955760008585838181106105af577f4e487b7100000000000000000000000000000000000000000000000000000000600052603260045260246000fd5b9050602002013590506000600160009054906101000a900473ffffffffffffffffffffffffffffffffffffffff1673ffffffffffffffffffffffffffffffffffffffff16635f273e18836040518263ffffffff1660e01b81526004016106159190611d51565b60206040518083038186803b15801561062d57600080fd5b505afa158015610641573d6000803e3d6000fd5b505050506040513d601f19601f820116820180604052508101906106659190611a3b565b90506000600160009054906101000a900473ffffffffffffffffffffffffffffffffffffffff1673ffffffffffffffffffffffffffffffffffffffff166360e2f2fb846040518263ffffffff1660e01b81526004016106c49190611d51565b60206040518083038186803b1580156106dc57600080fd5b505afa1580156106f0573d6000803e3d6000fd5b505050506040513d601f19601f820116820180604052508101906107149190611a3b565b90506000600160009054906101000a900473ffffffffffffffffffffffffffffffffffffffff1673ffffffffffffffffffffffffffffffffffffffff166389375b7c856040518263ffffffff1660e01b81526004016107739190611d51565b60206040518083038186803b15801561078b57600080fd5b505afa15801561079f573d6000803e3d6000fd5b505050506040513d601f19601f820116820180604052508101906107c39190611a3b565b90506000600160009054906101000a900473ffffffffffffffffffffffffffffffffffffffff1673ffffffffffffffffffffffffffffffffffffffff16634d85cebf866040518263ffffffff1660e01b81526004016108229190611d51565b60206040518083038186803b15801561083a57600080fd5b505afa15801561084e573d6000803e3d6000fd5b505050506040513d601f19601f820116820180604052508101906108729190611a64565b63ffffffff1690506000600160009054906101000a900473ffffffffffffffffffffffffffffffffffffffff1673ffffffffffffffffffffffffffffffffffffffff166360aeb8e9876040518263ffffffff1660e01b81526004016108d79190611d51565b60206040518083038186803b1580156108ef57600080fd5b505afa158015610903573d6000803e3d6000fd5b505050506040513d601f19601f82011682018060405250810190610927919061197e565b905060008414158061093857504282115b8061096f57503373ffffffffffffffffffffffffffffffffffffffff168173ffffffffffffffffffffffffffffffffffffffff1614155b8061097a5750601483105b156109c0578382846040517fff03d0c90000000000000000000000000000000000000000000000000000000081526004016109b793929190611e55565b60405180910390fd5b600160009054906101000a900473ffffffffffffffffffffffffffffffffffffffff1673ffffffffffffffffffffffffffffffffffffffff166382e408138760036040518363ffffffff1660e01b8152600401610a1e929190611dda565b600060405180830381600087803b158015610a3857600080fd5b505af1158015610a4c573d6000803e3d6000fd5b505050508588600101600089815260200190815260200160002060006101000a81548160ff021916908360ff16021790555050505050505080610a8e906120f4565b9050610569565b50838390508160000160006101000a81548160ff021916908360ff160217905550338160020160086101000a81548173ffffffffffffffffffffffffffffffffffffffff021916908373ffffffffffffffffffffffffffffffffffffffff160217905550428160020160006101000a81548167ffffffffffffffff021916908367ffffffffffffffff1602179055506001600660003373ffffffffffffffffffffffffffffffffffffffff1673ffffffffffffffffffffffffffffffffffffffff16815260200190815260200160002060006101000a81548160ff02191690831515021790555050505050565b600160009054906101000a900473ffffffffffffffffffffffffffffffffffffffff1681565b610bb06115d7565b73ffffffffffffffffffffffffffffffffffffffff16610bce610cc1565b73ffffffffffffffffffffffffffffffffffffffff1614610c24576040517f08c379a0000000000000000000000000000000000000000000000000000000008152600401610c1b90611d31565b60405180910390fd5b610c2e60006115df565b565b600360009054906101000a900473ffffffffffffffffffffffffffffffffffffffff1681565b60056020528060005260406000206000915090508060000160009054906101000a900460ff16908060020160009054906101000a900467ffffffffffffffff16908060020160089054906101000a900473ffffffffffffffffffffffffffffffffffffffff16905083565b60008060009054906101000a900473ffffffffffffffffffffffffffffffffffffffff16905090565b60066020528060005260406000206000915054906101000a900460ff1681565b610d126115d7565b73ffffffffffffffffffffffffffffffffffffffff16610d30610cc1565b73ffffffffffffffffffffffffffffffffffffffff1614610d86576040517f08c379a0000000000000000000000000000000000000000000000000000000008152600401610d7d90611d31565b60405180910390fd5b82600160006101000a81548173ffffffffffffffffffffffffffffffffffffffff021916908373ffffffffffffffffffffffffffffffffffffffff16021790555081600260006101000a81548173ffffffffffffffffffffffffffffffffffffffff021916908373ffffffffffffffffffffffffffffffffffffffff16021790555080600360006101000a81548173ffffffffffffffffffffffffffffffffffffffff021916908373ffffffffffffffffffffffffffffffffffffffff160217905550505050565b6000600660003373ffffffffffffffffffffffffffffffffffffffff1673ffffffffffffffffffffffffffffffffffffffff16815260200190815260200160002060009054906101000a900460ff16905080610ee157806040517f0e6c6efc000000000000000000000000000000000000000000000000000000008152600401610ed89190611ca5565b60405180910390fd5b6000600560003373ffffffffffffffffffffffffffffffffffffffff1673ffffffffffffffffffffffffffffffffffffffff16815260200190815260200160002090506000610f2f33610251565b905060006008905060006107088460020160009054906101000a900467ffffffffffffffff16610f5f9190611f0d565b67ffffffffffffffff16905042811115610fb25780426040517fa0253673000000000000000000000000000000000000000000000000000000008152600401610fa9929190611e2c565b60405180910390fd5b60005b8351811015611476576000848281518110610ff9577f4e487b7100000000000000000000000000000000000000000000000000000000600052603260045260246000fd5b602002602001015190506000600160009054906101000a900473ffffffffffffffffffffffffffffffffffffffff1673ffffffffffffffffffffffffffffffffffffffff166389375b7c836040518263ffffffff1660e01b81526004016110609190611d51565b60206040518083038186803b15801561107857600080fd5b505afa15801561108c573d6000803e3d6000fd5b505050506040513d601f19601f820116820180604052508101906110b09190611a3b565b905060006014826110c19190611fa5565b90506000600160009054906101000a900473ffffffffffffffffffffffffffffffffffffffff1673ffffffffffffffffffffffffffffffffffffffff16635f273e18856040518263ffffffff1660e01b81526004016111209190611d51565b60206040518083038186803b15801561113857600080fd5b505afa15801561114c573d6000803e3d6000fd5b505050506040513d601f19601f820116820180604052508101906111709190611a3b565b90506000611189601e836111849190611f4b565b6116a3565b9050600160009054906101000a900473ffffffffffffffffffffffffffffffffffffffff1673ffffffffffffffffffffffffffffffffffffffff16634fc3f41a866040518263ffffffff1660e01b81526004016111e69190611d51565b600060405180830381600087803b15801561120057600080fd5b505af1158015611214573d6000803e3d6000fd5b50505050600160009054906101000a900473ffffffffffffffffffffffffffffffffffffffff1673ffffffffffffffffffffffffffffffffffffffff1663ae153e3e86856040518363ffffffff1660e01b8152600401611275929190611e2c565b600060405180830381600087803b15801561128f57600080fd5b505af11580156112a3573d6000803e3d6000fd5b50505050600160009054906101000a900473ffffffffffffffffffffffffffffffffffffffff1673ffffffffffffffffffffffffffffffffffffffff1663a6cb826e868a6040518363ffffffff1660e01b8152600401611304929190611e2c565b600060405180830381600087803b15801561131e57600080fd5b505af1158015611332573d6000803e3d6000fd5b50505050600260009054906101000a900473ffffffffffffffffffffffffffffffffffffffff1673ffffffffffffffffffffffffffffffffffffffff166372846ea5863361137e611704565b856040518563ffffffff1660e01b815260040161139e9493929190611d6c565b600060405180830381600087803b1580156113b857600080fd5b505af11580156113cc573d6000803e3d6000fd5b50505050600160009054906101000a900473ffffffffffffffffffffffffffffffffffffffff1673ffffffffffffffffffffffffffffffffffffffff166382e408138660006040518363ffffffff1660e01b815260040161142e929190611db1565b600060405180830381600087803b15801561144857600080fd5b505af115801561145c573d6000803e3d6000fd5b5050505050505050508061146f906120f4565b9050610fb5565b5061148033611764565b6000600660003373ffffffffffffffffffffffffffffffffffffffff1673ffffffffffffffffffffffffffffffffffffffff16815260200190815260200160002060006101000a81548160ff0219169083151502179055505050505050565b6114e76115d7565b73ffffffffffffffffffffffffffffffffffffffff16611505610cc1565b73ffffffffffffffffffffffffffffffffffffffff161461155b576040517f08c379a000000000000000000000000000000000000000000000000000000000815260040161155290611d31565b60405180910390fd5b600073ffffffffffffffffffffffffffffffffffffffff168173ffffffffffffffffffffffffffffffffffffffff1614156115cb576040517f08c379a00000000000000000000000000000000000000000000000000000000081526004016115c290611d11565b60405180910390fd5b6115d4816115df565b50565b600033905090565b60008060009054906101000a900473ffffffffffffffffffffffffffffffffffffffff169050816000806101000a81548173ffffffffffffffffffffffffffffffffffffffff021916908373ffffffffffffffffffffffffffffffffffffffff1602179055508173ffffffffffffffffffffffffffffffffffffffff168173ffffffffffffffffffffffffffffffffffffffff167f8be0079c531659141344cd1fd0a4f28419497f9722a3daafe3b4186f6b6457e060405160405180910390a35050565b6000808242336004546040516020016116be93929190611c2b565b6040516020818303038152906040528051906020012060001c6116e1919061216b565b9050600460008154809291906116f6906120f4565b919050555080915050919050565b6000806064423360045460405160200161172093929190611c2b565b6040516020818303038152906040528051906020012060001c611743919061216b565b905060046000815480929190611758906120f4565b91905055508091505090565b6000600560008373ffffffffffffffffffffffffffffffffffffffff1673ffffffffffffffffffffffffffffffffffffffff16815260200190815260200160002090508060000160006101000a81549060ff02191690558060020160086101000a81549073ffffffffffffffffffffffffffffffffffffffff02191690558060020160006101000a81549067ffffffffffffffff02191690556118068261180a565b5050565b6000600560008373ffffffffffffffffffffffffffffffffffffffff1673ffffffffffffffffffffffffffffffffffffffff168152602001908152602001600020905060008160000160009054906101000a900460ff1660ff16905060005b818110156118b157600083600101600083815260200190815260200160002060009054906101000a900460ff1660ff1690506000905050806118aa906120f4565b9050611869565b50505050565b6000813590506118c68161227f565b92915050565b6000815190506118db8161227f565b92915050565b60008083601f8401126118f357600080fd5b8235905067ffffffffffffffff81111561190c57600080fd5b60208301915083602082028301111561192457600080fd5b9250929050565b60008151905061193a81612296565b92915050565b60008151905061194f816122ad565b92915050565b60006020828403121561196757600080fd5b6000611975848285016118b7565b91505092915050565b60006020828403121561199057600080fd5b600061199e848285016118cc565b91505092915050565b6000806000606084860312156119bc57600080fd5b60006119ca868287016118b7565b93505060206119db868287016118b7565b92505060406119ec868287016118b7565b9150509250925092565b60008060208385031215611a0957600080fd5b600083013567ffffffffffffffff811115611a2357600080fd5b611a2f858286016118e1565b92509250509250929050565b600060208284031215611a4d57600080fd5b6000611a5b8482850161192b565b91505092915050565b600060208284031215611a7657600080fd5b6000611a8484828501611940565b91505092915050565b6000611a998383611bd8565b60208301905092915050565b611aae81611fd9565b82525050565b611ac5611ac082611fd9565b61213d565b82525050565b6000611ad682611ed3565b611ae08185611eeb565b9350611aeb83611ec3565b8060005b83811015611b1c578151611b038882611a8d565b9750611b0e83611ede565b925050600181019050611aef565b5085935050505092915050565b611b3281611feb565b82525050565b611b4181612052565b82525050565b611b5081612076565b82525050565b611b5f8161209a565b82525050565b611b6e816120be565b82525050565b611b7d816120d0565b82525050565b611b8c816120e2565b82525050565b6000611b9f602683611efc565b9150611baa82612207565b604082019050919050565b6000611bc2602083611efc565b9150611bcd82612256565b602082019050919050565b611be181612017565b82525050565b611bf081612017565b82525050565b611c07611c0282612017565b612161565b82525050565b611c1681612031565b82525050565b611c2581612045565b82525050565b6000611c378286611bf6565b602082019150611c478285611ab4565b601482019150611c578284611bf6565b602082019150819050949350505050565b6000602082019050611c7d6000830184611aa5565b92915050565b60006020820190508181036000830152611c9d8184611acb565b905092915050565b6000602082019050611cba6000830184611b29565b92915050565b6000602082019050611cd56000830184611b38565b92915050565b6000602082019050611cf06000830184611b47565b92915050565b6000602082019050611d0b6000830184611b56565b92915050565b60006020820190508181036000830152611d2a81611b92565b9050919050565b60006020820190508181036000830152611d4a81611bb5565b9050919050565b6000602082019050611d666000830184611be7565b92915050565b6000608082019050611d816000830187611be7565b611d8e6020830186611aa5565b611d9b6040830185611be7565b611da86060830184611be7565b95945050505050565b6000604082019050611dc66000830185611be7565b611dd36020830184611b65565b9392505050565b6000604082019050611def6000830185611be7565b611dfc6020830184611b74565b9392505050565b6000604082019050611e186000830185611be7565b611e256020830184611b83565b9392505050565b6000604082019050611e416000830185611be7565b611e4e6020830184611be7565b9392505050565b6000606082019050611e6a6000830186611be7565b611e776020830185611be7565b611e846040830184611be7565b949350505050565b6000606082019050611ea16000830186611c1c565b611eae6020830185611c0d565b611ebb6040830184611aa5565b949350505050565b6000819050602082019050919050565b600081519050919050565b6000602082019050919050565b600082825260208201905092915050565b600082825260208201905092915050565b6000611f1882612031565b9150611f2383612031565b92508267ffffffffffffffff03821115611f4057611f3f61219c565b5b828201905092915050565b6000611f5682612017565b9150611f6183612017565b9250817fffffffffffffffffffffffffffffffffffffffffffffffffffffffffffffffff0483118215151615611f9a57611f9961219c565b5b828202905092915050565b6000611fb082612017565b9150611fbb83612017565b925082821015611fce57611fcd61219c565b5b828203905092915050565b6000611fe482611ff7565b9050919050565b60008115159050919050565b600073ffffffffffffffffffffffffffffffffffffffff82169050919050565b6000819050919050565b600063ffffffff82169050919050565b600067ffffffffffffffff82169050919050565b600060ff82169050919050565b600061205d82612064565b9050919050565b600061206f82611ff7565b9050919050565b600061208182612088565b9050919050565b600061209382611ff7565b9050919050565b60006120a5826120ac565b9050919050565b60006120b782611ff7565b9050919050565b60006120c982612017565b9050919050565b60006120db82612017565b9050919050565b60006120ed82612017565b9050919050565b60006120ff82612017565b91507fffffffffffffffffffffffffffffffffffffffffffffffffffffffffffffffff8214156121325761213161219c565b5b600182019050919050565b60006121488261214f565b9050919050565b600061215a826121fa565b9050919050565b6000819050919050565b600061217682612017565b915061218183612017565b925082612191576121906121cb565b5b828206905092915050565b7f4e487b7100000000000000000000000000000000000000000000000000000000600052601160045260246000fd5b7f4e487b7100000000000000000000000000000000000000000000000000000000600052601260045260246000fd5b60008160601b9050919050565b7f4f776e61626c653a206e6577206f776e657220697320746865207a65726f206160008201527f6464726573730000000000000000000000000000000000000000000000000000602082015250565b7f4f776e61626c653a2063616c6c6572206973206e6f7420746865206f776e6572600082015250565b61228881611fd9565b811461229357600080fd5b50565b61229f81612017565b81146122aa57600080fd5b50565b6122b681612021565b81146122c157600080fd5b5056fea264697066735822122029d214b9e2a49b62c0f900cbec58a7e388dc8832c17469387272a1c8591f028564736f6c63430008040033",
  "linkReferences": {},
  "deployedLinkReferences": {}
}