{
  "_format": "hh-sol-artifact-1",
  "contractName": "Items",
  "sourceName": "contracts/Items.sol",
  "abi": [
    {
      "inputs": [
        {
          "internalType": "address",
          "name": "monsterGame",
          "type": "address"
        }
      ],
      "stateMutability": "nonpayable",
      "type": "constructor"
    },
    {
      "anonymous": false,
      "inputs": [
        {
          "indexed": true,
          "internalType": "address",
          "name": "account",
          "type": "address"
        },
        {
          "indexed": true,
          "internalType": "address",
          "name": "operator",
          "type": "address"
        },
        {
          "indexed": false,
          "internalType": "bool",
          "name": "approved",
          "type": "bool"
        }
      ],
      "name": "ApprovalForAll",
      "type": "event"
    },
    {
      "anonymous": false,
      "inputs": [
        {
          "indexed": true,
          "internalType": "address",
          "name": "operator",
          "type": "address"
        },
        {
          "indexed": true,
          "internalType": "address",
          "name": "from",
          "type": "address"
        },
        {
          "indexed": true,
          "internalType": "address",
          "name": "to",
          "type": "address"
        },
        {
          "indexed": false,
          "internalType": "uint256[]",
          "name": "ids",
          "type": "uint256[]"
        },
        {
          "indexed": false,
          "internalType": "uint256[]",
          "name": "values",
          "type": "uint256[]"
        }
      ],
      "name": "TransferBatch",
      "type": "event"
    },
    {
      "anonymous": false,
      "inputs": [
        {
          "indexed": true,
          "internalType": "address",
          "name": "operator",
          "type": "address"
        },
        {
          "indexed": true,
          "internalType": "address",
          "name": "from",
          "type": "address"
        },
        {
          "indexed": true,
          "internalType": "address",
          "name": "to",
          "type": "address"
        },
        {
          "indexed": false,
          "internalType": "uint256",
          "name": "id",
          "type": "uint256"
        },
        {
          "indexed": false,
          "internalType": "uint256",
          "name": "value",
          "type": "uint256"
        }
      ],
      "name": "TransferSingle",
      "type": "event"
    },
    {
      "anonymous": false,
      "inputs": [
        {
          "indexed": false,
          "internalType": "string",
          "name": "value",
          "type": "string"
        },
        {
          "indexed": true,
          "internalType": "uint256",
          "name": "id",
          "type": "uint256"
        }
      ],
      "name": "URI",
      "type": "event"
    },
    {
      "inputs": [
        {
          "internalType": "uint256[]",
          "name": "_items",
          "type": "uint256[]"
        }
      ],
      "name": "addNewItems",
      "outputs": [],
      "stateMutability": "nonpayable",
      "type": "function"
    },
    {
      "inputs": [
        {
          "internalType": "address",
          "name": "account",
          "type": "address"
        },
        {
          "internalType": "uint256",
          "name": "id",
          "type": "uint256"
        }
      ],
      "name": "balanceOf",
      "outputs": [
        {
          "internalType": "uint256",
          "name": "",
          "type": "uint256"
        }
      ],
      "stateMutability": "view",
      "type": "function"
    },
    {
      "inputs": [
        {
          "internalType": "address[]",
          "name": "accounts",
          "type": "address[]"
        },
        {
          "internalType": "uint256[]",
          "name": "ids",
          "type": "uint256[]"
        }
      ],
      "name": "balanceOfBatch",
      "outputs": [
        {
          "internalType": "uint256[]",
          "name": "",
          "type": "uint256[]"
        }
      ],
      "stateMutability": "view",
      "type": "function"
    },
    {
      "inputs": [
        {
          "internalType": "address",
          "name": "_user",
          "type": "address"
        },
        {
          "internalType": "uint256",
          "name": "_odds",
          "type": "uint256"
        }
      ],
      "name": "beginnerMissionReward",
      "outputs": [],
      "stateMutability": "nonpayable",
      "type": "function"
    },
    {
      "inputs": [
        {
          "internalType": "address",
          "name": "_user",
          "type": "address"
        },
        {
          "internalType": "uint256",
          "name": "_odds",
          "type": "uint256"
        },
        {
          "internalType": "uint256",
          "name": "_chance",
          "type": "uint256"
        }
      ],
      "name": "bossFightReward",
      "outputs": [],
      "stateMutability": "nonpayable",
      "type": "function"
    },
    {
      "inputs": [
        {
          "internalType": "uint256",
          "name": "",
          "type": "uint256"
        },
        {
          "internalType": "uint256",
          "name": "",
          "type": "uint256"
        }
      ],
      "name": "bossRateSet",
      "outputs": [
        {
          "internalType": "uint256",
          "name": "",
          "type": "uint256"
        }
      ],
      "stateMutability": "view",
      "type": "function"
    },
    {
      "inputs": [
        {
          "internalType": "uint256",
          "name": "",
          "type": "uint256"
        },
        {
          "internalType": "uint256",
          "name": "",
          "type": "uint256"
        }
      ],
      "name": "bossRewardSet",
      "outputs": [
        {
          "internalType": "uint256",
          "name": "",
          "type": "uint256"
        }
      ],
      "stateMutability": "view",
      "type": "function"
    },
    {
      "inputs": [
        {
          "internalType": "address",
          "name": "_user",
          "type": "address"
        }
      ],
      "name": "getInventory",
      "outputs": [
        {
          "internalType": "uint256[]",
          "name": "inventory",
          "type": "uint256[]"
        }
      ],
      "stateMutability": "view",
      "type": "function"
    },
    {
      "inputs": [],
      "name": "getItems",
      "outputs": [
        {
          "internalType": "uint256[]",
          "name": "_items",
          "type": "uint256[]"
        }
      ],
      "stateMutability": "view",
      "type": "function"
    },
    {
      "inputs": [
        {
          "internalType": "address",
          "name": "_user",
          "type": "address"
        },
        {
          "internalType": "uint256",
          "name": "_odds",
          "type": "uint256"
        }
      ],
      "name": "intermediateMissionReward",
      "outputs": [],
      "stateMutability": "nonpayable",
      "type": "function"
    },
    {
      "inputs": [
        {
          "internalType": "address",
          "name": "account",
          "type": "address"
        },
        {
          "internalType": "address",
          "name": "operator",
          "type": "address"
        }
      ],
      "name": "isApprovedForAll",
      "outputs": [
        {
          "internalType": "bool",
          "name": "",
          "type": "bool"
        }
      ],
      "stateMutability": "view",
      "type": "function"
    },
    {
      "inputs": [
        {
          "internalType": "uint256",
          "name": "",
          "type": "uint256"
        },
        {
          "internalType": "uint256",
          "name": "",
          "type": "uint256"
        }
      ],
      "name": "itemRateSet",
      "outputs": [
        {
          "internalType": "uint256",
          "name": "",
          "type": "uint256"
        }
      ],
      "stateMutability": "view",
      "type": "function"
    },
    {
      "inputs": [
        {
          "internalType": "uint256",
          "name": "",
          "type": "uint256"
        },
        {
          "internalType": "uint256",
          "name": "",
          "type": "uint256"
        }
      ],
      "name": "itemSet",
      "outputs": [
        {
          "internalType": "uint256",
          "name": "",
          "type": "uint256"
        }
      ],
      "stateMutability": "view",
      "type": "function"
    },
    {
      "inputs": [
        {
          "internalType": "address",
          "name": "_user",
          "type": "address"
        },
        {
          "internalType": "uint256[]",
          "name": "_id",
          "type": "uint256[]"
        },
        {
          "internalType": "uint256[]",
          "name": "_quantity",
          "type": "uint256[]"
        }
      ],
      "name": "mintForShop",
      "outputs": [],
      "stateMutability": "nonpayable",
      "type": "function"
    },
    {
      "inputs": [
        {
          "internalType": "address",
          "name": "_user",
          "type": "address"
        },
        {
          "internalType": "uint256",
          "name": "_id",
          "type": "uint256"
        },
        {
          "internalType": "uint256",
          "name": "_quantity",
          "type": "uint256"
        }
      ],
      "name": "mintForTrade",
      "outputs": [],
      "stateMutability": "nonpayable",
      "type": "function"
    },
    {
      "inputs": [
        {
          "internalType": "uint256",
          "name": "_id",
          "type": "uint256"
        },
        {
          "internalType": "uint256[]",
          "name": "_rate",
          "type": "uint256[]"
        }
      ],
      "name": "newItemRatesSet",
      "outputs": [],
      "stateMutability": "nonpayable",
      "type": "function"
    },
    {
      "inputs": [
        {
          "internalType": "uint256",
          "name": "_id",
          "type": "uint256"
        },
        {
          "internalType": "uint256[]",
          "name": "_item",
          "type": "uint256[]"
        }
      ],
      "name": "newItemsSet",
      "outputs": [],
      "stateMutability": "nonpayable",
      "type": "function"
    },
    {
      "inputs": [
        {
          "internalType": "address",
          "name": "from",
          "type": "address"
        },
        {
          "internalType": "address",
          "name": "to",
          "type": "address"
        },
        {
          "internalType": "uint256[]",
          "name": "ids",
          "type": "uint256[]"
        },
        {
          "internalType": "uint256[]",
          "name": "amounts",
          "type": "uint256[]"
        },
        {
          "internalType": "bytes",
          "name": "data",
          "type": "bytes"
        }
      ],
      "name": "safeBatchTransferFrom",
      "outputs": [],
      "stateMutability": "nonpayable",
      "type": "function"
    },
    {
      "inputs": [
        {
          "internalType": "address",
          "name": "from",
          "type": "address"
        },
        {
          "internalType": "address",
          "name": "to",
          "type": "address"
        },
        {
          "internalType": "uint256",
          "name": "id",
          "type": "uint256"
        },
        {
          "internalType": "uint256",
          "name": "amount",
          "type": "uint256"
        },
        {
          "internalType": "bytes",
          "name": "data",
          "type": "bytes"
        }
      ],
      "name": "safeTransferFrom",
      "outputs": [],
      "stateMutability": "nonpayable",
      "type": "function"
    },
    {
      "inputs": [
        {
          "internalType": "address",
          "name": "operator",
          "type": "address"
        },
        {
          "internalType": "bool",
          "name": "approved",
          "type": "bool"
        }
      ],
      "name": "setApprovalForAll",
      "outputs": [],
      "stateMutability": "nonpayable",
      "type": "function"
    },
    {
      "inputs": [
        {
          "internalType": "bytes4",
          "name": "interfaceId",
          "type": "bytes4"
        }
      ],
      "name": "supportsInterface",
      "outputs": [
        {
          "internalType": "bool",
          "name": "",
          "type": "bool"
        }
      ],
      "stateMutability": "view",
      "type": "function"
    },
    {
      "inputs": [
        {
          "internalType": "uint256",
          "name": "",
          "type": "uint256"
        }
      ],
      "name": "uri",
      "outputs": [
        {
          "internalType": "string",
          "name": "",
          "type": "string"
        }
      ],
      "stateMutability": "view",
      "type": "function"
    }
  ],
  "bytecode": "0x60806040523480156200001157600080fd5b50604051620045f8380380620045f8833981810160405281019062000037919062000790565b604051806020016040528060008152506200005881620006ad60201b60201c565b5080600360006101000a81548173ffffffffffffffffffffffffffffffffffffffff021916908373ffffffffffffffffffffffffffffffffffffffff16021790555060066000808152602001908152602001600020600090806001815401808255809150506001900390600052602060002001600090919091909150556006600080815260200190815260200160002060019080600181540180825580915050600190039060005260206000200160009091909190915055600560008081526020019081526020016000206003908060018154018082558091505060019003906000526020600020016000909190919091505560056000808152602001908152602001600020600590806001815401808255809150506001900390600052602060002001600090919091909150556006600060018152602001908152602001600020600090806001815401808255809150506001900390600052602060002001600090919091909150556006600060018152602001908152602001600020600190806001815401808255809150506001900390600052602060002001600090919091909150556005600060018152602001908152602001600020600690806001815401808255809150506001900390600052602060002001600090919091909150556005600060018152602001908152602001600020600790806001815401808255809150506001900390600052602060002001600090919091909150556006600060028152602001908152602001600020600090806001815401808255809150506001900390600052602060002001600090919091909150556006600060028152602001908152602001600020600190806001815401808255809150506001900390600052602060002001600090919091909150556005600060028152602001908152602001600020600a90806001815401808255809150506001900390600052602060002001600090919091909150556005600060028152602001908152602001600020600a908060018154018082558091505060019003906000526020600020016000909190919091505560076000808152602001908152602001600020600090806001815401808255809150506001900390600052602060002001600090919091909150556007600080815260200190815260200160002060029080600181540180825580915050600190039060005260206000200160009091909190915055600760008081526020019081526020016000206003908060018154018082558091505060019003906000526020600020016000909190919091505560076000808152602001908152602001600020600490806001815401808255809150506001900390600052602060002001600090919091909150556007600060018152602001908152602001600020600090806001815401808255809150506001900390600052602060002001600090919091909150556007600060018152602001908152602001600020600290806001815401808255809150506001900390600052602060002001600090919091909150556007600060018152602001908152602001600020600490806001815401808255809150506001900390600052602060002001600090919091909150556008600060018152602001908152602001600020600a908060018154018082558091505060019003906000526020600020016000909190919091505560086000600181526020019081526020016000206001908060018154018082558091505060019003906000526020600020016000909190919091505560086000600181526020019081526020016000206003908060018154018082558091505060019003906000526020600020016000909190919091505560086000808152602001908152602001600020603290806001815401808255809150506001900390600052602060002001600090919091909150556008600080815260200190815260200160002060029080600181540180825580915050600190039060005260206000200160009091909190915055600860008081526020019081526020016000206001908060018154018082558091505060019003906000526020600020016000909190919091505560086000808152602001908152602001600020600a9080600181540180825580915050600190039060005260206000200160009091909190915055506200086f565b8060029080519060200190620006c5929190620006c9565b5050565b828054620006d790620007f0565b90600052602060002090601f016020900481019282620006fb576000855562000747565b82601f106200071657805160ff191683800117855562000747565b8280016001018555821562000747579182015b828111156200074657825182559160200191906001019062000729565b5b5090506200075691906200075a565b5090565b5b80821115620007755760008160009055506001016200075b565b5090565b6000815190506200078a8162000855565b92915050565b600060208284031215620007a357600080fd5b6000620007b38482850162000779565b91505092915050565b6000620007c982620007d0565b9050919050565b600073ffffffffffffffffffffffffffffffffffffffff82169050919050565b600060028204905060018216806200080957607f821691505b6020821081141562000820576200081f62000826565b5b50919050565b7f4e487b7100000000000000000000000000000000000000000000000000000000600052602260045260246000fd5b6200086081620007bc565b81146200086c57600080fd5b50565b613d79806200087f6000396000f3fe608060405234801561001057600080fd5b50600436106101405760003560e01c806349ede73a116100b8578063a22cb4651161007c578063a22cb465146103a7578063b551d32d146103c3578063e3fd44ee146103f3578063e985e9c51461040f578063ea59796a1461043f578063f242432a1461045b57610140565b806349ede73a146102cb5780634e1273f4146102fb5780635ce81ef81461032b578063649a20f7146103475780638b87c5441461037757610140565b8063100a97401161010a578063100a9740146102215780632db113921461023d5780632eb2c2d6146102595780633a583c8e14610275578063410d59cc14610291578063479bd43b146102af57610140565b8062f448b014610145578062fdd58e1461017557806301ffc9a7146101a5578063088d8533146101d55780630e89341c146101f1575b600080fd5b61015f600480360381019061015a9190612eff565b610477565b60405161016c91906134db565b60405180910390f35b61018f600480360381019061018a9190612cf8565b6104a8565b60405161019c91906134db565b60405180910390f35b6101bf60048036038101906101ba9190612e30565b610571565b6040516101cc919061331e565b60405180910390f35b6101ef60048036038101906101ea9190612d34565b610653565b005b61020b60048036038101906102069190612e82565b610822565b6040516102189190613339565b60405180910390f35b61023b60048036038101906102369190612eab565b6108b6565b005b61025760048036038101906102529190612cf8565b610954565b005b610273600480360381019061026e9190612ae5565b610c2f565b005b61028f600480360381019061028a9190612eab565b610cd0565b005b610299610d6e565b6040516102a691906132c5565b60405180910390f35b6102c960048036038101906102c49190612def565b610dc6565b005b6102e560048036038101906102e09190612eff565b610f17565b6040516102f291906134db565b60405180910390f35b61031560048036038101906103109190612d83565b610f48565b60405161032291906132c5565b60405180910390f35b61034560048036038101906103409190612cf8565b6110f9565b005b610361600480360381019061035c9190612eff565b6113d2565b60405161036e91906134db565b60405180910390f35b610391600480360381019061038c9190612a80565b611403565b60405161039e91906132c5565b60405180910390f35b6103c160048036038101906103bc9190612cbc565b6114fd565b005b6103dd60048036038101906103d89190612eff565b611513565b6040516103ea91906134db565b60405180910390f35b61040d60048036038101906104089190612c33565b611544565b005b61042960048036038101906104249190612aa9565b61160a565b604051610436919061331e565b60405180910390f35b61045960048036038101906104549190612d34565b61169e565b005b61047560048036038101906104709190612ba4565b6116be565b005b6007602052816000526040600020818154811061049357600080fd5b90600052602060002001600091509150505481565b60008073ffffffffffffffffffffffffffffffffffffffff168373ffffffffffffffffffffffffffffffffffffffff161415610519576040517f08c379a00000000000000000000000000000000000000000000000000000000081526004016105109061339b565b60405180910390fd5b60008083815260200190815260200160002060008473ffffffffffffffffffffffffffffffffffffffff1673ffffffffffffffffffffffffffffffffffffffff16815260200190815260200160002054905092915050565b60007fd9b67a26000000000000000000000000000000000000000000000000000000007bffffffffffffffffffffffffffffffffffffffffffffffffffffffff1916827bffffffffffffffffffffffffffffffffffffffffffffffffffffffff1916148061063c57507f0e89341c000000000000000000000000000000000000000000000000000000007bffffffffffffffffffffffffffffffffffffffffffffffffffffffff1916827bffffffffffffffffffffffffffffffffffffffffffffffffffffffff1916145b8061064c575061064b8261175f565b5b9050919050565b8082101561073d5761073883600760008081526020019081526020016000208054806020026020016040519081016040528092919081815260200182805480156106bc57602002820191906000526020600020905b8154815260200190600101908083116106a8575b50505050506008600080815260200190815260200160002080548060200260200160405190810160405280929190818152602001828054801561071e57602002820191906000526020600020905b81548152602001906001019080831161070a575b5050505050604051806020016040528060008152506117c9565b61081d565b61081c83600760006001815260200190815260200160002080548060200260200160405190810160405280929190818152602001828054801561079f57602002820191906000526020600020905b81548152602001906001019080831161078b575b5050505050600860006001815260200190815260200160002080548060200260200160405190810160405280929190818152602001828054801561080257602002820191906000526020600020905b8154815260200190600101908083116107ee575b5050505050604051806020016040528060008152506117c9565b5b505050565b6060600280546108319061374a565b80601f016020809104026020016040519081016040528092919081815260200182805461085d9061374a565b80156108aa5780601f1061087f576101008083540402835291602001916108aa565b820191906000526020600020905b81548152906001019060200180831161088d57829003601f168201915b50505050509050919050565b60005b815181101561094f576005600084815260200190815260200160002082828151811061090e577f4e487b7100000000000000000000000000000000000000000000000000000000600052603260045260246000fd5b602002602001015190806001815401808255809150506001900390600052602060002001600090919091909150558080610947906137ad565b9150506108b9565b505050565b603c8111158015610966575080600011155b15610a4f57610a4a8260066000600381526020019081526020016000208054806020026020016040519081016040528092919081815260200182805480156109cd57602002820191906000526020600020905b8154815260200190600101908083116109b9575b50505050506005600060038152602001908152602001600020805480602002602001604051908101604052809291908181526020018280548015610a3057602002820191906000526020600020905b815481526020019060010190808311610a1c575b5050505050604051806020016040528060008152506117c9565b610c2b565b605a8111158015610a61575080604611155b15610b4a57610b45826006600060048152602001908152602001600020805480602002602001604051908101604052809291908181526020018280548015610ac857602002820191906000526020600020905b815481526020019060010190808311610ab4575b50505050506005600060048152602001908152602001600020805480602002602001604051908101604052809291908181526020018280548015610b2b57602002820191906000526020600020905b815481526020019060010190808311610b17575b5050505050604051806020016040528060008152506117c9565b610c2a565b610c29826006600060058152602001908152602001600020805480602002602001604051908101604052809291908181526020018280548015610bac57602002820191906000526020600020905b815481526020019060010190808311610b98575b50505050506005600060058152602001908152602001600020805480602002602001604051908101604052809291908181526020018280548015610c0f57602002820191906000526020600020905b815481526020019060010190808311610bfb575b5050505050604051806020016040528060008152506117c9565b5b5b5050565b610c37611a42565b73ffffffffffffffffffffffffffffffffffffffff168573ffffffffffffffffffffffffffffffffffffffff161480610c7d5750610c7c85610c77611a42565b61160a565b5b610cbc576040517f08c379a0000000000000000000000000000000000000000000000000000000008152600401610cb3906133fb565b60405180910390fd5b610cc98585858585611a4a565b5050505050565b60005b8151811015610d695760066000848152602001908152602001600020828281518110610d28577f4e487b7100000000000000000000000000000000000000000000000000000000600052603260045260246000fd5b602002602001015190806001815401808255809150506001900390600052602060002001600090919091909150558080610d61906137ad565b915050610cd3565b505050565b60606004805480602002602001604051908101604052809291908181526020018280548015610dbc57602002820191906000526020600020905b815481526020019060010190808311610da8575b5050505050905090565b60005b8151811015610f135760048181548110610e0c577f4e487b7100000000000000000000000000000000000000000000000000000000600052603260045260246000fd5b9060005260206000200154828281518110610e50577f4e487b7100000000000000000000000000000000000000000000000000000000600052603260045260246000fd5b60200260200101511415610e99576040517f08c379a0000000000000000000000000000000000000000000000000000000008152600401610e909061343b565b60405180910390fd5b6004828281518110610ed4577f4e487b7100000000000000000000000000000000000000000000000000000000600052603260045260246000fd5b6020026020010151908060018154018082558091505060019003906000526020600020016000909190919091505580610f0c906137ad565b9050610dc9565b5050565b60056020528160005260406000208181548110610f3357600080fd5b90600052602060002001600091509150505481565b60608151835114610f8e576040517f08c379a0000000000000000000000000000000000000000000000000000000008152600401610f859061347b565b60405180910390fd5b6000835167ffffffffffffffff811115610fd1577f4e487b7100000000000000000000000000000000000000000000000000000000600052604160045260246000fd5b604051908082528060200260200182016040528015610fff5781602001602082028036833780820191505090505b50905060005b84518110156110ee5761109885828151811061104a577f4e487b7100000000000000000000000000000000000000000000000000000000600052603260045260246000fd5b602002602001015185838151811061108b577f4e487b7100000000000000000000000000000000000000000000000000000000600052603260045260246000fd5b60200260200101516104a8565b8282815181106110d1577f4e487b7100000000000000000000000000000000000000000000000000000000600052603260045260246000fd5b602002602001018181525050806110e7906137ad565b9050611005565b508091505092915050565b603c811115801561110b575080600011155b156111f2576111ed826006600080815260200190815260200160002080548060200260200160405190810160405280929190818152602001828054801561117157602002820191906000526020600020905b81548152602001906001019080831161115d575b5050505050600560008081526020019081526020016000208054806020026020016040519081016040528092919081815260200182805480156111d357602002820191906000526020600020905b8154815260200190600101908083116111bf575b5050505050604051806020016040528060008152506117c9565b6113ce565b605a8111158015611204575080604611155b156112ed576112e882600660006001815260200190815260200160002080548060200260200160405190810160405280929190818152602001828054801561126b57602002820191906000526020600020905b815481526020019060010190808311611257575b505050505060056000600181526020019081526020016000208054806020026020016040519081016040528092919081815260200182805480156112ce57602002820191906000526020600020905b8154815260200190600101908083116112ba575b5050505050604051806020016040528060008152506117c9565b6113cd565b6113cc82600660006002815260200190815260200160002080548060200260200160405190810160405280929190818152602001828054801561134f57602002820191906000526020600020905b81548152602001906001019080831161133b575b505050505060056000600281526020019081526020016000208054806020026020016040519081016040528092919081815260200182805480156113b257602002820191906000526020600020905b81548152602001906001019080831161139e575b5050505050604051806020016040528060008152506117c9565b5b5b5050565b600860205281600052604060002081815481106113ee57600080fd5b90600052602060002001600091509150505481565b60606000600480549050905060008167ffffffffffffffff811115611451577f4e487b7100000000000000000000000000000000000000000000000000000000600052604160045260246000fd5b60405190808252806020026020018201604052801561147f5781602001602082028036833780820191505090505b50905060005b6004805490508110156114f25761149c85826104a8565b8282815181106114d5577f4e487b7100000000000000000000000000000000000000000000000000000000600052603260045260246000fd5b602002602001018181525050806114eb906137ad565b9050611485565b508092505050919050565b61150f611508611a42565b8383611db8565b5050565b6006602052816000526040600020818154811061152f57600080fd5b90600052602060002001600091509150505481565b600084849050905060005b81811015611601576115f087878784818110611594577f4e487b7100000000000000000000000000000000000000000000000000000000600052603260045260246000fd5b905060200201358686858181106115d4577f4e487b7100000000000000000000000000000000000000000000000000000000600052603260045260246000fd5b9050602002013560405180602001604052806000815250611f25565b806115fa906137ad565b905061154f565b50505050505050565b6000600160008473ffffffffffffffffffffffffffffffffffffffff1673ffffffffffffffffffffffffffffffffffffffff16815260200190815260200160002060008373ffffffffffffffffffffffffffffffffffffffff1673ffffffffffffffffffffffffffffffffffffffff16815260200190815260200160002060009054906101000a900460ff16905092915050565b6116b983838360405180602001604052806000815250611f25565b505050565b6116c6611a42565b73ffffffffffffffffffffffffffffffffffffffff168573ffffffffffffffffffffffffffffffffffffffff16148061170c575061170b85611706611a42565b61160a565b5b61174b576040517f08c379a0000000000000000000000000000000000000000000000000000000008152600401611742906133bb565b60405180910390fd5b61175885858585856120d6565b5050505050565b60007f01ffc9a7000000000000000000000000000000000000000000000000000000007bffffffffffffffffffffffffffffffffffffffffffffffffffffffff1916827bffffffffffffffffffffffffffffffffffffffffffffffffffffffff1916149050919050565b600073ffffffffffffffffffffffffffffffffffffffff168473ffffffffffffffffffffffffffffffffffffffff161415611839576040517f08c379a0000000000000000000000000000000000000000000000000000000008152600401611830906134bb565b60405180910390fd5b815183511461187d576040517f08c379a00000000000000000000000000000000000000000000000000000000081526004016118749061349b565b60405180910390fd5b6000611887611a42565b905061189881600087878787612372565b60005b845181101561199d578381815181106118dd577f4e487b7100000000000000000000000000000000000000000000000000000000600052603260045260246000fd5b6020026020010151600080878481518110611921577f4e487b7100000000000000000000000000000000000000000000000000000000600052603260045260246000fd5b6020026020010151815260200190815260200160002060008873ffffffffffffffffffffffffffffffffffffffff1673ffffffffffffffffffffffffffffffffffffffff1681526020019081526020016000206000828254611983919061363e565b925050819055508080611995906137ad565b91505061189b565b508473ffffffffffffffffffffffffffffffffffffffff16600073ffffffffffffffffffffffffffffffffffffffff168273ffffffffffffffffffffffffffffffffffffffff167f4a39dc06d4c0dbc64b70af90fd698a233a518aa5d07e595d983b8c0526c8f7fb8787604051611a159291906132e7565b60405180910390a4611a2c8160008787878761237a565b611a3b81600087878787612382565b5050505050565b600033905090565b8151835114611a8e576040517f08c379a0000000000000000000000000000000000000000000000000000000008152600401611a859061349b565b60405180910390fd5b600073ffffffffffffffffffffffffffffffffffffffff168473ffffffffffffffffffffffffffffffffffffffff161415611afe576040517f08c379a0000000000000000000000000000000000000000000000000000000008152600401611af5906133db565b60405180910390fd5b6000611b08611a42565b9050611b18818787878787612372565b60005b8451811015611d15576000858281518110611b5f577f4e487b7100000000000000000000000000000000000000000000000000000000600052603260045260246000fd5b602002602001015190506000858381518110611ba4577f4e487b7100000000000000000000000000000000000000000000000000000000600052603260045260246000fd5b60200260200101519050600080600084815260200190815260200160002060008b73ffffffffffffffffffffffffffffffffffffffff1673ffffffffffffffffffffffffffffffffffffffff16815260200190815260200160002054905081811015611c45576040517f08c379a0000000000000000000000000000000000000000000000000000000008152600401611c3c9061341b565b60405180910390fd5b81810360008085815260200190815260200160002060008c73ffffffffffffffffffffffffffffffffffffffff1673ffffffffffffffffffffffffffffffffffffffff168152602001908152602001600020819055508160008085815260200190815260200160002060008b73ffffffffffffffffffffffffffffffffffffffff1673ffffffffffffffffffffffffffffffffffffffff1681526020019081526020016000206000828254611cfa919061363e565b9250508190555050505080611d0e906137ad565b9050611b1b565b508473ffffffffffffffffffffffffffffffffffffffff168673ffffffffffffffffffffffffffffffffffffffff168273ffffffffffffffffffffffffffffffffffffffff167f4a39dc06d4c0dbc64b70af90fd698a233a518aa5d07e595d983b8c0526c8f7fb8787604051611d8c9291906132e7565b60405180910390a4611da281878787878761237a565b611db0818787878787612382565b505050505050565b8173ffffffffffffffffffffffffffffffffffffffff168373ffffffffffffffffffffffffffffffffffffffff161415611e27576040517f08c379a0000000000000000000000000000000000000000000000000000000008152600401611e1e9061345b565b60405180910390fd5b80600160008573ffffffffffffffffffffffffffffffffffffffff1673ffffffffffffffffffffffffffffffffffffffff16815260200190815260200160002060008473ffffffffffffffffffffffffffffffffffffffff1673ffffffffffffffffffffffffffffffffffffffff16815260200190815260200160002060006101000a81548160ff0219169083151502179055508173ffffffffffffffffffffffffffffffffffffffff168373ffffffffffffffffffffffffffffffffffffffff167f17307eab39ab6107e8899845ad3d59bd9653f200f220920489ca2b5937696c3183604051611f18919061331e565b60405180910390a3505050565b600073ffffffffffffffffffffffffffffffffffffffff168473ffffffffffffffffffffffffffffffffffffffff161415611f95576040517f08c379a0000000000000000000000000000000000000000000000000000000008152600401611f8c906134bb565b60405180910390fd5b6000611f9f611a42565b90506000611fac85612569565b90506000611fb985612569565b9050611fca83600089858589612372565b8460008088815260200190815260200160002060008973ffffffffffffffffffffffffffffffffffffffff1673ffffffffffffffffffffffffffffffffffffffff1681526020019081526020016000206000828254612029919061363e565b925050819055508673ffffffffffffffffffffffffffffffffffffffff16600073ffffffffffffffffffffffffffffffffffffffff168473ffffffffffffffffffffffffffffffffffffffff167fc3d58168c5ae7397731d063d5bbf3d657854427343f4c083240f7aacaa2d0f6289896040516120a79291906134f6565b60405180910390a46120be8360008985858961237a565b6120cd8360008989898961262f565b50505050505050565b600073ffffffffffffffffffffffffffffffffffffffff168473ffffffffffffffffffffffffffffffffffffffff161415612146576040517f08c379a000000000000000000000000000000000000000000000000000000000815260040161213d906133db565b60405180910390fd5b6000612150611a42565b9050600061215d85612569565b9050600061216a85612569565b905061217a838989858589612372565b600080600088815260200190815260200160002060008a73ffffffffffffffffffffffffffffffffffffffff1673ffffffffffffffffffffffffffffffffffffffff16815260200190815260200160002054905085811015612211576040517f08c379a00000000000000000000000000000000000000000000000000000000081526004016122089061341b565b60405180910390fd5b85810360008089815260200190815260200160002060008b73ffffffffffffffffffffffffffffffffffffffff1673ffffffffffffffffffffffffffffffffffffffff168152602001908152602001600020819055508560008089815260200190815260200160002060008a73ffffffffffffffffffffffffffffffffffffffff1673ffffffffffffffffffffffffffffffffffffffff16815260200190815260200160002060008282546122c6919061363e565b925050819055508773ffffffffffffffffffffffffffffffffffffffff168973ffffffffffffffffffffffffffffffffffffffff168573ffffffffffffffffffffffffffffffffffffffff167fc3d58168c5ae7397731d063d5bbf3d657854427343f4c083240f7aacaa2d0f628a8a6040516123439291906134f6565b60405180910390a4612359848a8a86868a61237a565b612367848a8a8a8a8a61262f565b505050505050505050565b505050505050565b505050505050565b6123a18473ffffffffffffffffffffffffffffffffffffffff16612816565b15612561578373ffffffffffffffffffffffffffffffffffffffff1663bc197c8187878686866040518663ffffffff1660e01b81526004016123e7959493929190613203565b602060405180830381600087803b15801561240157600080fd5b505af192505050801561243257506040513d601f19601f8201168201806040525081019061242f9190612e59565b60015b6124d85761243e613883565b806308c379a0141561249b5750612453613c51565b8061245e575061249d565b806040517f08c379a00000000000000000000000000000000000000000000000000000000081526004016124929190613339565b60405180910390fd5b505b6040517f08c379a00000000000000000000000000000000000000000000000000000000081526004016124cf9061335b565b60405180910390fd5b63bc197c8160e01b7bffffffffffffffffffffffffffffffffffffffffffffffffffffffff1916817bffffffffffffffffffffffffffffffffffffffffffffffffffffffff19161461255f576040517f08c379a00000000000000000000000000000000000000000000000000000000081526004016125569061337b565b60405180910390fd5b505b505050505050565b60606000600167ffffffffffffffff8111156125ae577f4e487b7100000000000000000000000000000000000000000000000000000000600052604160045260246000fd5b6040519080825280602002602001820160405280156125dc5781602001602082028036833780820191505090505b509050828160008151811061261a577f4e487b7100000000000000000000000000000000000000000000000000000000600052603260045260246000fd5b60200260200101818152505080915050919050565b61264e8473ffffffffffffffffffffffffffffffffffffffff16612816565b1561280e578373ffffffffffffffffffffffffffffffffffffffff1663f23a6e6187878686866040518663ffffffff1660e01b815260040161269495949392919061326b565b602060405180830381600087803b1580156126ae57600080fd5b505af19250505080156126df57506040513d601f19601f820116820180604052508101906126dc9190612e59565b60015b612785576126eb613883565b806308c379a014156127485750612700613c51565b8061270b575061274a565b806040517f08c379a000000000000000000000000000000000000000000000000000000000815260040161273f9190613339565b60405180910390fd5b505b6040517f08c379a000000000000000000000000000000000000000000000000000000000815260040161277c9061335b565b60405180910390fd5b63f23a6e6160e01b7bffffffffffffffffffffffffffffffffffffffffffffffffffffffff1916817bffffffffffffffffffffffffffffffffffffffffffffffffffffffff19161461280c576040517f08c379a00000000000000000000000000000000000000000000000000000000081526004016128039061337b565b60405180910390fd5b505b505050505050565b6000808273ffffffffffffffffffffffffffffffffffffffff163b119050919050565b600061284c61284784613544565b61351f565b9050808382526020820190508285602086028201111561286b57600080fd5b60005b8581101561289b5781612881888261294f565b84526020840193506020830192505060018101905061286e565b5050509392505050565b60006128b86128b384613570565b61351f565b905080838252602082019050828560208602820111156128d757600080fd5b60005b8581101561290757816128ed8882612a6b565b8452602084019350602083019250506001810190506128da565b5050509392505050565b600061292461291f8461359c565b61351f565b90508281526020810184848401111561293c57600080fd5b612947848285613708565b509392505050565b60008135905061295e81613ce7565b92915050565b600082601f83011261297557600080fd5b8135612985848260208601612839565b91505092915050565b60008083601f8401126129a057600080fd5b8235905067ffffffffffffffff8111156129b957600080fd5b6020830191508360208202830111156129d157600080fd5b9250929050565b600082601f8301126129e957600080fd5b81356129f98482602086016128a5565b91505092915050565b600081359050612a1181613cfe565b92915050565b600081359050612a2681613d15565b92915050565b600081519050612a3b81613d15565b92915050565b600082601f830112612a5257600080fd5b8135612a62848260208601612911565b91505092915050565b600081359050612a7a81613d2c565b92915050565b600060208284031215612a9257600080fd5b6000612aa08482850161294f565b91505092915050565b60008060408385031215612abc57600080fd5b6000612aca8582860161294f565b9250506020612adb8582860161294f565b9150509250929050565b600080600080600060a08688031215612afd57600080fd5b6000612b0b8882890161294f565b9550506020612b1c8882890161294f565b945050604086013567ffffffffffffffff811115612b3957600080fd5b612b45888289016129d8565b935050606086013567ffffffffffffffff811115612b6257600080fd5b612b6e888289016129d8565b925050608086013567ffffffffffffffff811115612b8b57600080fd5b612b9788828901612a41565b9150509295509295909350565b600080600080600060a08688031215612bbc57600080fd5b6000612bca8882890161294f565b9550506020612bdb8882890161294f565b9450506040612bec88828901612a6b565b9350506060612bfd88828901612a6b565b925050608086013567ffffffffffffffff811115612c1a57600080fd5b612c2688828901612a41565b9150509295509295909350565b600080600080600060608688031215612c4b57600080fd5b6000612c598882890161294f565b955050602086013567ffffffffffffffff811115612c7657600080fd5b612c828882890161298e565b9450945050604086013567ffffffffffffffff811115612ca157600080fd5b612cad8882890161298e565b92509250509295509295909350565b60008060408385031215612ccf57600080fd5b6000612cdd8582860161294f565b9250506020612cee85828601612a02565b9150509250929050565b60008060408385031215612d0b57600080fd5b6000612d198582860161294f565b9250506020612d2a85828601612a6b565b9150509250929050565b600080600060608486031215612d4957600080fd5b6000612d578682870161294f565b9350506020612d6886828701612a6b565b9250506040612d7986828701612a6b565b9150509250925092565b60008060408385031215612d9657600080fd5b600083013567ffffffffffffffff811115612db057600080fd5b612dbc85828601612964565b925050602083013567ffffffffffffffff811115612dd957600080fd5b612de5858286016129d8565b9150509250929050565b600060208284031215612e0157600080fd5b600082013567ffffffffffffffff811115612e1b57600080fd5b612e27848285016129d8565b91505092915050565b600060208284031215612e4257600080fd5b6000612e5084828501612a17565b91505092915050565b600060208284031215612e6b57600080fd5b6000612e7984828501612a2c565b91505092915050565b600060208284031215612e9457600080fd5b6000612ea284828501612a6b565b91505092915050565b60008060408385031215612ebe57600080fd5b6000612ecc85828601612a6b565b925050602083013567ffffffffffffffff811115612ee957600080fd5b612ef5858286016129d8565b9150509250929050565b60008060408385031215612f1257600080fd5b6000612f2085828601612a6b565b9250506020612f3185828601612a6b565b9150509250929050565b6000612f4783836131e5565b60208301905092915050565b612f5c81613694565b82525050565b6000612f6d826135dd565b612f77818561360b565b9350612f82836135cd565b8060005b83811015612fb3578151612f9a8882612f3b565b9750612fa5836135fe565b925050600181019050612f86565b5085935050505092915050565b612fc9816136a6565b82525050565b6000612fda826135e8565b612fe4818561361c565b9350612ff4818560208601613717565b612ffd816138a5565b840191505092915050565b6000613013826135f3565b61301d818561362d565b935061302d818560208601613717565b613036816138a5565b840191505092915050565b600061304e60348361362d565b9150613059826138c3565b604082019050919050565b600061307160288361362d565b915061307c82613912565b604082019050919050565b6000613094602b8361362d565b915061309f82613961565b604082019050919050565b60006130b760298361362d565b91506130c2826139b0565b604082019050919050565b60006130da60258361362d565b91506130e5826139ff565b604082019050919050565b60006130fd60328361362d565b915061310882613a4e565b604082019050919050565b6000613120602a8361362d565b915061312b82613a9d565b604082019050919050565b600061314360138361362d565b915061314e82613aec565b602082019050919050565b600061316660298361362d565b915061317182613b15565b604082019050919050565b600061318960298361362d565b915061319482613b64565b604082019050919050565b60006131ac60288361362d565b91506131b782613bb3565b604082019050919050565b60006131cf60218361362d565b91506131da82613c02565b604082019050919050565b6131ee816136fe565b82525050565b6131fd816136fe565b82525050565b600060a0820190506132186000830188612f53565b6132256020830187612f53565b81810360408301526132378186612f62565b9050818103606083015261324b8185612f62565b9050818103608083015261325f8184612fcf565b90509695505050505050565b600060a0820190506132806000830188612f53565b61328d6020830187612f53565b61329a60408301866131f4565b6132a760608301856131f4565b81810360808301526132b98184612fcf565b90509695505050505050565b600060208201905081810360008301526132df8184612f62565b905092915050565b600060408201905081810360008301526133018185612f62565b905081810360208301526133158184612f62565b90509392505050565b60006020820190506133336000830184612fc0565b92915050565b600060208201905081810360008301526133538184613008565b905092915050565b6000602082019050818103600083015261337481613041565b9050919050565b6000602082019050818103600083015261339481613064565b9050919050565b600060208201905081810360008301526133b481613087565b9050919050565b600060208201905081810360008301526133d4816130aa565b9050919050565b600060208201905081810360008301526133f4816130cd565b9050919050565b60006020820190508181036000830152613414816130f0565b9050919050565b6000602082019050818103600083015261343481613113565b9050919050565b6000602082019050818103600083015261345481613136565b9050919050565b6000602082019050818103600083015261347481613159565b9050919050565b600060208201905081810360008301526134948161317c565b9050919050565b600060208201905081810360008301526134b48161319f565b9050919050565b600060208201905081810360008301526134d4816131c2565b9050919050565b60006020820190506134f060008301846131f4565b92915050565b600060408201905061350b60008301856131f4565b61351860208301846131f4565b9392505050565b600061352961353a565b9050613535828261377c565b919050565b6000604051905090565b600067ffffffffffffffff82111561355f5761355e613854565b5b602082029050602081019050919050565b600067ffffffffffffffff82111561358b5761358a613854565b5b602082029050602081019050919050565b600067ffffffffffffffff8211156135b7576135b6613854565b5b6135c0826138a5565b9050602081019050919050565b6000819050602082019050919050565b600081519050919050565b600081519050919050565b600081519050919050565b6000602082019050919050565b600082825260208201905092915050565b600082825260208201905092915050565b600082825260208201905092915050565b6000613649826136fe565b9150613654836136fe565b9250827fffffffffffffffffffffffffffffffffffffffffffffffffffffffffffffffff03821115613689576136886137f6565b5b828201905092915050565b600061369f826136de565b9050919050565b60008115159050919050565b60007fffffffff0000000000000000000000000000000000000000000000000000000082169050919050565b600073ffffffffffffffffffffffffffffffffffffffff82169050919050565b6000819050919050565b82818337600083830152505050565b60005b8381101561373557808201518184015260208101905061371a565b83811115613744576000848401525b50505050565b6000600282049050600182168061376257607f821691505b6020821081141561377657613775613825565b5b50919050565b613785826138a5565b810181811067ffffffffffffffff821117156137a4576137a3613854565b5b80604052505050565b60006137b8826136fe565b91507fffffffffffffffffffffffffffffffffffffffffffffffffffffffffffffffff8214156137eb576137ea6137f6565b5b600182019050919050565b7f4e487b7100000000000000000000000000000000000000000000000000000000600052601160045260246000fd5b7f4e487b7100000000000000000000000000000000000000000000000000000000600052602260045260246000fd5b7f4e487b7100000000000000000000000000000000000000000000000000000000600052604160045260246000fd5b600060033d11156138a25760046000803e61389f6000516138b6565b90505b90565b6000601f19601f8301169050919050565b60008160e01c9050919050565b7f455243313135353a207472616e7366657220746f206e6f6e204552433131353560008201527f526563656976657220696d706c656d656e746572000000000000000000000000602082015250565b7f455243313135353a204552433131353552656365697665722072656a6563746560008201527f6420746f6b656e73000000000000000000000000000000000000000000000000602082015250565b7f455243313135353a2062616c616e636520717565727920666f7220746865207a60008201527f65726f2061646472657373000000000000000000000000000000000000000000602082015250565b7f455243313135353a2063616c6c6572206973206e6f74206f776e6572206e6f7260008201527f20617070726f7665640000000000000000000000000000000000000000000000602082015250565b7f455243313135353a207472616e7366657220746f20746865207a65726f20616460008201527f6472657373000000000000000000000000000000000000000000000000000000602082015250565b7f455243313135353a207472616e736665722063616c6c6572206973206e6f742060008201527f6f776e6572206e6f7220617070726f7665640000000000000000000000000000602082015250565b7f455243313135353a20696e73756666696369656e742062616c616e636520666f60008201527f72207472616e7366657200000000000000000000000000000000000000000000602082015250565b7f43616e2774206164642073616d65206974656d00000000000000000000000000600082015250565b7f455243313135353a2073657474696e6720617070726f76616c2073746174757360008201527f20666f722073656c660000000000000000000000000000000000000000000000602082015250565b7f455243313135353a206163636f756e747320616e6420696473206c656e67746860008201527f206d69736d617463680000000000000000000000000000000000000000000000602082015250565b7f455243313135353a2069647320616e6420616d6f756e7473206c656e6774682060008201527f6d69736d61746368000000000000000000000000000000000000000000000000602082015250565b7f455243313135353a206d696e7420746f20746865207a65726f2061646472657360008201527f7300000000000000000000000000000000000000000000000000000000000000602082015250565b600060443d1015613c6157613ce4565b613c6961353a565b60043d036004823e80513d602482011167ffffffffffffffff82111715613c91575050613ce4565b808201805167ffffffffffffffff811115613caf5750505050613ce4565b80602083010160043d038501811115613ccc575050505050613ce4565b613cdb8260200185018661377c565b82955050505050505b90565b613cf081613694565b8114613cfb57600080fd5b50565b613d07816136a6565b8114613d1257600080fd5b50565b613d1e816136b2565b8114613d2957600080fd5b50565b613d35816136fe565b8114613d4057600080fd5b5056fea2646970667358221220bb9679e5267ade7384acc0768ef7ec8e7d1cd15fd579d7e315c79b6925b04a8564736f6c63430008040033",
  "linkReferences": {},
  "deployedLinkReferences": {}
}