{
  "_format": "hh-sol-artifact-1",
  "contractName": "Items",
  "sourceName": "contracts/Items.sol",
  "abi": [
    {
      "inputs": [],
      "stateMutability": "nonpayable",
      "type": "constructor"
    },
    {
      "inputs": [
        {
          "internalType": "address",
          "name": "_caller",
          "type": "address"
        }
      ],
      "name": "NotApproved",
      "type": "error"
    },
    {
      "anonymous": false,
      "inputs": [
        {
          "indexed": true,
          "internalType": "address",
          "name": "account",
          "type": "address"
        },
        {
          "indexed": true,
          "internalType": "address",
          "name": "operator",
          "type": "address"
        },
        {
          "indexed": false,
          "internalType": "bool",
          "name": "approved",
          "type": "bool"
        }
      ],
      "name": "ApprovalForAll",
      "type": "event"
    },
    {
      "anonymous": false,
      "inputs": [
        {
          "indexed": false,
          "internalType": "uint256",
          "name": "_monster",
          "type": "uint256"
        },
        {
          "indexed": false,
          "internalType": "uint256[]",
          "name": "_items",
          "type": "uint256[]"
        },
        {
          "indexed": false,
          "internalType": "uint256[]",
          "name": "_amount",
          "type": "uint256[]"
        }
      ],
      "name": "BeginnerMissionReward",
      "type": "event"
    },
    {
      "anonymous": false,
      "inputs": [
        {
          "indexed": false,
          "internalType": "uint256",
          "name": "_monster",
          "type": "uint256"
        },
        {
          "indexed": false,
          "internalType": "uint256[]",
          "name": "_items",
          "type": "uint256[]"
        },
        {
          "indexed": false,
          "internalType": "uint256[]",
          "name": "_amount",
          "type": "uint256[]"
        }
      ],
      "name": "BossFightReward",
      "type": "event"
    },
    {
      "anonymous": false,
      "inputs": [
        {
          "indexed": false,
          "internalType": "uint256",
          "name": "_monster",
          "type": "uint256"
        },
        {
          "indexed": false,
          "internalType": "uint256[]",
          "name": "_items",
          "type": "uint256[]"
        },
        {
          "indexed": false,
          "internalType": "uint256[]",
          "name": "_amount",
          "type": "uint256[]"
        }
      ],
      "name": "IntermediateMissionReward",
      "type": "event"
    },
    {
      "anonymous": false,
      "inputs": [
        {
          "indexed": true,
          "internalType": "address",
          "name": "previousOwner",
          "type": "address"
        },
        {
          "indexed": true,
          "internalType": "address",
          "name": "newOwner",
          "type": "address"
        }
      ],
      "name": "OwnershipTransferred",
      "type": "event"
    },
    {
      "anonymous": false,
      "inputs": [
        {
          "indexed": true,
          "internalType": "address",
          "name": "operator",
          "type": "address"
        },
        {
          "indexed": true,
          "internalType": "address",
          "name": "from",
          "type": "address"
        },
        {
          "indexed": true,
          "internalType": "address",
          "name": "to",
          "type": "address"
        },
        {
          "indexed": false,
          "internalType": "uint256[]",
          "name": "ids",
          "type": "uint256[]"
        },
        {
          "indexed": false,
          "internalType": "uint256[]",
          "name": "values",
          "type": "uint256[]"
        }
      ],
      "name": "TransferBatch",
      "type": "event"
    },
    {
      "anonymous": false,
      "inputs": [
        {
          "indexed": true,
          "internalType": "address",
          "name": "operator",
          "type": "address"
        },
        {
          "indexed": true,
          "internalType": "address",
          "name": "from",
          "type": "address"
        },
        {
          "indexed": true,
          "internalType": "address",
          "name": "to",
          "type": "address"
        },
        {
          "indexed": false,
          "internalType": "uint256",
          "name": "id",
          "type": "uint256"
        },
        {
          "indexed": false,
          "internalType": "uint256",
          "name": "value",
          "type": "uint256"
        }
      ],
      "name": "TransferSingle",
      "type": "event"
    },
    {
      "anonymous": false,
      "inputs": [
        {
          "indexed": false,
          "internalType": "string",
          "name": "value",
          "type": "string"
        },
        {
          "indexed": true,
          "internalType": "uint256",
          "name": "id",
          "type": "uint256"
        }
      ],
      "name": "URI",
      "type": "event"
    },
    {
      "inputs": [
        {
          "internalType": "uint256",
          "name": "_dropsId",
          "type": "uint256"
        },
        {
          "internalType": "uint256[]",
          "name": "_items",
          "type": "uint256[]"
        },
        {
          "internalType": "uint256[]",
          "name": "_rates",
          "type": "uint256[]"
        }
      ],
      "name": "addDrops",
      "outputs": [],
      "stateMutability": "nonpayable",
      "type": "function"
    },
    {
      "inputs": [
        {
          "internalType": "uint256[]",
          "name": "_items",
          "type": "uint256[]"
        }
      ],
      "name": "addNewItems",
      "outputs": [],
      "stateMutability": "nonpayable",
      "type": "function"
    },
    {
      "inputs": [
        {
          "internalType": "address",
          "name": "",
          "type": "address"
        }
      ],
      "name": "approvedAddress",
      "outputs": [
        {
          "internalType": "bool",
          "name": "",
          "type": "bool"
        }
      ],
      "stateMutability": "view",
      "type": "function"
    },
    {
      "inputs": [
        {
          "internalType": "address",
          "name": "account",
          "type": "address"
        },
        {
          "internalType": "uint256",
          "name": "id",
          "type": "uint256"
        }
      ],
      "name": "balanceOf",
      "outputs": [
        {
          "internalType": "uint256",
          "name": "",
          "type": "uint256"
        }
      ],
      "stateMutability": "view",
      "type": "function"
    },
    {
      "inputs": [
        {
          "internalType": "address[]",
          "name": "accounts",
          "type": "address[]"
        },
        {
          "internalType": "uint256[]",
          "name": "ids",
          "type": "uint256[]"
        }
      ],
      "name": "balanceOfBatch",
      "outputs": [
        {
          "internalType": "uint256[]",
          "name": "",
          "type": "uint256[]"
        }
      ],
      "stateMutability": "view",
      "type": "function"
    },
    {
      "inputs": [
        {
          "internalType": "uint256",
          "name": "_monster",
          "type": "uint256"
        },
        {
          "internalType": "address",
          "name": "_user",
          "type": "address"
        },
        {
          "internalType": "uint256",
          "name": "_odds",
          "type": "uint256"
        },
        {
          "internalType": "uint256",
          "name": "_chance",
          "type": "uint256"
        }
      ],
      "name": "bossFightReward",
      "outputs": [],
      "stateMutability": "nonpayable",
      "type": "function"
    },
    {
      "inputs": [
        {
          "internalType": "uint256",
          "name": "",
          "type": "uint256"
        }
      ],
      "name": "drops",
      "outputs": [
        {
          "internalType": "uint8",
          "name": "",
          "type": "uint8"
        }
      ],
      "stateMutability": "view",
      "type": "function"
    },
    {
      "inputs": [
        {
          "internalType": "uint256",
          "name": "",
          "type": "uint256"
        }
      ],
      "name": "dropsDetails",
      "outputs": [
        {
          "internalType": "uint8",
          "name": "itemsAmount",
          "type": "uint8"
        }
      ],
      "stateMutability": "view",
      "type": "function"
    },
    {
      "inputs": [
        {
          "internalType": "address",
          "name": "_user",
          "type": "address"
        }
      ],
      "name": "getInventory",
      "outputs": [
        {
          "internalType": "uint256[]",
          "name": "inventory",
          "type": "uint256[]"
        }
      ],
      "stateMutability": "view",
      "type": "function"
    },
    {
      "inputs": [],
      "name": "getItems",
      "outputs": [
        {
          "internalType": "uint256[]",
          "name": "_items",
          "type": "uint256[]"
        }
      ],
      "stateMutability": "view",
      "type": "function"
    },
    {
      "inputs": [
        {
          "internalType": "address",
          "name": "account",
          "type": "address"
        },
        {
          "internalType": "address",
          "name": "operator",
          "type": "address"
        }
      ],
      "name": "isApprovedForAll",
      "outputs": [
        {
          "internalType": "bool",
          "name": "",
          "type": "bool"
        }
      ],
      "stateMutability": "view",
      "type": "function"
    },
    {
      "inputs": [
        {
          "internalType": "uint256",
          "name": "",
          "type": "uint256"
        }
      ],
      "name": "items",
      "outputs": [
        {
          "internalType": "uint8",
          "name": "",
          "type": "uint8"
        }
      ],
      "stateMutability": "view",
      "type": "function"
    },
    {
      "inputs": [
        {
          "internalType": "address",
          "name": "_user",
          "type": "address"
        },
        {
          "internalType": "uint256[]",
          "name": "_id",
          "type": "uint256[]"
        },
        {
          "internalType": "uint256[]",
          "name": "_quantity",
          "type": "uint256[]"
        }
      ],
      "name": "mintForShop",
      "outputs": [],
      "stateMutability": "nonpayable",
      "type": "function"
    },
    {
      "inputs": [
        {
          "internalType": "address",
          "name": "_user",
          "type": "address"
        },
        {
          "internalType": "uint256",
          "name": "_id",
          "type": "uint256"
        },
        {
          "internalType": "uint256",
          "name": "_quantity",
          "type": "uint256"
        }
      ],
      "name": "mintForTrade",
      "outputs": [],
      "stateMutability": "nonpayable",
      "type": "function"
    },
    {
      "inputs": [
        {
          "internalType": "uint256",
          "name": "_mission",
          "type": "uint256"
        },
        {
          "internalType": "uint256",
          "name": "_monster",
          "type": "uint256"
        },
        {
          "internalType": "address",
          "name": "_user",
          "type": "address"
        },
        {
          "internalType": "uint256",
          "name": "_odds",
          "type": "uint256"
        }
      ],
      "name": "missionsReward",
      "outputs": [],
      "stateMutability": "nonpayable",
      "type": "function"
    },
    {
      "inputs": [],
      "name": "owner",
      "outputs": [
        {
          "internalType": "address",
          "name": "",
          "type": "address"
        }
      ],
      "stateMutability": "view",
      "type": "function"
    },
    {
      "inputs": [],
      "name": "renounceOwnership",
      "outputs": [],
      "stateMutability": "nonpayable",
      "type": "function"
    },
    {
      "inputs": [
        {
          "internalType": "address",
          "name": "from",
          "type": "address"
        },
        {
          "internalType": "address",
          "name": "to",
          "type": "address"
        },
        {
          "internalType": "uint256[]",
          "name": "ids",
          "type": "uint256[]"
        },
        {
          "internalType": "uint256[]",
          "name": "amounts",
          "type": "uint256[]"
        },
        {
          "internalType": "bytes",
          "name": "data",
          "type": "bytes"
        }
      ],
      "name": "safeBatchTransferFrom",
      "outputs": [],
      "stateMutability": "nonpayable",
      "type": "function"
    },
    {
      "inputs": [
        {
          "internalType": "address",
          "name": "from",
          "type": "address"
        },
        {
          "internalType": "address",
          "name": "to",
          "type": "address"
        },
        {
          "internalType": "uint256",
          "name": "id",
          "type": "uint256"
        },
        {
          "internalType": "uint256",
          "name": "amount",
          "type": "uint256"
        },
        {
          "internalType": "bytes",
          "name": "data",
          "type": "bytes"
        }
      ],
      "name": "safeTransferFrom",
      "outputs": [],
      "stateMutability": "nonpayable",
      "type": "function"
    },
    {
      "inputs": [
        {
          "internalType": "address",
          "name": "_operator",
          "type": "address"
        },
        {
          "internalType": "bool",
          "name": "_approved",
          "type": "bool"
        }
      ],
      "name": "setApprovalAll",
      "outputs": [],
      "stateMutability": "nonpayable",
      "type": "function"
    },
    {
      "inputs": [
        {
          "internalType": "address",
          "name": "operator",
          "type": "address"
        },
        {
          "internalType": "bool",
          "name": "approved",
          "type": "bool"
        }
      ],
      "name": "setApprovalForAll",
      "outputs": [],
      "stateMutability": "nonpayable",
      "type": "function"
    },
    {
      "inputs": [
        {
          "internalType": "address",
          "name": "_approved",
          "type": "address"
        }
      ],
      "name": "setApprovedAddress",
      "outputs": [],
      "stateMutability": "nonpayable",
      "type": "function"
    },
    {
      "inputs": [
        {
          "internalType": "bytes4",
          "name": "interfaceId",
          "type": "bytes4"
        }
      ],
      "name": "supportsInterface",
      "outputs": [
        {
          "internalType": "bool",
          "name": "",
          "type": "bool"
        }
      ],
      "stateMutability": "view",
      "type": "function"
    },
    {
      "inputs": [
        {
          "internalType": "address",
          "name": "newOwner",
          "type": "address"
        }
      ],
      "name": "transferOwnership",
      "outputs": [],
      "stateMutability": "nonpayable",
      "type": "function"
    },
    {
      "inputs": [
        {
          "internalType": "uint256",
          "name": "",
          "type": "uint256"
        }
      ],
      "name": "uri",
      "outputs": [
        {
          "internalType": "string",
          "name": "",
          "type": "string"
        }
      ],
      "stateMutability": "view",
      "type": "function"
    }
  ],
  "bytecode": "0x60806040523480156200001157600080fd5b506040518060200160405280600081525062000033816200005a60201b60201c565b5062000054620000486200007660201b60201c565b6200007e60201b60201c565b62000259565b80600290805190602001906200007292919062000144565b5050565b600033905090565b6000600360009054906101000a900473ffffffffffffffffffffffffffffffffffffffff16905081600360006101000a81548173ffffffffffffffffffffffffffffffffffffffff021916908373ffffffffffffffffffffffffffffffffffffffff1602179055508173ffffffffffffffffffffffffffffffffffffffff168173ffffffffffffffffffffffffffffffffffffffff167f8be0079c531659141344cd1fd0a4f28419497f9722a3daafe3b4186f6b6457e060405160405180910390a35050565b8280546200015290620001f4565b90600052602060002090601f016020900481019282620001765760008555620001c2565b82601f106200019157805160ff1916838001178555620001c2565b82800160010185558215620001c2579182015b82811115620001c1578251825591602001919060010190620001a4565b5b509050620001d19190620001d5565b5090565b5b80821115620001f0576000816000905550600101620001d6565b5090565b600060028204905060018216806200020d57607f821691505b602082108114156200022457620002236200022a565b5b50919050565b7f4e487b7100000000000000000000000000000000000000000000000000000000600052602260045260246000fd5b61463580620002696000396000f3fe608060405234801561001057600080fd5b50600436106101725760003560e01c806372846ea5116100de578063bfb231d211610097578063ea59796a11610071578063ea59796a1461047d578063eff071ba14610499578063f242432a146104b5578063f2fde38b146104d157610172565b8063bfb231d214610401578063e3fd44ee14610431578063e985e9c51461044d57610172565b806372846ea51461032f5780638950a1c11461034b5780638b87c5441461037b5780638da5cb5b146103ab5780639c5bbc89146103c9578063a22cb465146103e557610172565b8063410d59cc11610130578063410d59cc1461025b578063479bd43b146102795780634e1273f4146102955780635eb39968146102c55780636a85f2c3146102f5578063715018a61461032557610172565b8062fdd58e1461017757806301ffc9a7146101a75780630a196687146101d75780630e89341c146101f35780632eb2c2d61461022357806332f1efc01461023f575b600080fd5b610191600480360381019061018c91906133cc565b6104ed565b60405161019e9190613cdb565b60405180910390f35b6101c160048036038101906101bc9190613504565b6105b6565b6040516101ce9190613afe565b60405180910390f35b6101f160048036038101906101ec9190613390565b610698565b005b61020d60048036038101906102089190613556565b6106a6565b60405161021a9190613b19565b60405180910390f35b61023d600480360381019061023891906131b9565b61073a565b005b6102596004803603810190610254919061366b565b6107db565b005b610263610896565b6040516102709190613aa5565b60405180910390f35b610293600480360381019061028e91906134c3565b610987565b005b6102af60048036038101906102aa9190613457565b610ada565b6040516102bc9190613aa5565b60405180910390f35b6102df60048036038101906102da9190613556565b610c8b565b6040516102ec9190613d64565b60405180910390f35b61030f600480360381019061030a9190613154565b610cab565b60405161031c9190613afe565b60405180910390f35b61032d610ccb565b005b6103496004803603810190610344919061357f565b610d53565b005b61036560048036038101906103609190613556565b610ee5565b6040516103729190613d64565b60405180910390f35b61039560048036038101906103909190613154565b610f10565b6040516103a29190613aa5565b60405180910390f35b6103b361102b565b6040516103c091906139c8565b60405180910390f35b6103e360048036038101906103de9190613154565b611055565b005b6103ff60048036038101906103fa9190613390565b61112c565b005b61041b60048036038101906104169190613556565b611142565b6040516104289190613d64565b60405180910390f35b61044b60048036038101906104469190613307565b611162565b005b6104676004803603810190610462919061317d565b6112be565b6040516104749190613afe565b60405180910390f35b61049760048036038101906104929190613408565b611352565b005b6104b360048036038101906104ae91906135e2565b611408565b005b6104cf60048036038101906104ca9190613278565b61162e565b005b6104eb60048036038101906104e69190613154565b6116cf565b005b60008073ffffffffffffffffffffffffffffffffffffffff168373ffffffffffffffffffffffffffffffffffffffff16141561055e576040517f08c379a000000000000000000000000000000000000000000000000000000000815260040161055590613b7b565b60405180910390fd5b60008083815260200190815260200160002060008473ffffffffffffffffffffffffffffffffffffffff1673ffffffffffffffffffffffffffffffffffffffff16815260200190815260200160002054905092915050565b60007fd9b67a26000000000000000000000000000000000000000000000000000000007bffffffffffffffffffffffffffffffffffffffffffffffffffffffff1916827bffffffffffffffffffffffffffffffffffffffffffffffffffffffff1916148061068157507f0e89341c000000000000000000000000000000000000000000000000000000007bffffffffffffffffffffffffffffffffffffffffffffffffffffffff1916827bffffffffffffffffffffffffffffffffffffffffffffffffffffffff1916145b806106915750610690826117c7565b5b9050919050565b6106a2828261112c565b5050565b6060600280546106b590613fb7565b80601f01602080910402602001604051908101604052809291908181526020018280546106e190613fb7565b801561072e5780601f106107035761010080835404028352916020019161072e565b820191906000526020600020905b81548152906001019060200180831161071157829003601f168201915b50505050509050919050565b610742611831565b73ffffffffffffffffffffffffffffffffffffffff168573ffffffffffffffffffffffffffffffffffffffff161480610788575061078785610782611831565b6112be565b5b6107c7576040517f08c379a00000000000000000000000000000000000000000000000000000000081526004016107be90613bfb565b60405180910390fd5b6107d48585858585611839565b5050505050565b336000600660008373ffffffffffffffffffffffffffffffffffffffff1673ffffffffffffffffffffffffffffffffffffffff16815260200190815260200160002060009054906101000a900460ff1690508061086f57816040517f0ca968d800000000000000000000000000000000000000000000000000000000815260040161086691906139c8565b60405180910390fd5b6002861461088357610882858585611ba7565b5b61088e858585611d42565b505050505050565b60606000600360149054906101000a900460ff1660ff1690508067ffffffffffffffff8111156108ef577f4e487b7100000000000000000000000000000000000000000000000000000000600052604160045260246000fd5b60405190808252806020026020018201604052801561091d5781602001602082028036833780820191505090505b50915060005b818110156109825780838281518110610965577f4e487b7100000000000000000000000000000000000000000000000000000000600052603260045260246000fd5b6020026020010181815250508061097b9061401a565b9050610923565b505090565b61098f611831565b73ffffffffffffffffffffffffffffffffffffffff166109ad61102b565b73ffffffffffffffffffffffffffffffffffffffff1614610a03576040517f08c379a00000000000000000000000000000000000000000000000000000000081526004016109fa90613c3b565b60405180910390fd5b6000600360149054906101000a900460ff1660ff1690506000825182610a299190613e9e565b905060008290505b8160ff16811015610ab957838181518110610a75577f4e487b7100000000000000000000000000000000000000000000000000000000600052603260045260246000fd5b60200260200101516004600083815260200190815260200160002060006101000a81548160ff021916908360ff16021790555080610ab29061401a565b9050610a31565b5080600360146101000a81548160ff021916908360ff160217905550505050565b60608151835114610b20576040517f08c379a0000000000000000000000000000000000000000000000000000000008152600401610b1790613c7b565b60405180910390fd5b6000835167ffffffffffffffff811115610b63577f4e487b7100000000000000000000000000000000000000000000000000000000600052604160045260246000fd5b604051908082528060200260200182016040528015610b915781602001602082028036833780820191505090505b50905060005b8451811015610c8057610c2a858281518110610bdc577f4e487b7100000000000000000000000000000000000000000000000000000000600052603260045260246000fd5b6020026020010151858381518110610c1d577f4e487b7100000000000000000000000000000000000000000000000000000000600052603260045260246000fd5b60200260200101516104ed565b828281518110610c63577f4e487b7100000000000000000000000000000000000000000000000000000000600052603260045260246000fd5b60200260200101818152505080610c799061401a565b9050610b97565b508091505092915050565b60056020528060005260406000206000915054906101000a900460ff1681565b60066020528060005260406000206000915054906101000a900460ff1681565b610cd3611831565b73ffffffffffffffffffffffffffffffffffffffff16610cf161102b565b73ffffffffffffffffffffffffffffffffffffffff1614610d47576040517f08c379a0000000000000000000000000000000000000000000000000000000008152600401610d3e90613c3b565b60405180910390fd5b610d516000611edd565b565b336000600660008373ffffffffffffffffffffffffffffffffffffffff1673ffffffffffffffffffffffffffffffffffffffff16815260200190815260200160002060009054906101000a900460ff16905080610de757816040517f0ca968d8000000000000000000000000000000000000000000000000000000008152600401610dde91906139c8565b60405180910390fd5b82841015610e68576000610dfb6006611fa3565b90506000610e0960066120db565b9050610e2687838360405180602001604052806000815250612213565b7ffae2d42a8d274c1c0cab22a3da2347f6980fc8b5c870390b3feab38dca79a841888383604051610e5993929190613cf6565b60405180910390a15050610edd565b6000610e746007611fa3565b90506000610e8260076120db565b9050610e9f87838360405180602001604052806000815250612213565b7ffae2d42a8d274c1c0cab22a3da2347f6980fc8b5c870390b3feab38dca79a841888383604051610ed293929190613cf6565b60405180910390a150505b505050505050565b60076020528060005260406000206000915090508060000160009054906101000a900460ff16905081565b60606000600360149054906101000a900460ff1660ff16905060008167ffffffffffffffff811115610f6b577f4e487b7100000000000000000000000000000000000000000000000000000000600052604160045260246000fd5b604051908082528060200260200182016040528015610f995781602001602082028036833780820191505090505b50905060005b82811015611020576000610fb386836104ed565b9050600081111561100e57610fc886836104ed565b838381518110611001577f4e487b7100000000000000000000000000000000000000000000000000000000600052603260045260246000fd5b6020026020010181815250505b50806110199061401a565b9050610f9f565b508092505050919050565b6000600360009054906101000a900473ffffffffffffffffffffffffffffffffffffffff16905090565b61105d611831565b73ffffffffffffffffffffffffffffffffffffffff1661107b61102b565b73ffffffffffffffffffffffffffffffffffffffff16146110d1576040517f08c379a00000000000000000000000000000000000000000000000000000000081526004016110c890613c3b565b60405180910390fd5b6001600660008373ffffffffffffffffffffffffffffffffffffffff1673ffffffffffffffffffffffffffffffffffffffff16815260200190815260200160002060006101000a81548160ff02191690831515021790555050565b61113e611137611831565b838361248c565b5050565b60046020528060005260406000206000915054906101000a900460ff1681565b336000600660008373ffffffffffffffffffffffffffffffffffffffff1673ffffffffffffffffffffffffffffffffffffffff16815260200190815260200160002060009054906101000a900460ff169050806111f657816040517f0ca968d80000000000000000000000000000000000000000000000000000000081526004016111ed91906139c8565b60405180910390fd5b600086869050905060005b818110156112b3576112a289898984818110611246577f4e487b7100000000000000000000000000000000000000000000000000000000600052603260045260246000fd5b90506020020135888885818110611286577f4e487b7100000000000000000000000000000000000000000000000000000000600052603260045260246000fd5b90506020020135604051806020016040528060008152506125f9565b806112ac9061401a565b9050611201565b505050505050505050565b6000600160008473ffffffffffffffffffffffffffffffffffffffff1673ffffffffffffffffffffffffffffffffffffffff16815260200190815260200160002060008373ffffffffffffffffffffffffffffffffffffffff1673ffffffffffffffffffffffffffffffffffffffff16815260200190815260200160002060009054906101000a900460ff16905092915050565b336000600660008373ffffffffffffffffffffffffffffffffffffffff1673ffffffffffffffffffffffffffffffffffffffff16815260200190815260200160002060009054906101000a900460ff169050806113e657816040517f0ca968d80000000000000000000000000000000000000000000000000000000081526004016113dd91906139c8565b60405180910390fd5b611401858585604051806020016040528060008152506125f9565b5050505050565b611410611831565b73ffffffffffffffffffffffffffffffffffffffff1661142e61102b565b73ffffffffffffffffffffffffffffffffffffffff1614611484576040517f08c379a000000000000000000000000000000000000000000000000000000000815260040161147b90613c3b565b60405180910390fd5b6000600360159054906101000a900460ff1660ff169050600060076000838152602001908152602001600020905060005b868690508110156115cb57868690508260000160006101000a81548160ff021916908360ff160217905550868682818110611519577f4e487b7100000000000000000000000000000000000000000000000000000000600052603260045260246000fd5b9050602002013582600101600083815260200190815260200160002060006101000a81548160ff021916908360ff160217905550848482818110611586577f4e487b7100000000000000000000000000000000000000000000000000000000600052603260045260246000fd5b9050602002013582600201600083815260200190815260200160002060006101000a81548160ff021916908360ff160217905550806115c49061401a565b90506114b5565b50866005600084815260200190815260200160002060006101000a81548160ff021916908360ff16021790555060006001836116079190613e9e565b905080600360156101000a81548160ff021916908360ff1602179055505050505050505050565b611636611831565b73ffffffffffffffffffffffffffffffffffffffff168573ffffffffffffffffffffffffffffffffffffffff16148061167c575061167b85611676611831565b6112be565b5b6116bb576040517f08c379a00000000000000000000000000000000000000000000000000000000081526004016116b290613bbb565b60405180910390fd5b6116c885858585856127aa565b5050505050565b6116d7611831565b73ffffffffffffffffffffffffffffffffffffffff166116f561102b565b73ffffffffffffffffffffffffffffffffffffffff161461174b576040517f08c379a000000000000000000000000000000000000000000000000000000000815260040161174290613c3b565b60405180910390fd5b600073ffffffffffffffffffffffffffffffffffffffff168173ffffffffffffffffffffffffffffffffffffffff1614156117bb576040517f08c379a00000000000000000000000000000000000000000000000000000000081526004016117b290613b9b565b60405180910390fd5b6117c481611edd565b50565b60007f01ffc9a7000000000000000000000000000000000000000000000000000000007bffffffffffffffffffffffffffffffffffffffffffffffffffffffff1916827bffffffffffffffffffffffffffffffffffffffffffffffffffffffff1916149050919050565b600033905090565b815183511461187d576040517f08c379a000000000000000000000000000000000000000000000000000000000815260040161187490613c9b565b60405180910390fd5b600073ffffffffffffffffffffffffffffffffffffffff168473ffffffffffffffffffffffffffffffffffffffff1614156118ed576040517f08c379a00000000000000000000000000000000000000000000000000000000081526004016118e490613bdb565b60405180910390fd5b60006118f7611831565b9050611907818787878787612a46565b60005b8451811015611b0457600085828151811061194e577f4e487b7100000000000000000000000000000000000000000000000000000000600052603260045260246000fd5b602002602001015190506000858381518110611993577f4e487b7100000000000000000000000000000000000000000000000000000000600052603260045260246000fd5b60200260200101519050600080600084815260200190815260200160002060008b73ffffffffffffffffffffffffffffffffffffffff1673ffffffffffffffffffffffffffffffffffffffff16815260200190815260200160002054905081811015611a34576040517f08c379a0000000000000000000000000000000000000000000000000000000008152600401611a2b90613c1b565b60405180910390fd5b81810360008085815260200190815260200160002060008c73ffffffffffffffffffffffffffffffffffffffff1673ffffffffffffffffffffffffffffffffffffffff168152602001908152602001600020819055508160008085815260200190815260200160002060008b73ffffffffffffffffffffffffffffffffffffffff1673ffffffffffffffffffffffffffffffffffffffff1681526020019081526020016000206000828254611ae99190613e9e565b9250508190555050505080611afd9061401a565b905061190a565b508473ffffffffffffffffffffffffffffffffffffffff168673ffffffffffffffffffffffffffffffffffffffff168273ffffffffffffffffffffffffffffffffffffffff167f4a39dc06d4c0dbc64b70af90fd698a233a518aa5d07e595d983b8c0526c8f7fb8787604051611b7b929190613ac7565b60405180910390a4611b91818787878787612a4e565b611b9f818787878787612a56565b505050505050565b603c8111158015611bb9575080600011155b15611c37576000611bca6000611fa3565b90506000611bd860006120db565b9050611bf584838360405180602001604052806000815250612213565b7f83e51ba9214e3eef6a01098e80f1c90c8e6a0f08ef9358ddd249720ecd85d45e858383604051611c2893929190613cf6565b60405180910390a15050611d3d565b605a8111158015611c49575080604611155b15611cc7576000611c5a6001611fa3565b90506000611c6860016120db565b9050611c8584838360405180602001604052806000815250612213565b7f83e51ba9214e3eef6a01098e80f1c90c8e6a0f08ef9358ddd249720ecd85d45e858383604051611cb893929190613cf6565b60405180910390a15050611d3c565b6000611cd36002611fa3565b90506000611ce160026120db565b9050611cfe84838360405180602001604052806000815250612213565b7f83e51ba9214e3eef6a01098e80f1c90c8e6a0f08ef9358ddd249720ecd85d45e858383604051611d3193929190613cf6565b60405180910390a150505b5b505050565b603c8111158015611d54575080600011155b15611dd2576000611d656003611fa3565b90506000611d7360036120db565b9050611d9084838360405180602001604052806000815250612213565b7fb00c7981bf4621a5743d79adc290366c61b1e36e458e5ab28203321b54a18f5a858383604051611dc393929190613cf6565b60405180910390a15050611ed8565b605a8111158015611de4575080604611155b15611e62576000611df56004611fa3565b90506000611e0360046120db565b9050611e2084838360405180602001604052806000815250612213565b7fb00c7981bf4621a5743d79adc290366c61b1e36e458e5ab28203321b54a18f5a858383604051611e5393929190613cf6565b60405180910390a15050611ed7565b6000611e6e6005611fa3565b90506000611e7c60056120db565b9050611e9984838360405180602001604052806000815250612213565b7fb00c7981bf4621a5743d79adc290366c61b1e36e458e5ab28203321b54a18f5a858383604051611ecc93929190613cf6565b60405180910390a150505b5b505050565b6000600360009054906101000a900473ffffffffffffffffffffffffffffffffffffffff16905081600360006101000a81548173ffffffffffffffffffffffffffffffffffffffff021916908373ffffffffffffffffffffffffffffffffffffffff1602179055508173ffffffffffffffffffffffffffffffffffffffff168173ffffffffffffffffffffffffffffffffffffffff167f8be0079c531659141344cd1fd0a4f28419497f9722a3daafe3b4186f6b6457e060405160405180910390a35050565b6060600060076000848152602001908152602001600020905060008160000160009054906101000a900460ff1660ff1690508067ffffffffffffffff811115612015577f4e487b7100000000000000000000000000000000000000000000000000000000600052604160045260246000fd5b6040519080825280602002602001820160405280156120435781602001602082028036833780820191505090505b50925060005b818110156120d357600083600101600083815260200190815260200160002060009054906101000a900460ff1660ff169050808583815181106120b5577f4e487b7100000000000000000000000000000000000000000000000000000000600052603260045260246000fd5b60200260200101818152505050806120cc9061401a565b9050612049565b505050919050565b6060600060076000848152602001908152602001600020905060008160000160009054906101000a900460ff1660ff1690508067ffffffffffffffff81111561214d577f4e487b7100000000000000000000000000000000000000000000000000000000600052604160045260246000fd5b60405190808252806020026020018201604052801561217b5781602001602082028036833780820191505090505b50925060005b8181101561220b57600083600201600083815260200190815260200160002060009054906101000a900460ff1660ff169050808583815181106121ed577f4e487b7100000000000000000000000000000000000000000000000000000000600052603260045260246000fd5b60200260200101818152505050806122049061401a565b9050612181565b505050919050565b600073ffffffffffffffffffffffffffffffffffffffff168473ffffffffffffffffffffffffffffffffffffffff161415612283576040517f08c379a000000000000000000000000000000000000000000000000000000000815260040161227a90613cbb565b60405180910390fd5b81518351146122c7576040517f08c379a00000000000000000000000000000000000000000000000000000000081526004016122be90613c9b565b60405180910390fd5b60006122d1611831565b90506122e281600087878787612a46565b60005b84518110156123e757838181518110612327577f4e487b7100000000000000000000000000000000000000000000000000000000600052603260045260246000fd5b602002602001015160008087848151811061236b577f4e487b7100000000000000000000000000000000000000000000000000000000600052603260045260246000fd5b6020026020010151815260200190815260200160002060008873ffffffffffffffffffffffffffffffffffffffff1673ffffffffffffffffffffffffffffffffffffffff16815260200190815260200160002060008282546123cd9190613e9e565b9250508190555080806123df9061401a565b9150506122e5565b508473ffffffffffffffffffffffffffffffffffffffff16600073ffffffffffffffffffffffffffffffffffffffff168273ffffffffffffffffffffffffffffffffffffffff167f4a39dc06d4c0dbc64b70af90fd698a233a518aa5d07e595d983b8c0526c8f7fb878760405161245f929190613ac7565b60405180910390a461247681600087878787612a4e565b61248581600087878787612a56565b5050505050565b8173ffffffffffffffffffffffffffffffffffffffff168373ffffffffffffffffffffffffffffffffffffffff1614156124fb576040517f08c379a00000000000000000000000000000000000000000000000000000000081526004016124f290613c5b565b60405180910390fd5b80600160008573ffffffffffffffffffffffffffffffffffffffff1673ffffffffffffffffffffffffffffffffffffffff16815260200190815260200160002060008473ffffffffffffffffffffffffffffffffffffffff1673ffffffffffffffffffffffffffffffffffffffff16815260200190815260200160002060006101000a81548160ff0219169083151502179055508173ffffffffffffffffffffffffffffffffffffffff168373ffffffffffffffffffffffffffffffffffffffff167f17307eab39ab6107e8899845ad3d59bd9653f200f220920489ca2b5937696c31836040516125ec9190613afe565b60405180910390a3505050565b600073ffffffffffffffffffffffffffffffffffffffff168473ffffffffffffffffffffffffffffffffffffffff161415612669576040517f08c379a000000000000000000000000000000000000000000000000000000000815260040161266090613cbb565b60405180910390fd5b6000612673611831565b9050600061268085612c3d565b9050600061268d85612c3d565b905061269e83600089858589612a46565b8460008088815260200190815260200160002060008973ffffffffffffffffffffffffffffffffffffffff1673ffffffffffffffffffffffffffffffffffffffff16815260200190815260200160002060008282546126fd9190613e9e565b925050819055508673ffffffffffffffffffffffffffffffffffffffff16600073ffffffffffffffffffffffffffffffffffffffff168473ffffffffffffffffffffffffffffffffffffffff167fc3d58168c5ae7397731d063d5bbf3d657854427343f4c083240f7aacaa2d0f62898960405161277b929190613d3b565b60405180910390a461279283600089858589612a4e565b6127a183600089898989612d03565b50505050505050565b600073ffffffffffffffffffffffffffffffffffffffff168473ffffffffffffffffffffffffffffffffffffffff16141561281a576040517f08c379a000000000000000000000000000000000000000000000000000000000815260040161281190613bdb565b60405180910390fd5b6000612824611831565b9050600061283185612c3d565b9050600061283e85612c3d565b905061284e838989858589612a46565b600080600088815260200190815260200160002060008a73ffffffffffffffffffffffffffffffffffffffff1673ffffffffffffffffffffffffffffffffffffffff168152602001908152602001600020549050858110156128e5576040517f08c379a00000000000000000000000000000000000000000000000000000000081526004016128dc90613c1b565b60405180910390fd5b85810360008089815260200190815260200160002060008b73ffffffffffffffffffffffffffffffffffffffff1673ffffffffffffffffffffffffffffffffffffffff168152602001908152602001600020819055508560008089815260200190815260200160002060008a73ffffffffffffffffffffffffffffffffffffffff1673ffffffffffffffffffffffffffffffffffffffff168152602001908152602001600020600082825461299a9190613e9e565b925050819055508773ffffffffffffffffffffffffffffffffffffffff168973ffffffffffffffffffffffffffffffffffffffff168573ffffffffffffffffffffffffffffffffffffffff167fc3d58168c5ae7397731d063d5bbf3d657854427343f4c083240f7aacaa2d0f628a8a604051612a17929190613d3b565b60405180910390a4612a2d848a8a86868a612a4e565b612a3b848a8a8a8a8a612d03565b505050505050505050565b505050505050565b505050505050565b612a758473ffffffffffffffffffffffffffffffffffffffff16612eea565b15612c35578373ffffffffffffffffffffffffffffffffffffffff1663bc197c8187878686866040518663ffffffff1660e01b8152600401612abb9594939291906139e3565b602060405180830381600087803b158015612ad557600080fd5b505af1925050508015612b0657506040513d601f19601f82011682018060405250810190612b03919061352d565b60015b612bac57612b126140f0565b806308c379a01415612b6f5750612b2761450d565b80612b325750612b71565b806040517f08c379a0000000000000000000000000000000000000000000000000000000008152600401612b669190613b19565b60405180910390fd5b505b6040517f08c379a0000000000000000000000000000000000000000000000000000000008152600401612ba390613b3b565b60405180910390fd5b63bc197c8160e01b7bffffffffffffffffffffffffffffffffffffffffffffffffffffffff1916817bffffffffffffffffffffffffffffffffffffffffffffffffffffffff191614612c33576040517f08c379a0000000000000000000000000000000000000000000000000000000008152600401612c2a90613b5b565b60405180910390fd5b505b505050505050565b60606000600167ffffffffffffffff811115612c82577f4e487b7100000000000000000000000000000000000000000000000000000000600052604160045260246000fd5b604051908082528060200260200182016040528015612cb05781602001602082028036833780820191505090505b5090508281600081518110612cee577f4e487b7100000000000000000000000000000000000000000000000000000000600052603260045260246000fd5b60200260200101818152505080915050919050565b612d228473ffffffffffffffffffffffffffffffffffffffff16612eea565b15612ee2578373ffffffffffffffffffffffffffffffffffffffff1663f23a6e6187878686866040518663ffffffff1660e01b8152600401612d68959493929190613a4b565b602060405180830381600087803b158015612d8257600080fd5b505af1925050508015612db357506040513d601f19601f82011682018060405250810190612db0919061352d565b60015b612e5957612dbf6140f0565b806308c379a01415612e1c5750612dd461450d565b80612ddf5750612e1e565b806040517f08c379a0000000000000000000000000000000000000000000000000000000008152600401612e139190613b19565b60405180910390fd5b505b6040517f08c379a0000000000000000000000000000000000000000000000000000000008152600401612e5090613b3b565b60405180910390fd5b63f23a6e6160e01b7bffffffffffffffffffffffffffffffffffffffffffffffffffffffff1916817bffffffffffffffffffffffffffffffffffffffffffffffffffffffff191614612ee0576040517f08c379a0000000000000000000000000000000000000000000000000000000008152600401612ed790613b5b565b60405180910390fd5b505b505050505050565b6000808273ffffffffffffffffffffffffffffffffffffffff163b119050919050565b6000612f20612f1b84613da4565b613d7f565b90508083825260208201905082856020860282011115612f3f57600080fd5b60005b85811015612f6f5781612f558882613023565b845260208401935060208301925050600181019050612f42565b5050509392505050565b6000612f8c612f8784613dd0565b613d7f565b90508083825260208201905082856020860282011115612fab57600080fd5b60005b85811015612fdb5781612fc1888261313f565b845260208401935060208301925050600181019050612fae565b5050509392505050565b6000612ff8612ff384613dfc565b613d7f565b90508281526020810184848401111561301057600080fd5b61301b848285613f75565b509392505050565b600081359050613032816145a3565b92915050565b600082601f83011261304957600080fd5b8135613059848260208601612f0d565b91505092915050565b60008083601f84011261307457600080fd5b8235905067ffffffffffffffff81111561308d57600080fd5b6020830191508360208202830111156130a557600080fd5b9250929050565b600082601f8301126130bd57600080fd5b81356130cd848260208601612f79565b91505092915050565b6000813590506130e5816145ba565b92915050565b6000813590506130fa816145d1565b92915050565b60008151905061310f816145d1565b92915050565b600082601f83011261312657600080fd5b8135613136848260208601612fe5565b91505092915050565b60008135905061314e816145e8565b92915050565b60006020828403121561316657600080fd5b600061317484828501613023565b91505092915050565b6000806040838503121561319057600080fd5b600061319e85828601613023565b92505060206131af85828601613023565b9150509250929050565b600080600080600060a086880312156131d157600080fd5b60006131df88828901613023565b95505060206131f088828901613023565b945050604086013567ffffffffffffffff81111561320d57600080fd5b613219888289016130ac565b935050606086013567ffffffffffffffff81111561323657600080fd5b613242888289016130ac565b925050608086013567ffffffffffffffff81111561325f57600080fd5b61326b88828901613115565b9150509295509295909350565b600080600080600060a0868803121561329057600080fd5b600061329e88828901613023565b95505060206132af88828901613023565b94505060406132c08882890161313f565b93505060606132d18882890161313f565b925050608086013567ffffffffffffffff8111156132ee57600080fd5b6132fa88828901613115565b9150509295509295909350565b60008060008060006060868803121561331f57600080fd5b600061332d88828901613023565b955050602086013567ffffffffffffffff81111561334a57600080fd5b61335688828901613062565b9450945050604086013567ffffffffffffffff81111561337557600080fd5b61338188828901613062565b92509250509295509295909350565b600080604083850312156133a357600080fd5b60006133b185828601613023565b92505060206133c2858286016130d6565b9150509250929050565b600080604083850312156133df57600080fd5b60006133ed85828601613023565b92505060206133fe8582860161313f565b9150509250929050565b60008060006060848603121561341d57600080fd5b600061342b86828701613023565b935050602061343c8682870161313f565b925050604061344d8682870161313f565b9150509250925092565b6000806040838503121561346a57600080fd5b600083013567ffffffffffffffff81111561348457600080fd5b61349085828601613038565b925050602083013567ffffffffffffffff8111156134ad57600080fd5b6134b9858286016130ac565b9150509250929050565b6000602082840312156134d557600080fd5b600082013567ffffffffffffffff8111156134ef57600080fd5b6134fb848285016130ac565b91505092915050565b60006020828403121561351657600080fd5b6000613524848285016130eb565b91505092915050565b60006020828403121561353f57600080fd5b600061354d84828501613100565b91505092915050565b60006020828403121561356857600080fd5b60006135768482850161313f565b91505092915050565b6000806000806080858703121561359557600080fd5b60006135a38782880161313f565b94505060206135b487828801613023565b93505060406135c58782880161313f565b92505060606135d68782880161313f565b91505092959194509250565b6000806000806000606086880312156135fa57600080fd5b60006136088882890161313f565b955050602086013567ffffffffffffffff81111561362557600080fd5b61363188828901613062565b9450945050604086013567ffffffffffffffff81111561365057600080fd5b61365c88828901613062565b92509250509295509295909350565b6000806000806080858703121561368157600080fd5b600061368f8782880161313f565b94505060206136a08782880161313f565b93505060406136b187828801613023565b92505060606136c28782880161313f565b91505092959194509250565b60006136da838361399b565b60208301905092915050565b6136ef81613ef4565b82525050565b600061370082613e3d565b61370a8185613e6b565b935061371583613e2d565b8060005b8381101561374657815161372d88826136ce565b975061373883613e5e565b925050600181019050613719565b5085935050505092915050565b61375c81613f06565b82525050565b600061376d82613e48565b6137778185613e7c565b9350613787818560208601613f84565b61379081614112565b840191505092915050565b60006137a682613e53565b6137b08185613e8d565b93506137c0818560208601613f84565b6137c981614112565b840191505092915050565b60006137e1603483613e8d565b91506137ec82614130565b604082019050919050565b6000613804602883613e8d565b915061380f8261417f565b604082019050919050565b6000613827602b83613e8d565b9150613832826141ce565b604082019050919050565b600061384a602683613e8d565b91506138558261421d565b604082019050919050565b600061386d602983613e8d565b91506138788261426c565b604082019050919050565b6000613890602583613e8d565b915061389b826142bb565b604082019050919050565b60006138b3603283613e8d565b91506138be8261430a565b604082019050919050565b60006138d6602a83613e8d565b91506138e182614359565b604082019050919050565b60006138f9602083613e8d565b9150613904826143a8565b602082019050919050565b600061391c602983613e8d565b9150613927826143d1565b604082019050919050565b600061393f602983613e8d565b915061394a82614420565b604082019050919050565b6000613962602883613e8d565b915061396d8261446f565b604082019050919050565b6000613985602183613e8d565b9150613990826144be565b604082019050919050565b6139a481613f5e565b82525050565b6139b381613f5e565b82525050565b6139c281613f68565b82525050565b60006020820190506139dd60008301846136e6565b92915050565b600060a0820190506139f860008301886136e6565b613a0560208301876136e6565b8181036040830152613a1781866136f5565b90508181036060830152613a2b81856136f5565b90508181036080830152613a3f8184613762565b90509695505050505050565b600060a082019050613a6060008301886136e6565b613a6d60208301876136e6565b613a7a60408301866139aa565b613a8760608301856139aa565b8181036080830152613a998184613762565b90509695505050505050565b60006020820190508181036000830152613abf81846136f5565b905092915050565b60006040820190508181036000830152613ae181856136f5565b90508181036020830152613af581846136f5565b90509392505050565b6000602082019050613b136000830184613753565b92915050565b60006020820190508181036000830152613b33818461379b565b905092915050565b60006020820190508181036000830152613b54816137d4565b9050919050565b60006020820190508181036000830152613b74816137f7565b9050919050565b60006020820190508181036000830152613b948161381a565b9050919050565b60006020820190508181036000830152613bb48161383d565b9050919050565b60006020820190508181036000830152613bd481613860565b9050919050565b60006020820190508181036000830152613bf481613883565b9050919050565b60006020820190508181036000830152613c14816138a6565b9050919050565b60006020820190508181036000830152613c34816138c9565b9050919050565b60006020820190508181036000830152613c54816138ec565b9050919050565b60006020820190508181036000830152613c748161390f565b9050919050565b60006020820190508181036000830152613c9481613932565b9050919050565b60006020820190508181036000830152613cb481613955565b9050919050565b60006020820190508181036000830152613cd481613978565b9050919050565b6000602082019050613cf060008301846139aa565b92915050565b6000606082019050613d0b60008301866139aa565b8181036020830152613d1d81856136f5565b90508181036040830152613d3181846136f5565b9050949350505050565b6000604082019050613d5060008301856139aa565b613d5d60208301846139aa565b9392505050565b6000602082019050613d7960008301846139b9565b92915050565b6000613d89613d9a565b9050613d958282613fe9565b919050565b6000604051905090565b600067ffffffffffffffff821115613dbf57613dbe6140c1565b5b602082029050602081019050919050565b600067ffffffffffffffff821115613deb57613dea6140c1565b5b602082029050602081019050919050565b600067ffffffffffffffff821115613e1757613e166140c1565b5b613e2082614112565b9050602081019050919050565b6000819050602082019050919050565b600081519050919050565b600081519050919050565b600081519050919050565b6000602082019050919050565b600082825260208201905092915050565b600082825260208201905092915050565b600082825260208201905092915050565b6000613ea982613f5e565b9150613eb483613f5e565b9250827fffffffffffffffffffffffffffffffffffffffffffffffffffffffffffffffff03821115613ee957613ee8614063565b5b828201905092915050565b6000613eff82613f3e565b9050919050565b60008115159050919050565b60007fffffffff0000000000000000000000000000000000000000000000000000000082169050919050565b600073ffffffffffffffffffffffffffffffffffffffff82169050919050565b6000819050919050565b600060ff82169050919050565b82818337600083830152505050565b60005b83811015613fa2578082015181840152602081019050613f87565b83811115613fb1576000848401525b50505050565b60006002820490506001821680613fcf57607f821691505b60208210811415613fe357613fe2614092565b5b50919050565b613ff282614112565b810181811067ffffffffffffffff82111715614011576140106140c1565b5b80604052505050565b600061402582613f5e565b91507fffffffffffffffffffffffffffffffffffffffffffffffffffffffffffffffff82141561405857614057614063565b5b600182019050919050565b7f4e487b7100000000000000000000000000000000000000000000000000000000600052601160045260246000fd5b7f4e487b7100000000000000000000000000000000000000000000000000000000600052602260045260246000fd5b7f4e487b7100000000000000000000000000000000000000000000000000000000600052604160045260246000fd5b600060033d111561410f5760046000803e61410c600051614123565b90505b90565b6000601f19601f8301169050919050565b60008160e01c9050919050565b7f455243313135353a207472616e7366657220746f206e6f6e204552433131353560008201527f526563656976657220696d706c656d656e746572000000000000000000000000602082015250565b7f455243313135353a204552433131353552656365697665722072656a6563746560008201527f6420746f6b656e73000000000000000000000000000000000000000000000000602082015250565b7f455243313135353a2062616c616e636520717565727920666f7220746865207a60008201527f65726f2061646472657373000000000000000000000000000000000000000000602082015250565b7f4f776e61626c653a206e6577206f776e657220697320746865207a65726f206160008201527f6464726573730000000000000000000000000000000000000000000000000000602082015250565b7f455243313135353a2063616c6c6572206973206e6f74206f776e6572206e6f7260008201527f20617070726f7665640000000000000000000000000000000000000000000000602082015250565b7f455243313135353a207472616e7366657220746f20746865207a65726f20616460008201527f6472657373000000000000000000000000000000000000000000000000000000602082015250565b7f455243313135353a207472616e736665722063616c6c6572206973206e6f742060008201527f6f776e6572206e6f7220617070726f7665640000000000000000000000000000602082015250565b7f455243313135353a20696e73756666696369656e742062616c616e636520666f60008201527f72207472616e7366657200000000000000000000000000000000000000000000602082015250565b7f4f776e61626c653a2063616c6c6572206973206e6f7420746865206f776e6572600082015250565b7f455243313135353a2073657474696e6720617070726f76616c2073746174757360008201527f20666f722073656c660000000000000000000000000000000000000000000000602082015250565b7f455243313135353a206163636f756e747320616e6420696473206c656e67746860008201527f206d69736d617463680000000000000000000000000000000000000000000000602082015250565b7f455243313135353a2069647320616e6420616d6f756e7473206c656e6774682060008201527f6d69736d61746368000000000000000000000000000000000000000000000000602082015250565b7f455243313135353a206d696e7420746f20746865207a65726f2061646472657360008201527f7300000000000000000000000000000000000000000000000000000000000000602082015250565b600060443d101561451d576145a0565b614525613d9a565b60043d036004823e80513d602482011167ffffffffffffffff8211171561454d5750506145a0565b808201805167ffffffffffffffff81111561456b57505050506145a0565b80602083010160043d0385018111156145885750505050506145a0565b61459782602001850186613fe9565b82955050505050505b90565b6145ac81613ef4565b81146145b757600080fd5b50565b6145c381613f06565b81146145ce57600080fd5b50565b6145da81613f12565b81146145e557600080fd5b50565b6145f181613f5e565b81146145fc57600080fd5b5056fea26469706673582212204716275325cb49fb603024e894dde0ed9816e5c2f38d4fab4435a3ae8e0662d264736f6c63430008040033",
  "linkReferences": {},
  "deployedLinkReferences": {}
}