{
  "_format": "hh-sol-artifact-1",
  "contractName": "Monsters",
  "sourceName": "contracts/MonstersNFT.sol",
  "abi": [
    {
      "inputs": [],
      "stateMutability": "nonpayable",
      "type": "constructor"
    },
    {
      "anonymous": false,
      "inputs": [
        {
          "indexed": true,
          "internalType": "address",
          "name": "owner",
          "type": "address"
        },
        {
          "indexed": true,
          "internalType": "address",
          "name": "approved",
          "type": "address"
        },
        {
          "indexed": true,
          "internalType": "uint256",
          "name": "tokenId",
          "type": "uint256"
        }
      ],
      "name": "Approval",
      "type": "event"
    },
    {
      "anonymous": false,
      "inputs": [
        {
          "indexed": true,
          "internalType": "address",
          "name": "owner",
          "type": "address"
        },
        {
          "indexed": true,
          "internalType": "address",
          "name": "operator",
          "type": "address"
        },
        {
          "indexed": false,
          "internalType": "bool",
          "name": "approved",
          "type": "bool"
        }
      ],
      "name": "ApprovalForAll",
      "type": "event"
    },
    {
      "anonymous": false,
      "inputs": [
        {
          "indexed": true,
          "internalType": "address",
          "name": "previousOwner",
          "type": "address"
        },
        {
          "indexed": true,
          "internalType": "address",
          "name": "newOwner",
          "type": "address"
        }
      ],
      "name": "OwnershipTransferred",
      "type": "event"
    },
    {
      "anonymous": false,
      "inputs": [
        {
          "indexed": true,
          "internalType": "address",
          "name": "from",
          "type": "address"
        },
        {
          "indexed": true,
          "internalType": "address",
          "name": "to",
          "type": "address"
        },
        {
          "indexed": true,
          "internalType": "uint256",
          "name": "tokenId",
          "type": "uint256"
        }
      ],
      "name": "Transfer",
      "type": "event"
    },
    {
      "inputs": [
        {
          "internalType": "address",
          "name": "to",
          "type": "address"
        },
        {
          "internalType": "uint256",
          "name": "tokenId",
          "type": "uint256"
        }
      ],
      "name": "approve",
      "outputs": [],
      "stateMutability": "nonpayable",
      "type": "function"
    },
    {
      "inputs": [
        {
          "internalType": "address",
          "name": "owner",
          "type": "address"
        }
      ],
      "name": "balanceOf",
      "outputs": [
        {
          "internalType": "uint256",
          "name": "",
          "type": "uint256"
        }
      ],
      "stateMutability": "view",
      "type": "function"
    },
    {
      "inputs": [
        {
          "internalType": "uint256",
          "name": "_tokenId",
          "type": "uint256"
        },
        {
          "internalType": "uint256",
          "name": "_amount",
          "type": "uint256"
        }
      ],
      "name": "expUp",
      "outputs": [],
      "stateMutability": "nonpayable",
      "type": "function"
    },
    {
      "inputs": [
        {
          "internalType": "uint256",
          "name": "_tokenId",
          "type": "uint256"
        },
        {
          "internalType": "uint256",
          "name": "_amount",
          "type": "uint256"
        }
      ],
      "name": "feedMonster",
      "outputs": [],
      "stateMutability": "nonpayable",
      "type": "function"
    },
    {
      "inputs": [
        {
          "internalType": "uint256",
          "name": "tokenId",
          "type": "uint256"
        }
      ],
      "name": "getApproved",
      "outputs": [
        {
          "internalType": "address",
          "name": "",
          "type": "address"
        }
      ],
      "stateMutability": "view",
      "type": "function"
    },
    {
      "inputs": [
        {
          "internalType": "uint256",
          "name": "_tokenId",
          "type": "uint256"
        }
      ],
      "name": "getMonsterCooldown",
      "outputs": [
        {
          "internalType": "uint256",
          "name": "",
          "type": "uint256"
        }
      ],
      "stateMutability": "view",
      "type": "function"
    },
    {
      "inputs": [
        {
          "internalType": "uint256",
          "name": "_tokenId",
          "type": "uint256"
        }
      ],
      "name": "getMonsterExp",
      "outputs": [
        {
          "internalType": "uint256",
          "name": "",
          "type": "uint256"
        }
      ],
      "stateMutability": "view",
      "type": "function"
    },
    {
      "inputs": [
        {
          "internalType": "uint256",
          "name": "_tokenId",
          "type": "uint256"
        }
      ],
      "name": "getMonsterExpCap",
      "outputs": [
        {
          "internalType": "uint256",
          "name": "",
          "type": "uint256"
        }
      ],
      "stateMutability": "view",
      "type": "function"
    },
    {
      "inputs": [
        {
          "internalType": "uint256",
          "name": "_tokenId",
          "type": "uint256"
        }
      ],
      "name": "getMonsterHunger",
      "outputs": [
        {
          "internalType": "uint256",
          "name": "",
          "type": "uint256"
        }
      ],
      "stateMutability": "view",
      "type": "function"
    },
    {
      "inputs": [
        {
          "internalType": "uint256",
          "name": "_tokenId",
          "type": "uint256"
        }
      ],
      "name": "getMonsterLevel",
      "outputs": [
        {
          "internalType": "uint256",
          "name": "",
          "type": "uint256"
        }
      ],
      "stateMutability": "view",
      "type": "function"
    },
    {
      "inputs": [
        {
          "internalType": "uint256",
          "name": "_tokenId",
          "type": "uint256"
        }
      ],
      "name": "getMonsterStatus",
      "outputs": [
        {
          "internalType": "uint256",
          "name": "",
          "type": "uint256"
        }
      ],
      "stateMutability": "view",
      "type": "function"
    },
    {
      "inputs": [
        {
          "internalType": "address",
          "name": "_to",
          "type": "address"
        }
      ],
      "name": "getMyMonster",
      "outputs": [
        {
          "internalType": "uint256[]",
          "name": "",
          "type": "uint256[]"
        }
      ],
      "stateMutability": "view",
      "type": "function"
    },
    {
      "inputs": [
        {
          "internalType": "address",
          "name": "owner",
          "type": "address"
        },
        {
          "internalType": "address",
          "name": "operator",
          "type": "address"
        }
      ],
      "name": "isApprovedForAll",
      "outputs": [
        {
          "internalType": "bool",
          "name": "",
          "type": "bool"
        }
      ],
      "stateMutability": "view",
      "type": "function"
    },
    {
      "inputs": [],
      "name": "monsterPopulation",
      "outputs": [
        {
          "internalType": "uint256",
          "name": "",
          "type": "uint256"
        }
      ],
      "stateMutability": "view",
      "type": "function"
    },
    {
      "inputs": [],
      "name": "monsterPopulationCap",
      "outputs": [
        {
          "internalType": "uint256",
          "name": "",
          "type": "uint256"
        }
      ],
      "stateMutability": "view",
      "type": "function"
    },
    {
      "inputs": [
        {
          "internalType": "uint256",
          "name": "",
          "type": "uint256"
        }
      ],
      "name": "monsterStats",
      "outputs": [
        {
          "internalType": "uint256",
          "name": "level",
          "type": "uint256"
        },
        {
          "internalType": "uint256",
          "name": "hunger",
          "type": "uint256"
        },
        {
          "internalType": "uint256",
          "name": "exp",
          "type": "uint256"
        },
        {
          "internalType": "uint256",
          "name": "expCap",
          "type": "uint256"
        },
        {
          "internalType": "uint256",
          "name": "cooldown",
          "type": "uint256"
        },
        {
          "internalType": "uint256",
          "name": "status",
          "type": "uint256"
        }
      ],
      "stateMutability": "view",
      "type": "function"
    },
    {
      "inputs": [],
      "name": "name",
      "outputs": [
        {
          "internalType": "string",
          "name": "",
          "type": "string"
        }
      ],
      "stateMutability": "view",
      "type": "function"
    },
    {
      "inputs": [],
      "name": "nonce",
      "outputs": [
        {
          "internalType": "uint256",
          "name": "",
          "type": "uint256"
        }
      ],
      "stateMutability": "view",
      "type": "function"
    },
    {
      "inputs": [],
      "name": "owner",
      "outputs": [
        {
          "internalType": "address",
          "name": "",
          "type": "address"
        }
      ],
      "stateMutability": "view",
      "type": "function"
    },
    {
      "inputs": [
        {
          "internalType": "uint256",
          "name": "tokenId",
          "type": "uint256"
        }
      ],
      "name": "ownerOf",
      "outputs": [
        {
          "internalType": "address",
          "name": "",
          "type": "address"
        }
      ],
      "stateMutability": "view",
      "type": "function"
    },
    {
      "inputs": [],
      "name": "price",
      "outputs": [
        {
          "internalType": "uint256",
          "name": "",
          "type": "uint256"
        }
      ],
      "stateMutability": "view",
      "type": "function"
    },
    {
      "inputs": [],
      "name": "renounceOwnership",
      "outputs": [],
      "stateMutability": "nonpayable",
      "type": "function"
    },
    {
      "inputs": [
        {
          "internalType": "address",
          "name": "from",
          "type": "address"
        },
        {
          "internalType": "address",
          "name": "to",
          "type": "address"
        },
        {
          "internalType": "uint256",
          "name": "tokenId",
          "type": "uint256"
        }
      ],
      "name": "safeTransferFrom",
      "outputs": [],
      "stateMutability": "nonpayable",
      "type": "function"
    },
    {
      "inputs": [
        {
          "internalType": "address",
          "name": "from",
          "type": "address"
        },
        {
          "internalType": "address",
          "name": "to",
          "type": "address"
        },
        {
          "internalType": "uint256",
          "name": "tokenId",
          "type": "uint256"
        },
        {
          "internalType": "bytes",
          "name": "_data",
          "type": "bytes"
        }
      ],
      "name": "safeTransferFrom",
      "outputs": [],
      "stateMutability": "nonpayable",
      "type": "function"
    },
    {
      "inputs": [
        {
          "internalType": "address",
          "name": "operator",
          "type": "address"
        },
        {
          "internalType": "bool",
          "name": "approved",
          "type": "bool"
        }
      ],
      "name": "setApprovalForAll",
      "outputs": [],
      "stateMutability": "nonpayable",
      "type": "function"
    },
    {
      "inputs": [
        {
          "internalType": "string",
          "name": "baseURI",
          "type": "string"
        }
      ],
      "name": "setBaseURI",
      "outputs": [],
      "stateMutability": "nonpayable",
      "type": "function"
    },
    {
      "inputs": [
        {
          "internalType": "uint256",
          "name": "_tokenId",
          "type": "uint256"
        }
      ],
      "name": "setCooldown",
      "outputs": [],
      "stateMutability": "nonpayable",
      "type": "function"
    },
    {
      "inputs": [
        {
          "internalType": "uint256",
          "name": "_tokenId",
          "type": "uint256"
        },
        {
          "internalType": "uint256",
          "name": "_hunger",
          "type": "uint256"
        }
      ],
      "name": "setHunger",
      "outputs": [],
      "stateMutability": "nonpayable",
      "type": "function"
    },
    {
      "inputs": [
        {
          "internalType": "uint256",
          "name": "_tokenId",
          "type": "uint256"
        },
        {
          "internalType": "uint256",
          "name": "_status",
          "type": "uint256"
        }
      ],
      "name": "setStatus",
      "outputs": [],
      "stateMutability": "nonpayable",
      "type": "function"
    },
    {
      "inputs": [
        {
          "internalType": "uint256",
          "name": "_quantity",
          "type": "uint256"
        }
      ],
      "name": "summon",
      "outputs": [],
      "stateMutability": "payable",
      "type": "function"
    },
    {
      "inputs": [
        {
          "internalType": "bytes4",
          "name": "interfaceId",
          "type": "bytes4"
        }
      ],
      "name": "supportsInterface",
      "outputs": [
        {
          "internalType": "bool",
          "name": "",
          "type": "bool"
        }
      ],
      "stateMutability": "view",
      "type": "function"
    },
    {
      "inputs": [],
      "name": "symbol",
      "outputs": [
        {
          "internalType": "string",
          "name": "",
          "type": "string"
        }
      ],
      "stateMutability": "view",
      "type": "function"
    },
    {
      "inputs": [
        {
          "internalType": "uint256",
          "name": "tokenId",
          "type": "uint256"
        }
      ],
      "name": "tokenURI",
      "outputs": [
        {
          "internalType": "string",
          "name": "",
          "type": "string"
        }
      ],
      "stateMutability": "view",
      "type": "function"
    },
    {
      "inputs": [
        {
          "internalType": "address",
          "name": "from",
          "type": "address"
        },
        {
          "internalType": "address",
          "name": "to",
          "type": "address"
        },
        {
          "internalType": "uint256",
          "name": "tokenId",
          "type": "uint256"
        }
      ],
      "name": "transferFrom",
      "outputs": [],
      "stateMutability": "nonpayable",
      "type": "function"
    },
    {
      "inputs": [
        {
          "internalType": "address",
          "name": "newOwner",
          "type": "address"
        }
      ],
      "name": "transferOwnership",
      "outputs": [],
      "stateMutability": "nonpayable",
      "type": "function"
    },
    {
      "stateMutability": "payable",
      "type": "receive"
    }
  ],
  "bytecode": "0x608060405260006007556064600855600060095566071afd498d0000600a553480156200002b57600080fd5b506040518060400160405280600881526020017f4d6f6e73746572730000000000000000000000000000000000000000000000008152506040518060400160405280600381526020017f4d545200000000000000000000000000000000000000000000000000000000008152508160009080519060200190620000b0929190620001c0565b508060019080519060200190620000c9929190620001c0565b505050620000ec620000e0620000f260201b60201c565b620000fa60201b60201c565b620002d5565b600033905090565b6000600660009054906101000a900473ffffffffffffffffffffffffffffffffffffffff16905081600660006101000a81548173ffffffffffffffffffffffffffffffffffffffff021916908373ffffffffffffffffffffffffffffffffffffffff1602179055508173ffffffffffffffffffffffffffffffffffffffff168173ffffffffffffffffffffffffffffffffffffffff167f8be0079c531659141344cd1fd0a4f28419497f9722a3daafe3b4186f6b6457e060405160405180910390a35050565b828054620001ce9062000270565b90600052602060002090601f016020900481019282620001f257600085556200023e565b82601f106200020d57805160ff19168380011785556200023e565b828001600101855582156200023e579182015b828111156200023d57825182559160200191906001019062000220565b5b5090506200024d919062000251565b5090565b5b808211156200026c57600081600090555060010162000252565b5090565b600060028204905060018216806200028957607f821691505b60208210811415620002a0576200029f620002a6565b5b50919050565b7f4e487b7100000000000000000000000000000000000000000000000000000000600052602260045260246000fd5b613c1380620002e56000396000f3fe6080604052600436106102085760003560e01c80636352211e11610118578063a22cb465116100a0578063c7bd6c311161006f578063c7bd6c31146107b0578063c87b56dd146107ed578063e985e9c51461082a578063f1d356f214610867578063f2fde38b146108925761020f565b8063a22cb4651461070a578063a6cb826e14610733578063affed0e01461075c578063b88d4fde146107875761020f565b806385378f71116100e757806385378f71146106235780638da5cb5b1461066057806395d89b411461068b5780639c1cb8bf146106b6578063a035b1fe146106df5761020f565b80636352211e1461056957806370a08231146105a6578063715018a6146105e357806382e40813146105fa5761020f565b80632f14a5971161019b57806350f68dcd1161016a57806350f68dcd1461044757806355f804b3146104895780635f273e18146104b257806360e2f2fb146104ef5780636127ba7a1461052c5761020f565b80632f14a5971461037b57806342842e0e146103b85780634d85cebf146103e15780634fc3f41a1461041e5761020f565b8063095ea7b3116101d7578063095ea7b3146102d557806314c7a3bc146102fe57806323b872dd146103295780632d712c76146103525761020f565b806301ffc9a714610214578063035d9f2a1461025157806306fdde031461026d578063081812fc146102985761020f565b3661020f57005b600080fd5b34801561022057600080fd5b5061023b6004803603810190610236919061298a565b6108bb565b6040516102489190612f1d565b60405180910390f35b61026b60048036038101906102669190612a1d565b61099d565b005b34801561027957600080fd5b50610282610afb565b60405161028f9190612f38565b60405180910390f35b3480156102a457600080fd5b506102bf60048036038101906102ba9190612a1d565b610b8d565b6040516102cc9190612e94565b60405180910390f35b3480156102e157600080fd5b506102fc60048036038101906102f7919061294e565b610c12565b005b34801561030a57600080fd5b50610313610d2a565b60405161032091906131ba565b60405180910390f35b34801561033557600080fd5b50610350600480360381019061034b9190612848565b610d30565b005b34801561035e57600080fd5b5061037960048036038101906103749190612a46565b610d90565b005b34801561038757600080fd5b506103a2600480360381019061039d91906127e3565b610db5565b6040516103af9190612efb565b60405180910390f35b3480156103c457600080fd5b506103df60048036038101906103da9190612848565b610ef5565b005b3480156103ed57600080fd5b5061040860048036038101906104039190612a1d565b610f15565b60405161041591906131ba565b60405180910390f35b34801561042a57600080fd5b5061044560048036038101906104409190612a1d565b610f3a565b005b34801561045357600080fd5b5061046e60048036038101906104699190612a1d565b610f6b565b604051610480969594939291906131d5565b60405180910390f35b34801561049557600080fd5b506104b060048036038101906104ab91906129dc565b610fa7565b005b3480156104be57600080fd5b506104d960048036038101906104d49190612a1d565b61103d565b6040516104e691906131ba565b60405180910390f35b3480156104fb57600080fd5b5061051660048036038101906105119190612a1d565b611062565b60405161052391906131ba565b60405180910390f35b34801561053857600080fd5b50610553600480360381019061054e9190612a1d565b611087565b60405161056091906131ba565b60405180910390f35b34801561057557600080fd5b50610590600480360381019061058b9190612a1d565b6110ac565b60405161059d9190612e94565b60405180910390f35b3480156105b257600080fd5b506105cd60048036038101906105c891906127e3565b61115e565b6040516105da91906131ba565b60405180910390f35b3480156105ef57600080fd5b506105f8611216565b005b34801561060657600080fd5b50610621600480360381019061061c9190612a46565b61129e565b005b34801561062f57600080fd5b5061064a60048036038101906106459190612a1d565b6112c3565b60405161065791906131ba565b60405180910390f35b34801561066c57600080fd5b506106756112e8565b6040516106829190612e94565b60405180910390f35b34801561069757600080fd5b506106a0611312565b6040516106ad9190612f38565b60405180910390f35b3480156106c257600080fd5b506106dd60048036038101906106d89190612a46565b6113a4565b005b3480156106eb57600080fd5b506106f461143e565b60405161070191906131ba565b60405180910390f35b34801561071657600080fd5b50610731600480360381019061072c9190612912565b611444565b005b34801561073f57600080fd5b5061075a60048036038101906107559190612a46565b61145a565b005b34801561076857600080fd5b506107716114ab565b60405161077e91906131ba565b60405180910390f35b34801561079357600080fd5b506107ae60048036038101906107a99190612897565b6114b1565b005b3480156107bc57600080fd5b506107d760048036038101906107d29190612a1d565b611513565b6040516107e491906131ba565b60405180910390f35b3480156107f957600080fd5b50610814600480360381019061080f9190612a1d565b611538565b6040516108219190612f38565b60405180910390f35b34801561083657600080fd5b50610851600480360381019061084c919061280c565b6115df565b60405161085e9190612f1d565b60405180910390f35b34801561087357600080fd5b5061087c611673565b60405161088991906131ba565b60405180910390f35b34801561089e57600080fd5b506108b960048036038101906108b491906127e3565b611679565b005b60007f80ac58cd000000000000000000000000000000000000000000000000000000007bffffffffffffffffffffffffffffffffffffffffffffffffffffffff1916827bffffffffffffffffffffffffffffffffffffffffffffffffffffffff1916148061098657507f5b5e139f000000000000000000000000000000000000000000000000000000007bffffffffffffffffffffffffffffffffffffffffffffffffffffffff1916827bffffffffffffffffffffffffffffffffffffffffffffffffffffffff1916145b80610996575061099582611771565b5b9050919050565b60058111156109e1576040517f08c379a00000000000000000000000000000000000000000000000000000000081526004016109d89061315a565b60405180910390fd5b600a54816109ef91906133c0565b3414610a30576040517f08c379a0000000000000000000000000000000000000000000000000000000008152600401610a279061309a565b60405180910390fd5b60005b81811015610af757610a47336007546117db565b6040518060c0016040528060018152602001601e815260200160008152602001600f8152602001600081526020016000815250600c60006007548152602001908152602001600020600082015181600001556020820151816001015560408201518160020155606082015181600301556080820151816004015560a0820151816005015590505060076000815480929190610ae190613567565b919050555080610af090613567565b9050610a33565b5050565b606060008054610b0a90613504565b80601f0160208091040260200160405190810160405280929190818152602001828054610b3690613504565b8015610b835780601f10610b5857610100808354040283529160200191610b83565b820191906000526020600020905b815481529060010190602001808311610b6657829003601f168201915b5050505050905090565b6000610b98826117f9565b610bd7576040517f08c379a0000000000000000000000000000000000000000000000000000000008152600401610bce906130da565b60405180910390fd5b6004600083815260200190815260200160002060009054906101000a900473ffffffffffffffffffffffffffffffffffffffff169050919050565b6000610c1d826110ac565b90508073ffffffffffffffffffffffffffffffffffffffff168373ffffffffffffffffffffffffffffffffffffffff161415610c8e576040517f08c379a0000000000000000000000000000000000000000000000000000000008152600401610c859061313a565b60405180910390fd5b8073ffffffffffffffffffffffffffffffffffffffff16610cad611865565b73ffffffffffffffffffffffffffffffffffffffff161480610cdc5750610cdb81610cd6611865565b6115df565b5b610d1b576040517f08c379a0000000000000000000000000000000000000000000000000000000008152600401610d129061303a565b60405180910390fd5b610d25838361186d565b505050565b60085481565b610d41610d3b611865565b82611926565b610d80576040517f08c379a0000000000000000000000000000000000000000000000000000000008152600401610d779061317a565b60405180910390fd5b610d8b838383611a04565b505050565b6000600c60008481526020019081526020016000209050818160010181905550505050565b60606000610dc28361115e565b67ffffffffffffffff811115610e01577f4e487b7100000000000000000000000000000000000000000000000000000000600052604160045260246000fd5b604051908082528060200260200182016040528015610e2f5781602001602082028036833780820191505090505b509050600060075490506000805b82811015610ee9578573ffffffffffffffffffffffffffffffffffffffff16610e65826110ac565b73ffffffffffffffffffffffffffffffffffffffff161415610ec85780848381518110610ebb577f4e487b7100000000000000000000000000000000000000000000000000000000600052603260045260246000fd5b6020026020010181815250505b8180610ed390613567565b9250508080610ee190613567565b915050610e3d565b50829350505050919050565b610f10838383604051806020016040528060008152506114b1565b505050565b600080600c600084815260200190815260200160002060040154905080915050919050565b6000600c6000838152602001908152602001600020905061012c42610f5f9190613339565b81600401819055505050565b600c6020528060005260406000206000915090508060000154908060010154908060020154908060030154908060040154908060050154905086565b610faf611865565b73ffffffffffffffffffffffffffffffffffffffff16610fcd6112e8565b73ffffffffffffffffffffffffffffffffffffffff1614611023576040517f08c379a000000000000000000000000000000000000000000000000000000000815260040161101a906130fa565b60405180910390fd5b80600b9080519060200190611039929190612607565b5050565b600080600c600084815260200190815260200160002060000154905080915050919050565b600080600c600084815260200190815260200160002060050154905080915050919050565b600080600c600084815260200190815260200160002060030154905080915050919050565b6000806002600084815260200190815260200160002060009054906101000a900473ffffffffffffffffffffffffffffffffffffffff169050600073ffffffffffffffffffffffffffffffffffffffff168173ffffffffffffffffffffffffffffffffffffffff161415611155576040517f08c379a000000000000000000000000000000000000000000000000000000000815260040161114c9061307a565b60405180910390fd5b80915050919050565b60008073ffffffffffffffffffffffffffffffffffffffff168273ffffffffffffffffffffffffffffffffffffffff1614156111cf576040517f08c379a00000000000000000000000000000000000000000000000000000000081526004016111c69061305a565b60405180910390fd5b600360008373ffffffffffffffffffffffffffffffffffffffff1673ffffffffffffffffffffffffffffffffffffffff168152602001908152602001600020549050919050565b61121e611865565b73ffffffffffffffffffffffffffffffffffffffff1661123c6112e8565b73ffffffffffffffffffffffffffffffffffffffff1614611292576040517f08c379a0000000000000000000000000000000000000000000000000000000008152600401611289906130fa565b60405180910390fd5b61129c6000611c6b565b565b6000600c60008481526020019081526020016000209050818160050181905550505050565b600080600c600084815260200190815260200160002060020154905080915050919050565b6000600660009054906101000a900473ffffffffffffffffffffffffffffffffffffffff16905090565b60606001805461132190613504565b80601f016020809104026020016040519081016040528092919081815260200182805461134d90613504565b801561139a5780601f1061136f5761010080835404028352916020019161139a565b820191906000526020600020905b81548152906001019060200180831161137d57829003601f168201915b5050505050905090565b6000600c6000848152602001908152602001600020600101549050606482826113cd9190613339565b1061140d576040517f08c379a00000000000000000000000000000000000000000000000000000000081526004016114049061319a565b60405180910390fd5b6000600c6000858152602001908152602001600020905082826114309190613339565b816001018190555050505050565b600a5481565b61145661144f611865565b8383611d31565b5050565b6000600c60008481526020019081526020016000209050818160020160008282546114859190613339565b925050819055508060030154816002015411156114a6576114a583611e9e565b5b505050565b60095481565b6114c26114bc611865565b83611926565b611501576040517f08c379a00000000000000000000000000000000000000000000000000000000081526004016114f89061317a565b60405180910390fd5b61150d84848484611f73565b50505050565b600080600c600084815260200190815260200160002060010154905080915050919050565b6060611543826117f9565b611582576040517f08c379a00000000000000000000000000000000000000000000000000000000081526004016115799061311a565b60405180910390fd5b600061158c611fcf565b905060008151116115ac57604051806020016040528060008152506115d7565b806115b684612061565b6040516020016115c7929190612e70565b6040516020818303038152906040525b915050919050565b6000600560008473ffffffffffffffffffffffffffffffffffffffff1673ffffffffffffffffffffffffffffffffffffffff16815260200190815260200160002060008373ffffffffffffffffffffffffffffffffffffffff1673ffffffffffffffffffffffffffffffffffffffff16815260200190815260200160002060009054906101000a900460ff16905092915050565b60075481565b611681611865565b73ffffffffffffffffffffffffffffffffffffffff1661169f6112e8565b73ffffffffffffffffffffffffffffffffffffffff16146116f5576040517f08c379a00000000000000000000000000000000000000000000000000000000081526004016116ec906130fa565b60405180910390fd5b600073ffffffffffffffffffffffffffffffffffffffff168173ffffffffffffffffffffffffffffffffffffffff161415611765576040517f08c379a000000000000000000000000000000000000000000000000000000000815260040161175c90612f7a565b60405180910390fd5b61176e81611c6b565b50565b60007f01ffc9a7000000000000000000000000000000000000000000000000000000007bffffffffffffffffffffffffffffffffffffffffffffffffffffffff1916827bffffffffffffffffffffffffffffffffffffffffffffffffffffffff1916149050919050565b6117f582826040518060200160405280600081525061220e565b5050565b60008073ffffffffffffffffffffffffffffffffffffffff166002600084815260200190815260200160002060009054906101000a900473ffffffffffffffffffffffffffffffffffffffff1673ffffffffffffffffffffffffffffffffffffffff1614159050919050565b600033905090565b816004600083815260200190815260200160002060006101000a81548173ffffffffffffffffffffffffffffffffffffffff021916908373ffffffffffffffffffffffffffffffffffffffff160217905550808273ffffffffffffffffffffffffffffffffffffffff166118e0836110ac565b73ffffffffffffffffffffffffffffffffffffffff167f8c5be1e5ebec7d5bd14f71427d1e84f3dd0314c0f7b2291e5b200ac8c7c3b92560405160405180910390a45050565b6000611931826117f9565b611970576040517f08c379a00000000000000000000000000000000000000000000000000000000081526004016119679061301a565b60405180910390fd5b600061197b836110ac565b90508073ffffffffffffffffffffffffffffffffffffffff168473ffffffffffffffffffffffffffffffffffffffff1614806119bd57506119bc81856115df565b5b806119fb57508373ffffffffffffffffffffffffffffffffffffffff166119e384610b8d565b73ffffffffffffffffffffffffffffffffffffffff16145b91505092915050565b8273ffffffffffffffffffffffffffffffffffffffff16611a24826110ac565b73ffffffffffffffffffffffffffffffffffffffff1614611a7a576040517f08c379a0000000000000000000000000000000000000000000000000000000008152600401611a7190612f9a565b60405180910390fd5b600073ffffffffffffffffffffffffffffffffffffffff168273ffffffffffffffffffffffffffffffffffffffff161415611aea576040517f08c379a0000000000000000000000000000000000000000000000000000000008152600401611ae190612fda565b60405180910390fd5b611af5838383612269565b611b0060008261186d565b6001600360008573ffffffffffffffffffffffffffffffffffffffff1673ffffffffffffffffffffffffffffffffffffffff1681526020019081526020016000206000828254611b50919061341a565b925050819055506001600360008473ffffffffffffffffffffffffffffffffffffffff1673ffffffffffffffffffffffffffffffffffffffff1681526020019081526020016000206000828254611ba79190613339565b92505081905550816002600083815260200190815260200160002060006101000a81548173ffffffffffffffffffffffffffffffffffffffff021916908373ffffffffffffffffffffffffffffffffffffffff160217905550808273ffffffffffffffffffffffffffffffffffffffff168473ffffffffffffffffffffffffffffffffffffffff167fddf252ad1be2c89b69c2b068fc378daa952ba7f163c4a11628f55a4df523b3ef60405160405180910390a4611c6683838361226e565b505050565b6000600660009054906101000a900473ffffffffffffffffffffffffffffffffffffffff16905081600660006101000a81548173ffffffffffffffffffffffffffffffffffffffff021916908373ffffffffffffffffffffffffffffffffffffffff1602179055508173ffffffffffffffffffffffffffffffffffffffff168173ffffffffffffffffffffffffffffffffffffffff167f8be0079c531659141344cd1fd0a4f28419497f9722a3daafe3b4186f6b6457e060405160405180910390a35050565b8173ffffffffffffffffffffffffffffffffffffffff168373ffffffffffffffffffffffffffffffffffffffff161415611da0576040517f08c379a0000000000000000000000000000000000000000000000000000000008152600401611d9790612ffa565b60405180910390fd5b80600560008573ffffffffffffffffffffffffffffffffffffffff1673ffffffffffffffffffffffffffffffffffffffff16815260200190815260200160002060008473ffffffffffffffffffffffffffffffffffffffff1673ffffffffffffffffffffffffffffffffffffffff16815260200190815260200160002060006101000a81548160ff0219169083151502179055508173ffffffffffffffffffffffffffffffffffffffff168373ffffffffffffffffffffffffffffffffffffffff167f17307eab39ab6107e8899845ad3d59bd9653f200f220920489ca2b5937696c3183604051611e919190612f1d565b60405180910390a3505050565b6000600c600083815260200190815260200160002090506000600c60008481526020019081526020016000206040518060c001604052908160008201548152602001600182015481526020016002820154815260200160038201548152602001600482015481526020016005820154815250509050600081604001519050600082606001519050836000016000815480929190611f3a90613567565b91905055508082611f4b919061341a565b8460020181905550600f8360000151611f6491906133c0565b84600301819055505050505050565b611f7e848484611a04565b611f8a84848484612273565b611fc9576040517f08c379a0000000000000000000000000000000000000000000000000000000008152600401611fc090612f5a565b60405180910390fd5b50505050565b6060600b8054611fde90613504565b80601f016020809104026020016040519081016040528092919081815260200182805461200a90613504565b80156120575780601f1061202c57610100808354040283529160200191612057565b820191906000526020600020905b81548152906001019060200180831161203a57829003601f168201915b5050505050905090565b606060008214156120a9576040518060400160405280600181526020017f30000000000000000000000000000000000000000000000000000000000000008152509050612209565b600082905060005b600082146120db5780806120c490613567565b915050600a826120d4919061338f565b91506120b1565b60008167ffffffffffffffff81111561211d577f4e487b7100000000000000000000000000000000000000000000000000000000600052604160045260246000fd5b6040519080825280601f01601f19166020018201604052801561214f5781602001600182028036833780820191505090505b5090505b6000851461220257600182612168919061341a565b9150600a8561217791906135b0565b60306121839190613339565b60f81b8183815181106121bf577f4e487b7100000000000000000000000000000000000000000000000000000000600052603260045260246000fd5b60200101907effffffffffffffffffffffffffffffffffffffffffffffffffffffffffffff1916908160001a905350600a856121fb919061338f565b9450612153565b8093505050505b919050565b612218838361240a565b6122256000848484612273565b612264576040517f08c379a000000000000000000000000000000000000000000000000000000000815260040161225b90612f5a565b60405180910390fd5b505050565b505050565b505050565b60006122948473ffffffffffffffffffffffffffffffffffffffff166125e4565b156123fd578373ffffffffffffffffffffffffffffffffffffffff1663150b7a026122bd611865565b8786866040518563ffffffff1660e01b81526004016122df9493929190612eaf565b602060405180830381600087803b1580156122f957600080fd5b505af192505050801561232a57506040513d601f19601f8201168201806040525081019061232791906129b3565b60015b6123ad573d806000811461235a576040519150601f19603f3d011682016040523d82523d6000602084013e61235f565b606091505b506000815114156123a5576040517f08c379a000000000000000000000000000000000000000000000000000000000815260040161239c90612f5a565b60405180910390fd5b805181602001fd5b63150b7a0260e01b7bffffffffffffffffffffffffffffffffffffffffffffffffffffffff1916817bffffffffffffffffffffffffffffffffffffffffffffffffffffffff191614915050612402565b600190505b949350505050565b600073ffffffffffffffffffffffffffffffffffffffff168273ffffffffffffffffffffffffffffffffffffffff16141561247a576040517f08c379a0000000000000000000000000000000000000000000000000000000008152600401612471906130ba565b60405180910390fd5b612483816117f9565b156124c3576040517f08c379a00000000000000000000000000000000000000000000000000000000081526004016124ba90612fba565b60405180910390fd5b6124cf60008383612269565b6001600360008473ffffffffffffffffffffffffffffffffffffffff1673ffffffffffffffffffffffffffffffffffffffff168152602001908152602001600020600082825461251f9190613339565b92505081905550816002600083815260200190815260200160002060006101000a81548173ffffffffffffffffffffffffffffffffffffffff021916908373ffffffffffffffffffffffffffffffffffffffff160217905550808273ffffffffffffffffffffffffffffffffffffffff16600073ffffffffffffffffffffffffffffffffffffffff167fddf252ad1be2c89b69c2b068fc378daa952ba7f163c4a11628f55a4df523b3ef60405160405180910390a46125e06000838361226e565b5050565b6000808273ffffffffffffffffffffffffffffffffffffffff163b119050919050565b82805461261390613504565b90600052602060002090601f016020900481019282612635576000855561267c565b82601f1061264e57805160ff191683800117855561267c565b8280016001018555821561267c579182015b8281111561267b578251825591602001919060010190612660565b5b509050612689919061268d565b5090565b5b808211156126a657600081600090555060010161268e565b5090565b60006126bd6126b88461325b565b613236565b9050828152602081018484840111156126d557600080fd5b6126e08482856134c2565b509392505050565b60006126fb6126f68461328c565b613236565b90508281526020810184848401111561271357600080fd5b61271e8482856134c2565b509392505050565b60008135905061273581613b81565b92915050565b60008135905061274a81613b98565b92915050565b60008135905061275f81613baf565b92915050565b60008151905061277481613baf565b92915050565b600082601f83011261278b57600080fd5b813561279b8482602086016126aa565b91505092915050565b600082601f8301126127b557600080fd5b81356127c58482602086016126e8565b91505092915050565b6000813590506127dd81613bc6565b92915050565b6000602082840312156127f557600080fd5b600061280384828501612726565b91505092915050565b6000806040838503121561281f57600080fd5b600061282d85828601612726565b925050602061283e85828601612726565b9150509250929050565b60008060006060848603121561285d57600080fd5b600061286b86828701612726565b935050602061287c86828701612726565b925050604061288d868287016127ce565b9150509250925092565b600080600080608085870312156128ad57600080fd5b60006128bb87828801612726565b94505060206128cc87828801612726565b93505060406128dd878288016127ce565b925050606085013567ffffffffffffffff8111156128fa57600080fd5b6129068782880161277a565b91505092959194509250565b6000806040838503121561292557600080fd5b600061293385828601612726565b92505060206129448582860161273b565b9150509250929050565b6000806040838503121561296157600080fd5b600061296f85828601612726565b9250506020612980858286016127ce565b9150509250929050565b60006020828403121561299c57600080fd5b60006129aa84828501612750565b91505092915050565b6000602082840312156129c557600080fd5b60006129d384828501612765565b91505092915050565b6000602082840312156129ee57600080fd5b600082013567ffffffffffffffff811115612a0857600080fd5b612a14848285016127a4565b91505092915050565b600060208284031215612a2f57600080fd5b6000612a3d848285016127ce565b91505092915050565b60008060408385031215612a5957600080fd5b6000612a67858286016127ce565b9250506020612a78858286016127ce565b9150509250929050565b6000612a8e8383612e52565b60208301905092915050565b612aa38161344e565b82525050565b6000612ab4826132cd565b612abe81856132fb565b9350612ac9836132bd565b8060005b83811015612afa578151612ae18882612a82565b9750612aec836132ee565b925050600181019050612acd565b5085935050505092915050565b612b1081613460565b82525050565b6000612b21826132d8565b612b2b818561330c565b9350612b3b8185602086016134d1565b612b448161369d565b840191505092915050565b6000612b5a826132e3565b612b64818561331d565b9350612b748185602086016134d1565b612b7d8161369d565b840191505092915050565b6000612b93826132e3565b612b9d818561332e565b9350612bad8185602086016134d1565b80840191505092915050565b6000612bc660328361331d565b9150612bd1826136ae565b604082019050919050565b6000612be960268361331d565b9150612bf4826136fd565b604082019050919050565b6000612c0c60258361331d565b9150612c178261374c565b604082019050919050565b6000612c2f601c8361331d565b9150612c3a8261379b565b602082019050919050565b6000612c5260248361331d565b9150612c5d826137c4565b604082019050919050565b6000612c7560198361331d565b9150612c8082613813565b602082019050919050565b6000612c98602c8361331d565b9150612ca38261383c565b604082019050919050565b6000612cbb60388361331d565b9150612cc68261388b565b604082019050919050565b6000612cde602a8361331d565b9150612ce9826138da565b604082019050919050565b6000612d0160298361331d565b9150612d0c82613929565b604082019050919050565b6000612d2460198361331d565b9150612d2f82613978565b602082019050919050565b6000612d4760208361331d565b9150612d52826139a1565b602082019050919050565b6000612d6a602c8361331d565b9150612d75826139ca565b604082019050919050565b6000612d8d60208361331d565b9150612d9882613a19565b602082019050919050565b6000612db0602f8361331d565b9150612dbb82613a42565b604082019050919050565b6000612dd360218361331d565b9150612dde82613a91565b604082019050919050565b6000612df6601a8361331d565b9150612e0182613ae0565b602082019050919050565b6000612e1960318361331d565b9150612e2482613b09565b604082019050919050565b6000612e3c600d8361331d565b9150612e4782613b58565b602082019050919050565b612e5b816134b8565b82525050565b612e6a816134b8565b82525050565b6000612e7c8285612b88565b9150612e888284612b88565b91508190509392505050565b6000602082019050612ea96000830184612a9a565b92915050565b6000608082019050612ec46000830187612a9a565b612ed16020830186612a9a565b612ede6040830185612e61565b8181036060830152612ef08184612b16565b905095945050505050565b60006020820190508181036000830152612f158184612aa9565b905092915050565b6000602082019050612f326000830184612b07565b92915050565b60006020820190508181036000830152612f528184612b4f565b905092915050565b60006020820190508181036000830152612f7381612bb9565b9050919050565b60006020820190508181036000830152612f9381612bdc565b9050919050565b60006020820190508181036000830152612fb381612bff565b9050919050565b60006020820190508181036000830152612fd381612c22565b9050919050565b60006020820190508181036000830152612ff381612c45565b9050919050565b6000602082019050818103600083015261301381612c68565b9050919050565b6000602082019050818103600083015261303381612c8b565b9050919050565b6000602082019050818103600083015261305381612cae565b9050919050565b6000602082019050818103600083015261307381612cd1565b9050919050565b6000602082019050818103600083015261309381612cf4565b9050919050565b600060208201905081810360008301526130b381612d17565b9050919050565b600060208201905081810360008301526130d381612d3a565b9050919050565b600060208201905081810360008301526130f381612d5d565b9050919050565b6000602082019050818103600083015261311381612d80565b9050919050565b6000602082019050818103600083015261313381612da3565b9050919050565b6000602082019050818103600083015261315381612dc6565b9050919050565b6000602082019050818103600083015261317381612de9565b9050919050565b6000602082019050818103600083015261319381612e0c565b9050919050565b600060208201905081810360008301526131b381612e2f565b9050919050565b60006020820190506131cf6000830184612e61565b92915050565b600060c0820190506131ea6000830189612e61565b6131f76020830188612e61565b6132046040830187612e61565b6132116060830186612e61565b61321e6080830185612e61565b61322b60a0830184612e61565b979650505050505050565b6000613240613251565b905061324c8282613536565b919050565b6000604051905090565b600067ffffffffffffffff8211156132765761327561366e565b5b61327f8261369d565b9050602081019050919050565b600067ffffffffffffffff8211156132a7576132a661366e565b5b6132b08261369d565b9050602081019050919050565b6000819050602082019050919050565b600081519050919050565b600081519050919050565b600081519050919050565b6000602082019050919050565b600082825260208201905092915050565b600082825260208201905092915050565b600082825260208201905092915050565b600081905092915050565b6000613344826134b8565b915061334f836134b8565b9250827fffffffffffffffffffffffffffffffffffffffffffffffffffffffffffffffff03821115613384576133836135e1565b5b828201905092915050565b600061339a826134b8565b91506133a5836134b8565b9250826133b5576133b4613610565b5b828204905092915050565b60006133cb826134b8565b91506133d6836134b8565b9250817fffffffffffffffffffffffffffffffffffffffffffffffffffffffffffffffff048311821515161561340f5761340e6135e1565b5b828202905092915050565b6000613425826134b8565b9150613430836134b8565b925082821015613443576134426135e1565b5b828203905092915050565b600061345982613498565b9050919050565b60008115159050919050565b60007fffffffff0000000000000000000000000000000000000000000000000000000082169050919050565b600073ffffffffffffffffffffffffffffffffffffffff82169050919050565b6000819050919050565b82818337600083830152505050565b60005b838110156134ef5780820151818401526020810190506134d4565b838111156134fe576000848401525b50505050565b6000600282049050600182168061351c57607f821691505b602082108114156135305761352f61363f565b5b50919050565b61353f8261369d565b810181811067ffffffffffffffff8211171561355e5761355d61366e565b5b80604052505050565b6000613572826134b8565b91507fffffffffffffffffffffffffffffffffffffffffffffffffffffffffffffffff8214156135a5576135a46135e1565b5b600182019050919050565b60006135bb826134b8565b91506135c6836134b8565b9250826135d6576135d5613610565b5b828206905092915050565b7f4e487b7100000000000000000000000000000000000000000000000000000000600052601160045260246000fd5b7f4e487b7100000000000000000000000000000000000000000000000000000000600052601260045260246000fd5b7f4e487b7100000000000000000000000000000000000000000000000000000000600052602260045260246000fd5b7f4e487b7100000000000000000000000000000000000000000000000000000000600052604160045260246000fd5b6000601f19601f8301169050919050565b7f4552433732313a207472616e7366657220746f206e6f6e20455243373231526560008201527f63656976657220696d706c656d656e7465720000000000000000000000000000602082015250565b7f4f776e61626c653a206e6577206f776e657220697320746865207a65726f206160008201527f6464726573730000000000000000000000000000000000000000000000000000602082015250565b7f4552433732313a207472616e736665722066726f6d20696e636f72726563742060008201527f6f776e6572000000000000000000000000000000000000000000000000000000602082015250565b7f4552433732313a20746f6b656e20616c7265616479206d696e74656400000000600082015250565b7f4552433732313a207472616e7366657220746f20746865207a65726f2061646460008201527f7265737300000000000000000000000000000000000000000000000000000000602082015250565b7f4552433732313a20617070726f766520746f2063616c6c657200000000000000600082015250565b7f4552433732313a206f70657261746f7220717565727920666f72206e6f6e657860008201527f697374656e7420746f6b656e0000000000000000000000000000000000000000602082015250565b7f4552433732313a20617070726f76652063616c6c6572206973206e6f74206f7760008201527f6e6572206e6f7220617070726f76656420666f7220616c6c0000000000000000602082015250565b7f4552433732313a2062616c616e636520717565727920666f7220746865207a6560008201527f726f206164647265737300000000000000000000000000000000000000000000602082015250565b7f4552433732313a206f776e657220717565727920666f72206e6f6e657869737460008201527f656e7420746f6b656e0000000000000000000000000000000000000000000000602082015250565b7f57726f6e672076616c7565206f662065746865722073656e7400000000000000600082015250565b7f4552433732313a206d696e7420746f20746865207a65726f2061646472657373600082015250565b7f4552433732313a20617070726f76656420717565727920666f72206e6f6e657860008201527f697374656e7420746f6b656e0000000000000000000000000000000000000000602082015250565b7f4f776e61626c653a2063616c6c6572206973206e6f7420746865206f776e6572600082015250565b7f4552433732314d657461646174613a2055524920717565727920666f72206e6f60008201527f6e6578697374656e7420746f6b656e0000000000000000000000000000000000602082015250565b7f4552433732313a20617070726f76616c20746f2063757272656e74206f776e6560008201527f7200000000000000000000000000000000000000000000000000000000000000602082015250565b7f596f752063616e2774206d696e74206d6f7265207468616e2035000000000000600082015250565b7f4552433732313a207472616e736665722063616c6c6572206973206e6f74206f60008201527f776e6572206e6f7220617070726f766564000000000000000000000000000000602082015250565b7f546f6f206d75636820666f6f6400000000000000000000000000000000000000600082015250565b613b8a8161344e565b8114613b9557600080fd5b50565b613ba181613460565b8114613bac57600080fd5b50565b613bb88161346c565b8114613bc357600080fd5b50565b613bcf816134b8565b8114613bda57600080fd5b5056fea26469706673582212203a8bc4f6b20839e67f6c89d644551936b318c91b77c7f8d0aeec9e16c03cf2b664736f6c63430008040033",
  "linkReferences": {},
  "deployedLinkReferences": {}
}