{
  "_format": "hh-sol-artifact-1",
  "contractName": "MonsterGame",
  "sourceName": "contracts/MyMonsterGame.sol",
  "abi": [
    {
      "inputs": [
        {
          "internalType": "uint256",
          "name": "_tokenId",
          "type": "uint256"
        },
        {
          "internalType": "address",
          "name": "_user",
          "type": "address"
        }
      ],
      "name": "beginnerMission",
      "outputs": [],
      "stateMutability": "nonpayable",
      "type": "function"
    },
    {
      "inputs": [
        {
          "internalType": "uint256",
          "name": "_tokenId",
          "type": "uint256"
        },
        {
          "internalType": "address",
          "name": "_user",
          "type": "address"
        }
      ],
      "name": "claimBeginnerMission",
      "outputs": [],
      "stateMutability": "nonpayable",
      "type": "function"
    },
    {
      "inputs": [
        {
          "internalType": "uint256",
          "name": "_tokenId",
          "type": "uint256"
        },
        {
          "internalType": "address",
          "name": "_user",
          "type": "address"
        }
      ],
      "name": "claimIntermediateMission",
      "outputs": [],
      "stateMutability": "nonpayable",
      "type": "function"
    },
    {
      "inputs": [
        {
          "internalType": "uint256",
          "name": "_tokenId",
          "type": "uint256"
        },
        {
          "internalType": "uint256",
          "name": "_amount",
          "type": "uint256"
        }
      ],
      "name": "feedMonster",
      "outputs": [],
      "stateMutability": "payable",
      "type": "function"
    },
    {
      "inputs": [
        {
          "internalType": "address",
          "name": "_user",
          "type": "address"
        }
      ],
      "name": "getMonstersOnBeginner",
      "outputs": [
        {
          "components": [
            {
              "internalType": "uint256",
              "name": "tokenId",
              "type": "uint256"
            },
            {
              "internalType": "uint256",
              "name": "missionStart",
              "type": "uint256"
            },
            {
              "internalType": "address",
              "name": "owner",
              "type": "address"
            }
          ],
          "internalType": "struct MonsterGame.Details[]",
          "name": "",
          "type": "tuple[]"
        }
      ],
      "stateMutability": "view",
      "type": "function"
    },
    {
      "inputs": [
        {
          "internalType": "address",
          "name": "_user",
          "type": "address"
        }
      ],
      "name": "getMonstersOnIntermediate",
      "outputs": [
        {
          "components": [
            {
              "internalType": "uint256",
              "name": "tokenId",
              "type": "uint256"
            },
            {
              "internalType": "uint256",
              "name": "missionStart",
              "type": "uint256"
            },
            {
              "internalType": "address",
              "name": "owner",
              "type": "address"
            }
          ],
          "internalType": "struct MonsterGame.Details[]",
          "name": "",
          "type": "tuple[]"
        }
      ],
      "stateMutability": "view",
      "type": "function"
    },
    {
      "inputs": [
        {
          "internalType": "uint256",
          "name": "_tokenId",
          "type": "uint256"
        },
        {
          "internalType": "address",
          "name": "_user",
          "type": "address"
        }
      ],
      "name": "intermediateMission",
      "outputs": [],
      "stateMutability": "nonpayable",
      "type": "function"
    },
    {
      "inputs": [],
      "name": "itemsInterface",
      "outputs": [
        {
          "internalType": "contract IItems",
          "name": "",
          "type": "address"
        }
      ],
      "stateMutability": "view",
      "type": "function"
    },
    {
      "inputs": [],
      "name": "monsterInterface",
      "outputs": [
        {
          "internalType": "contract IERC721",
          "name": "",
          "type": "address"
        }
      ],
      "stateMutability": "view",
      "type": "function"
    },
    {
      "inputs": [
        {
          "internalType": "address",
          "name": "",
          "type": "address"
        },
        {
          "internalType": "uint256",
          "name": "",
          "type": "uint256"
        }
      ],
      "name": "monstersOnBeginner",
      "outputs": [
        {
          "internalType": "uint256",
          "name": "",
          "type": "uint256"
        }
      ],
      "stateMutability": "view",
      "type": "function"
    },
    {
      "inputs": [
        {
          "internalType": "address",
          "name": "",
          "type": "address"
        },
        {
          "internalType": "uint256",
          "name": "",
          "type": "uint256"
        }
      ],
      "name": "monstersOnBeginnerDetails",
      "outputs": [
        {
          "internalType": "uint256",
          "name": "tokenId",
          "type": "uint256"
        },
        {
          "internalType": "uint256",
          "name": "missionStart",
          "type": "uint256"
        },
        {
          "internalType": "address",
          "name": "owner",
          "type": "address"
        }
      ],
      "stateMutability": "view",
      "type": "function"
    },
    {
      "inputs": [
        {
          "internalType": "address",
          "name": "",
          "type": "address"
        },
        {
          "internalType": "uint256",
          "name": "",
          "type": "uint256"
        }
      ],
      "name": "monstersOnIntermediate",
      "outputs": [
        {
          "internalType": "uint256",
          "name": "",
          "type": "uint256"
        }
      ],
      "stateMutability": "view",
      "type": "function"
    },
    {
      "inputs": [
        {
          "internalType": "address",
          "name": "",
          "type": "address"
        },
        {
          "internalType": "uint256",
          "name": "",
          "type": "uint256"
        }
      ],
      "name": "monstersOnIntermediateDetails",
      "outputs": [
        {
          "internalType": "uint256",
          "name": "tokenId",
          "type": "uint256"
        },
        {
          "internalType": "uint256",
          "name": "missionStart",
          "type": "uint256"
        },
        {
          "internalType": "address",
          "name": "owner",
          "type": "address"
        }
      ],
      "stateMutability": "view",
      "type": "function"
    },
    {
      "inputs": [
        {
          "internalType": "address",
          "name": "",
          "type": "address"
        },
        {
          "internalType": "address",
          "name": "from",
          "type": "address"
        },
        {
          "internalType": "uint256",
          "name": "",
          "type": "uint256"
        },
        {
          "internalType": "bytes",
          "name": "",
          "type": "bytes"
        }
      ],
      "name": "onERC721Received",
      "outputs": [
        {
          "internalType": "bytes4",
          "name": "",
          "type": "bytes4"
        }
      ],
      "stateMutability": "pure",
      "type": "function"
    },
    {
      "inputs": [
        {
          "internalType": "address",
          "name": "monsterNFT",
          "type": "address"
        },
        {
          "internalType": "address",
          "name": "itemNFT",
          "type": "address"
        }
      ],
      "name": "setInterface",
      "outputs": [],
      "stateMutability": "nonpayable",
      "type": "function"
    },
    {
      "inputs": [],
      "name": "statsInterface",
      "outputs": [
        {
          "internalType": "contract IMonster",
          "name": "",
          "type": "address"
        }
      ],
      "stateMutability": "view",
      "type": "function"
    },
    {
      "stateMutability": "payable",
      "type": "receive"
    }
  ],
  "bytecode": "0x608060405234801561001057600080fd5b50613a6c806100206000396000f3fe6080604052600436106100f75760003560e01c80635199ac9a1161008a5780639dbf85e8116100595780639dbf85e81461033a578063ad81ad7014610377578063dfe4be99146103a2578063eafaa1d3146103df576100fe565b80635199ac9a14610279578063689311b8146102a25780639976b51c146102df5780639c1cb8bf1461031e576100fe565b8063150b7a02116100c6578063150b7a02146101a75780631ce9b951146101e4578063302f3dfc146102235780633ffc1f3c1461024e576100fe565b806302d8f2b5146101035780630879c57b1461012c5780630ce43246146101555780630e32f2201461017e576100fe565b366100fe57005b600080fd5b34801561010f57600080fd5b5061012a60048036038101906101259190612d75565b61041c565b005b34801561013857600080fd5b50610153600480360381019061014e9190612e96565b6104e2565b005b34801561016157600080fd5b5061017c60048036038101906101779190612e96565b6109f5565b005b34801561018a57600080fd5b506101a560048036038101906101a09190612e96565b61100b565b005b3480156101b357600080fd5b506101ce60048036038101906101c99190612db1565b6115cf565b6040516101db9190613270565b60405180910390f35b3480156101f057600080fd5b5061020b60048036038101906102069190612e31565b6115e4565b60405161021a939291906134b2565b60405180910390f35b34801561022f57600080fd5b5061023861163b565b60405161024591906132a6565b60405180910390f35b34801561025a57600080fd5b50610263611661565b604051610270919061328b565b60405180910390f35b34801561028557600080fd5b506102a0600480360381019061029b9190612e96565b611685565b005b3480156102ae57600080fd5b506102c960048036038101906102c49190612e31565b611c9b565b6040516102d6919061341c565b60405180910390f35b3480156102eb57600080fd5b5061030660048036038101906103019190612e31565b611ccc565b604051610315939291906134b2565b60405180910390f35b61033860048036038101906103339190612ed2565b611d23565b005b34801561034657600080fd5b50610361600480360381019061035c9190612d23565b611f2a565b60405161036e919061324e565b60405180910390f35b34801561038357600080fd5b5061038c6121b4565b60405161039991906132c1565b60405180910390f35b3480156103ae57600080fd5b506103c960048036038101906103c49190612e31565b6121da565b6040516103d6919061341c565b60405180910390f35b3480156103eb57600080fd5b5061040660048036038101906104019190612d23565b61220b565b604051610413919061324e565b60405180910390f35b816000806101000a81548173ffffffffffffffffffffffffffffffffffffffff021916908373ffffffffffffffffffffffffffffffffffffffff16021790555081600160006101000a81548173ffffffffffffffffffffffffffffffffffffffff021916908373ffffffffffffffffffffffffffffffffffffffff16021790555080600260006101000a81548173ffffffffffffffffffffffffffffffffffffffff021916908373ffffffffffffffffffffffffffffffffffffffff1602179055505050565b6000600160009054906101000a900473ffffffffffffffffffffffffffffffffffffffff1673ffffffffffffffffffffffffffffffffffffffff1663c7bd6c31846040518263ffffffff1660e01b815260040161053f919061341c565b60206040518083038186803b15801561055757600080fd5b505afa15801561056b573d6000803e3d6000fd5b505050506040513d601f19601f8201168201806040525081019061058f9190612e6d565b90506000600160009054906101000a900473ffffffffffffffffffffffffffffffffffffffff1673ffffffffffffffffffffffffffffffffffffffff16634d85cebf856040518263ffffffff1660e01b81526004016105ee919061341c565b60206040518083038186803b15801561060657600080fd5b505afa15801561061a573d6000803e3d6000fd5b505050506040513d601f19601f8201168201806040525081019061063e9190612e6d565b90506000600160009054906101000a900473ffffffffffffffffffffffffffffffffffffffff1673ffffffffffffffffffffffffffffffffffffffff166360e2f2fb866040518263ffffffff1660e01b815260040161069d919061341c565b60206040518083038186803b1580156106b557600080fd5b505afa1580156106c9573d6000803e3d6000fd5b505050506040513d601f19601f820116820180604052508101906106ed9190612e6d565b90508373ffffffffffffffffffffffffffffffffffffffff1660008054906101000a900473ffffffffffffffffffffffffffffffffffffffff1673ffffffffffffffffffffffffffffffffffffffff16636352211e876040518263ffffffff1660e01b815260040161075f919061341c565b60206040518083038186803b15801561077757600080fd5b505afa15801561078b573d6000803e3d6000fd5b505050506040513d601f19601f820116820180604052508101906107af9190612d4c565b73ffffffffffffffffffffffffffffffffffffffff1614610805576040517f08c379a00000000000000000000000000000000000000000000000000000000081526004016107fc9061333c565b60405180910390fd5b610810838383612495565b61081957600080fd5b600160009054906101000a900473ffffffffffffffffffffffffffffffffffffffff1673ffffffffffffffffffffffffffffffffffffffff166382e408138660016040518363ffffffff1660e01b8152600401610877929190613460565b600060405180830381600087803b15801561089157600080fd5b505af11580156108a5573d6000803e3d6000fd5b50505050600360008573ffffffffffffffffffffffffffffffffffffffff1673ffffffffffffffffffffffffffffffffffffffff16815260200190815260200160002085908060018154018082558091505060019003906000526020600020016000909190919091505560405180606001604052808681526020014281526020018573ffffffffffffffffffffffffffffffffffffffff16815250600560008673ffffffffffffffffffffffffffffffffffffffff1673ffffffffffffffffffffffffffffffffffffffff1681526020019081526020016000206000878152602001908152602001600020600082015181600001556020820151816001015560408201518160020160006101000a81548173ffffffffffffffffffffffffffffffffffffffff021916908373ffffffffffffffffffffffffffffffffffffffff1602179055509050505050505050565b8082600080600360008573ffffffffffffffffffffffffffffffffffffffff1673ffffffffffffffffffffffffffffffffffffffff168152602001908152602001600020805480602002602001604051908101604052809291908181526020018280548015610a8357602002820191906000526020600020905b815481526020019060010190808311610a6f575b5050505050905060005b8151811015610afa576000828281518110610ad1577f4e487b7100000000000000000000000000000000000000000000000000000000600052603260045260246000fd5b6020026020010151905080851415610ae857600193505b5080610af39061370f565b9050610a8d565b5081610b3b576040517f08c379a0000000000000000000000000000000000000000000000000000000008152600401610b32906132dc565b60405180910390fd5b6000600560008773ffffffffffffffffffffffffffffffffffffffff1673ffffffffffffffffffffffffffffffffffffffff168152602001908152602001600020600088815260200190815260200160002060405180606001604052908160008201548152602001600182015481526020016002820160009054906101000a900473ffffffffffffffffffffffffffffffffffffffff1673ffffffffffffffffffffffffffffffffffffffff1673ffffffffffffffffffffffffffffffffffffffff168152505090506000816020015190506000600160009054906101000a900473ffffffffffffffffffffffffffffffffffffffff1673ffffffffffffffffffffffffffffffffffffffff1663c7bd6c318a6040518263ffffffff1660e01b8152600401610c6a919061341c565b60206040518083038186803b158015610c8257600080fd5b505afa158015610c96573d6000803e3d6000fd5b505050506040513d601f19601f82011682018060405250810190610cba9190612e6d565b90506000600a82610ccb91906135e3565b90506000600490504261038485610ce29190613533565b1115610d23576040517f08c379a0000000000000000000000000000000000000000000000000000000008152600401610d1a9061335c565b60405180910390fd5b600160009054906101000a900473ffffffffffffffffffffffffffffffffffffffff1673ffffffffffffffffffffffffffffffffffffffff16634fc3f41a8c6040518263ffffffff1660e01b8152600401610d7e919061341c565b600060405180830381600087803b158015610d9857600080fd5b505af1158015610dac573d6000803e3d6000fd5b50505050600160009054906101000a900473ffffffffffffffffffffffffffffffffffffffff1673ffffffffffffffffffffffffffffffffffffffff16632d712c768c846040518363ffffffff1660e01b8152600401610e0d929190613489565b600060405180830381600087803b158015610e2757600080fd5b505af1158015610e3b573d6000803e3d6000fd5b50505050600160009054906101000a900473ffffffffffffffffffffffffffffffffffffffff1673ffffffffffffffffffffffffffffffffffffffff1663a6cb826e8c836040518363ffffffff1660e01b8152600401610e9c929190613489565b600060405180830381600087803b158015610eb657600080fd5b505af1158015610eca573d6000803e3d6000fd5b50505050600260009054906101000a900473ffffffffffffffffffffffffffffffffffffffff1673ffffffffffffffffffffffffffffffffffffffff16635ce81ef88b610f1561256b565b6040518363ffffffff1660e01b8152600401610f32929190613225565b600060405180830381600087803b158015610f4c57600080fd5b505af1158015610f60573d6000803e3d6000fd5b50505050600160009054906101000a900473ffffffffffffffffffffffffffffffffffffffff1673ffffffffffffffffffffffffffffffffffffffff166382e408138c60006040518363ffffffff1660e01b8152600401610fc2929190613437565b600060405180830381600087803b158015610fdc57600080fd5b505af1158015610ff0573d6000803e3d6000fd5b50505050610ffe8b8b6125c6565b5050505050505050505050565b6000600160009054906101000a900473ffffffffffffffffffffffffffffffffffffffff1673ffffffffffffffffffffffffffffffffffffffff16635f273e18846040518263ffffffff1660e01b8152600401611068919061341c565b60206040518083038186803b15801561108057600080fd5b505afa158015611094573d6000803e3d6000fd5b505050506040513d601f19601f820116820180604052508101906110b89190612e6d565b90506000600160009054906101000a900473ffffffffffffffffffffffffffffffffffffffff1673ffffffffffffffffffffffffffffffffffffffff1663c7bd6c31856040518263ffffffff1660e01b8152600401611117919061341c565b60206040518083038186803b15801561112f57600080fd5b505afa158015611143573d6000803e3d6000fd5b505050506040513d601f19601f820116820180604052508101906111679190612e6d565b90506000600160009054906101000a900473ffffffffffffffffffffffffffffffffffffffff1673ffffffffffffffffffffffffffffffffffffffff16634d85cebf866040518263ffffffff1660e01b81526004016111c6919061341c565b60206040518083038186803b1580156111de57600080fd5b505afa1580156111f2573d6000803e3d6000fd5b505050506040513d601f19601f820116820180604052508101906112169190612e6d565b90506000600160009054906101000a900473ffffffffffffffffffffffffffffffffffffffff1673ffffffffffffffffffffffffffffffffffffffff166360e2f2fb876040518263ffffffff1660e01b8152600401611275919061341c565b60206040518083038186803b15801561128d57600080fd5b505afa1580156112a1573d6000803e3d6000fd5b505050506040513d601f19601f820116820180604052508101906112c59190612e6d565b90508473ffffffffffffffffffffffffffffffffffffffff1660008054906101000a900473ffffffffffffffffffffffffffffffffffffffff1673ffffffffffffffffffffffffffffffffffffffff16636352211e886040518263ffffffff1660e01b8152600401611337919061341c565b60206040518083038186803b15801561134f57600080fd5b505afa158015611363573d6000803e3d6000fd5b505050506040513d601f19601f820116820180604052508101906113879190612d4c565b73ffffffffffffffffffffffffffffffffffffffff16146113dd576040517f08c379a00000000000000000000000000000000000000000000000000000000081526004016113d49061333c565b60405180910390fd5b6113e9838383876127fc565b6113f257600080fd5b600160009054906101000a900473ffffffffffffffffffffffffffffffffffffffff1673ffffffffffffffffffffffffffffffffffffffff166382e408138760016040518363ffffffff1660e01b8152600401611450929190613460565b600060405180830381600087803b15801561146a57600080fd5b505af115801561147e573d6000803e3d6000fd5b50505050600460008673ffffffffffffffffffffffffffffffffffffffff1673ffffffffffffffffffffffffffffffffffffffff16815260200190815260200160002086908060018154018082558091505060019003906000526020600020016000909190919091505560405180606001604052808781526020014281526020018673ffffffffffffffffffffffffffffffffffffffff16815250600660008773ffffffffffffffffffffffffffffffffffffffff1673ffffffffffffffffffffffffffffffffffffffff1681526020019081526020016000206000888152602001908152602001600020600082015181600001556020820151816001015560408201518160020160006101000a81548173ffffffffffffffffffffffffffffffffffffffff021916908373ffffffffffffffffffffffffffffffffffffffff160217905550905050505050505050565b600063150b7a0260e01b905095945050505050565b6006602052816000526040600020602052806000526040600020600091509150508060000154908060010154908060020160009054906101000a900473ffffffffffffffffffffffffffffffffffffffff16905083565b600260009054906101000a900473ffffffffffffffffffffffffffffffffffffffff1681565b60008054906101000a900473ffffffffffffffffffffffffffffffffffffffff1681565b8082600080600460008573ffffffffffffffffffffffffffffffffffffffff1673ffffffffffffffffffffffffffffffffffffffff16815260200190815260200160002080548060200260200160405190810160405280929190818152602001828054801561171357602002820191906000526020600020905b8154815260200190600101908083116116ff575b5050505050905060005b815181101561178a576000828281518110611761577f4e487b7100000000000000000000000000000000000000000000000000000000600052603260045260246000fd5b602002602001015190508085141561177857600193505b50806117839061370f565b905061171d565b50816117cb576040517f08c379a00000000000000000000000000000000000000000000000000000000081526004016117c2906132dc565b60405180910390fd5b6000600660008773ffffffffffffffffffffffffffffffffffffffff1673ffffffffffffffffffffffffffffffffffffffff168152602001908152602001600020600088815260200190815260200160002060405180606001604052908160008201548152602001600182015481526020016002820160009054906101000a900473ffffffffffffffffffffffffffffffffffffffff1673ffffffffffffffffffffffffffffffffffffffff1673ffffffffffffffffffffffffffffffffffffffff168152505090506000816020015190506000600160009054906101000a900473ffffffffffffffffffffffffffffffffffffffff1673ffffffffffffffffffffffffffffffffffffffff1663c7bd6c318a6040518263ffffffff1660e01b81526004016118fa919061341c565b60206040518083038186803b15801561191257600080fd5b505afa158015611926573d6000803e3d6000fd5b505050506040513d601f19601f8201168201806040525081019061194a9190612e6d565b90506000600a8261195b91906135e3565b905060006008905042610708856119729190613533565b11156119b3576040517f08c379a00000000000000000000000000000000000000000000000000000000081526004016119aa9061335c565b60405180910390fd5b600160009054906101000a900473ffffffffffffffffffffffffffffffffffffffff1673ffffffffffffffffffffffffffffffffffffffff16634fc3f41a8c6040518263ffffffff1660e01b8152600401611a0e919061341c565b600060405180830381600087803b158015611a2857600080fd5b505af1158015611a3c573d6000803e3d6000fd5b50505050600160009054906101000a900473ffffffffffffffffffffffffffffffffffffffff1673ffffffffffffffffffffffffffffffffffffffff16632d712c768c846040518363ffffffff1660e01b8152600401611a9d929190613489565b600060405180830381600087803b158015611ab757600080fd5b505af1158015611acb573d6000803e3d6000fd5b50505050600160009054906101000a900473ffffffffffffffffffffffffffffffffffffffff1673ffffffffffffffffffffffffffffffffffffffff1663a6cb826e8c836040518363ffffffff1660e01b8152600401611b2c929190613489565b600060405180830381600087803b158015611b4657600080fd5b505af1158015611b5a573d6000803e3d6000fd5b50505050600260009054906101000a900473ffffffffffffffffffffffffffffffffffffffff1673ffffffffffffffffffffffffffffffffffffffff16632db113928b611ba561256b565b6040518363ffffffff1660e01b8152600401611bc2929190613225565b600060405180830381600087803b158015611bdc57600080fd5b505af1158015611bf0573d6000803e3d6000fd5b50505050600160009054906101000a900473ffffffffffffffffffffffffffffffffffffffff1673ffffffffffffffffffffffffffffffffffffffff166382e408138c60006040518363ffffffff1660e01b8152600401611c52929190613437565b600060405180830381600087803b158015611c6c57600080fd5b505af1158015611c80573d6000803e3d6000fd5b50505050611c8e8a8c612916565b5050505050505050505050565b60036020528160005260406000208181548110611cb757600080fd5b90600052602060002001600091509150505481565b6005602052816000526040600020602052806000526040600020600091509150508060000154908060010154908060020160009054906101000a900473ffffffffffffffffffffffffffffffffffffffff16905083565b6000600160009054906101000a900473ffffffffffffffffffffffffffffffffffffffff1673ffffffffffffffffffffffffffffffffffffffff16635f273e18846040518263ffffffff1660e01b8152600401611d80919061341c565b60206040518083038186803b158015611d9857600080fd5b505afa158015611dac573d6000803e3d6000fd5b505050506040513d601f19601f82011682018060405250810190611dd09190612e6d565b90506000600160009054906101000a900473ffffffffffffffffffffffffffffffffffffffff1673ffffffffffffffffffffffffffffffffffffffff1663c7bd6c31856040518263ffffffff1660e01b8152600401611e2f919061341c565b60206040518083038186803b158015611e4757600080fd5b505afa158015611e5b573d6000803e3d6000fd5b505050506040513d601f19601f82011682018060405250810190611e7f9190612e6d565b9050611e8c828285612b4c565b611e9557600080fd5b600160009054906101000a900473ffffffffffffffffffffffffffffffffffffffff1673ffffffffffffffffffffffffffffffffffffffff16639c1cb8bf85856040518363ffffffff1660e01b8152600401611ef2929190613489565b600060405180830381600087803b158015611f0c57600080fd5b505af1158015611f20573d6000803e3d6000fd5b5050505050505050565b60606000600460008473ffffffffffffffffffffffffffffffffffffffff1673ffffffffffffffffffffffffffffffffffffffff168152602001908152602001600020805480602002602001604051908101604052809291908181526020018280548015611fb757602002820191906000526020600020905b815481526020019060010190808311611fa3575b505050505090506000815167ffffffffffffffff811115612001577f4e487b7100000000000000000000000000000000000000000000000000000000600052604160045260246000fd5b60405190808252806020026020018201604052801561203a57816020015b612027612c4e565b81526020019060019003908161201f5790505b50905060005b82518110156121a9576000838281518110612084577f4e487b7100000000000000000000000000000000000000000000000000000000600052603260045260246000fd5b60200260200101519050600660008773ffffffffffffffffffffffffffffffffffffffff1673ffffffffffffffffffffffffffffffffffffffff168152602001908152602001600020600082815260200190815260200160002060405180606001604052908160008201548152602001600182015481526020016002820160009054906101000a900473ffffffffffffffffffffffffffffffffffffffff1673ffffffffffffffffffffffffffffffffffffffff1673ffffffffffffffffffffffffffffffffffffffff168152505083838151811061218c577f4e487b7100000000000000000000000000000000000000000000000000000000600052603260045260246000fd5b602002602001018190525050806121a29061370f565b9050612040565b508092505050919050565b600160009054906101000a900473ffffffffffffffffffffffffffffffffffffffff1681565b600460205281600052604060002081815481106121f657600080fd5b90600052602060002001600091509150505481565b60606000600360008473ffffffffffffffffffffffffffffffffffffffff1673ffffffffffffffffffffffffffffffffffffffff16815260200190815260200160002080548060200260200160405190810160405280929190818152602001828054801561229857602002820191906000526020600020905b815481526020019060010190808311612284575b505050505090506000815167ffffffffffffffff8111156122e2577f4e487b7100000000000000000000000000000000000000000000000000000000600052604160045260246000fd5b60405190808252806020026020018201604052801561231b57816020015b612308612c4e565b8152602001906001900390816123005790505b50905060005b825181101561248a576000838281518110612365577f4e487b7100000000000000000000000000000000000000000000000000000000600052603260045260246000fd5b60200260200101519050600560008773ffffffffffffffffffffffffffffffffffffffff1673ffffffffffffffffffffffffffffffffffffffff168152602001908152602001600020600082815260200190815260200160002060405180606001604052908160008201548152602001600182015481526020016002820160009054906101000a900473ffffffffffffffffffffffffffffffffffffffff1673ffffffffffffffffffffffffffffffffffffffff1673ffffffffffffffffffffffffffffffffffffffff168152505083838151811061246d577f4e487b7100000000000000000000000000000000000000000000000000000000600052603260045260246000fd5b602002602001018190525050806124839061370f565b9050612321565b508092505050919050565b60008082146124d9576040517f08c379a00000000000000000000000000000000000000000000000000000000081526004016124d0906133fc565b60405180910390fd5b6000831461251c576040517f08c379a00000000000000000000000000000000000000000000000000000000081526004016125139061337c565b60405180910390fd5b6005841015612560576040517f08c379a0000000000000000000000000000000000000000000000000000000008152600401612557906133dc565b60405180910390fd5b600190509392505050565b600060644233600754604051602001612586939291906131e8565b6040516020818303038152906040528051906020012060001c6125a99190613786565b9050600760008154809291906125be9061370f565b919050555090565b600080600360008473ffffffffffffffffffffffffffffffffffffffff1673ffffffffffffffffffffffffffffffffffffffff16815260200190815260200160002090506000818054905090506000600560008673ffffffffffffffffffffffffffffffffffffffff1673ffffffffffffffffffffffffffffffffffffffff16815260200190815260200160002060008781526020019081526020016000209050806000016000905580600101600090558060020160006101000a81549073ffffffffffffffffffffffffffffffffffffffff021916905560005b8281101561270f5760008482815481106126e4577f4e487b7100000000000000000000000000000000000000000000000000000000600052603260045260246000fd5b90600052602060002001549050878114156126fd578195505b50806127089061370f565b90506126a1565b508260018361271e91906135e3565b81548110612755577f4e487b7100000000000000000000000000000000000000000000000000000000600052603260045260246000fd5b9060005260206000200154838581548110612799577f4e487b7100000000000000000000000000000000000000000000000000000000600052603260045260246000fd5b9060005260206000200181905550828054806127de577f4e487b7100000000000000000000000000000000000000000000000000000000600052603160045260246000fd5b60019003818190600052602060002001600090559055505050505050565b6000808314612840576040517f08c379a0000000000000000000000000000000000000000000000000000000008152600401612837906133fc565b60405180910390fd5b60028211612883576040517f08c379a000000000000000000000000000000000000000000000000000000000815260040161287a9061339c565b60405180910390fd5b600084146128c6576040517f08c379a00000000000000000000000000000000000000000000000000000000081526004016128bd9061337c565b60405180910390fd5b600a85101561290a576040517f08c379a0000000000000000000000000000000000000000000000000000000008152600401612901906133dc565b60405180910390fd5b60019050949350505050565b600080600460008573ffffffffffffffffffffffffffffffffffffffff1673ffffffffffffffffffffffffffffffffffffffff16815260200190815260200160002090506000818054905090506000600660008773ffffffffffffffffffffffffffffffffffffffff1673ffffffffffffffffffffffffffffffffffffffff16815260200190815260200160002060008681526020019081526020016000209050806000016000905580600101600090558060020160006101000a81549073ffffffffffffffffffffffffffffffffffffffff021916905560005b82811015612a5f576000848281548110612a34577f4e487b7100000000000000000000000000000000000000000000000000000000600052603260045260246000fd5b9060005260206000200154905086811415612a4d578195505b5080612a589061370f565b90506129f1565b5082600183612a6e91906135e3565b81548110612aa5577f4e487b7100000000000000000000000000000000000000000000000000000000600052603260045260246000fd5b9060005260206000200154838581548110612ae9577f4e487b7100000000000000000000000000000000000000000000000000000000600052603260045260246000fd5b906000526020600020018190555082805480612b2e577f4e487b7100000000000000000000000000000000000000000000000000000000600052603160045260246000fd5b60019003818190600052602060002001600090559055505050505050565b600080655af3107a40009050828582612b659190613589565b612b6f9190613589565b3414612bb0576040517f08c379a0000000000000000000000000000000000000000000000000000000008152600401612ba7906132fc565b60405180910390fd5b60648410612bf3576040517f08c379a0000000000000000000000000000000000000000000000000000000008152600401612bea9061331c565b60405180910390fd5b60648484612c019190613533565b1115612c42576040517f08c379a0000000000000000000000000000000000000000000000000000000008152600401612c39906133bc565b60405180910390fd5b60019150509392505050565b60405180606001604052806000815260200160008152602001600073ffffffffffffffffffffffffffffffffffffffff1681525090565b600081359050612c9481613a08565b92915050565b600081519050612ca981613a08565b92915050565b60008083601f840112612cc157600080fd5b8235905067ffffffffffffffff811115612cda57600080fd5b602083019150836001820283011115612cf257600080fd5b9250929050565b600081359050612d0881613a1f565b92915050565b600081519050612d1d81613a1f565b92915050565b600060208284031215612d3557600080fd5b6000612d4384828501612c85565b91505092915050565b600060208284031215612d5e57600080fd5b6000612d6c84828501612c9a565b91505092915050565b60008060408385031215612d8857600080fd5b6000612d9685828601612c85565b9250506020612da785828601612c85565b9150509250929050565b600080600080600060808688031215612dc957600080fd5b6000612dd788828901612c85565b9550506020612de888828901612c85565b9450506040612df988828901612cf9565b935050606086013567ffffffffffffffff811115612e1657600080fd5b612e2288828901612caf565b92509250509295509295909350565b60008060408385031215612e4457600080fd5b6000612e5285828601612c85565b9250506020612e6385828601612cf9565b9150509250929050565b600060208284031215612e7f57600080fd5b6000612e8d84828501612d0e565b91505092915050565b60008060408385031215612ea957600080fd5b6000612eb785828601612cf9565b9250506020612ec885828601612c85565b9150509250929050565b60008060408385031215612ee557600080fd5b6000612ef385828601612cf9565b9250506020612f0485828601612cf9565b9150509250929050565b6000612f1a8383613171565b60608301905092915050565b612f2f81613617565b82525050565b612f3e81613617565b82525050565b612f55612f5082613617565b613758565b82525050565b6000612f66826134f9565b612f708185613511565b9350612f7b836134e9565b8060005b83811015612fac578151612f938882612f0e565b9750612f9e83613504565b925050600181019050612f7f565b5085935050505092915050565b612fc281613629565b82525050565b612fd18161367f565b82525050565b612fe0816136a3565b82525050565b612fef816136c7565b82525050565b612ffe816136eb565b82525050565b61300d816136fd565b82525050565b6000613020601183613522565b915061302b82613822565b602082019050919050565b6000613043601083613522565b915061304e8261384b565b602082019050919050565b6000613066601b83613522565b915061307182613874565b602082019050919050565b6000613089601583613522565b91506130948261389d565b602082019050919050565b60006130ac601583613522565b91506130b7826138c6565b602082019050919050565b60006130cf601f83613522565b91506130da826138ef565b602082019050919050565b60006130f2603083613522565b91506130fd82613918565b604082019050919050565b6000613115601e83613522565b915061312082613967565b602082019050919050565b6000613138601183613522565b915061314382613990565b602082019050919050565b600061315b602783613522565b9150613166826139b9565b604082019050919050565b60608201600082015161318760008501826131b3565b50602082015161319a60208501826131b3565b5060408201516131ad6040850182612f26565b50505050565b6131bc81613675565b82525050565b6131cb81613675565b82525050565b6131e26131dd82613675565b61377c565b82525050565b60006131f482866131d1565b6020820191506132048285612f44565b60148201915061321482846131d1565b602082019150819050949350505050565b600060408201905061323a6000830185612f35565b61324760208301846131c2565b9392505050565b600060208201905081810360008301526132688184612f5b565b905092915050565b60006020820190506132856000830184612fb9565b92915050565b60006020820190506132a06000830184612fc8565b92915050565b60006020820190506132bb6000830184612fd7565b92915050565b60006020820190506132d66000830184612fe6565b92915050565b600060208201905081810360008301526132f581613013565b9050919050565b6000602082019050818103600083015261331581613036565b9050919050565b6000602082019050818103600083015261333581613059565b9050919050565b600060208201905081810360008301526133558161307c565b9050919050565b600060208201905081810360008301526133758161309f565b9050919050565b60006020820190508181036000830152613395816130c2565b9050919050565b600060208201905081810360008301526133b5816130e5565b9050919050565b600060208201905081810360008301526133d581613108565b9050919050565b600060208201905081810360008301526133f58161312b565b9050919050565b600060208201905081810360008301526134158161314e565b9050919050565b600060208201905061343160008301846131c2565b92915050565b600060408201905061344c60008301856131c2565b6134596020830184612ff5565b9392505050565b600060408201905061347560008301856131c2565b6134826020830184613004565b9392505050565b600060408201905061349e60008301856131c2565b6134ab60208301846131c2565b9392505050565b60006060820190506134c760008301866131c2565b6134d460208301856131c2565b6134e16040830184612f35565b949350505050565b6000819050602082019050919050565b600081519050919050565b6000602082019050919050565b600082825260208201905092915050565b600082825260208201905092915050565b600061353e82613675565b915061354983613675565b9250827fffffffffffffffffffffffffffffffffffffffffffffffffffffffffffffffff0382111561357e5761357d6137b7565b5b828201905092915050565b600061359482613675565b915061359f83613675565b9250817fffffffffffffffffffffffffffffffffffffffffffffffffffffffffffffffff04831182151516156135d8576135d76137b7565b5b828202905092915050565b60006135ee82613675565b91506135f983613675565b92508282101561360c5761360b6137b7565b5b828203905092915050565b600061362282613655565b9050919050565b60007fffffffff0000000000000000000000000000000000000000000000000000000082169050919050565b600073ffffffffffffffffffffffffffffffffffffffff82169050919050565b6000819050919050565b600061368a82613691565b9050919050565b600061369c82613655565b9050919050565b60006136ae826136b5565b9050919050565b60006136c082613655565b9050919050565b60006136d2826136d9565b9050919050565b60006136e482613655565b9050919050565b60006136f682613675565b9050919050565b600061370882613675565b9050919050565b600061371a82613675565b91507fffffffffffffffffffffffffffffffffffffffffffffffffffffffffffffffff82141561374d5761374c6137b7565b5b600182019050919050565b60006137638261376a565b9050919050565b600061377582613815565b9050919050565b6000819050919050565b600061379182613675565b915061379c83613675565b9250826137ac576137ab6137e6565b5b828206905092915050565b7f4e487b7100000000000000000000000000000000000000000000000000000000600052601160045260246000fd5b7f4e487b7100000000000000000000000000000000000000000000000000000000600052601260045260246000fd5b60008160601b9050919050565b7f4d6f6e73746572206e6f7420666f756e64000000000000000000000000000000600082015250565b7f4e6f7420656e6f75676820657468657200000000000000000000000000000000600082015250565b7f596f7572206d6f6e737465722068756e6765722069732066756c6c0000000000600082015250565b7f49742773206e6f7420796f7572206d6f6e737465720000000000000000000000600082015250565b7f4475726174696f6e206e6f74206f766572207965740000000000000000000000600082015250565b7f20596f7572206d6f6e73746572207374696c6c206f6e20636f6f6c646f776e00600082015250565b7f596f7572206d6f6e7374657220646f6573276e74206d657420746865206d696e60008201527f696d756d20726571756972656d656e7400000000000000000000000000000000602082015250565b7f546f6f206d75636820666f6f6420666f7220796f7572206d6f6e737465720000600082015250565b7f4e6f7420656e6f7567682068756e676572000000000000000000000000000000600082015250565b7f596f7572206d6f6e73746572207374696c6c20776f726b696e67206f6e20736f60008201527f6d657468696e6700000000000000000000000000000000000000000000000000602082015250565b613a1181613617565b8114613a1c57600080fd5b50565b613a2881613675565b8114613a3357600080fd5b5056fea26469706673582212200bf85d4d8e1019334587aa954fd8e277234fe035b264fcc72a03aa1b159ef28764736f6c63430008040033",
  "linkReferences": {},
  "deployedLinkReferences": {}
}