{
  "_format": "hh-sol-artifact-1",
  "contractName": "Monsters",
  "sourceName": "contracts/MonstersNFT.sol",
  "abi": [
    {
      "inputs": [],
      "stateMutability": "nonpayable",
      "type": "constructor"
    },
    {
      "inputs": [],
      "name": "ApprovalCallerNotOwnerNorApproved",
      "type": "error"
    },
    {
      "inputs": [],
      "name": "ApprovalQueryForNonexistentToken",
      "type": "error"
    },
    {
      "inputs": [],
      "name": "BalanceQueryForZeroAddress",
      "type": "error"
    },
    {
      "inputs": [
        {
          "internalType": "address",
          "name": "_caller",
          "type": "address"
        }
      ],
      "name": "CallerNotApproved",
      "type": "error"
    },
    {
      "inputs": [
        {
          "internalType": "uint256",
          "name": "_monster",
          "type": "uint256"
        },
        {
          "internalType": "uint256",
          "name": "_level",
          "type": "uint256"
        }
      ],
      "name": "MaxLevelHit",
      "type": "error"
    },
    {
      "inputs": [],
      "name": "MintERC2309QuantityExceedsLimit",
      "type": "error"
    },
    {
      "inputs": [],
      "name": "MintToZeroAddress",
      "type": "error"
    },
    {
      "inputs": [],
      "name": "MintZeroQuantity",
      "type": "error"
    },
    {
      "inputs": [
        {
          "internalType": "uint256",
          "name": "_quantity",
          "type": "uint256"
        },
        {
          "internalType": "uint256",
          "name": "_sent",
          "type": "uint256"
        },
        {
          "internalType": "uint256",
          "name": "_population",
          "type": "uint256"
        }
      ],
      "name": "NotValidToSummon",
      "type": "error"
    },
    {
      "inputs": [],
      "name": "OwnerQueryForNonexistentToken",
      "type": "error"
    },
    {
      "inputs": [],
      "name": "OwnershipNotInitializedForExtraData",
      "type": "error"
    },
    {
      "inputs": [],
      "name": "TransferCallerNotOwnerNorApproved",
      "type": "error"
    },
    {
      "inputs": [],
      "name": "TransferFromIncorrectOwner",
      "type": "error"
    },
    {
      "inputs": [],
      "name": "TransferToNonERC721ReceiverImplementer",
      "type": "error"
    },
    {
      "inputs": [],
      "name": "TransferToZeroAddress",
      "type": "error"
    },
    {
      "inputs": [],
      "name": "URIQueryForNonexistentToken",
      "type": "error"
    },
    {
      "anonymous": false,
      "inputs": [
        {
          "indexed": true,
          "internalType": "address",
          "name": "owner",
          "type": "address"
        },
        {
          "indexed": true,
          "internalType": "address",
          "name": "approved",
          "type": "address"
        },
        {
          "indexed": true,
          "internalType": "uint256",
          "name": "tokenId",
          "type": "uint256"
        }
      ],
      "name": "Approval",
      "type": "event"
    },
    {
      "anonymous": false,
      "inputs": [
        {
          "indexed": true,
          "internalType": "address",
          "name": "owner",
          "type": "address"
        },
        {
          "indexed": true,
          "internalType": "address",
          "name": "operator",
          "type": "address"
        },
        {
          "indexed": false,
          "internalType": "bool",
          "name": "approved",
          "type": "bool"
        }
      ],
      "name": "ApprovalForAll",
      "type": "event"
    },
    {
      "anonymous": false,
      "inputs": [
        {
          "indexed": true,
          "internalType": "uint256",
          "name": "fromTokenId",
          "type": "uint256"
        },
        {
          "indexed": false,
          "internalType": "uint256",
          "name": "toTokenId",
          "type": "uint256"
        },
        {
          "indexed": true,
          "internalType": "address",
          "name": "from",
          "type": "address"
        },
        {
          "indexed": true,
          "internalType": "address",
          "name": "to",
          "type": "address"
        }
      ],
      "name": "ConsecutiveTransfer",
      "type": "event"
    },
    {
      "anonymous": false,
      "inputs": [
        {
          "indexed": true,
          "internalType": "address",
          "name": "previousOwner",
          "type": "address"
        },
        {
          "indexed": true,
          "internalType": "address",
          "name": "newOwner",
          "type": "address"
        }
      ],
      "name": "OwnershipTransferred",
      "type": "event"
    },
    {
      "anonymous": false,
      "inputs": [
        {
          "indexed": true,
          "internalType": "address",
          "name": "from",
          "type": "address"
        },
        {
          "indexed": true,
          "internalType": "address",
          "name": "to",
          "type": "address"
        },
        {
          "indexed": true,
          "internalType": "uint256",
          "name": "tokenId",
          "type": "uint256"
        }
      ],
      "name": "Transfer",
      "type": "event"
    },
    {
      "inputs": [],
      "name": "MAX_MONSTER_POPULATION",
      "outputs": [
        {
          "internalType": "uint256",
          "name": "",
          "type": "uint256"
        }
      ],
      "stateMutability": "view",
      "type": "function"
    },
    {
      "inputs": [],
      "name": "SUMMON_PRICE",
      "outputs": [
        {
          "internalType": "uint256",
          "name": "",
          "type": "uint256"
        }
      ],
      "stateMutability": "view",
      "type": "function"
    },
    {
      "inputs": [
        {
          "internalType": "address",
          "name": "to",
          "type": "address"
        },
        {
          "internalType": "uint256",
          "name": "tokenId",
          "type": "uint256"
        }
      ],
      "name": "approve",
      "outputs": [],
      "stateMutability": "payable",
      "type": "function"
    },
    {
      "inputs": [
        {
          "internalType": "address",
          "name": "",
          "type": "address"
        }
      ],
      "name": "approvedAddress",
      "outputs": [
        {
          "internalType": "bool",
          "name": "",
          "type": "bool"
        }
      ],
      "stateMutability": "view",
      "type": "function"
    },
    {
      "inputs": [
        {
          "internalType": "address",
          "name": "owner",
          "type": "address"
        }
      ],
      "name": "balanceOf",
      "outputs": [
        {
          "internalType": "uint256",
          "name": "",
          "type": "uint256"
        }
      ],
      "stateMutability": "view",
      "type": "function"
    },
    {
      "inputs": [],
      "name": "erc721Interface",
      "outputs": [
        {
          "internalType": "contract IERC721A",
          "name": "",
          "type": "address"
        }
      ],
      "stateMutability": "view",
      "type": "function"
    },
    {
      "inputs": [
        {
          "internalType": "uint256",
          "name": "_monster",
          "type": "uint256"
        },
        {
          "internalType": "uint256",
          "name": "_amount",
          "type": "uint256"
        }
      ],
      "name": "expUp",
      "outputs": [],
      "stateMutability": "nonpayable",
      "type": "function"
    },
    {
      "inputs": [
        {
          "internalType": "uint256",
          "name": "tokenId",
          "type": "uint256"
        }
      ],
      "name": "getApproved",
      "outputs": [
        {
          "internalType": "address",
          "name": "",
          "type": "address"
        }
      ],
      "stateMutability": "view",
      "type": "function"
    },
    {
      "inputs": [
        {
          "internalType": "uint256",
          "name": "_monster",
          "type": "uint256"
        }
      ],
      "name": "getMonsterCooldown",
      "outputs": [
        {
          "internalType": "uint256",
          "name": "",
          "type": "uint256"
        }
      ],
      "stateMutability": "view",
      "type": "function"
    },
    {
      "inputs": [
        {
          "internalType": "uint256",
          "name": "_monster",
          "type": "uint256"
        }
      ],
      "name": "getMonsterEnergy",
      "outputs": [
        {
          "internalType": "uint256",
          "name": "",
          "type": "uint256"
        }
      ],
      "stateMutability": "view",
      "type": "function"
    },
    {
      "inputs": [
        {
          "internalType": "uint256",
          "name": "_monster",
          "type": "uint256"
        }
      ],
      "name": "getMonsterExp",
      "outputs": [
        {
          "internalType": "uint256",
          "name": "",
          "type": "uint256"
        }
      ],
      "stateMutability": "view",
      "type": "function"
    },
    {
      "inputs": [
        {
          "internalType": "uint256",
          "name": "_monster",
          "type": "uint256"
        }
      ],
      "name": "getMonsterExpCap",
      "outputs": [
        {
          "internalType": "uint256",
          "name": "",
          "type": "uint256"
        }
      ],
      "stateMutability": "view",
      "type": "function"
    },
    {
      "inputs": [
        {
          "internalType": "uint256",
          "name": "_monster",
          "type": "uint256"
        }
      ],
      "name": "getMonsterLevel",
      "outputs": [
        {
          "internalType": "uint256",
          "name": "",
          "type": "uint256"
        }
      ],
      "stateMutability": "view",
      "type": "function"
    },
    {
      "inputs": [
        {
          "internalType": "uint256",
          "name": "_monster",
          "type": "uint256"
        }
      ],
      "name": "getMonsterStatus",
      "outputs": [
        {
          "internalType": "uint256",
          "name": "",
          "type": "uint256"
        }
      ],
      "stateMutability": "view",
      "type": "function"
    },
    {
      "inputs": [
        {
          "internalType": "address",
          "name": "_user",
          "type": "address"
        }
      ],
      "name": "getMonsters",
      "outputs": [
        {
          "internalType": "uint256[]",
          "name": "",
          "type": "uint256[]"
        }
      ],
      "stateMutability": "view",
      "type": "function"
    },
    {
      "inputs": [
        {
          "internalType": "address",
          "name": "_user",
          "type": "address"
        }
      ],
      "name": "getMonstersDetails",
      "outputs": [
        {
          "components": [
            {
              "internalType": "uint8",
              "name": "level",
              "type": "uint8"
            },
            {
              "internalType": "uint8",
              "name": "energy",
              "type": "uint8"
            },
            {
              "internalType": "uint8",
              "name": "energyCap",
              "type": "uint8"
            },
            {
              "internalType": "uint8",
              "name": "exp",
              "type": "uint8"
            },
            {
              "internalType": "uint8",
              "name": "expCap",
              "type": "uint8"
            },
            {
              "internalType": "uint8",
              "name": "status",
              "type": "uint8"
            },
            {
              "internalType": "uint32",
              "name": "cooldown",
              "type": "uint32"
            }
          ],
          "internalType": "struct Monsters.Stats[]",
          "name": "",
          "type": "tuple[]"
        }
      ],
      "stateMutability": "view",
      "type": "function"
    },
    {
      "inputs": [
        {
          "internalType": "address",
          "name": "owner",
          "type": "address"
        },
        {
          "internalType": "address",
          "name": "operator",
          "type": "address"
        }
      ],
      "name": "isApprovedForAll",
      "outputs": [
        {
          "internalType": "bool",
          "name": "",
          "type": "bool"
        }
      ],
      "stateMutability": "view",
      "type": "function"
    },
    {
      "inputs": [
        {
          "internalType": "uint256",
          "name": "_monster",
          "type": "uint256"
        }
      ],
      "name": "monsterOwner",
      "outputs": [
        {
          "internalType": "address",
          "name": "_owner",
          "type": "address"
        }
      ],
      "stateMutability": "view",
      "type": "function"
    },
    {
      "inputs": [],
      "name": "monsterPopulation",
      "outputs": [
        {
          "internalType": "uint256",
          "name": "",
          "type": "uint256"
        }
      ],
      "stateMutability": "view",
      "type": "function"
    },
    {
      "inputs": [
        {
          "internalType": "uint256",
          "name": "",
          "type": "uint256"
        }
      ],
      "name": "monsterStats",
      "outputs": [
        {
          "internalType": "uint8",
          "name": "level",
          "type": "uint8"
        },
        {
          "internalType": "uint8",
          "name": "energy",
          "type": "uint8"
        },
        {
          "internalType": "uint8",
          "name": "energyCap",
          "type": "uint8"
        },
        {
          "internalType": "uint8",
          "name": "exp",
          "type": "uint8"
        },
        {
          "internalType": "uint8",
          "name": "expCap",
          "type": "uint8"
        },
        {
          "internalType": "uint8",
          "name": "status",
          "type": "uint8"
        },
        {
          "internalType": "uint32",
          "name": "cooldown",
          "type": "uint32"
        }
      ],
      "stateMutability": "view",
      "type": "function"
    },
    {
      "inputs": [],
      "name": "name",
      "outputs": [
        {
          "internalType": "string",
          "name": "",
          "type": "string"
        }
      ],
      "stateMutability": "view",
      "type": "function"
    },
    {
      "inputs": [],
      "name": "nonce",
      "outputs": [
        {
          "internalType": "uint256",
          "name": "",
          "type": "uint256"
        }
      ],
      "stateMutability": "view",
      "type": "function"
    },
    {
      "inputs": [],
      "name": "owner",
      "outputs": [
        {
          "internalType": "address",
          "name": "",
          "type": "address"
        }
      ],
      "stateMutability": "view",
      "type": "function"
    },
    {
      "inputs": [
        {
          "internalType": "uint256",
          "name": "tokenId",
          "type": "uint256"
        }
      ],
      "name": "ownerOf",
      "outputs": [
        {
          "internalType": "address",
          "name": "",
          "type": "address"
        }
      ],
      "stateMutability": "view",
      "type": "function"
    },
    {
      "inputs": [],
      "name": "renounceOwnership",
      "outputs": [],
      "stateMutability": "nonpayable",
      "type": "function"
    },
    {
      "inputs": [
        {
          "internalType": "address",
          "name": "from",
          "type": "address"
        },
        {
          "internalType": "address",
          "name": "to",
          "type": "address"
        },
        {
          "internalType": "uint256",
          "name": "tokenId",
          "type": "uint256"
        }
      ],
      "name": "safeTransferFrom",
      "outputs": [],
      "stateMutability": "payable",
      "type": "function"
    },
    {
      "inputs": [
        {
          "internalType": "address",
          "name": "from",
          "type": "address"
        },
        {
          "internalType": "address",
          "name": "to",
          "type": "address"
        },
        {
          "internalType": "uint256",
          "name": "tokenId",
          "type": "uint256"
        },
        {
          "internalType": "bytes",
          "name": "_data",
          "type": "bytes"
        }
      ],
      "name": "safeTransferFrom",
      "outputs": [],
      "stateMutability": "payable",
      "type": "function"
    },
    {
      "inputs": [
        {
          "internalType": "address",
          "name": "operator",
          "type": "address"
        },
        {
          "internalType": "bool",
          "name": "approved",
          "type": "bool"
        }
      ],
      "name": "setApprovalForAll",
      "outputs": [],
      "stateMutability": "nonpayable",
      "type": "function"
    },
    {
      "inputs": [
        {
          "internalType": "address",
          "name": "_approved",
          "type": "address"
        }
      ],
      "name": "setApprovedAddress",
      "outputs": [],
      "stateMutability": "nonpayable",
      "type": "function"
    },
    {
      "inputs": [
        {
          "internalType": "string",
          "name": "baseURI",
          "type": "string"
        }
      ],
      "name": "setBaseURI",
      "outputs": [],
      "stateMutability": "nonpayable",
      "type": "function"
    },
    {
      "inputs": [
        {
          "internalType": "uint256",
          "name": "_monster",
          "type": "uint256"
        }
      ],
      "name": "setCooldown",
      "outputs": [],
      "stateMutability": "nonpayable",
      "type": "function"
    },
    {
      "inputs": [
        {
          "internalType": "uint256",
          "name": "_monster",
          "type": "uint256"
        },
        {
          "internalType": "uint256",
          "name": "_energy",
          "type": "uint256"
        }
      ],
      "name": "setEnergy",
      "outputs": [],
      "stateMutability": "nonpayable",
      "type": "function"
    },
    {
      "inputs": [
        {
          "internalType": "address",
          "name": "_usersDataContract",
          "type": "address"
        }
      ],
      "name": "setInterface",
      "outputs": [],
      "stateMutability": "nonpayable",
      "type": "function"
    },
    {
      "inputs": [
        {
          "internalType": "uint256",
          "name": "_monster",
          "type": "uint256"
        },
        {
          "internalType": "uint256",
          "name": "_status",
          "type": "uint256"
        }
      ],
      "name": "setStatus",
      "outputs": [],
      "stateMutability": "nonpayable",
      "type": "function"
    },
    {
      "inputs": [
        {
          "internalType": "uint256",
          "name": "_quantity",
          "type": "uint256"
        }
      ],
      "name": "summon",
      "outputs": [],
      "stateMutability": "payable",
      "type": "function"
    },
    {
      "inputs": [
        {
          "internalType": "bytes4",
          "name": "interfaceId",
          "type": "bytes4"
        }
      ],
      "name": "supportsInterface",
      "outputs": [
        {
          "internalType": "bool",
          "name": "",
          "type": "bool"
        }
      ],
      "stateMutability": "view",
      "type": "function"
    },
    {
      "inputs": [],
      "name": "symbol",
      "outputs": [
        {
          "internalType": "string",
          "name": "",
          "type": "string"
        }
      ],
      "stateMutability": "view",
      "type": "function"
    },
    {
      "inputs": [
        {
          "internalType": "uint256",
          "name": "tokenId",
          "type": "uint256"
        }
      ],
      "name": "tokenURI",
      "outputs": [
        {
          "internalType": "string",
          "name": "",
          "type": "string"
        }
      ],
      "stateMutability": "view",
      "type": "function"
    },
    {
      "inputs": [],
      "name": "totalSupply",
      "outputs": [
        {
          "internalType": "uint256",
          "name": "",
          "type": "uint256"
        }
      ],
      "stateMutability": "view",
      "type": "function"
    },
    {
      "inputs": [
        {
          "internalType": "address",
          "name": "from",
          "type": "address"
        },
        {
          "internalType": "address",
          "name": "to",
          "type": "address"
        },
        {
          "internalType": "uint256",
          "name": "tokenId",
          "type": "uint256"
        }
      ],
      "name": "transferFrom",
      "outputs": [],
      "stateMutability": "payable",
      "type": "function"
    },
    {
      "inputs": [
        {
          "internalType": "address",
          "name": "newOwner",
          "type": "address"
        }
      ],
      "name": "transferOwnership",
      "outputs": [],
      "stateMutability": "nonpayable",
      "type": "function"
    },
    {
      "inputs": [],
      "name": "usersDataInterface",
      "outputs": [
        {
          "internalType": "contract IUsersData",
          "name": "",
          "type": "address"
        }
      ],
      "stateMutability": "view",
      "type": "function"
    },
    {
      "stateMutability": "payable",
      "type": "receive"
    }
  ],
  "bytecode": "0x60806040523480156200001157600080fd5b506040518060400160405280600881526020017f4d6f6e73746572730000000000000000000000000000000000000000000000008152506040518060400160405280600381526020017f4d54520000000000000000000000000000000000000000000000000000000000815250816002908051906020019062000096929190620001c1565b508060039080519060200190620000af929190620001c1565b50620000c0620000ee60201b60201c565b6000819055505050620000e8620000dc620000f360201b60201c565b620000fb60201b60201c565b620002d6565b600090565b600033905090565b6000600860009054906101000a900473ffffffffffffffffffffffffffffffffffffffff16905081600860006101000a81548173ffffffffffffffffffffffffffffffffffffffff021916908373ffffffffffffffffffffffffffffffffffffffff1602179055508173ffffffffffffffffffffffffffffffffffffffff168173ffffffffffffffffffffffffffffffffffffffff167f8be0079c531659141344cd1fd0a4f28419497f9722a3daafe3b4186f6b6457e060405160405180910390a35050565b828054620001cf9062000271565b90600052602060002090601f016020900481019282620001f357600085556200023f565b82601f106200020e57805160ff19168380011785556200023f565b828001600101855582156200023f579182015b828111156200023e57825182559160200191906001019062000221565b5b5090506200024e919062000252565b5090565b5b808211156200026d57600081600090555060010162000253565b5090565b600060028204905060018216806200028a57607f821691505b60208210811415620002a157620002a0620002a7565b5b50919050565b7f4e487b7100000000000000000000000000000000000000000000000000000000600052602260045260246000fd5b613d6880620002e66000396000f3fe6080604052600436106102555760003560e01c806370a0823111610139578063a22cb465116100b6578063b88d4fde1161007a578063b88d4fde1461090f578063c87b56dd1461092b578063d4ad886814610968578063e985e9c5146109a5578063f1d356f2146109e2578063f2fde38b14610a0d5761025c565b8063a22cb4651461083e578063a6cb826e14610867578063ad8189fb14610890578063ae153e3e146108bb578063affed0e0146108e45761025c565b806389375b7c116100fd57806389375b7c146107595780638da5cb5b1461079657806395d89b41146107c157806397492c46146107ec5780639c5bbc89146108155761025c565b806370a0823114610674578063715018a6146106b15780637fb2db16146106c857806382e40813146106f357806385378f711461071c5761025c565b80634fc3f41a116101d257806360aeb8e91161019657806360aeb8e91461050657806360e2f2fb146105435780636127ba7a146105805780636352211e146105bd5780636a85f2c3146105fa5780636e6e384d146106375761025c565b80634fc3f41a1461040957806350f68dcd1461043257806355f804b314610475578063580879a11461049e5780635f273e18146104c95761025c565b806318160ddd1161021957806318160ddd1461033e57806323b872dd1461036957806324b9dcea1461038557806342842e0e146103b05780634d85cebf146103cc5761025c565b806301ffc9a714610261578063035d9f2a1461029e57806306fdde03146102ba578063081812fc146102e5578063095ea7b3146103225761025c565b3661025c57005b600080fd5b34801561026d57600080fd5b5061028860048036038101906102839190613109565b610a36565b60405161029591906135c9565b60405180910390f35b6102b860048036038101906102b3919061319c565b610ac8565b005b3480156102c657600080fd5b506102cf610d18565b6040516102dc919061361a565b60405180910390f35b3480156102f157600080fd5b5061030c6004803603810190610307919061319c565b610daa565b604051610319919061351e565b60405180910390f35b61033c600480360381019061033791906130cd565b610e29565b005b34801561034a57600080fd5b50610353610f6d565b604051610360919061367c565b60405180910390f35b610383600480360381019061037e9190612fc7565b610f84565b005b34801561039157600080fd5b5061039a6112a9565b6040516103a791906135e4565b60405180910390f35b6103ca60048036038101906103c59190612fc7565b6112cf565b005b3480156103d857600080fd5b506103f360048036038101906103ee919061319c565b6112ef565b604051610400919061367c565b60405180910390f35b34801561041557600080fd5b50610430600480360381019061042b919061319c565b61132a565b005b34801561043e57600080fd5b506104596004803603810190610454919061319c565b611409565b60405161046c97969594939291906136ce565b60405180910390f35b34801561048157600080fd5b5061049c6004803603810190610497919061315b565b6114a9565b005b3480156104aa57600080fd5b506104b361153f565b6040516104c0919061367c565b60405180910390f35b3480156104d557600080fd5b506104f060048036038101906104eb919061319c565b61154a565b6040516104fd919061367c565b60405180910390f35b34801561051257600080fd5b5061052d6004803603810190610528919061319c565b61157f565b60405161053a919061351e565b60405180910390f35b34801561054f57600080fd5b5061056a6004803603810190610565919061319c565b611591565b604051610577919061367c565b60405180910390f35b34801561058c57600080fd5b506105a760048036038101906105a2919061319c565b6115c6565b6040516105b4919061367c565b60405180910390f35b3480156105c957600080fd5b506105e460048036038101906105df919061319c565b6115fb565b6040516105f1919061351e565b60405180910390f35b34801561060657600080fd5b50610621600480360381019061061c9190612f62565b61160d565b60405161062e91906135c9565b60405180910390f35b34801561064357600080fd5b5061065e60048036038101906106599190612f62565b61162d565b60405161066b9190613585565b60405180910390f35b34801561068057600080fd5b5061069b60048036038101906106969190612f62565b611865565b6040516106a8919061367c565b60405180910390f35b3480156106bd57600080fd5b506106c661191e565b005b3480156106d457600080fd5b506106dd6119a6565b6040516106ea91906135ff565b60405180910390f35b3480156106ff57600080fd5b5061071a600480360381019061071591906131c5565b6119cc565b005b34801561072857600080fd5b50610743600480360381019061073e919061319c565b611a99565b604051610750919061367c565b60405180910390f35b34801561076557600080fd5b50610780600480360381019061077b919061319c565b611ace565b60405161078d919061367c565b60405180910390f35b3480156107a257600080fd5b506107ab611b03565b6040516107b8919061351e565b60405180910390f35b3480156107cd57600080fd5b506107d6611b2d565b6040516107e3919061361a565b60405180910390f35b3480156107f857600080fd5b50610813600480360381019061080e9190612f62565b611bbf565b005b34801561082157600080fd5b5061083c60048036038101906108379190612f62565b611c7f565b005b34801561084a57600080fd5b5061086560048036038101906108609190613091565b611d56565b005b34801561087357600080fd5b5061088e600480360381019061088991906131c5565b611e61565b005b34801561089c57600080fd5b506108a5611f83565b6040516108b2919061367c565b60405180910390f35b3480156108c757600080fd5b506108e260048036038101906108dd91906131c5565b611f89565b005b3480156108f057600080fd5b506108f9612056565b604051610906919061367c565b60405180910390f35b61092960048036038101906109249190613016565b61205c565b005b34801561093757600080fd5b50610952600480360381019061094d919061319c565b6120cf565b60405161095f919061361a565b60405180910390f35b34801561097457600080fd5b5061098f600480360381019061098a9190612f62565b61216e565b60405161099c91906135a7565b60405180910390f35b3480156109b157600080fd5b506109cc60048036038101906109c79190612f8b565b6122b8565b6040516109d991906135c9565b60405180910390f35b3480156109ee57600080fd5b506109f761234c565b604051610a04919061367c565b60405180910390f35b348015610a1957600080fd5b50610a346004803603810190610a2f9190612f62565b612352565b005b60006301ffc9a760e01b827bffffffffffffffffffffffffffffffffffffffffffffffffffffffff19161480610a9157506380ac58cd60e01b827bffffffffffffffffffffffffffffffffffffffffffffffffffffffff1916145b80610ac15750635b5e139f60e01b827bffffffffffffffffffffffffffffffffffffffffffffffffffffffff1916145b9050919050565b600960009054906101000a900473ffffffffffffffffffffffffffffffffffffffff1673ffffffffffffffffffffffffffffffffffffffff1663f5d8bcb4336040518263ffffffff1660e01b8152600401610b23919061351e565b60006040518083038186803b158015610b3b57600080fd5b505afa158015610b4f573d6000803e3d6000fd5b505050506000600b549050600066071afd498d000083610b6f9190613906565b905060008383610b7f9190613879565b90506005841180610b91575061271081115b80610b9c5750813414155b15610be2578334846040517f0df10c13000000000000000000000000000000000000000000000000000000008152600401610bd993929190613697565b60405180910390fd5b60005b84811015610cfc576000600e6000868152602001908152602001600020905060018160000160006101000a81548160ff021916908360ff160217905550601e8160000160016101000a81548160ff021916908360ff16021790555060648160000160026101000a81548160ff021916908360ff16021790555060008160000160036101000a81548160ff021916908360ff160217905550600f8160000160046101000a81548160ff021916908360ff16021790555060008160000160066101000a81548163ffffffff021916908363ffffffff16021790555060008160000160056101000a81548160ff021916908360ff1602179055508480610ce790613b4d565b9550505080610cf590613b4d565b9050610be5565b50610d07338561244a565b8261ffff16600b8190555050505050565b606060028054610d2790613aea565b80601f0160208091040260200160405190810160405280929190818152602001828054610d5390613aea565b8015610da05780601f10610d7557610100808354040283529160200191610da0565b820191906000526020600020905b815481529060010190602001808311610d8357829003601f168201915b5050505050905090565b6000610db582612607565b610deb576040517fcf4700e400000000000000000000000000000000000000000000000000000000815260040160405180910390fd5b6006600083815260200190815260200160002060000160009054906101000a900473ffffffffffffffffffffffffffffffffffffffff169050919050565b6000610e34826115fb565b90508073ffffffffffffffffffffffffffffffffffffffff16610e55612666565b73ffffffffffffffffffffffffffffffffffffffff1614610eb857610e8181610e7c612666565b6122b8565b610eb7576040517fcfb3b94200000000000000000000000000000000000000000000000000000000815260040160405180910390fd5b5b826006600084815260200190815260200160002060000160006101000a81548173ffffffffffffffffffffffffffffffffffffffff021916908373ffffffffffffffffffffffffffffffffffffffff160217905550818373ffffffffffffffffffffffffffffffffffffffff168273ffffffffffffffffffffffffffffffffffffffff167f8c5be1e5ebec7d5bd14f71427d1e84f3dd0314c0f7b2291e5b200ac8c7c3b92560405160405180910390a4505050565b6000610f7761266e565b6001546000540303905090565b6000610f8f82612673565b90508373ffffffffffffffffffffffffffffffffffffffff168173ffffffffffffffffffffffffffffffffffffffff1614610ff6576040517fa114810000000000000000000000000000000000000000000000000000000000815260040160405180910390fd5b60008061100284612741565b915091506110188187611013612666565b612768565b6110645761102d86611028612666565b6122b8565b611063576040517f59c896be00000000000000000000000000000000000000000000000000000000815260040160405180910390fd5b5b600073ffffffffffffffffffffffffffffffffffffffff168573ffffffffffffffffffffffffffffffffffffffff1614156110cb576040517fea553b3400000000000000000000000000000000000000000000000000000000815260040160405180910390fd5b6110d886868660016127ac565b80156110e357600082555b600560008773ffffffffffffffffffffffffffffffffffffffff1673ffffffffffffffffffffffffffffffffffffffff168152602001908152602001600020600081546001900391905081905550600560008673ffffffffffffffffffffffffffffffffffffffff1673ffffffffffffffffffffffffffffffffffffffff16815260200190815260200160002060008154600101919050819055506111b18561118d8888876127b2565b7c0200000000000000000000000000000000000000000000000000000000176127da565b600460008681526020019081526020016000208190555060007c020000000000000000000000000000000000000000000000000000000084161415611239576000600185019050600060046000838152602001908152602001600020541415611237576000548114611236578360046000838152602001908152602001600020819055505b5b505b838573ffffffffffffffffffffffffffffffffffffffff168773ffffffffffffffffffffffffffffffffffffffff167fddf252ad1be2c89b69c2b068fc378daa952ba7f163c4a11628f55a4df523b3ef60405160405180910390a46112a18686866001612805565b505050505050565b600a60009054906101000a900473ffffffffffffffffffffffffffffffffffffffff1681565b6112ea8383836040518060200160405280600081525061205c565b505050565b600080600e600084815260200190815260200160002060000160069054906101000a900463ffffffff1690508063ffffffff16915050919050565b6000600f60003373ffffffffffffffffffffffffffffffffffffffff1673ffffffffffffffffffffffffffffffffffffffff16815260200190815260200160002060009054906101000a900460ff169050806113bd57336040517f9d5d5ca70000000000000000000000000000000000000000000000000000000081526004016113b4919061351e565b60405180910390fd5b6000600e6000848152602001908152602001600020905061012c426113e29190613879565b8160000160066101000a81548163ffffffff021916908363ffffffff160217905550505050565b600e6020528060005260406000206000915090508060000160009054906101000a900460ff16908060000160019054906101000a900460ff16908060000160029054906101000a900460ff16908060000160039054906101000a900460ff16908060000160049054906101000a900460ff16908060000160059054906101000a900460ff16908060000160069054906101000a900463ffffffff16905087565b6114b161280b565b73ffffffffffffffffffffffffffffffffffffffff166114cf611b03565b73ffffffffffffffffffffffffffffffffffffffff1614611525576040517f08c379a000000000000000000000000000000000000000000000000000000000815260040161151c9061365c565b60405180910390fd5b80600d908051906020019061153b929190612d31565b5050565b66071afd498d000081565b600080600e600084815260200190815260200160002060000160009054906101000a900460ff1690508060ff16915050919050565b600061158a826115fb565b9050919050565b600080600e600084815260200190815260200160002060000160059054906101000a900460ff1690508060ff16915050919050565b600080600e600084815260200190815260200160002060000160049054906101000a900460ff1690508060ff16915050919050565b600061160682612673565b9050919050565b600f6020528060005260406000206000915054906101000a900460ff1681565b6060600061163a8361216e565b90506000815167ffffffffffffffff81111561167f577f4e487b7100000000000000000000000000000000000000000000000000000000600052604160045260246000fd5b6040519080825280602002602001820160405280156116b857816020015b6116a5612db7565b81526020019060019003908161169d5790505b50905060005b825181101561185a576000838281518110611702577f4e487b7100000000000000000000000000000000000000000000000000000000600052603260045260246000fd5b602002602001015190506000600e60008381526020019081526020016000206040518060e00160405290816000820160009054906101000a900460ff1660ff1660ff1681526020016000820160019054906101000a900460ff1660ff1660ff1681526020016000820160029054906101000a900460ff1660ff1660ff1681526020016000820160039054906101000a900460ff1660ff1660ff1681526020016000820160049054906101000a900460ff1660ff1660ff1681526020016000820160059054906101000a900460ff1660ff1660ff1681526020016000820160069054906101000a900463ffffffff1663ffffffff1663ffffffff168152505090508084848151811061183c577f4e487b7100000000000000000000000000000000000000000000000000000000600052603260045260246000fd5b602002602001018190525050508061185390613b4d565b90506116be565b508092505050919050565b60008073ffffffffffffffffffffffffffffffffffffffff168273ffffffffffffffffffffffffffffffffffffffff1614156118cd576040517f8f4eb60400000000000000000000000000000000000000000000000000000000815260040160405180910390fd5b67ffffffffffffffff600560008473ffffffffffffffffffffffffffffffffffffffff1673ffffffffffffffffffffffffffffffffffffffff16815260200190815260200160002054169050919050565b61192661280b565b73ffffffffffffffffffffffffffffffffffffffff16611944611b03565b73ffffffffffffffffffffffffffffffffffffffff161461199a576040517f08c379a00000000000000000000000000000000000000000000000000000000081526004016119919061365c565b60405180910390fd5b6119a46000612813565b565b600960009054906101000a900473ffffffffffffffffffffffffffffffffffffffff1681565b6000600f60003373ffffffffffffffffffffffffffffffffffffffff1673ffffffffffffffffffffffffffffffffffffffff16815260200190815260200160002060009054906101000a900460ff16905080611a5f57336040517f9d5d5ca7000000000000000000000000000000000000000000000000000000008152600401611a56919061351e565b60405180910390fd5b6000600e60008581526020019081526020016000209050828160000160056101000a81548160ff021916908360ff16021790555050505050565b600080600e600084815260200190815260200160002060000160039054906101000a900460ff1690508060ff16915050919050565b600080600e600084815260200190815260200160002060000160019054906101000a900460ff1690508060ff16915050919050565b6000600860009054906101000a900473ffffffffffffffffffffffffffffffffffffffff16905090565b606060038054611b3c90613aea565b80601f0160208091040260200160405190810160405280929190818152602001828054611b6890613aea565b8015611bb55780601f10611b8a57610100808354040283529160200191611bb5565b820191906000526020600020905b815481529060010190602001808311611b9857829003601f168201915b5050505050905090565b611bc761280b565b73ffffffffffffffffffffffffffffffffffffffff16611be5611b03565b73ffffffffffffffffffffffffffffffffffffffff1614611c3b576040517f08c379a0000000000000000000000000000000000000000000000000000000008152600401611c329061365c565b60405180910390fd5b80600960006101000a81548173ffffffffffffffffffffffffffffffffffffffff021916908373ffffffffffffffffffffffffffffffffffffffff16021790555050565b611c8761280b565b73ffffffffffffffffffffffffffffffffffffffff16611ca5611b03565b73ffffffffffffffffffffffffffffffffffffffff1614611cfb576040517f08c379a0000000000000000000000000000000000000000000000000000000008152600401611cf29061365c565b60405180910390fd5b6001600f60008373ffffffffffffffffffffffffffffffffffffffff1673ffffffffffffffffffffffffffffffffffffffff16815260200190815260200160002060006101000a81548160ff02191690831515021790555050565b8060076000611d63612666565b73ffffffffffffffffffffffffffffffffffffffff1673ffffffffffffffffffffffffffffffffffffffff16815260200190815260200160002060008473ffffffffffffffffffffffffffffffffffffffff1673ffffffffffffffffffffffffffffffffffffffff16815260200190815260200160002060006101000a81548160ff0219169083151502179055508173ffffffffffffffffffffffffffffffffffffffff16611e10612666565b73ffffffffffffffffffffffffffffffffffffffff167f17307eab39ab6107e8899845ad3d59bd9653f200f220920489ca2b5937696c3183604051611e5591906135c9565b60405180910390a35050565b6000600f60003373ffffffffffffffffffffffffffffffffffffffff1673ffffffffffffffffffffffffffffffffffffffff16815260200190815260200160002060009054906101000a900460ff16905080611ef457336040517f9d5d5ca7000000000000000000000000000000000000000000000000000000008152600401611eeb919061351e565b60405180910390fd5b6000600e60008581526020019081526020016000209050828160000160038282829054906101000a900460ff16611f2b91906138cf565b92506101000a81548160ff021916908360ff1602179055508060000160049054906101000a900460ff1660ff168160000160039054906101000a900460ff1660ff161115611f7d57611f7c846128d9565b5b50505050565b61271081565b6000600f60003373ffffffffffffffffffffffffffffffffffffffff1673ffffffffffffffffffffffffffffffffffffffff16815260200190815260200160002060009054906101000a900460ff1690508061201c57336040517f9d5d5ca7000000000000000000000000000000000000000000000000000000008152600401612013919061351e565b60405180910390fd5b6000600e60008581526020019081526020016000209050828160000160016101000a81548160ff021916908360ff16021790555050505050565b600c5481565b612067848484610f84565b60008373ffffffffffffffffffffffffffffffffffffffff163b146120c95761209284848484612acd565b6120c8576040517fd1a57ed600000000000000000000000000000000000000000000000000000000815260040160405180910390fd5b5b50505050565b60606120da82612607565b612110576040517fa14c4b5000000000000000000000000000000000000000000000000000000000815260040160405180910390fd5b600061211a612c2d565b905060008151141561213b5760405180602001604052806000815250612166565b8061214584612cbf565b6040516020016121569291906134fa565b6040516020818303038152906040525b915050919050565b606060008061217c84611865565b905060008167ffffffffffffffff8111156121c0577f4e487b7100000000000000000000000000000000000000000000000000000000600052604160045260246000fd5b6040519080825280602002602001820160405280156121ee5781602001602082028036833780820191505090505b5090506000600b54905060005b818110156122ab57600061220e826115fb565b90508773ffffffffffffffffffffffffffffffffffffffff168173ffffffffffffffffffffffffffffffffffffffff161415612299578184878151811061227e577f4e487b7100000000000000000000000000000000000000000000000000000000600052603260045260246000fd5b602002602001018181525050858061229590613b4d565b9650505b50806122a490613b4d565b90506121fb565b5081945050505050919050565b6000600760008473ffffffffffffffffffffffffffffffffffffffff1673ffffffffffffffffffffffffffffffffffffffff16815260200190815260200160002060008373ffffffffffffffffffffffffffffffffffffffff1673ffffffffffffffffffffffffffffffffffffffff16815260200190815260200160002060009054906101000a900460ff16905092915050565b600b5481565b61235a61280b565b73ffffffffffffffffffffffffffffffffffffffff16612378611b03565b73ffffffffffffffffffffffffffffffffffffffff16146123ce576040517f08c379a00000000000000000000000000000000000000000000000000000000081526004016123c59061365c565b60405180910390fd5b600073ffffffffffffffffffffffffffffffffffffffff168173ffffffffffffffffffffffffffffffffffffffff16141561243e576040517f08c379a00000000000000000000000000000000000000000000000000000000081526004016124359061363c565b60405180910390fd5b61244781612813565b50565b600080549050600082141561248b576040517fb562e8dd00000000000000000000000000000000000000000000000000000000815260040160405180910390fd5b61249860008483856127ac565b600160406001901b178202600560008573ffffffffffffffffffffffffffffffffffffffff1673ffffffffffffffffffffffffffffffffffffffff1681526020019081526020016000206000828254019250508190555061250f8361250060008660006127b2565b61250985612d18565b176127da565b6004600083815260200190815260200160002081905550600080838301905073ffffffffffffffffffffffffffffffffffffffff85169150828260007fddf252ad1be2c89b69c2b068fc378daa952ba7f163c4a11628f55a4df523b3ef600080a4600183015b8181146125b057808360007fddf252ad1be2c89b69c2b068fc378daa952ba7f163c4a11628f55a4df523b3ef600080a4600181019050612575565b5060008214156125ec576040517f2e07630000000000000000000000000000000000000000000000000000000000815260040160405180910390fd5b8060008190555050506126026000848385612805565b505050565b60008161261261266e565b11158015612621575060005482105b801561265f575060007c0100000000000000000000000000000000000000000000000000000000600460008581526020019081526020016000205416145b9050919050565b600033905090565b600090565b6000808290508061268261266e565b1161270a576000548110156127095760006004600083815260200190815260200160002054905060007c010000000000000000000000000000000000000000000000000000000082161415612707575b60008114156126fd5760046000836001900393508381526020019081526020016000205490506126d2565b809250505061273c565b505b5b6040517fdf2d9b4200000000000000000000000000000000000000000000000000000000815260040160405180910390fd5b919050565b60008060006006600085815260200190815260200160002090508092508254915050915091565b600073ffffffffffffffffffffffffffffffffffffffff8316925073ffffffffffffffffffffffffffffffffffffffff821691508382148383141790509392505050565b50505050565b60008060e883901c905060e86127c9868684612d28565b62ffffff16901b9150509392505050565b600073ffffffffffffffffffffffffffffffffffffffff83169250814260a01b178317905092915050565b50505050565b600033905090565b6000600860009054906101000a900473ffffffffffffffffffffffffffffffffffffffff16905081600860006101000a81548173ffffffffffffffffffffffffffffffffffffffff021916908373ffffffffffffffffffffffffffffffffffffffff1602179055508173ffffffffffffffffffffffffffffffffffffffff168173ffffffffffffffffffffffffffffffffffffffff167f8be0079c531659141344cd1fd0a4f28419497f9722a3daafe3b4186f6b6457e060405160405180910390a35050565b6000600e600083815260200190815260200160002090506000600e60008481526020019081526020016000206040518060e00160405290816000820160009054906101000a900460ff1660ff1660ff1681526020016000820160019054906101000a900460ff1660ff1660ff1681526020016000820160029054906101000a900460ff1660ff1660ff1681526020016000820160039054906101000a900460ff1660ff1660ff1681526020016000820160049054906101000a900460ff1660ff1660ff1681526020016000820160059054906101000a900460ff1660ff1660ff1681526020016000820160069054906101000a900463ffffffff1663ffffffff1663ffffffff168152505090506000816060015160ff1690506000826080015160ff16905083600001600081819054906101000a900460ff1680929190612a1f90613b96565b91906101000a81548160ff021916908360ff160217905550508082612a44919061399b565b8460000160036101000a81548160ff021916908360ff160217905550600f8360000151612a719190613960565b8460000160046101000a81548160ff021916908360ff16021790555060058460000160028282829054906101000a900460ff16612aae91906138cf565b92506101000a81548160ff021916908360ff1602179055505050505050565b60008373ffffffffffffffffffffffffffffffffffffffff1663150b7a02612af3612666565b8786866040518563ffffffff1660e01b8152600401612b159493929190613539565b602060405180830381600087803b158015612b2f57600080fd5b505af1925050508015612b6057506040513d601f19601f82011682018060405250810190612b5d9190613132565b60015b612bda573d8060008114612b90576040519150601f19603f3d011682016040523d82523d6000602084013e612b95565b606091505b50600081511415612bd2576040517fd1a57ed600000000000000000000000000000000000000000000000000000000815260040160405180910390fd5b805181602001fd5b63150b7a0260e01b7bffffffffffffffffffffffffffffffffffffffffffffffffffffffff1916817bffffffffffffffffffffffffffffffffffffffffffffffffffffffff191614915050949350505050565b6060600d8054612c3c90613aea565b80601f0160208091040260200160405190810160405280929190818152602001828054612c6890613aea565b8015612cb55780601f10612c8a57610100808354040283529160200191612cb5565b820191906000526020600020905b815481529060010190602001808311612c9857829003601f168201915b5050505050905090565b606060a060405101806040526020810391506000825281835b600115612d0357600184039350600a81066030018453600a8104905080612cfe57612d03565b612cd8565b50828103602084039350808452505050919050565b60006001821460e11b9050919050565b60009392505050565b828054612d3d90613aea565b90600052602060002090601f016020900481019282612d5f5760008555612da6565b82601f10612d7857805160ff1916838001178555612da6565b82800160010185558215612da6579182015b82811115612da5578251825591602001919060010190612d8a565b5b509050612db39190612e0c565b5090565b6040518060e00160405280600060ff168152602001600060ff168152602001600060ff168152602001600060ff168152602001600060ff168152602001600060ff168152602001600063ffffffff1681525090565b5b80821115612e25576000816000905550600101612e0d565b5090565b6000612e3c612e3784613762565b61373d565b905082815260208101848484011115612e5457600080fd5b612e5f848285613aa8565b509392505050565b6000612e7a612e7584613793565b61373d565b905082815260208101848484011115612e9257600080fd5b612e9d848285613aa8565b509392505050565b600081359050612eb481613cd6565b92915050565b600081359050612ec981613ced565b92915050565b600081359050612ede81613d04565b92915050565b600081519050612ef381613d04565b92915050565b600082601f830112612f0a57600080fd5b8135612f1a848260208601612e29565b91505092915050565b600082601f830112612f3457600080fd5b8135612f44848260208601612e67565b91505092915050565b600081359050612f5c81613d1b565b92915050565b600060208284031215612f7457600080fd5b6000612f8284828501612ea5565b91505092915050565b60008060408385031215612f9e57600080fd5b6000612fac85828601612ea5565b9250506020612fbd85828601612ea5565b9150509250929050565b600080600060608486031215612fdc57600080fd5b6000612fea86828701612ea5565b9350506020612ffb86828701612ea5565b925050604061300c86828701612f4d565b9150509250925092565b6000806000806080858703121561302c57600080fd5b600061303a87828801612ea5565b945050602061304b87828801612ea5565b935050604061305c87828801612f4d565b925050606085013567ffffffffffffffff81111561307957600080fd5b61308587828801612ef9565b91505092959194509250565b600080604083850312156130a457600080fd5b60006130b285828601612ea5565b92505060206130c385828601612eba565b9150509250929050565b600080604083850312156130e057600080fd5b60006130ee85828601612ea5565b92505060206130ff85828601612f4d565b9150509250929050565b60006020828403121561311b57600080fd5b600061312984828501612ecf565b91505092915050565b60006020828403121561314457600080fd5b600061315284828501612ee4565b91505092915050565b60006020828403121561316d57600080fd5b600082013567ffffffffffffffff81111561318757600080fd5b61319384828501612f23565b91505092915050565b6000602082840312156131ae57600080fd5b60006131bc84828501612f4d565b91505092915050565b600080604083850312156131d857600080fd5b60006131e685828601612f4d565b92505060206131f785828601612f4d565b9150509250929050565b600061320d8383613412565b60e08301905092915050565b600061322583836134a0565b60208301905092915050565b61323a816139cf565b82525050565b600061324b826137e4565b613255818561382a565b9350613260836137c4565b8060005b838110156132915781516132788882613201565b975061328383613810565b925050600181019050613264565b5085935050505092915050565b60006132a9826137ef565b6132b3818561383b565b93506132be836137d4565b8060005b838110156132ef5781516132d68882613219565b97506132e18361381d565b9250506001810190506132c2565b5085935050505092915050565b613305816139e1565b82525050565b6000613316826137fa565b613320818561384c565b9350613330818560208601613ab7565b61333981613c4d565b840191505092915050565b61334d81613a60565b82525050565b61335c81613a84565b82525050565b600061336d82613805565b613377818561385d565b9350613387818560208601613ab7565b61339081613c4d565b840191505092915050565b60006133a682613805565b6133b0818561386e565b93506133c0818560208601613ab7565b80840191505092915050565b60006133d960268361385d565b91506133e482613c5e565b604082019050919050565b60006133fc60208361385d565b915061340782613cad565b602082019050919050565b60e08201600082015161342860008501826134dc565b50602082015161343b60208501826134dc565b50604082015161344e60408501826134dc565b50606082015161346160608501826134dc565b50608082015161347460808501826134dc565b5060a082015161348760a08501826134dc565b5060c082015161349a60c08501826134be565b50505050565b6134a981613a39565b82525050565b6134b881613a39565b82525050565b6134c781613a43565b82525050565b6134d681613a43565b82525050565b6134e581613a53565b82525050565b6134f481613a53565b82525050565b6000613506828561339b565b9150613512828461339b565b91508190509392505050565b60006020820190506135336000830184613231565b92915050565b600060808201905061354e6000830187613231565b61355b6020830186613231565b61356860408301856134af565b818103606083015261357a818461330b565b905095945050505050565b6000602082019050818103600083015261359f8184613240565b905092915050565b600060208201905081810360008301526135c1818461329e565b905092915050565b60006020820190506135de60008301846132fc565b92915050565b60006020820190506135f96000830184613344565b92915050565b60006020820190506136146000830184613353565b92915050565b600060208201905081810360008301526136348184613362565b905092915050565b60006020820190508181036000830152613655816133cc565b9050919050565b60006020820190508181036000830152613675816133ef565b9050919050565b600060208201905061369160008301846134af565b92915050565b60006060820190506136ac60008301866134af565b6136b960208301856134af565b6136c660408301846134af565b949350505050565b600060e0820190506136e3600083018a6134eb565b6136f060208301896134eb565b6136fd60408301886134eb565b61370a60608301876134eb565b61371760808301866134eb565b61372460a08301856134eb565b61373160c08301846134cd565b98975050505050505050565b6000613747613758565b90506137538282613b1c565b919050565b6000604051905090565b600067ffffffffffffffff82111561377d5761377c613c1e565b5b61378682613c4d565b9050602081019050919050565b600067ffffffffffffffff8211156137ae576137ad613c1e565b5b6137b782613c4d565b9050602081019050919050565b6000819050602082019050919050565b6000819050602082019050919050565b600081519050919050565b600081519050919050565b600081519050919050565b600081519050919050565b6000602082019050919050565b6000602082019050919050565b600082825260208201905092915050565b600082825260208201905092915050565b600082825260208201905092915050565b600082825260208201905092915050565b600081905092915050565b600061388482613a39565b915061388f83613a39565b9250827fffffffffffffffffffffffffffffffffffffffffffffffffffffffffffffffff038211156138c4576138c3613bc0565b5b828201905092915050565b60006138da82613a53565b91506138e583613a53565b92508260ff038211156138fb576138fa613bc0565b5b828201905092915050565b600061391182613a39565b915061391c83613a39565b9250817fffffffffffffffffffffffffffffffffffffffffffffffffffffffffffffffff048311821515161561395557613954613bc0565b5b828202905092915050565b600061396b82613a53565b915061397683613a53565b92508160ff04831182151516156139905761398f613bc0565b5b828202905092915050565b60006139a682613a39565b91506139b183613a39565b9250828210156139c4576139c3613bc0565b5b828203905092915050565b60006139da82613a19565b9050919050565b60008115159050919050565b60007fffffffff0000000000000000000000000000000000000000000000000000000082169050919050565b600073ffffffffffffffffffffffffffffffffffffffff82169050919050565b6000819050919050565b600063ffffffff82169050919050565b600060ff82169050919050565b6000613a6b82613a72565b9050919050565b6000613a7d82613a19565b9050919050565b6000613a8f82613a96565b9050919050565b6000613aa182613a19565b9050919050565b82818337600083830152505050565b60005b83811015613ad5578082015181840152602081019050613aba565b83811115613ae4576000848401525b50505050565b60006002820490506001821680613b0257607f821691505b60208210811415613b1657613b15613bef565b5b50919050565b613b2582613c4d565b810181811067ffffffffffffffff82111715613b4457613b43613c1e565b5b80604052505050565b6000613b5882613a39565b91507fffffffffffffffffffffffffffffffffffffffffffffffffffffffffffffffff821415613b8b57613b8a613bc0565b5b600182019050919050565b6000613ba182613a53565b915060ff821415613bb557613bb4613bc0565b5b600182019050919050565b7f4e487b7100000000000000000000000000000000000000000000000000000000600052601160045260246000fd5b7f4e487b7100000000000000000000000000000000000000000000000000000000600052602260045260246000fd5b7f4e487b7100000000000000000000000000000000000000000000000000000000600052604160045260246000fd5b6000601f19601f8301169050919050565b7f4f776e61626c653a206e6577206f776e657220697320746865207a65726f206160008201527f6464726573730000000000000000000000000000000000000000000000000000602082015250565b7f4f776e61626c653a2063616c6c6572206973206e6f7420746865206f776e6572600082015250565b613cdf816139cf565b8114613cea57600080fd5b50565b613cf6816139e1565b8114613d0157600080fd5b50565b613d0d816139ed565b8114613d1857600080fd5b50565b613d2481613a39565b8114613d2f57600080fd5b5056fea2646970667358221220317f471d067d1f1524e463f955f9930bec3a5a842da0dbeb1f843b4de051e9a164736f6c63430008040033",
  "linkReferences": {},
  "deployedLinkReferences": {}
}