{
  "_format": "hh-sol-artifact-1",
  "contractName": "MonsterGame",
  "sourceName": "contracts/MonsterGame.sol",
  "abi": [
    {
      "inputs": [],
      "stateMutability": "nonpayable",
      "type": "constructor"
    },
    {
      "inputs": [
        {
          "internalType": "uint256",
          "name": "_monster",
          "type": "uint256"
        },
        {
          "internalType": "uint256",
          "name": "_status",
          "type": "uint256"
        }
      ],
      "name": "IsActive",
      "type": "error"
    },
    {
      "inputs": [
        {
          "internalType": "bool",
          "name": "_result",
          "type": "bool"
        }
      ],
      "name": "IsOnMission",
      "type": "error"
    },
    {
      "inputs": [
        {
          "internalType": "uint256",
          "name": "_amount",
          "type": "uint256"
        },
        {
          "internalType": "uint256",
          "name": "_limit",
          "type": "uint256"
        }
      ],
      "name": "MonstersAmountNotValid",
      "type": "error"
    },
    {
      "inputs": [
        {
          "internalType": "bool",
          "name": "_result",
          "type": "bool"
        }
      ],
      "name": "NotOnMission",
      "type": "error"
    },
    {
      "inputs": [
        {
          "internalType": "bool",
          "name": "_result",
          "type": "bool"
        }
      ],
      "name": "NotRegistered",
      "type": "error"
    },
    {
      "inputs": [
        {
          "internalType": "uint256",
          "name": "_monster",
          "type": "uint256"
        },
        {
          "internalType": "uint256",
          "name": "_energy",
          "type": "uint256"
        },
        {
          "internalType": "uint256",
          "name": "_amount",
          "type": "uint256"
        }
      ],
      "name": "NotValidToFeed",
      "type": "error"
    },
    {
      "inputs": [
        {
          "internalType": "uint256",
          "name": "_elapsedTime",
          "type": "uint256"
        }
      ],
      "name": "NotValidToFinishMission",
      "type": "error"
    },
    {
      "inputs": [
        {
          "internalType": "uint256",
          "name": "_monster",
          "type": "uint256"
        },
        {
          "internalType": "uint256",
          "name": "_level",
          "type": "uint256"
        }
      ],
      "name": "NotValidToIntermediate",
      "type": "error"
    },
    {
      "inputs": [
        {
          "internalType": "uint256",
          "name": "_monster",
          "type": "uint256"
        },
        {
          "internalType": "uint256",
          "name": "_energy",
          "type": "uint256"
        },
        {
          "internalType": "uint256",
          "name": "_status",
          "type": "uint256"
        }
      ],
      "name": "NotValidToMission",
      "type": "error"
    },
    {
      "inputs": [
        {
          "internalType": "uint256",
          "name": "_balance",
          "type": "uint256"
        },
        {
          "internalType": "uint256",
          "name": "_amount",
          "type": "uint256"
        }
      ],
      "name": "NotValidToUsePotion",
      "type": "error"
    },
    {
      "anonymous": false,
      "inputs": [
        {
          "indexed": true,
          "internalType": "address",
          "name": "previousOwner",
          "type": "address"
        },
        {
          "indexed": true,
          "internalType": "address",
          "name": "newOwner",
          "type": "address"
        }
      ],
      "name": "OwnershipTransferred",
      "type": "event"
    },
    {
      "inputs": [],
      "name": "FEEDING_FEE",
      "outputs": [
        {
          "internalType": "uint48",
          "name": "",
          "type": "uint48"
        }
      ],
      "stateMutability": "view",
      "type": "function"
    },
    {
      "inputs": [
        {
          "internalType": "uint256",
          "name": "_mission",
          "type": "uint256"
        },
        {
          "internalType": "uint256",
          "name": "_energy",
          "type": "uint256"
        },
        {
          "internalType": "uint256",
          "name": "_exp",
          "type": "uint256"
        }
      ],
      "name": "addMissionDetails",
      "outputs": [],
      "stateMutability": "nonpayable",
      "type": "function"
    },
    {
      "inputs": [],
      "name": "erc1155Interface",
      "outputs": [
        {
          "internalType": "contract IERC1155",
          "name": "",
          "type": "address"
        }
      ],
      "stateMutability": "view",
      "type": "function"
    },
    {
      "inputs": [
        {
          "internalType": "uint256",
          "name": "_monster",
          "type": "uint256"
        },
        {
          "internalType": "uint256",
          "name": "_amount",
          "type": "uint256"
        }
      ],
      "name": "feedMonster",
      "outputs": [],
      "stateMutability": "payable",
      "type": "function"
    },
    {
      "inputs": [],
      "name": "finishMission",
      "outputs": [],
      "stateMutability": "nonpayable",
      "type": "function"
    },
    {
      "inputs": [
        {
          "internalType": "address",
          "name": "_user",
          "type": "address"
        }
      ],
      "name": "getMonstersOnMission",
      "outputs": [
        {
          "internalType": "uint256[]",
          "name": "_monsters",
          "type": "uint256[]"
        }
      ],
      "stateMutability": "view",
      "type": "function"
    },
    {
      "inputs": [],
      "name": "itemsInterface",
      "outputs": [
        {
          "internalType": "contract IItems",
          "name": "",
          "type": "address"
        }
      ],
      "stateMutability": "view",
      "type": "function"
    },
    {
      "inputs": [
        {
          "internalType": "uint256",
          "name": "",
          "type": "uint256"
        }
      ],
      "name": "missionDetails",
      "outputs": [
        {
          "internalType": "uint8",
          "name": "energy",
          "type": "uint8"
        },
        {
          "internalType": "uint8",
          "name": "exp",
          "type": "uint8"
        }
      ],
      "stateMutability": "view",
      "type": "function"
    },
    {
      "inputs": [
        {
          "internalType": "address",
          "name": "",
          "type": "address"
        }
      ],
      "name": "missioningStatus",
      "outputs": [
        {
          "internalType": "bool",
          "name": "",
          "type": "bool"
        }
      ],
      "stateMutability": "view",
      "type": "function"
    },
    {
      "inputs": [],
      "name": "monstersInterface",
      "outputs": [
        {
          "internalType": "contract IMonster",
          "name": "",
          "type": "address"
        }
      ],
      "stateMutability": "view",
      "type": "function"
    },
    {
      "inputs": [
        {
          "internalType": "address",
          "name": "",
          "type": "address"
        }
      ],
      "name": "monstersOnMissions",
      "outputs": [
        {
          "internalType": "uint8",
          "name": "mission",
          "type": "uint8"
        },
        {
          "internalType": "uint8",
          "name": "monstersAmount",
          "type": "uint8"
        },
        {
          "internalType": "uint64",
          "name": "startTime",
          "type": "uint64"
        },
        {
          "internalType": "address",
          "name": "owner",
          "type": "address"
        }
      ],
      "stateMutability": "view",
      "type": "function"
    },
    {
      "inputs": [
        {
          "internalType": "address",
          "name": "",
          "type": "address"
        },
        {
          "internalType": "address",
          "name": "",
          "type": "address"
        },
        {
          "internalType": "uint256[]",
          "name": "",
          "type": "uint256[]"
        },
        {
          "internalType": "uint256[]",
          "name": "",
          "type": "uint256[]"
        },
        {
          "internalType": "bytes",
          "name": "",
          "type": "bytes"
        }
      ],
      "name": "onERC1155BatchReceived",
      "outputs": [
        {
          "internalType": "bytes4",
          "name": "",
          "type": "bytes4"
        }
      ],
      "stateMutability": "nonpayable",
      "type": "function"
    },
    {
      "inputs": [
        {
          "internalType": "address",
          "name": "",
          "type": "address"
        },
        {
          "internalType": "address",
          "name": "",
          "type": "address"
        },
        {
          "internalType": "uint256",
          "name": "",
          "type": "uint256"
        },
        {
          "internalType": "uint256",
          "name": "",
          "type": "uint256"
        },
        {
          "internalType": "bytes",
          "name": "",
          "type": "bytes"
        }
      ],
      "name": "onERC1155Received",
      "outputs": [
        {
          "internalType": "bytes4",
          "name": "",
          "type": "bytes4"
        }
      ],
      "stateMutability": "nonpayable",
      "type": "function"
    },
    {
      "inputs": [],
      "name": "owner",
      "outputs": [
        {
          "internalType": "address",
          "name": "",
          "type": "address"
        }
      ],
      "stateMutability": "view",
      "type": "function"
    },
    {
      "inputs": [],
      "name": "renounceOwnership",
      "outputs": [],
      "stateMutability": "nonpayable",
      "type": "function"
    },
    {
      "inputs": [
        {
          "internalType": "address",
          "name": "_monstersContract",
          "type": "address"
        },
        {
          "internalType": "address",
          "name": "_itemsContract",
          "type": "address"
        },
        {
          "internalType": "address",
          "name": "_usersDataContract",
          "type": "address"
        }
      ],
      "name": "setInterface",
      "outputs": [],
      "stateMutability": "nonpayable",
      "type": "function"
    },
    {
      "inputs": [
        {
          "internalType": "uint256",
          "name": "_mission",
          "type": "uint256"
        },
        {
          "internalType": "uint256[]",
          "name": "_monsters",
          "type": "uint256[]"
        }
      ],
      "name": "startMission",
      "outputs": [],
      "stateMutability": "nonpayable",
      "type": "function"
    },
    {
      "inputs": [
        {
          "internalType": "bytes4",
          "name": "interfaceId",
          "type": "bytes4"
        }
      ],
      "name": "supportsInterface",
      "outputs": [
        {
          "internalType": "bool",
          "name": "",
          "type": "bool"
        }
      ],
      "stateMutability": "view",
      "type": "function"
    },
    {
      "inputs": [
        {
          "internalType": "address",
          "name": "newOwner",
          "type": "address"
        }
      ],
      "name": "transferOwnership",
      "outputs": [],
      "stateMutability": "nonpayable",
      "type": "function"
    },
    {
      "inputs": [
        {
          "internalType": "uint256",
          "name": "_monster",
          "type": "uint256"
        },
        {
          "internalType": "uint256",
          "name": "_amount",
          "type": "uint256"
        }
      ],
      "name": "useEnergyPotion",
      "outputs": [],
      "stateMutability": "nonpayable",
      "type": "function"
    },
    {
      "inputs": [
        {
          "internalType": "uint256",
          "name": "_monster",
          "type": "uint256"
        },
        {
          "internalType": "uint256",
          "name": "_amount",
          "type": "uint256"
        }
      ],
      "name": "useExpPotion",
      "outputs": [],
      "stateMutability": "nonpayable",
      "type": "function"
    },
    {
      "inputs": [],
      "name": "usersDataInterface",
      "outputs": [
        {
          "internalType": "contract IUsersData",
          "name": "",
          "type": "address"
        }
      ],
      "stateMutability": "view",
      "type": "function"
    },
    {
      "stateMutability": "payable",
      "type": "receive"
    }
  ],
  "bytecode": "0x60806040523480156200001157600080fd5b5062000032620000266200012460201b60201c565b6200012c60201b60201c565b6040518060400160405280600a60ff168152602001600560ff16815250600760006001815260200190815260200160002060008201518160000160006101000a81548160ff021916908360ff16021790555060208201518160000160016101000a81548160ff021916908360ff1602179055509050506040518060400160405280601460ff168152602001600a60ff16815250600760006002815260200190815260200160002060008201518160000160006101000a81548160ff021916908360ff16021790555060208201518160000160016101000a81548160ff021916908360ff160217905550905050620001f0565b600033905090565b60008060009054906101000a900473ffffffffffffffffffffffffffffffffffffffff169050816000806101000a81548173ffffffffffffffffffffffffffffffffffffffff021916908373ffffffffffffffffffffffffffffffffffffffff1602179055508173ffffffffffffffffffffffffffffffffffffffff168173ffffffffffffffffffffffffffffffffffffffff167f8be0079c531659141344cd1fd0a4f28419497f9722a3daafe3b4186f6b6457e060405160405180910390a35050565b613f9f80620002006000396000f3fe6080604052600436106101395760003560e01c80637fb2db16116100ab578063b8efa6cd1161006f578063b8efa6cd14610416578063bc197c811461042d578063f23a6e611461046a578063f2fde38b146104a7578063f4abc904146104d0578063f52d85df1461050d57610140565b80637fb2db161461035257806387ddcaf31461037d5780638da5cb5b146103a65780639c1cb8bf146103d1578063accd55a1146103ed57610140565b80633a759c8a116100fd5780633a759c8a1461023f5780633b7314321461026a5780635fc5c9f6146102955780636d3e125f146102d35780636f2a3ad4146102fe578063715018a61461033b57610140565b806301ffc9a7146101455780630898a45814610182578063302f3dfc146101c2578063348b1baa146101ed578063393f0b8d1461021657610140565b3661014057005b600080fd5b34801561015157600080fd5b5061016c600480360381019061016791906130c3565b610536565b604051610179919061361b565b60405180910390f35b34801561018e57600080fd5b506101a960048036038101906101a49190612ed4565b6105b0565b6040516101b994939291906138c5565b60405180910390f35b3480156101ce57600080fd5b506101d761062e565b6040516101e4919061366c565b60405180910390f35b3480156101f957600080fd5b50610214600480360381019061020f91906131d2565b610654565b005b34801561022257600080fd5b5061023d60048036038101906102389190613196565b6106cc565b005b34801561024b57600080fd5b50610254610c35565b6040516102619190613651565b60405180910390f35b34801561027657600080fd5b5061027f610c5b565b60405161028c9190613881565b60405180910390f35b3480156102a157600080fd5b506102bc60048036038101906102b791906130ec565b610c65565b6040516102ca92919061389c565b60405180910390f35b3480156102df57600080fd5b506102e8610ca3565b6040516102f59190613687565b60405180910390f35b34801561030a57600080fd5b5061032560048036038101906103209190612ed4565b610cc9565b604051610332919061361b565b60405180910390f35b34801561034757600080fd5b50610350610ce9565b005b34801561035e57600080fd5b50610367610d71565b60405161037491906136a2565b60405180910390f35b34801561038957600080fd5b506103a4600480360381019061039f9190613196565b610d97565b005b3480156103b257600080fd5b506103bb611234565b6040516103c891906134dc565b60405180910390f35b6103eb60048036038101906103e69190613196565b61125d565b005b3480156103f957600080fd5b50610414600480360381019061040f9190612f26565b611727565b005b34801561042257600080fd5b5061042b6118ac565b005b34801561043957600080fd5b50610454600480360381019061044f9190612f75565b611ef1565b6040516104619190613636565b60405180910390f35b34801561047657600080fd5b50610491600480360381019061048c9190613034565b611f06565b60405161049e9190613636565b60405180910390f35b3480156104b357600080fd5b506104ce60048036038101906104c99190612ed4565b611f1b565b005b3480156104dc57600080fd5b506104f760048036038101906104f29190612ed4565b612013565b60405161050491906135f9565b60405180910390f35b34801561051957600080fd5b50610534600480360381019061052f919061313e565b612177565b005b60007f4e2312e0000000000000000000000000000000000000000000000000000000007bffffffffffffffffffffffffffffffffffffffffffffffffffffffff1916827bffffffffffffffffffffffffffffffffffffffffffffffffffffffff191614806105a957506105a8826125a8565b5b9050919050565b60056020528060005260406000206000915090508060000160009054906101000a900460ff16908060000160019054906101000a900460ff16908060020160009054906101000a900467ffffffffffffffff16908060020160089054906101000a900473ffffffffffffffffffffffffffffffffffffffff16905084565b600260009054906101000a900473ffffffffffffffffffffffffffffffffffffffff1681565b60405180604001604052808360ff1681526020018260ff168152506007600085815260200190815260200160002060008201518160000160006101000a81548160ff021916908360ff16021790555060208201518160000160016101000a81548160ff021916908360ff160217905550905050505050565b816000600160009054906101000a900473ffffffffffffffffffffffffffffffffffffffff1673ffffffffffffffffffffffffffffffffffffffff166360e2f2fb836040518263ffffffff1660e01b815260040161072a919061371d565b60206040518083038186803b15801561074257600080fd5b505afa158015610756573d6000803e3d6000fd5b505050506040513d601f19601f8201168201806040525081019061077a9190613115565b9050600081146107c35781816040517fbaccfb1f0000000000000000000000000000000000000000000000000000000081526004016107ba9291906137b3565b60405180910390fd5b600360009054906101000a900473ffffffffffffffffffffffffffffffffffffffff1673ffffffffffffffffffffffffffffffffffffffff1663f5d8bcb4336040518263ffffffff1660e01b815260040161081e91906134dc565b60006040518083038186803b15801561083657600080fd5b505afa15801561084a573d6000803e3d6000fd5b505050506000600160009054906101000a900473ffffffffffffffffffffffffffffffffffffffff1673ffffffffffffffffffffffffffffffffffffffff166360aeb8e9866040518263ffffffff1660e01b81526004016108ab919061371d565b60206040518083038186803b1580156108c357600080fd5b505afa1580156108d7573d6000803e3d6000fd5b505050506040513d601f19601f820116820180604052508101906108fb9190612efd565b90506000600460009054906101000a900473ffffffffffffffffffffffffffffffffffffffff1673ffffffffffffffffffffffffffffffffffffffff1662fdd58e3360026040518363ffffffff1660e01b815260040161095c9291906135a7565b60206040518083038186803b15801561097457600080fd5b505afa158015610988573d6000803e3d6000fd5b505050506040513d601f19601f820116820180604052508101906109ac9190613115565b90506000600160009054906101000a900473ffffffffffffffffffffffffffffffffffffffff1673ffffffffffffffffffffffffffffffffffffffff166389375b7c886040518263ffffffff1660e01b8152600401610a0b919061371d565b60206040518083038186803b158015610a2357600080fd5b505afa158015610a37573d6000803e3d6000fd5b505050506040513d601f19601f82011682018060405250810190610a5b9190613115565b90506000600a87610a6c9190613a3d565b905060008183610a7c91906139e7565b905087841080610a8c5750606481115b80610ac357503373ffffffffffffffffffffffffffffffffffffffff168573ffffffffffffffffffffffffffffffffffffffff1614155b15610b075783886040517fb3913186000000000000000000000000000000000000000000000000000000008152600401610afe9291906137b3565b60405180910390fd5b600460009054906101000a900473ffffffffffffffffffffffffffffffffffffffff1673ffffffffffffffffffffffffffffffffffffffff1663f242432a333060028c6040518563ffffffff1660e01b8152600401610b6994939291906134f7565b600060405180830381600087803b158015610b8357600080fd5b505af1158015610b97573d6000803e3d6000fd5b50505050600160009054906101000a900473ffffffffffffffffffffffffffffffffffffffff1673ffffffffffffffffffffffffffffffffffffffff1663ae153e3e8a836040518363ffffffff1660e01b8152600401610bf89291906137b3565b600060405180830381600087803b158015610c1257600080fd5b505af1158015610c26573d6000803e3d6000fd5b50505050505050505050505050565b600460009054906101000a900473ffffffffffffffffffffffffffffffffffffffff1681565b655af3107a400081565b60076020528060005260406000206000915090508060000160009054906101000a900460ff16908060000160019054906101000a900460ff16905082565b600160009054906101000a900473ffffffffffffffffffffffffffffffffffffffff1681565b60066020528060005260406000206000915054906101000a900460ff1681565b610cf1612612565b73ffffffffffffffffffffffffffffffffffffffff16610d0f611234565b73ffffffffffffffffffffffffffffffffffffffff1614610d65576040517f08c379a0000000000000000000000000000000000000000000000000000000008152600401610d5c906136dd565b60405180910390fd5b610d6f600061261a565b565b600360009054906101000a900473ffffffffffffffffffffffffffffffffffffffff1681565b816000600160009054906101000a900473ffffffffffffffffffffffffffffffffffffffff1673ffffffffffffffffffffffffffffffffffffffff166360e2f2fb836040518263ffffffff1660e01b8152600401610df5919061371d565b60206040518083038186803b158015610e0d57600080fd5b505afa158015610e21573d6000803e3d6000fd5b505050506040513d601f19601f82011682018060405250810190610e459190613115565b905060008114610e8e5781816040517fbaccfb1f000000000000000000000000000000000000000000000000000000008152600401610e859291906137b3565b60405180910390fd5b600360009054906101000a900473ffffffffffffffffffffffffffffffffffffffff1673ffffffffffffffffffffffffffffffffffffffff1663f5d8bcb4336040518263ffffffff1660e01b8152600401610ee991906134dc565b60006040518083038186803b158015610f0157600080fd5b505afa158015610f15573d6000803e3d6000fd5b505050506000600160009054906101000a900473ffffffffffffffffffffffffffffffffffffffff1673ffffffffffffffffffffffffffffffffffffffff166360aeb8e9866040518263ffffffff1660e01b8152600401610f76919061371d565b60206040518083038186803b158015610f8e57600080fd5b505afa158015610fa2573d6000803e3d6000fd5b505050506040513d601f19601f82011682018060405250810190610fc69190612efd565b90506000600460009054906101000a900473ffffffffffffffffffffffffffffffffffffffff1673ffffffffffffffffffffffffffffffffffffffff1662fdd58e3360036040518363ffffffff1660e01b81526004016110279291906135d0565b60206040518083038186803b15801561103f57600080fd5b505afa158015611053573d6000803e3d6000fd5b505050506040513d601f19601f820116820180604052508101906110779190613115565b905060006003866110889190613a3d565b9050858210806110c457503373ffffffffffffffffffffffffffffffffffffffff168373ffffffffffffffffffffffffffffffffffffffff1614155b156111085781866040517fb39131860000000000000000000000000000000000000000000000000000000081526004016110ff9291906137b3565b60405180910390fd5b600460009054906101000a900473ffffffffffffffffffffffffffffffffffffffff1673ffffffffffffffffffffffffffffffffffffffff1663f242432a333060038a6040518563ffffffff1660e01b815260040161116a949392919061354f565b600060405180830381600087803b15801561118457600080fd5b505af1158015611198573d6000803e3d6000fd5b50505050600160009054906101000a900473ffffffffffffffffffffffffffffffffffffffff1673ffffffffffffffffffffffffffffffffffffffff1663a6cb826e88836040518363ffffffff1660e01b81526004016111f99291906137b3565b600060405180830381600087803b15801561121357600080fd5b505af1158015611227573d6000803e3d6000fd5b5050505050505050505050565b60008060009054906101000a900473ffffffffffffffffffffffffffffffffffffffff16905090565b600360009054906101000a900473ffffffffffffffffffffffffffffffffffffffff1673ffffffffffffffffffffffffffffffffffffffff1663f5d8bcb4336040518263ffffffff1660e01b81526004016112b891906134dc565b60006040518083038186803b1580156112d057600080fd5b505afa1580156112e4573d6000803e3d6000fd5b5050505081816000600160009054906101000a900473ffffffffffffffffffffffffffffffffffffffff1673ffffffffffffffffffffffffffffffffffffffff16635f273e18846040518263ffffffff1660e01b8152600401611347919061371d565b60206040518083038186803b15801561135f57600080fd5b505afa158015611373573d6000803e3d6000fd5b505050506040513d601f19601f820116820180604052508101906113979190613115565b9050600081655af3107a400065ffffffffffff16846113b69190613a3d565b6113c09190613a3d565b90506000600160009054906101000a900473ffffffffffffffffffffffffffffffffffffffff1673ffffffffffffffffffffffffffffffffffffffff166389375b7c866040518263ffffffff1660e01b815260040161141f919061371d565b60206040518083038186803b15801561143757600080fd5b505afa15801561144b573d6000803e3d6000fd5b505050506040513d601f19601f8201168201806040525081019061146f9190613115565b90506000600160009054906101000a900473ffffffffffffffffffffffffffffffffffffffff1673ffffffffffffffffffffffffffffffffffffffff166360aeb8e9876040518263ffffffff1660e01b81526004016114ce919061371d565b60206040518083038186803b1580156114e657600080fd5b505afa1580156114fa573d6000803e3d6000fd5b505050506040513d601f19601f8201168201806040525081019061151e9190612efd565b9050823414158061152f5750606482115b8061153a5750600085145b8061155057506064828661154e91906139e7565b115b8061158757503373ffffffffffffffffffffffffffffffffffffffff168173ffffffffffffffffffffffffffffffffffffffff1614155b156115cd578582866040517f3bba0a0a0000000000000000000000000000000000000000000000000000000081526004016115c493929190613821565b60405180910390fd5b6000600160009054906101000a900473ffffffffffffffffffffffffffffffffffffffff1673ffffffffffffffffffffffffffffffffffffffff166389375b7c8a6040518263ffffffff1660e01b815260040161162a919061371d565b60206040518083038186803b15801561164257600080fd5b505afa158015611656573d6000803e3d6000fd5b505050506040513d601f19601f8201168201806040525081019061167a9190613115565b90506000888261168a91906139e7565b9050600160009054906101000a900473ffffffffffffffffffffffffffffffffffffffff1673ffffffffffffffffffffffffffffffffffffffff1663ae153e3e8b836040518363ffffffff1660e01b81526004016116e99291906137b3565b600060405180830381600087803b15801561170357600080fd5b505af1158015611717573d6000803e3d6000fd5b5050505050505050505050505050565b61172f612612565b73ffffffffffffffffffffffffffffffffffffffff1661174d611234565b73ffffffffffffffffffffffffffffffffffffffff16146117a3576040517f08c379a000000000000000000000000000000000000000000000000000000000815260040161179a906136dd565b60405180910390fd5b82600160006101000a81548173ffffffffffffffffffffffffffffffffffffffff021916908373ffffffffffffffffffffffffffffffffffffffff16021790555081600260006101000a81548173ffffffffffffffffffffffffffffffffffffffff021916908373ffffffffffffffffffffffffffffffffffffffff16021790555081600460006101000a81548173ffffffffffffffffffffffffffffffffffffffff021916908373ffffffffffffffffffffffffffffffffffffffff16021790555080600360006101000a81548173ffffffffffffffffffffffffffffffffffffffff021916908373ffffffffffffffffffffffffffffffffffffffff160217905550505050565b6000600660003373ffffffffffffffffffffffffffffffffffffffff1673ffffffffffffffffffffffffffffffffffffffff16815260200190815260200160002060009054906101000a900460ff1690508061193f57806040517f57ae5462000000000000000000000000000000000000000000000000000000008152600401611936919061361b565b60405180910390fd5b6000600560003373ffffffffffffffffffffffffffffffffffffffff1673ffffffffffffffffffffffffffffffffffffffff168152602001908152602001600020905060008160000160009054906101000a900460ff1660ff1690506000600760008381526020019081526020016000206040518060400160405290816000820160009054906101000a900460ff1660ff1660ff1681526020016000820160019054906101000a900460ff1660ff1660ff168152505090506000611a0233612013565b905060008460020160009054906101000a900467ffffffffffffffff1667ffffffffffffffff169050600061038482611a3b91906139e7565b905042811115611a8257806040517fcb8b79ad000000000000000000000000000000000000000000000000000000008152600401611a79919061371d565b60405180910390fd5b60005b8351811015611e86576000848281518110611ac9577f4e487b7100000000000000000000000000000000000000000000000000000000600052603260045260246000fd5b602002602001015190506000600160009054906101000a900473ffffffffffffffffffffffffffffffffffffffff1673ffffffffffffffffffffffffffffffffffffffff166389375b7c836040518263ffffffff1660e01b8152600401611b30919061371d565b60206040518083038186803b158015611b4857600080fd5b505afa158015611b5c573d6000803e3d6000fd5b505050506040513d601f19601f82011682018060405250810190611b809190613115565b90506000876000015160ff1682611b979190613a97565b9050600160009054906101000a900473ffffffffffffffffffffffffffffffffffffffff1673ffffffffffffffffffffffffffffffffffffffff1663ae153e3e84836040518363ffffffff1660e01b8152600401611bf69291906137b3565b600060405180830381600087803b158015611c1057600080fd5b505af1158015611c24573d6000803e3d6000fd5b50505050600160009054906101000a900473ffffffffffffffffffffffffffffffffffffffff1673ffffffffffffffffffffffffffffffffffffffff16634fc3f41a846040518263ffffffff1660e01b8152600401611c83919061371d565b600060405180830381600087803b158015611c9d57600080fd5b505af1158015611cb1573d6000803e3d6000fd5b50505050600160009054906101000a900473ffffffffffffffffffffffffffffffffffffffff1673ffffffffffffffffffffffffffffffffffffffff1663a6cb826e848a602001516040518363ffffffff1660e01b8152600401611d16929190613858565b600060405180830381600087803b158015611d3057600080fd5b505af1158015611d44573d6000803e3d6000fd5b50505050600160009054906101000a900473ffffffffffffffffffffffffffffffffffffffff1673ffffffffffffffffffffffffffffffffffffffff166382e408138460006040518363ffffffff1660e01b8152600401611da6929190613738565b600060405180830381600087803b158015611dc057600080fd5b505af1158015611dd4573d6000803e3d6000fd5b50505050600260009054906101000a900473ffffffffffffffffffffffffffffffffffffffff1673ffffffffffffffffffffffffffffffffffffffff166332f1efc08a8533611e216126de565b6040518563ffffffff1660e01b8152600401611e4094939291906137dc565b600060405180830381600087803b158015611e5a57600080fd5b505af1158015611e6e573d6000803e3d6000fd5b5050505050505080611e7f90613cf7565b9050611a85565b50611e903361276a565b6000600660003373ffffffffffffffffffffffffffffffffffffffff1673ffffffffffffffffffffffffffffffffffffffff16815260200190815260200160002060006101000a81548160ff02191690831515021790555050505050505050565b600063bc197c8160e01b905095945050505050565b600063f23a6e6160e01b905095945050505050565b611f23612612565b73ffffffffffffffffffffffffffffffffffffffff16611f41611234565b73ffffffffffffffffffffffffffffffffffffffff1614611f97576040517f08c379a0000000000000000000000000000000000000000000000000000000008152600401611f8e906136dd565b60405180910390fd5b600073ffffffffffffffffffffffffffffffffffffffff168173ffffffffffffffffffffffffffffffffffffffff161415612007576040517f08c379a0000000000000000000000000000000000000000000000000000000008152600401611ffe906136bd565b60405180910390fd5b6120108161261a565b50565b60606000600560008473ffffffffffffffffffffffffffffffffffffffff1673ffffffffffffffffffffffffffffffffffffffff168152602001908152602001600020905060008160000160019054906101000a900460ff1660ff1690508067ffffffffffffffff8111156120b1577f4e487b7100000000000000000000000000000000000000000000000000000000600052604160045260246000fd5b6040519080825280602002602001820160405280156120df5781602001602082028036833780820191505090505b50925060005b8181101561216f57600083600101600083815260200190815260200160002060009054906101000a900460ff1660ff16905080858381518110612151577f4e487b7100000000000000000000000000000000000000000000000000000000600052603260045260246000fd5b602002602001018181525050508061216890613cf7565b90506120e5565b505050919050565b6000600660003373ffffffffffffffffffffffffffffffffffffffff1673ffffffffffffffffffffffffffffffffffffffff16815260200190815260200160002060009054906101000a900460ff169050801561220b57806040517f5661fbcf000000000000000000000000000000000000000000000000000000008152600401612202919061361b565b60405180910390fd5b600360009054906101000a900473ffffffffffffffffffffffffffffffffffffffff1673ffffffffffffffffffffffffffffffffffffffff1663f5d8bcb4336040518263ffffffff1660e01b815260040161226691906134dc565b60006040518083038186803b15801561227e57600080fd5b505afa158015612292573d6000803e3d6000fd5b5050505060068383905011156122e5578282905060066040517f2f0e817c0000000000000000000000000000000000000000000000000000000081526004016122dc92919061378a565b60405180910390fd5b600683839050111561232c576040517f08c379a0000000000000000000000000000000000000000000000000000000008152600401612323906136fd565b60405180910390fd5b6000600560003373ffffffffffffffffffffffffffffffffffffffff1673ffffffffffffffffffffffffffffffffffffffff168152602001908152602001600020905060005b8484905081101561249d5760008585838181106123b8577f4e487b7100000000000000000000000000000000000000000000000000000000600052603260045260246000fd5b9050602002013590506123cc33888361286c565b50600160009054906101000a900473ffffffffffffffffffffffffffffffffffffffff1673ffffffffffffffffffffffffffffffffffffffff166382e408138260016040518363ffffffff1660e01b815260040161242b929190613761565b600060405180830381600087803b15801561244557600080fd5b505af1158015612459573d6000803e3d6000fd5b505050508083600101600084815260200190815260200160002060006101000a81548160ff021916908360ff160217905550508061249690613cf7565b9050612372565b50848160000160006101000a81548160ff021916908360ff160217905550428160020160006101000a81548167ffffffffffffffff021916908367ffffffffffffffff160217905550338160020160086101000a81548173ffffffffffffffffffffffffffffffffffffffff021916908373ffffffffffffffffffffffffffffffffffffffff160217905550838390508160000160016101000a81548160ff021916908360ff1602179055506001600660003373ffffffffffffffffffffffffffffffffffffffff1673ffffffffffffffffffffffffffffffffffffffff16815260200190815260200160002060006101000a81548160ff0219169083151502179055505050505050565b60007f01ffc9a7000000000000000000000000000000000000000000000000000000007bffffffffffffffffffffffffffffffffffffffffffffffffffffffff1916827bffffffffffffffffffffffffffffffffffffffffffffffffffffffff1916149050919050565b600033905090565b60008060009054906101000a900473ffffffffffffffffffffffffffffffffffffffff169050816000806101000a81548173ffffffffffffffffffffffffffffffffffffffff021916908373ffffffffffffffffffffffffffffffffffffffff1602179055508173ffffffffffffffffffffffffffffffffffffffff168173ffffffffffffffffffffffffffffffffffffffff167f8be0079c531659141344cd1fd0a4f28419497f9722a3daafe3b4186f6b6457e060405160405180910390a35050565b600060644233600460149054906101000a900461ffff166040516020016127079392919061349f565b6040516020818303038152906040528051906020012060001c61272a9190613d80565b90506004601481819054906101000a900461ffff168092919061274c90613ccc565b91906101000a81548161ffff021916908361ffff1602179055505090565b6000600560008373ffffffffffffffffffffffffffffffffffffffff1673ffffffffffffffffffffffffffffffffffffffff168152602001908152602001600020905060006127b883612013565b905060005b81518110156127fc5782600101600082815260200190815260200160002060006101000a81549060ff0219169055806127f590613cf7565b90506127bd565b508160000160006101000a81549060ff02191690558160020160086101000a81549073ffffffffffffffffffffffffffffffffffffffff02191690558160020160006101000a81549067ffffffffffffffff02191690558160000160016101000a81549060ff0219169055505050565b600080600160ff16841415905060006007600086815260200190815260200160002060000160009054906101000a900460ff1660ff1690506000600160009054906101000a900473ffffffffffffffffffffffffffffffffffffffff1673ffffffffffffffffffffffffffffffffffffffff16635f273e18866040518263ffffffff1660e01b8152600401612901919061371d565b60206040518083038186803b15801561291957600080fd5b505afa15801561292d573d6000803e3d6000fd5b505050506040513d601f19601f820116820180604052508101906129519190613115565b90506000600160009054906101000a900473ffffffffffffffffffffffffffffffffffffffff1673ffffffffffffffffffffffffffffffffffffffff166389375b7c876040518263ffffffff1660e01b81526004016129b0919061371d565b60206040518083038186803b1580156129c857600080fd5b505afa1580156129dc573d6000803e3d6000fd5b505050506040513d601f19601f82011682018060405250810190612a009190613115565b90506000600160009054906101000a900473ffffffffffffffffffffffffffffffffffffffff1673ffffffffffffffffffffffffffffffffffffffff16634d85cebf886040518263ffffffff1660e01b8152600401612a5f919061371d565b60206040518083038186803b158015612a7757600080fd5b505afa158015612a8b573d6000803e3d6000fd5b505050506040513d601f19601f82011682018060405250810190612aaf9190613221565b63ffffffff1690506000600160009054906101000a900473ffffffffffffffffffffffffffffffffffffffff1673ffffffffffffffffffffffffffffffffffffffff166360e2f2fb896040518263ffffffff1660e01b8152600401612b14919061371d565b60206040518083038186803b158015612b2c57600080fd5b505afa158015612b40573d6000803e3d6000fd5b505050506040513d601f19601f82011682018060405250810190612b649190613115565b90506000600160009054906101000a900473ffffffffffffffffffffffffffffffffffffffff1673ffffffffffffffffffffffffffffffffffffffff166360aeb8e98a6040518263ffffffff1660e01b8152600401612bc3919061371d565b60206040518083038186803b158015612bdb57600080fd5b505afa158015612bef573d6000803e3d6000fd5b505050506040513d601f19601f82011682018060405250810190612c139190612efd565b9050868015612c225750600285105b15612c665788856040517ff8c0eb7f000000000000000000000000000000000000000000000000000000008152600401612c5d9291906137b3565b60405180910390fd5b8a73ffffffffffffffffffffffffffffffffffffffff168173ffffffffffffffffffffffffffffffffffffffff16141580612ca2575060008214155b80612cac57504283115b80612cb657508584105b15612cfc578884836040517fc610b36c000000000000000000000000000000000000000000000000000000008152600401612cf393929190613821565b60405180910390fd5b60019750505050505050509392505050565b6000612d21612d1c8461392f565b61390a565b90508083825260208201905082856020860282011115612d4057600080fd5b60005b85811015612d705781612d568882612e95565b845260208401935060208301925050600181019050612d43565b5050509392505050565b6000612d8d612d888461395b565b61390a565b905082815260208101848484011115612da557600080fd5b612db0848285613c8c565b509392505050565b600081359050612dc781613f0d565b92915050565b600081519050612ddc81613f0d565b92915050565b60008083601f840112612df457600080fd5b8235905067ffffffffffffffff811115612e0d57600080fd5b602083019150836020820283011115612e2557600080fd5b9250929050565b600082601f830112612e3d57600080fd5b8135612e4d848260208601612d0e565b91505092915050565b600081359050612e6581613f24565b92915050565b600082601f830112612e7c57600080fd5b8135612e8c848260208601612d7a565b91505092915050565b600081359050612ea481613f3b565b92915050565b600081519050612eb981613f3b565b92915050565b600081519050612ece81613f52565b92915050565b600060208284031215612ee657600080fd5b6000612ef484828501612db8565b91505092915050565b600060208284031215612f0f57600080fd5b6000612f1d84828501612dcd565b91505092915050565b600080600060608486031215612f3b57600080fd5b6000612f4986828701612db8565b9350506020612f5a86828701612db8565b9250506040612f6b86828701612db8565b9150509250925092565b600080600080600060a08688031215612f8d57600080fd5b6000612f9b88828901612db8565b9550506020612fac88828901612db8565b945050604086013567ffffffffffffffff811115612fc957600080fd5b612fd588828901612e2c565b935050606086013567ffffffffffffffff811115612ff257600080fd5b612ffe88828901612e2c565b925050608086013567ffffffffffffffff81111561301b57600080fd5b61302788828901612e6b565b9150509295509295909350565b600080600080600060a0868803121561304c57600080fd5b600061305a88828901612db8565b955050602061306b88828901612db8565b945050604061307c88828901612e95565b935050606061308d88828901612e95565b925050608086013567ffffffffffffffff8111156130aa57600080fd5b6130b688828901612e6b565b9150509295509295909350565b6000602082840312156130d557600080fd5b60006130e384828501612e56565b91505092915050565b6000602082840312156130fe57600080fd5b600061310c84828501612e95565b91505092915050565b60006020828403121561312757600080fd5b600061313584828501612eaa565b91505092915050565b60008060006040848603121561315357600080fd5b600061316186828701612e95565b935050602084013567ffffffffffffffff81111561317e57600080fd5b61318a86828701612de2565b92509250509250925092565b600080604083850312156131a957600080fd5b60006131b785828601612e95565b92505060206131c885828601612e95565b9150509250929050565b6000806000606084860312156131e757600080fd5b60006131f586828701612e95565b935050602061320686828701612e95565b925050604061321786828701612e95565b9150509250925092565b60006020828403121561323357600080fd5b600061324184828501612ebf565b91505092915050565b6000613256838361342e565b60208301905092915050565b61326b81613acb565b82525050565b61328261327d82613acb565b613d40565b82525050565b60006132938261399c565b61329d81856139b4565b93506132a88361398c565b8060005b838110156132d95781516132c0888261324a565b97506132cb836139a7565b9250506001810190506132ac565b5085935050505092915050565b6132ef81613add565b82525050565b6132fe81613ae9565b82525050565b61330d81613b90565b82525050565b61331c81613bb4565b82525050565b61332b81613bd8565b82525050565b61333a81613bfc565b82525050565b61334981613c20565b82525050565b61335881613c32565b82525050565b61336781613c44565b82525050565b61337681613c56565b82525050565b61338581613c68565b82525050565b60006133986026836139d6565b91506133a382613e69565b604082019050919050565b60006133bb6020836139d6565b91506133c682613eb8565b602082019050919050565b60006133de600b836139d6565b91506133e982613ee1565b602082019050919050565b60006134016000836139c5565b915061340c82613f0a565b600082019050919050565b61342861342382613b15565b613d52565b82525050565b61343781613b43565b82525050565b61344681613b43565b82525050565b61345d61345882613b43565b613d76565b82525050565b61346c81613b5d565b82525050565b61347b81613b6f565b82525050565b61348a81613c7a565b82525050565b61349981613b83565b82525050565b60006134ab828661344c565b6020820191506134bb8285613271565b6014820191506134cb8284613417565b600282019150819050949350505050565b60006020820190506134f16000830184613262565b92915050565b600060a08201905061350c6000830187613262565b6135196020830186613262565b613526604083018561335e565b613533606083018461343d565b8181036080830152613544816133f4565b905095945050505050565b600060a0820190506135646000830187613262565b6135716020830186613262565b61357e604083018561336d565b61358b606083018461343d565b818103608083015261359c816133f4565b905095945050505050565b60006040820190506135bc6000830185613262565b6135c9602083018461335e565b9392505050565b60006040820190506135e56000830185613262565b6135f2602083018461336d565b9392505050565b600060208201905081810360008301526136138184613288565b905092915050565b600060208201905061363060008301846132e6565b92915050565b600060208201905061364b60008301846132f5565b92915050565b60006020820190506136666000830184613304565b92915050565b60006020820190506136816000830184613313565b92915050565b600060208201905061369c6000830184613322565b92915050565b60006020820190506136b76000830184613331565b92915050565b600060208201905081810360008301526136d68161338b565b9050919050565b600060208201905081810360008301526136f6816133ae565b9050919050565b60006020820190508181036000830152613716816133d1565b9050919050565b6000602082019050613732600083018461343d565b92915050565b600060408201905061374d600083018561343d565b61375a6020830184613340565b9392505050565b6000604082019050613776600083018561343d565b613783602083018461334f565b9392505050565b600060408201905061379f600083018561343d565b6137ac602083018461337c565b9392505050565b60006040820190506137c8600083018561343d565b6137d5602083018461343d565b9392505050565b60006080820190506137f1600083018761343d565b6137fe602083018661343d565b61380b6040830185613262565b613818606083018461343d565b95945050505050565b6000606082019050613836600083018661343d565b613843602083018561343d565b613850604083018461343d565b949350505050565b600060408201905061386d600083018561343d565b61387a6020830184613481565b9392505050565b60006020820190506138966000830184613463565b92915050565b60006040820190506138b16000830185613490565b6138be6020830184613490565b9392505050565b60006080820190506138da6000830187613490565b6138e76020830186613490565b6138f46040830185613472565b6139016060830184613262565b95945050505050565b6000613914613925565b90506139208282613c9b565b919050565b6000604051905090565b600067ffffffffffffffff82111561394a57613949613e0f565b5b602082029050602081019050919050565b600067ffffffffffffffff82111561397657613975613e0f565b5b61397f82613e3e565b9050602081019050919050565b6000819050602082019050919050565b600081519050919050565b6000602082019050919050565b600082825260208201905092915050565b600082825260208201905092915050565b600082825260208201905092915050565b60006139f282613b43565b91506139fd83613b43565b9250827fffffffffffffffffffffffffffffffffffffffffffffffffffffffffffffffff03821115613a3257613a31613db1565b5b828201905092915050565b6000613a4882613b43565b9150613a5383613b43565b9250817fffffffffffffffffffffffffffffffffffffffffffffffffffffffffffffffff0483118215151615613a8c57613a8b613db1565b5b828202905092915050565b6000613aa282613b43565b9150613aad83613b43565b925082821015613ac057613abf613db1565b5b828203905092915050565b6000613ad682613b23565b9050919050565b60008115159050919050565b60007fffffffff0000000000000000000000000000000000000000000000000000000082169050919050565b600061ffff82169050919050565b600073ffffffffffffffffffffffffffffffffffffffff82169050919050565b6000819050919050565b600063ffffffff82169050919050565b600065ffffffffffff82169050919050565b600067ffffffffffffffff82169050919050565b600060ff82169050919050565b6000613b9b82613ba2565b9050919050565b6000613bad82613b23565b9050919050565b6000613bbf82613bc6565b9050919050565b6000613bd182613b23565b9050919050565b6000613be382613bea565b9050919050565b6000613bf582613b23565b9050919050565b6000613c0782613c0e565b9050919050565b6000613c1982613b23565b9050919050565b6000613c2b82613b43565b9050919050565b6000613c3d82613b43565b9050919050565b6000613c4f82613b43565b9050919050565b6000613c6182613b43565b9050919050565b6000613c7382613b43565b9050919050565b6000613c8582613b83565b9050919050565b82818337600083830152505050565b613ca482613e3e565b810181811067ffffffffffffffff82111715613cc357613cc2613e0f565b5b80604052505050565b6000613cd782613b15565b915061ffff821415613cec57613ceb613db1565b5b600182019050919050565b6000613d0282613b43565b91507fffffffffffffffffffffffffffffffffffffffffffffffffffffffffffffffff821415613d3557613d34613db1565b5b600182019050919050565b6000613d4b82613d64565b9050919050565b6000613d5d82613e4f565b9050919050565b6000613d6f82613e5c565b9050919050565b6000819050919050565b6000613d8b82613b43565b9150613d9683613b43565b925082613da657613da5613de0565b5b828206905092915050565b7f4e487b7100000000000000000000000000000000000000000000000000000000600052601160045260246000fd5b7f4e487b7100000000000000000000000000000000000000000000000000000000600052601260045260246000fd5b7f4e487b7100000000000000000000000000000000000000000000000000000000600052604160045260246000fd5b6000601f19601f8301169050919050565b60008160f01b9050919050565b60008160601b9050919050565b7f4f776e61626c653a206e6577206f776e657220697320746865207a65726f206160008201527f6464726573730000000000000000000000000000000000000000000000000000602082015250565b7f4f776e61626c653a2063616c6c6572206973206e6f7420746865206f776e6572600082015250565b7f41626f7665206c696d6974000000000000000000000000000000000000000000600082015250565b50565b613f1681613acb565b8114613f2157600080fd5b50565b613f2d81613ae9565b8114613f3857600080fd5b50565b613f4481613b43565b8114613f4f57600080fd5b50565b613f5b81613b4d565b8114613f6657600080fd5b5056fea2646970667358221220b8a71d25602720d88d4a7a22e5854a3bf3a894a9b3899efc036d6817156fe57564736f6c63430008040033",
  "linkReferences": {},
  "deployedLinkReferences": {}
}