{
  "_format": "hh-sol-artifact-1",
  "contractName": "Nursery",
  "sourceName": "contracts/Nursery.sol",
  "abi": [
    {
      "inputs": [
        {
          "internalType": "uint256",
          "name": "_sent",
          "type": "uint256"
        }
      ],
      "name": "FeeNotValid",
      "type": "error"
    },
    {
      "inputs": [
        {
          "internalType": "bool",
          "name": "_status",
          "type": "bool"
        }
      ],
      "name": "IsResting",
      "type": "error"
    },
    {
      "inputs": [
        {
          "internalType": "uint256",
          "name": "_amount",
          "type": "uint256"
        },
        {
          "internalType": "uint256",
          "name": "_limit",
          "type": "uint256"
        }
      ],
      "name": "MonstersAmountNotValid",
      "type": "error"
    },
    {
      "inputs": [
        {
          "internalType": "bool",
          "name": "_status",
          "type": "bool"
        }
      ],
      "name": "NotResting",
      "type": "error"
    },
    {
      "inputs": [
        {
          "internalType": "uint256",
          "name": "_timeElapsed",
          "type": "uint256"
        },
        {
          "internalType": "uint256",
          "name": "_timeNow",
          "type": "uint256"
        }
      ],
      "name": "NotValidToFinishRest",
      "type": "error"
    },
    {
      "inputs": [
        {
          "internalType": "uint256",
          "name": "_monster",
          "type": "uint256"
        },
        {
          "internalType": "uint256",
          "name": "_duration",
          "type": "uint256"
        },
        {
          "internalType": "uint256",
          "name": "_status",
          "type": "uint256"
        }
      ],
      "name": "NotValidToRest",
      "type": "error"
    },
    {
      "anonymous": false,
      "inputs": [
        {
          "indexed": true,
          "internalType": "address",
          "name": "previousOwner",
          "type": "address"
        },
        {
          "indexed": true,
          "internalType": "address",
          "name": "newOwner",
          "type": "address"
        }
      ],
      "name": "OwnershipTransferred",
      "type": "event"
    },
    {
      "inputs": [],
      "name": "RESTING_FEE",
      "outputs": [
        {
          "internalType": "uint256",
          "name": "",
          "type": "uint256"
        }
      ],
      "stateMutability": "view",
      "type": "function"
    },
    {
      "inputs": [],
      "name": "finishResting",
      "outputs": [],
      "stateMutability": "nonpayable",
      "type": "function"
    },
    {
      "inputs": [
        {
          "internalType": "address",
          "name": "_user",
          "type": "address"
        }
      ],
      "name": "getRestingMonsters",
      "outputs": [
        {
          "internalType": "uint256[]",
          "name": "monsters",
          "type": "uint256[]"
        }
      ],
      "stateMutability": "view",
      "type": "function"
    },
    {
      "inputs": [],
      "name": "monstersInterface",
      "outputs": [
        {
          "internalType": "contract IMonster",
          "name": "",
          "type": "address"
        }
      ],
      "stateMutability": "view",
      "type": "function"
    },
    {
      "inputs": [
        {
          "internalType": "address",
          "name": "",
          "type": "address"
        }
      ],
      "name": "monstersOnNursery",
      "outputs": [
        {
          "internalType": "address",
          "name": "owner",
          "type": "address"
        },
        {
          "internalType": "uint8",
          "name": "monstersAmount",
          "type": "uint8"
        },
        {
          "internalType": "uint32",
          "name": "duration",
          "type": "uint32"
        },
        {
          "internalType": "uint64",
          "name": "startTime",
          "type": "uint64"
        }
      ],
      "stateMutability": "view",
      "type": "function"
    },
    {
      "inputs": [],
      "name": "owner",
      "outputs": [
        {
          "internalType": "address",
          "name": "",
          "type": "address"
        }
      ],
      "stateMutability": "view",
      "type": "function"
    },
    {
      "inputs": [],
      "name": "renounceOwnership",
      "outputs": [],
      "stateMutability": "nonpayable",
      "type": "function"
    },
    {
      "inputs": [
        {
          "internalType": "uint256[]",
          "name": "_monsters",
          "type": "uint256[]"
        },
        {
          "internalType": "uint256",
          "name": "_duration",
          "type": "uint256"
        }
      ],
      "name": "restMonsters",
      "outputs": [],
      "stateMutability": "payable",
      "type": "function"
    },
    {
      "inputs": [
        {
          "internalType": "address",
          "name": "",
          "type": "address"
        }
      ],
      "name": "restingStatus",
      "outputs": [
        {
          "internalType": "bool",
          "name": "",
          "type": "bool"
        }
      ],
      "stateMutability": "view",
      "type": "function"
    },
    {
      "inputs": [
        {
          "internalType": "address",
          "name": "_monsterContract",
          "type": "address"
        },
        {
          "internalType": "address",
          "name": "_usersDataContract",
          "type": "address"
        }
      ],
      "name": "setInterface",
      "outputs": [],
      "stateMutability": "nonpayable",
      "type": "function"
    },
    {
      "inputs": [
        {
          "internalType": "address",
          "name": "newOwner",
          "type": "address"
        }
      ],
      "name": "transferOwnership",
      "outputs": [],
      "stateMutability": "nonpayable",
      "type": "function"
    },
    {
      "inputs": [],
      "name": "usersDataInterface",
      "outputs": [
        {
          "internalType": "contract IUsersData",
          "name": "",
          "type": "address"
        }
      ],
      "stateMutability": "view",
      "type": "function"
    },
    {
      "stateMutability": "payable",
      "type": "receive"
    }
  ],
  "bytecode": "0x608060405266038d7ea4c6800060035534801561001b57600080fd5b5061003861002d61003d60201b60201c565b61004560201b60201c565b610109565b600033905090565b60008060009054906101000a900473ffffffffffffffffffffffffffffffffffffffff169050816000806101000a81548173ffffffffffffffffffffffffffffffffffffffff021916908373ffffffffffffffffffffffffffffffffffffffff1602179055508173ffffffffffffffffffffffffffffffffffffffff168173ffffffffffffffffffffffffffffffffffffffff167f8be0079c531659141344cd1fd0a4f28419497f9722a3daafe3b4186f6b6457e060405160405180910390a35050565b611da7806101186000396000f3fe6080604052600436106100ab5760003560e01c8063715018a611610064578063715018a6146101ca5780637fb2db16146101e15780638da5cb5b1461020c578063ad9baef814610237578063eb9cb66a14610253578063f2fde38b14610290576100b2565b806302d8f2b5146100b7578063251e73fd146100e05780634e56bffd1461011d5780635b904b9414610134578063688f34ca146101745780636d3e125f1461019f576100b2565b366100b257005b600080fd5b3480156100c357600080fd5b506100de60048036038101906100d991906115cc565b6102b9565b005b3480156100ec57600080fd5b506101076004803603810190610102919061157a565b6103bb565b604051610114919061187b565b60405180910390f35b34801561012957600080fd5b506101326103db565b005b34801561014057600080fd5b5061015b6004803603810190610156919061157a565b610821565b60405161016b9493929190611814565b60405180910390f35b34801561018057600080fd5b506101896108a2565b604051610196919061190c565b60405180910390f35b3480156101ab57600080fd5b506101b46108a8565b6040516101c19190611896565b60405180910390f35b3480156101d657600080fd5b506101df6108ce565b005b3480156101ed57600080fd5b506101f6610956565b60405161020391906118b1565b60405180910390f35b34801561021857600080fd5b5061022161097c565b60405161022e91906117f9565b60405180910390f35b610251600480360381019061024c9190611608565b6109a5565b005b34801561025f57600080fd5b5061027a6004803603810190610275919061157a565b6110b5565b6040516102879190611859565b60405180910390f35b34801561029c57600080fd5b506102b760048036038101906102b2919061157a565b611213565b005b6102c161130b565b73ffffffffffffffffffffffffffffffffffffffff166102df61097c565b73ffffffffffffffffffffffffffffffffffffffff1614610335576040517f08c379a000000000000000000000000000000000000000000000000000000000815260040161032c906118ec565b60405180910390fd5b81600160006101000a81548173ffffffffffffffffffffffffffffffffffffffff021916908373ffffffffffffffffffffffffffffffffffffffff16021790555080600260006101000a81548173ffffffffffffffffffffffffffffffffffffffff021916908373ffffffffffffffffffffffffffffffffffffffff1602179055505050565b60056020528060005260406000206000915054906101000a900460ff1681565b6000600560003373ffffffffffffffffffffffffffffffffffffffff1673ffffffffffffffffffffffffffffffffffffffff16815260200190815260200160002060009054906101000a900460ff1690508061046e57806040517f9f15a81f000000000000000000000000000000000000000000000000000000008152600401610465919061187b565b60405180910390fd5b6000600460003373ffffffffffffffffffffffffffffffffffffffff1673ffffffffffffffffffffffffffffffffffffffff168152602001908152602001600020905060006104bc336110b5565b905060008260020160049054906101000a900467ffffffffffffffff1667ffffffffffffffff16905060008360020160009054906101000a900463ffffffff1663ffffffff169050600081836105129190611a4c565b90504281111561055b5780426040517ffe8f007d0000000000000000000000000000000000000000000000000000000081526004016105529291906119a2565b60405180910390fd5b60005b84518110156107b75760008582815181106105a2577f4e487b7100000000000000000000000000000000000000000000000000000000600052603260045260246000fd5b602002602001015190506000600160009054906101000a900473ffffffffffffffffffffffffffffffffffffffff1673ffffffffffffffffffffffffffffffffffffffff166389375b7c836040518263ffffffff1660e01b8152600401610609919061190c565b60206040518083038186803b15801561062157600080fd5b505afa158015610635573d6000803e3d6000fd5b505050506040513d601f19601f820116820180604052508101906106599190611660565b9050600081600a610e108861066e9190611aa2565b6106789190611ad3565b6106829190611a4c565b9050600160009054906101000a900473ffffffffffffffffffffffffffffffffffffffff1673ffffffffffffffffffffffffffffffffffffffff1663ae153e3e84836040518363ffffffff1660e01b81526004016106e19291906119a2565b600060405180830381600087803b1580156106fb57600080fd5b505af115801561070f573d6000803e3d6000fd5b50505050600160009054906101000a900473ffffffffffffffffffffffffffffffffffffffff1673ffffffffffffffffffffffffffffffffffffffff166382e408138460006040518363ffffffff1660e01b8152600401610771929190611927565b600060405180830381600087803b15801561078b57600080fd5b505af115801561079f573d6000803e3d6000fd5b50505050505050806107b090611c24565b905061055e565b506107c133611313565b6000600560003373ffffffffffffffffffffffffffffffffffffffff1673ffffffffffffffffffffffffffffffffffffffff16815260200190815260200160002060006101000a81548160ff021916908315150217905550505050505050565b60046020528060005260406000206000915090508060000160009054906101000a900473ffffffffffffffffffffffffffffffffffffffff16908060000160149054906101000a900460ff16908060020160009054906101000a900463ffffffff16908060020160049054906101000a900467ffffffffffffffff16905084565b60035481565b600160009054906101000a900473ffffffffffffffffffffffffffffffffffffffff1681565b6108d661130b565b73ffffffffffffffffffffffffffffffffffffffff166108f461097c565b73ffffffffffffffffffffffffffffffffffffffff161461094a576040517f08c379a0000000000000000000000000000000000000000000000000000000008152600401610941906118ec565b60405180910390fd5b6109546000611418565b565b600260009054906101000a900473ffffffffffffffffffffffffffffffffffffffff1681565b60008060009054906101000a900473ffffffffffffffffffffffffffffffffffffffff16905090565b600260009054906101000a900473ffffffffffffffffffffffffffffffffffffffff1673ffffffffffffffffffffffffffffffffffffffff1663f5d8bcb4336040518263ffffffff1660e01b8152600401610a0091906117f9565b60006040518083038186803b158015610a1857600080fd5b505afa158015610a2c573d6000803e3d6000fd5b505050506000600560003373ffffffffffffffffffffffffffffffffffffffff1673ffffffffffffffffffffffffffffffffffffffff16815260200190815260200160002060009054906101000a900460ff1690508015610ac457806040517f360b4ae9000000000000000000000000000000000000000000000000000000008152600401610abb919061187b565b60405180910390fd5b6006848490501115610b13578383905060066040517f2f0e817c000000000000000000000000000000000000000000000000000000008152600401610b0a929190611979565b60405180910390fd5b6000600460003373ffffffffffffffffffffffffffffffffffffffff1673ffffffffffffffffffffffffffffffffffffffff168152602001908152602001600020905060008585905060035485610b6a9190611ad3565b610b749190611ad3565b9050803414610bba57346040517f20a43c36000000000000000000000000000000000000000000000000000000008152600401610bb1919061190c565b60405180910390fd5b60005b86869050811015610f96576000878783818110610c03577f4e487b7100000000000000000000000000000000000000000000000000000000600052603260045260246000fd5b9050602002013590506000600160009054906101000a900473ffffffffffffffffffffffffffffffffffffffff1673ffffffffffffffffffffffffffffffffffffffff166389375b7c836040518263ffffffff1660e01b8152600401610c69919061190c565b60206040518083038186803b158015610c8157600080fd5b505afa158015610c95573d6000803e3d6000fd5b505050506040513d601f19601f82011682018060405250810190610cb99190611660565b90506000600160009054906101000a900473ffffffffffffffffffffffffffffffffffffffff1673ffffffffffffffffffffffffffffffffffffffff166360e2f2fb846040518263ffffffff1660e01b8152600401610d18919061190c565b60206040518083038186803b158015610d3057600080fd5b505afa158015610d44573d6000803e3d6000fd5b505050506040513d601f19601f82011682018060405250810190610d689190611660565b9050600082600a8a610d7a9190611ad3565b610d849190611a4c565b90506000600160009054906101000a900473ffffffffffffffffffffffffffffffffffffffff1673ffffffffffffffffffffffffffffffffffffffff166360aeb8e9866040518263ffffffff1660e01b8152600401610de3919061190c565b60206040518083038186803b158015610dfb57600080fd5b505afa158015610e0f573d6000803e3d6000fd5b505050506040513d601f19601f82011682018060405250810190610e3391906115a3565b9050600083141580610e7157503373ffffffffffffffffffffffffffffffffffffffff168173ffffffffffffffffffffffffffffffffffffffff1614155b80610e7c5750606482115b15610ec257848a846040517fb4e78a48000000000000000000000000000000000000000000000000000000008152600401610eb9939291906119cb565b60405180910390fd5b600160009054906101000a900473ffffffffffffffffffffffffffffffffffffffff1673ffffffffffffffffffffffffffffffffffffffff166382e408138660026040518363ffffffff1660e01b8152600401610f20929190611950565b600060405180830381600087803b158015610f3a57600080fd5b505af1158015610f4e573d6000803e3d6000fd5b505050508488600101600088815260200190815260200160002060006101000a81548160ff021916908360ff160217905550505050505080610f8f90611c24565b9050610bbd565b50610e1084610fa59190611ad3565b8260020160006101000a81548163ffffffff021916908363ffffffff160217905550858590508260000160146101000a81548160ff021916908360ff160217905550338260000160006101000a81548173ffffffffffffffffffffffffffffffffffffffff021916908373ffffffffffffffffffffffffffffffffffffffff160217905550428260020160046101000a81548167ffffffffffffffff021916908367ffffffffffffffff1602179055506001600560003373ffffffffffffffffffffffffffffffffffffffff1673ffffffffffffffffffffffffffffffffffffffff16815260200190815260200160002060006101000a81548160ff021916908315150217905550505050505050565b60606000600460008473ffffffffffffffffffffffffffffffffffffffff1673ffffffffffffffffffffffffffffffffffffffff168152602001908152602001600020905060008160000160149054906101000a900460ff1660ff1690508067ffffffffffffffff811115611153577f4e487b7100000000000000000000000000000000000000000000000000000000600052604160045260246000fd5b6040519080825280602002602001820160405280156111815781602001602082028036833780820191505090505b50925060005b8181101561120b5782600101600082815260200190815260200160002060009054906101000a900460ff1660ff168482815181106111ee577f4e487b7100000000000000000000000000000000000000000000000000000000600052603260045260246000fd5b6020026020010181815250508061120490611c24565b9050611187565b505050919050565b61121b61130b565b73ffffffffffffffffffffffffffffffffffffffff1661123961097c565b73ffffffffffffffffffffffffffffffffffffffff161461128f576040517f08c379a0000000000000000000000000000000000000000000000000000000008152600401611286906118ec565b60405180910390fd5b600073ffffffffffffffffffffffffffffffffffffffff168173ffffffffffffffffffffffffffffffffffffffff1614156112ff576040517f08c379a00000000000000000000000000000000000000000000000000000000081526004016112f6906118cc565b60405180910390fd5b61130881611418565b50565b600033905090565b6000600460008373ffffffffffffffffffffffffffffffffffffffff1673ffffffffffffffffffffffffffffffffffffffff16815260200190815260200160002090506000611361836110b5565b905060005b81518110156113a55782600101600082815260200190815260200160002060006101000a81549060ff02191690558061139e90611c24565b9050611366565b508160000160006101000a81549073ffffffffffffffffffffffffffffffffffffffff02191690558160020160006101000a81549063ffffffff02191690558160020160046101000a81549067ffffffffffffffff02191690558160000160146101000a81549060ff0219169055505050565b60008060009054906101000a900473ffffffffffffffffffffffffffffffffffffffff169050816000806101000a81548173ffffffffffffffffffffffffffffffffffffffff021916908373ffffffffffffffffffffffffffffffffffffffff1602179055508173ffffffffffffffffffffffffffffffffffffffff168173ffffffffffffffffffffffffffffffffffffffff167f8be0079c531659141344cd1fd0a4f28419497f9722a3daafe3b4186f6b6457e060405160405180910390a35050565b6000813590506114eb81611d43565b92915050565b60008151905061150081611d43565b92915050565b60008083601f84011261151857600080fd5b8235905067ffffffffffffffff81111561153157600080fd5b60208301915083602082028301111561154957600080fd5b9250929050565b60008135905061155f81611d5a565b92915050565b60008151905061157481611d5a565b92915050565b60006020828403121561158c57600080fd5b600061159a848285016114dc565b91505092915050565b6000602082840312156115b557600080fd5b60006115c3848285016114f1565b91505092915050565b600080604083850312156115df57600080fd5b60006115ed858286016114dc565b92505060206115fe858286016114dc565b9150509250929050565b60008060006040848603121561161d57600080fd5b600084013567ffffffffffffffff81111561163757600080fd5b61164386828701611506565b9350935050602061165686828701611550565b9150509250925092565b60006020828403121561167257600080fd5b600061168084828501611565565b91505092915050565b600061169583836117ae565b60208301905092915050565b6116aa81611b2d565b82525050565b60006116bb82611a12565b6116c58185611a2a565b93506116d083611a02565b8060005b838110156117015781516116e88882611689565b97506116f383611a1d565b9250506001810190506116d4565b5085935050505092915050565b61171781611b3f565b82525050565b61172681611ba6565b82525050565b61173581611bca565b82525050565b61174481611bee565b82525050565b61175381611c00565b82525050565b61176281611c12565b82525050565b6000611775602683611a3b565b915061178082611ccb565b604082019050919050565b6000611798602083611a3b565b91506117a382611d1a565b602082019050919050565b6117b781611b6b565b82525050565b6117c681611b6b565b82525050565b6117d581611b75565b82525050565b6117e481611b85565b82525050565b6117f381611b99565b82525050565b600060208201905061180e60008301846116a1565b92915050565b600060808201905061182960008301876116a1565b61183660208301866117ea565b61184360408301856117cc565b61185060608301846117db565b95945050505050565b6000602082019050818103600083015261187381846116b0565b905092915050565b6000602082019050611890600083018461170e565b92915050565b60006020820190506118ab600083018461171d565b92915050565b60006020820190506118c6600083018461172c565b92915050565b600060208201905081810360008301526118e581611768565b9050919050565b600060208201905081810360008301526119058161178b565b9050919050565b600060208201905061192160008301846117bd565b92915050565b600060408201905061193c60008301856117bd565b611949602083018461173b565b9392505050565b600060408201905061196560008301856117bd565b611972602083018461174a565b9392505050565b600060408201905061198e60008301856117bd565b61199b6020830184611759565b9392505050565b60006040820190506119b760008301856117bd565b6119c460208301846117bd565b9392505050565b60006060820190506119e060008301866117bd565b6119ed60208301856117bd565b6119fa60408301846117bd565b949350505050565b6000819050602082019050919050565b600081519050919050565b6000602082019050919050565b600082825260208201905092915050565b600082825260208201905092915050565b6000611a5782611b6b565b9150611a6283611b6b565b9250827fffffffffffffffffffffffffffffffffffffffffffffffffffffffffffffffff03821115611a9757611a96611c6d565b5b828201905092915050565b6000611aad82611b6b565b9150611ab883611b6b565b925082611ac857611ac7611c9c565b5b828204905092915050565b6000611ade82611b6b565b9150611ae983611b6b565b9250817fffffffffffffffffffffffffffffffffffffffffffffffffffffffffffffffff0483118215151615611b2257611b21611c6d565b5b828202905092915050565b6000611b3882611b4b565b9050919050565b60008115159050919050565b600073ffffffffffffffffffffffffffffffffffffffff82169050919050565b6000819050919050565b600063ffffffff82169050919050565b600067ffffffffffffffff82169050919050565b600060ff82169050919050565b6000611bb182611bb8565b9050919050565b6000611bc382611b4b565b9050919050565b6000611bd582611bdc565b9050919050565b6000611be782611b4b565b9050919050565b6000611bf982611b6b565b9050919050565b6000611c0b82611b6b565b9050919050565b6000611c1d82611b6b565b9050919050565b6000611c2f82611b6b565b91507fffffffffffffffffffffffffffffffffffffffffffffffffffffffffffffffff821415611c6257611c61611c6d565b5b600182019050919050565b7f4e487b7100000000000000000000000000000000000000000000000000000000600052601160045260246000fd5b7f4e487b7100000000000000000000000000000000000000000000000000000000600052601260045260246000fd5b7f4f776e61626c653a206e6577206f776e657220697320746865207a65726f206160008201527f6464726573730000000000000000000000000000000000000000000000000000602082015250565b7f4f776e61626c653a2063616c6c6572206973206e6f7420746865206f776e6572600082015250565b611d4c81611b2d565b8114611d5757600080fd5b50565b611d6381611b6b565b8114611d6e57600080fd5b5056fea2646970667358221220a2b391bd6efcac3215a68e391e2795bcb43453a9d6e3e1497eaa999097b094e964736f6c63430008040033",
  "linkReferences": {},
  "deployedLinkReferences": {}
}