{
  "_format": "hh-sol-artifact-1",
  "contractName": "Nursery",
  "sourceName": "contracts/Nursery.sol",
  "abi": [
    {
      "inputs": [
        {
          "internalType": "address",
          "name": "_user",
          "type": "address"
        }
      ],
      "name": "getMyMonsters",
      "outputs": [
        {
          "components": [
            {
              "internalType": "uint256",
              "name": "monster",
              "type": "uint256"
            },
            {
              "internalType": "address",
              "name": "owner",
              "type": "address"
            },
            {
              "internalType": "uint256",
              "name": "duration",
              "type": "uint256"
            },
            {
              "internalType": "uint256",
              "name": "startTime",
              "type": "uint256"
            }
          ],
          "internalType": "struct Nursery.Rest[]",
          "name": "monsters",
          "type": "tuple[]"
        }
      ],
      "stateMutability": "view",
      "type": "function"
    },
    {
      "inputs": [
        {
          "internalType": "uint256",
          "name": "_tokenId",
          "type": "uint256"
        },
        {
          "internalType": "address",
          "name": "_user",
          "type": "address"
        }
      ],
      "name": "goBackHome",
      "outputs": [],
      "stateMutability": "nonpayable",
      "type": "function"
    },
    {
      "inputs": [
        {
          "internalType": "address",
          "name": "",
          "type": "address"
        },
        {
          "internalType": "uint256",
          "name": "",
          "type": "uint256"
        }
      ],
      "name": "monsterOnNursery",
      "outputs": [
        {
          "internalType": "uint256",
          "name": "monster",
          "type": "uint256"
        },
        {
          "internalType": "address",
          "name": "owner",
          "type": "address"
        },
        {
          "internalType": "uint256",
          "name": "duration",
          "type": "uint256"
        },
        {
          "internalType": "uint256",
          "name": "startTime",
          "type": "uint256"
        }
      ],
      "stateMutability": "view",
      "type": "function"
    },
    {
      "inputs": [
        {
          "internalType": "address",
          "name": "_operator",
          "type": "address"
        },
        {
          "internalType": "address",
          "name": "_from",
          "type": "address"
        },
        {
          "internalType": "uint256[]",
          "name": "_ids",
          "type": "uint256[]"
        },
        {
          "internalType": "uint256[]",
          "name": "_values",
          "type": "uint256[]"
        },
        {
          "internalType": "bytes",
          "name": "_data",
          "type": "bytes"
        }
      ],
      "name": "onERC1155BatchReceived",
      "outputs": [
        {
          "internalType": "bytes4",
          "name": "",
          "type": "bytes4"
        }
      ],
      "stateMutability": "pure",
      "type": "function"
    },
    {
      "inputs": [
        {
          "internalType": "address",
          "name": "_operator",
          "type": "address"
        },
        {
          "internalType": "address",
          "name": "_from",
          "type": "address"
        },
        {
          "internalType": "uint256",
          "name": "_id",
          "type": "uint256"
        },
        {
          "internalType": "uint256",
          "name": "_value",
          "type": "uint256"
        },
        {
          "internalType": "bytes",
          "name": "_data",
          "type": "bytes"
        }
      ],
      "name": "onERC1155Received",
      "outputs": [
        {
          "internalType": "bytes4",
          "name": "",
          "type": "bytes4"
        }
      ],
      "stateMutability": "pure",
      "type": "function"
    },
    {
      "inputs": [
        {
          "internalType": "address",
          "name": "",
          "type": "address"
        },
        {
          "internalType": "uint256",
          "name": "",
          "type": "uint256"
        }
      ],
      "name": "ownerToMonsters",
      "outputs": [
        {
          "internalType": "uint256",
          "name": "",
          "type": "uint256"
        }
      ],
      "stateMutability": "view",
      "type": "function"
    },
    {
      "inputs": [
        {
          "internalType": "uint256",
          "name": "_tokenId",
          "type": "uint256"
        },
        {
          "internalType": "address",
          "name": "_user",
          "type": "address"
        },
        {
          "internalType": "uint256",
          "name": "_duration",
          "type": "uint256"
        }
      ],
      "name": "putOnNursery",
      "outputs": [],
      "stateMutability": "payable",
      "type": "function"
    },
    {
      "inputs": [
        {
          "internalType": "address",
          "name": "_monsterNFT",
          "type": "address"
        },
        {
          "internalType": "address",
          "name": "_itemNFT",
          "type": "address"
        }
      ],
      "name": "setInterface",
      "outputs": [],
      "stateMutability": "nonpayable",
      "type": "function"
    },
    {
      "inputs": [
        {
          "internalType": "bytes4",
          "name": "interfaceId",
          "type": "bytes4"
        }
      ],
      "name": "supportsInterface",
      "outputs": [
        {
          "internalType": "bool",
          "name": "",
          "type": "bool"
        }
      ],
      "stateMutability": "view",
      "type": "function"
    },
    {
      "stateMutability": "payable",
      "type": "receive"
    }
  ],
  "bytecode": "0x608060405234801561001057600080fd5b50611ba5806100206000396000f3fe60806040526004361061008a5760003560e01c8063bc197c8111610059578063bc197c8114610165578063c9a22092146101a2578063f0986150146101be578063f23a6e61146101fb578063f78fb3241461023857610091565b806301ffc9a71461009657806302d8f2b5146100d35780637fef38c7146100fc578063899b51911461012557610091565b3661009157005b600080fd5b3480156100a257600080fd5b506100bd60048036038101906100b8919061138b565b610275565b6040516100ca919061167c565b60405180910390f35b3480156100df57600080fd5b506100fa60048036038101906100f591906111b5565b6102ef565b005b34801561010857600080fd5b50610123600480360381019061011e91906113dd565b610374565b005b34801561013157600080fd5b5061014c6004803603810190610147919061134f565b6107f0565b60405161015c949392919061176d565b60405180910390f35b34801561017157600080fd5b5061018c600480360381019061018791906111f1565b61084d565b6040516101999190611697565b60405180910390f35b6101bc60048036038101906101b79190611419565b61085b565b005b3480156101ca57600080fd5b506101e560048036038101906101e0919061134f565b610c93565b6040516101f29190611752565b60405180910390f35b34801561020757600080fd5b50610222600480360381019061021d91906112bd565b610cc4565b60405161022f9190611697565b60405180910390f35b34801561024457600080fd5b5061025f600480360381019061025a919061118c565b610cd0565b60405161026c919061165a565b60405180910390f35b60007f4e2312e0000000000000000000000000000000000000000000000000000000007bffffffffffffffffffffffffffffffffffffffffffffffffffffffff1916827bffffffffffffffffffffffffffffffffffffffffffffffffffffffff191614806102e857506102e782610f64565b5b9050919050565b816000806101000a81548173ffffffffffffffffffffffffffffffffffffffff021916908373ffffffffffffffffffffffffffffffffffffffff16021790555080600160006101000a81548173ffffffffffffffffffffffffffffffffffffffff021916908373ffffffffffffffffffffffffffffffffffffffff1602179055505050565b8082600080600260008573ffffffffffffffffffffffffffffffffffffffff1673ffffffffffffffffffffffffffffffffffffffff16815260200190815260200160002080548060200260200160405190810160405280929190818152602001828054801561040257602002820191906000526020600020905b8154815260200190600101908083116103ee575b5050505050905060005b81518110156104b9576000828281518110610450577f4e487b7100000000000000000000000000000000000000000000000000000000600052603260045260246000fd5b602002602001015190508085141561046757600193505b836104a7576040517f08c379a000000000000000000000000000000000000000000000000000000000815260040161049e90611712565b60405180910390fd5b50806104b2906119bf565b905061040c565b506000600360008773ffffffffffffffffffffffffffffffffffffffff1673ffffffffffffffffffffffffffffffffffffffff1681526020019081526020016000206000888152602001908152602001600020604051806080016040529081600082015481526020016001820160009054906101000a900473ffffffffffffffffffffffffffffffffffffffff1673ffffffffffffffffffffffffffffffffffffffff1673ffffffffffffffffffffffffffffffffffffffff16815260200160028201548152602001600382015481525050905060008160600151905060008060009054906101000a900473ffffffffffffffffffffffffffffffffffffffff1673ffffffffffffffffffffffffffffffffffffffff1663c7bd6c318a6040518263ffffffff1660e01b81526004016105f29190611752565b60206040518083038186803b15801561060a57600080fd5b505afa15801561061e573d6000803e3d6000fd5b505050506040513d601f19601f8201168201806040525081019061064291906113b4565b90506000836040015190506000610e108261065d91906118cd565b90506000600a8361066e91906118cd565b905042828661067d9190611877565b106106bd576040517f08c379a00000000000000000000000000000000000000000000000000000000081526004016106b4906116d2565b60405180910390fd5b60008054906101000a900473ffffffffffffffffffffffffffffffffffffffff1673ffffffffffffffffffffffffffffffffffffffff16639c1cb8bf8d836040518363ffffffff1660e01b8152600401610718929190611804565b600060405180830381600087803b15801561073257600080fd5b505af1158015610746573d6000803e3d6000fd5b5050505060008054906101000a900473ffffffffffffffffffffffffffffffffffffffff1673ffffffffffffffffffffffffffffffffffffffff166382e408138d60006040518363ffffffff1660e01b81526004016107a69291906117b2565b600060405180830381600087803b1580156107c057600080fd5b505af11580156107d4573d6000803e3d6000fd5b505050506107e28c8c610fce565b505050505050505050505050565b6003602052816000526040600020602052806000526040600020600091509150508060000154908060010160009054906101000a900473ffffffffffffffffffffffffffffffffffffffff16908060020154908060030154905084565b600098975050505050505050565b60008060009054906101000a900473ffffffffffffffffffffffffffffffffffffffff1673ffffffffffffffffffffffffffffffffffffffff1663c7bd6c31856040518263ffffffff1660e01b81526004016108b79190611752565b60206040518083038186803b1580156108cf57600080fd5b505afa1580156108e3573d6000803e3d6000fd5b505050506040513d601f19601f8201168201806040525081019061090791906113b4565b905060008060009054906101000a900473ffffffffffffffffffffffffffffffffffffffff1673ffffffffffffffffffffffffffffffffffffffff166360e2f2fb866040518263ffffffff1660e01b81526004016109659190611752565b60206040518083038186803b15801561097d57600080fd5b505afa158015610991573d6000803e3d6000fd5b505050506040513d601f19601f820116820180604052508101906109b591906113b4565b9050600081146109fa576040517f08c379a00000000000000000000000000000000000000000000000000000000081526004016109f190611732565b60405180910390fd5b606482600a85610a0a91906118cd565b610a149190611877565b1115610a55576040517f08c379a0000000000000000000000000000000000000000000000000000000008152600401610a4c906116f2565b60405180910390fd5b655af3107a400083610a6791906118cd565b341015610aa9576040517f08c379a0000000000000000000000000000000000000000000000000000000008152600401610aa0906116b2565b60405180910390fd5b60405180608001604052808681526020018573ffffffffffffffffffffffffffffffffffffffff16815260200184815260200142815250600360008673ffffffffffffffffffffffffffffffffffffffff1673ffffffffffffffffffffffffffffffffffffffff16815260200190815260200160002060008781526020019081526020016000206000820151816000015560208201518160010160006101000a81548173ffffffffffffffffffffffffffffffffffffffff021916908373ffffffffffffffffffffffffffffffffffffffff1602179055506040820151816002015560608201518160030155905050600260008573ffffffffffffffffffffffffffffffffffffffff1673ffffffffffffffffffffffffffffffffffffffff16815260200190815260200160002085908060018154018082558091505060019003906000526020600020016000909190919091505560008054906101000a900473ffffffffffffffffffffffffffffffffffffffff1673ffffffffffffffffffffffffffffffffffffffff166382e408138660026040518363ffffffff1660e01b8152600401610c5a9291906117db565b600060405180830381600087803b158015610c7457600080fd5b505af1158015610c88573d6000803e3d6000fd5b505050505050505050565b60026020528160005260406000208181548110610caf57600080fd5b90600052602060002001600091509150505481565b60009695505050505050565b60606000600260008473ffffffffffffffffffffffffffffffffffffffff1673ffffffffffffffffffffffffffffffffffffffff168152602001908152602001600020805480602002602001604051908101604052809291908181526020018280548015610d5d57602002820191906000526020600020905b815481526020019060010190808311610d49575b505050505090506000815167ffffffffffffffff811115610da7577f4e487b7100000000000000000000000000000000000000000000000000000000600052604160045260246000fd5b604051908082528060200260200182016040528015610de057816020015b610dcd611066565b815260200190600190039081610dc55790505b50905060005b8251811015610f59576000838281518110610e2a577f4e487b7100000000000000000000000000000000000000000000000000000000600052603260045260246000fd5b60200260200101519050600360008773ffffffffffffffffffffffffffffffffffffffff1673ffffffffffffffffffffffffffffffffffffffff1681526020019081526020016000206000828152602001908152602001600020604051806080016040529081600082015481526020016001820160009054906101000a900473ffffffffffffffffffffffffffffffffffffffff1673ffffffffffffffffffffffffffffffffffffffff1673ffffffffffffffffffffffffffffffffffffffff16815260200160028201548152602001600382015481525050838381518110610f3c577f4e487b7100000000000000000000000000000000000000000000000000000000600052603260045260246000fd5b60200260200101819052505080610f52906119bf565b9050610de6565b508092505050919050565b60007f01ffc9a7000000000000000000000000000000000000000000000000000000007bffffffffffffffffffffffffffffffffffffffffffffffffffffffff1916827bffffffffffffffffffffffffffffffffffffffffffffffffffffffff1916149050919050565b6000600360008373ffffffffffffffffffffffffffffffffffffffff1673ffffffffffffffffffffffffffffffffffffffff1681526020019081526020016000206000848152602001908152602001600020905080600001600090558060010160006101000a81549073ffffffffffffffffffffffffffffffffffffffff021916905580600201600090558060030160009055505050565b604051806080016040528060008152602001600073ffffffffffffffffffffffffffffffffffffffff16815260200160008152602001600081525090565b6000813590506110b381611b2a565b92915050565b60008083601f8401126110cb57600080fd5b8235905067ffffffffffffffff8111156110e457600080fd5b6020830191508360208202830111156110fc57600080fd5b9250929050565b60008135905061111281611b41565b92915050565b60008083601f84011261112a57600080fd5b8235905067ffffffffffffffff81111561114357600080fd5b60208301915083600182028301111561115b57600080fd5b9250929050565b60008135905061117181611b58565b92915050565b60008151905061118681611b58565b92915050565b60006020828403121561119e57600080fd5b60006111ac848285016110a4565b91505092915050565b600080604083850312156111c857600080fd5b60006111d6858286016110a4565b92505060206111e7858286016110a4565b9150509250929050565b60008060008060008060008060a0898b03121561120d57600080fd5b600061121b8b828c016110a4565b985050602061122c8b828c016110a4565b975050604089013567ffffffffffffffff81111561124957600080fd5b6112558b828c016110b9565b9650965050606089013567ffffffffffffffff81111561127457600080fd5b6112808b828c016110b9565b9450945050608089013567ffffffffffffffff81111561129f57600080fd5b6112ab8b828c01611118565b92509250509295985092959890939650565b60008060008060008060a087890312156112d657600080fd5b60006112e489828a016110a4565b96505060206112f589828a016110a4565b955050604061130689828a01611162565b945050606061131789828a01611162565b935050608087013567ffffffffffffffff81111561133457600080fd5b61134089828a01611118565b92509250509295509295509295565b6000806040838503121561136257600080fd5b6000611370858286016110a4565b925050602061138185828601611162565b9150509250929050565b60006020828403121561139d57600080fd5b60006113ab84828501611103565b91505092915050565b6000602082840312156113c657600080fd5b60006113d484828501611177565b91505092915050565b600080604083850312156113f057600080fd5b60006113fe85828601611162565b925050602061140f858286016110a4565b9150509250929050565b60008060006060848603121561142e57600080fd5b600061143c86828701611162565b935050602061144d868287016110a4565b925050604061145e86828701611162565b9150509250925092565b600061147483836115e7565b60808301905092915050565b61148981611927565b82525050565b61149881611927565b82525050565b60006114a98261183d565b6114b38185611855565b93506114be8361182d565b8060005b838110156114ef5781516114d68882611468565b97506114e183611848565b9250506001810190506114c2565b5085935050505092915050565b61150581611939565b82525050565b61151481611945565b82525050565b6115238161199b565b82525050565b611532816119ad565b82525050565b6000611545601083611866565b915061155082611a37565b602082019050919050565b6000611568601a83611866565b915061157382611a60565b602082019050919050565b600061158b601383611866565b915061159682611a89565b602082019050919050565b60006115ae601883611866565b91506115b982611ab2565b602082019050919050565b60006115d1602783611866565b91506115dc82611adb565b604082019050919050565b6080820160008201516115fd600085018261163c565b5060208201516116106020850182611480565b506040820151611623604085018261163c565b506060820151611636606085018261163c565b50505050565b61164581611991565b82525050565b61165481611991565b82525050565b60006020820190508181036000830152611674818461149e565b905092915050565b600060208201905061169160008301846114fc565b92915050565b60006020820190506116ac600083018461150b565b92915050565b600060208201905081810360008301526116cb81611538565b9050919050565b600060208201905081810360008301526116eb8161155b565b9050919050565b6000602082019050818103600083015261170b8161157e565b9050919050565b6000602082019050818103600083015261172b816115a1565b9050919050565b6000602082019050818103600083015261174b816115c4565b9050919050565b6000602082019050611767600083018461164b565b92915050565b6000608082019050611782600083018761164b565b61178f602083018661148f565b61179c604083018561164b565b6117a9606083018461164b565b95945050505050565b60006040820190506117c7600083018561164b565b6117d4602083018461151a565b9392505050565b60006040820190506117f0600083018561164b565b6117fd6020830184611529565b9392505050565b6000604082019050611819600083018561164b565b611826602083018461164b565b9392505050565b6000819050602082019050919050565b600081519050919050565b6000602082019050919050565b600082825260208201905092915050565b600082825260208201905092915050565b600061188282611991565b915061188d83611991565b9250827fffffffffffffffffffffffffffffffffffffffffffffffffffffffffffffffff038211156118c2576118c1611a08565b5b828201905092915050565b60006118d882611991565b91506118e383611991565b9250817fffffffffffffffffffffffffffffffffffffffffffffffffffffffffffffffff048311821515161561191c5761191b611a08565b5b828202905092915050565b600061193282611971565b9050919050565b60008115159050919050565b60007fffffffff0000000000000000000000000000000000000000000000000000000082169050919050565b600073ffffffffffffffffffffffffffffffffffffffff82169050919050565b6000819050919050565b60006119a682611991565b9050919050565b60006119b882611991565b9050919050565b60006119ca82611991565b91507fffffffffffffffffffffffffffffffffffffffffffffffffffffffffffffffff8214156119fd576119fc611a08565b5b600182019050919050565b7f4e487b7100000000000000000000000000000000000000000000000000000000600052601160045260246000fd5b7f57726f6e672076616c75652073656e7400000000000000000000000000000000600082015250565b7f596f7572206d6f6e73746572207374696c6c2072657374696e67000000000000600082015250565b7f52656475636520746865206475726174696f6e00000000000000000000000000600082015250565b7f596f7572206d6f6e73746572206973206e6f7420686572650000000000000000600082015250565b7f596f7572206d6f6e73746572207374696c6c20776f726b696e67206f6e20736f60008201527f6d657468696e6700000000000000000000000000000000000000000000000000602082015250565b611b3381611927565b8114611b3e57600080fd5b50565b611b4a81611945565b8114611b5557600080fd5b50565b611b6181611991565b8114611b6c57600080fd5b5056fea26469706673582212207cf130fe8ae78f748063b75f97e2ada5c5baa3fc22a531bc9c9888ff405266c164736f6c63430008040033",
  "linkReferences": {},
  "deployedLinkReferences": {}
}