{
  "_format": "hh-sol-artifact-1",
  "contractName": "Smelter",
  "sourceName": "contracts/Smelter.sol",
  "abi": [
    {
      "inputs": [
        {
          "internalType": "bool",
          "name": "_status",
          "type": "bool"
        }
      ],
      "name": "IsSmelting",
      "type": "error"
    },
    {
      "inputs": [
        {
          "internalType": "bool",
          "name": "_status",
          "type": "bool"
        }
      ],
      "name": "NotSmelting",
      "type": "error"
    },
    {
      "inputs": [
        {
          "internalType": "uint256",
          "name": "_elapsedTime",
          "type": "uint256"
        }
      ],
      "name": "NotValidToFinishSmelt",
      "type": "error"
    },
    {
      "inputs": [
        {
          "internalType": "uint256",
          "name": "_balance",
          "type": "uint256"
        },
        {
          "internalType": "uint256",
          "name": "_quantity",
          "type": "uint256"
        }
      ],
      "name": "NotValidToSmelt",
      "type": "error"
    },
    {
      "anonymous": false,
      "inputs": [
        {
          "indexed": true,
          "internalType": "address",
          "name": "previousOwner",
          "type": "address"
        },
        {
          "indexed": true,
          "internalType": "address",
          "name": "newOwner",
          "type": "address"
        }
      ],
      "name": "OwnershipTransferred",
      "type": "event"
    },
    {
      "anonymous": false,
      "inputs": [
        {
          "indexed": false,
          "internalType": "uint256",
          "name": "_quantity",
          "type": "uint256"
        },
        {
          "indexed": false,
          "internalType": "uint256",
          "name": "_startTime",
          "type": "uint256"
        }
      ],
      "name": "Smelt",
      "type": "event"
    },
    {
      "inputs": [],
      "name": "finishSmelting",
      "outputs": [],
      "stateMutability": "nonpayable",
      "type": "function"
    },
    {
      "inputs": [],
      "name": "itemInterface",
      "outputs": [
        {
          "internalType": "contract IERC1155",
          "name": "",
          "type": "address"
        }
      ],
      "stateMutability": "view",
      "type": "function"
    },
    {
      "inputs": [
        {
          "internalType": "address",
          "name": "",
          "type": "address"
        },
        {
          "internalType": "address",
          "name": "",
          "type": "address"
        },
        {
          "internalType": "uint256[]",
          "name": "",
          "type": "uint256[]"
        },
        {
          "internalType": "uint256[]",
          "name": "",
          "type": "uint256[]"
        },
        {
          "internalType": "bytes",
          "name": "",
          "type": "bytes"
        }
      ],
      "name": "onERC1155BatchReceived",
      "outputs": [
        {
          "internalType": "bytes4",
          "name": "",
          "type": "bytes4"
        }
      ],
      "stateMutability": "nonpayable",
      "type": "function"
    },
    {
      "inputs": [
        {
          "internalType": "address",
          "name": "",
          "type": "address"
        },
        {
          "internalType": "address",
          "name": "",
          "type": "address"
        },
        {
          "internalType": "uint256",
          "name": "",
          "type": "uint256"
        },
        {
          "internalType": "uint256",
          "name": "",
          "type": "uint256"
        },
        {
          "internalType": "bytes",
          "name": "",
          "type": "bytes"
        }
      ],
      "name": "onERC1155Received",
      "outputs": [
        {
          "internalType": "bytes4",
          "name": "",
          "type": "bytes4"
        }
      ],
      "stateMutability": "nonpayable",
      "type": "function"
    },
    {
      "inputs": [],
      "name": "owner",
      "outputs": [
        {
          "internalType": "address",
          "name": "",
          "type": "address"
        }
      ],
      "stateMutability": "view",
      "type": "function"
    },
    {
      "inputs": [],
      "name": "renounceOwnership",
      "outputs": [],
      "stateMutability": "nonpayable",
      "type": "function"
    },
    {
      "inputs": [
        {
          "internalType": "address",
          "name": "_itemsContract",
          "type": "address"
        },
        {
          "internalType": "address",
          "name": "_monsterTokenContract",
          "type": "address"
        },
        {
          "internalType": "address",
          "name": "_usersDataContract",
          "type": "address"
        }
      ],
      "name": "setInterface",
      "outputs": [],
      "stateMutability": "nonpayable",
      "type": "function"
    },
    {
      "inputs": [
        {
          "internalType": "uint256",
          "name": "_quantity",
          "type": "uint256"
        }
      ],
      "name": "smelt",
      "outputs": [],
      "stateMutability": "nonpayable",
      "type": "function"
    },
    {
      "inputs": [
        {
          "internalType": "address",
          "name": "",
          "type": "address"
        }
      ],
      "name": "smeltDetails",
      "outputs": [
        {
          "internalType": "uint16",
          "name": "quantity",
          "type": "uint16"
        },
        {
          "internalType": "uint64",
          "name": "startTime",
          "type": "uint64"
        }
      ],
      "stateMutability": "view",
      "type": "function"
    },
    {
      "inputs": [
        {
          "internalType": "address",
          "name": "",
          "type": "address"
        }
      ],
      "name": "smeltingStatus",
      "outputs": [
        {
          "internalType": "bool",
          "name": "",
          "type": "bool"
        }
      ],
      "stateMutability": "view",
      "type": "function"
    },
    {
      "inputs": [
        {
          "internalType": "bytes4",
          "name": "interfaceId",
          "type": "bytes4"
        }
      ],
      "name": "supportsInterface",
      "outputs": [
        {
          "internalType": "bool",
          "name": "",
          "type": "bool"
        }
      ],
      "stateMutability": "view",
      "type": "function"
    },
    {
      "inputs": [],
      "name": "tokenInterface",
      "outputs": [
        {
          "internalType": "contract IMonsterToken",
          "name": "",
          "type": "address"
        }
      ],
      "stateMutability": "view",
      "type": "function"
    },
    {
      "inputs": [
        {
          "internalType": "address",
          "name": "newOwner",
          "type": "address"
        }
      ],
      "name": "transferOwnership",
      "outputs": [],
      "stateMutability": "nonpayable",
      "type": "function"
    },
    {
      "inputs": [],
      "name": "usersDataInterface",
      "outputs": [
        {
          "internalType": "contract IUsersData",
          "name": "",
          "type": "address"
        }
      ],
      "stateMutability": "view",
      "type": "function"
    }
  ],
  "bytecode": "0x608060405234801561001057600080fd5b5061002d61002261003260201b60201c565b61003a60201b60201c565b6100fe565b600033905090565b60008060009054906101000a900473ffffffffffffffffffffffffffffffffffffffff169050816000806101000a81548173ffffffffffffffffffffffffffffffffffffffff021916908373ffffffffffffffffffffffffffffffffffffffff1602179055508173ffffffffffffffffffffffffffffffffffffffff168173ffffffffffffffffffffffffffffffffffffffff167f8be0079c531659141344cd1fd0a4f28419497f9722a3daafe3b4186f6b6457e060405160405180910390a35050565b6118fc8061010d6000396000f3fe608060405234801561001057600080fd5b50600436106100ea5760003560e01c80638da5cb5b1161008c578063bc197c8111610066578063bc197c8114610226578063f23a6e6114610256578063f2fde38b14610286578063f343d683146102a2576100ea565b80638da5cb5b146101bc578063accd55a1146101da578063ae9975e0146101f6576100ea565b80633432a7b9116100c85780633432a7b91461015957806336acabd01461018a578063715018a6146101945780637fb2db161461019e576100ea565b806301ffc9a7146100ef5780631863ce3e1461011f578063219df1cc1461013d575b600080fd5b6101096004803603810190610104919061117c565b6102c0565b60405161011691906113bb565b60405180910390f35b61012761033a565b60405161013491906113f1565b60405180910390f35b610157600480360381019061015291906111a5565b610360565b005b610173600480360381019061016e9190610fb6565b61070c565b604051610181929190611482565b60405180910390f35b610192610752565b005b61019c6109ab565b005b6101a6610a33565b6040516101b39190611427565b60405180910390f35b6101c4610a59565b6040516101d191906112f6565b60405180910390f35b6101f460048036038101906101ef9190610fdf565b610a82565b005b610210600480360381019061020b9190610fb6565b610bc6565b60405161021d91906113bb565b60405180910390f35b610240600480360381019061023b919061102e565b610be6565b60405161024d91906113d6565b60405180910390f35b610270600480360381019061026b91906110ed565b610bfb565b60405161027d91906113d6565b60405180910390f35b6102a0600480360381019061029b9190610fb6565b610c10565b005b6102aa610d08565b6040516102b7919061140c565b60405180910390f35b60007f4e2312e0000000000000000000000000000000000000000000000000000000007bffffffffffffffffffffffffffffffffffffffffffffffffffffffff1916827bffffffffffffffffffffffffffffffffffffffffffffffffffffffff19161480610333575061033282610d2e565b5b9050919050565b600160009054906101000a900473ffffffffffffffffffffffffffffffffffffffff1681565b6000600560003373ffffffffffffffffffffffffffffffffffffffff1673ffffffffffffffffffffffffffffffffffffffff16815260200190815260200160002060009054906101000a900460ff16905080156103f457806040517f9ef036860000000000000000000000000000000000000000000000000000000081526004016103eb91906113bb565b60405180910390fd5b600360009054906101000a900473ffffffffffffffffffffffffffffffffffffffff1673ffffffffffffffffffffffffffffffffffffffff1663f5d8bcb4336040518263ffffffff1660e01b815260040161044f91906112f6565b60006040518083038186803b15801561046757600080fd5b505afa15801561047b573d6000803e3d6000fd5b505050506000600160009054906101000a900473ffffffffffffffffffffffffffffffffffffffff1673ffffffffffffffffffffffffffffffffffffffff1662fdd58e3360046040518363ffffffff1660e01b81526004016104de929190611369565b60206040518083038186803b1580156104f657600080fd5b505afa15801561050a573d6000803e3d6000fd5b505050506040513d601f19601f8201168201806040525081019061052e91906111ce565b9050600081148061053f5750606483115b156105835780836040517fc92e29e500000000000000000000000000000000000000000000000000000000815260040161057a9291906114c6565b60405180910390fd5b600160009054906101000a900473ffffffffffffffffffffffffffffffffffffffff1673ffffffffffffffffffffffffffffffffffffffff1663f242432a33306004876040518563ffffffff1660e01b81526004016105e59493929190611311565b600060405180830381600087803b1580156105ff57600080fd5b505af1158015610613573d6000803e3d6000fd5b5050505060405180604001604052808461ffff1681526020014267ffffffffffffffff16815250600460003373ffffffffffffffffffffffffffffffffffffffff1673ffffffffffffffffffffffffffffffffffffffff16815260200190815260200160002060008201518160000160006101000a81548161ffff021916908361ffff16021790555060208201518160000160026101000a81548167ffffffffffffffff021916908367ffffffffffffffff1602179055509050507f3c79feef5cba14071771b47ff337e1795b39774b9ee930497042f4469bb7fc8683426040516106ff9291906114c6565b60405180910390a1505050565b60046020528060005260406000206000915090508060000160009054906101000a900461ffff16908060000160029054906101000a900467ffffffffffffffff16905082565b6000600560003373ffffffffffffffffffffffffffffffffffffffff1673ffffffffffffffffffffffffffffffffffffffff16815260200190815260200160002060009054906101000a900460ff169050806107e557806040517f3463c1030000000000000000000000000000000000000000000000000000000081526004016107dc91906113bb565b60405180910390fd5b600080600460003373ffffffffffffffffffffffffffffffffffffffff1673ffffffffffffffffffffffffffffffffffffffff16815260200190815260200160002060000160009054906101000a900461ffff16600460003373ffffffffffffffffffffffffffffffffffffffff1673ffffffffffffffffffffffffffffffffffffffff16815260200190815260200160002060000160029054906101000a900467ffffffffffffffff1667ffffffffffffffff16915061ffff1691506000610384836108b291906115e9565b826108bd9190611593565b905060006005846108ce91906115e9565b90504282111561091557816040517fdcd07b9f00000000000000000000000000000000000000000000000000000000815260040161090c91906114ab565b60405180910390fd5b600260009054906101000a900473ffffffffffffffffffffffffffffffffffffffff1673ffffffffffffffffffffffffffffffffffffffff166340c10f1933836040518363ffffffff1660e01b8152600401610972929190611392565b600060405180830381600087803b15801561098c57600080fd5b505af11580156109a0573d6000803e3d6000fd5b505050505050505050565b6109b3610d98565b73ffffffffffffffffffffffffffffffffffffffff166109d1610a59565b73ffffffffffffffffffffffffffffffffffffffff1614610a27576040517f08c379a0000000000000000000000000000000000000000000000000000000008152600401610a1e90611462565b60405180910390fd5b610a316000610da0565b565b600360009054906101000a900473ffffffffffffffffffffffffffffffffffffffff1681565b60008060009054906101000a900473ffffffffffffffffffffffffffffffffffffffff16905090565b610a8a610d98565b73ffffffffffffffffffffffffffffffffffffffff16610aa8610a59565b73ffffffffffffffffffffffffffffffffffffffff1614610afe576040517f08c379a0000000000000000000000000000000000000000000000000000000008152600401610af590611462565b60405180910390fd5b82600160006101000a81548173ffffffffffffffffffffffffffffffffffffffff021916908373ffffffffffffffffffffffffffffffffffffffff16021790555081600260006101000a81548173ffffffffffffffffffffffffffffffffffffffff021916908373ffffffffffffffffffffffffffffffffffffffff16021790555080600360006101000a81548173ffffffffffffffffffffffffffffffffffffffff021916908373ffffffffffffffffffffffffffffffffffffffff160217905550505050565b60056020528060005260406000206000915054906101000a900460ff1681565b600063bc197c8160e01b905095945050505050565b600063f23a6e6160e01b905095945050505050565b610c18610d98565b73ffffffffffffffffffffffffffffffffffffffff16610c36610a59565b73ffffffffffffffffffffffffffffffffffffffff1614610c8c576040517f08c379a0000000000000000000000000000000000000000000000000000000008152600401610c8390611462565b60405180910390fd5b600073ffffffffffffffffffffffffffffffffffffffff168173ffffffffffffffffffffffffffffffffffffffff161415610cfc576040517f08c379a0000000000000000000000000000000000000000000000000000000008152600401610cf390611442565b60405180910390fd5b610d0581610da0565b50565b600260009054906101000a900473ffffffffffffffffffffffffffffffffffffffff1681565b60007f01ffc9a7000000000000000000000000000000000000000000000000000000007bffffffffffffffffffffffffffffffffffffffffffffffffffffffff1916827bffffffffffffffffffffffffffffffffffffffffffffffffffffffff1916149050919050565b600033905090565b60008060009054906101000a900473ffffffffffffffffffffffffffffffffffffffff169050816000806101000a81548173ffffffffffffffffffffffffffffffffffffffff021916908373ffffffffffffffffffffffffffffffffffffffff1602179055508173ffffffffffffffffffffffffffffffffffffffff168173ffffffffffffffffffffffffffffffffffffffff167f8be0079c531659141344cd1fd0a4f28419497f9722a3daafe3b4186f6b6457e060405160405180910390a35050565b6000610e77610e7284611514565b6114ef565b90508083825260208201905082856020860282011115610e9657600080fd5b60005b85811015610ec65781610eac8882610f8c565b845260208401935060208301925050600181019050610e99565b5050509392505050565b6000610ee3610ede84611540565b6114ef565b905082815260208101848484011115610efb57600080fd5b610f06848285611757565b509392505050565b600081359050610f1d81611881565b92915050565b600082601f830112610f3457600080fd5b8135610f44848260208601610e64565b91505092915050565b600081359050610f5c81611898565b92915050565b600082601f830112610f7357600080fd5b8135610f83848260208601610ed0565b91505092915050565b600081359050610f9b816118af565b92915050565b600081519050610fb0816118af565b92915050565b600060208284031215610fc857600080fd5b6000610fd684828501610f0e565b91505092915050565b600080600060608486031215610ff457600080fd5b600061100286828701610f0e565b935050602061101386828701610f0e565b925050604061102486828701610f0e565b9150509250925092565b600080600080600060a0868803121561104657600080fd5b600061105488828901610f0e565b955050602061106588828901610f0e565b945050604086013567ffffffffffffffff81111561108257600080fd5b61108e88828901610f23565b935050606086013567ffffffffffffffff8111156110ab57600080fd5b6110b788828901610f23565b925050608086013567ffffffffffffffff8111156110d457600080fd5b6110e088828901610f62565b9150509295509295909350565b600080600080600060a0868803121561110557600080fd5b600061111388828901610f0e565b955050602061112488828901610f0e565b945050604061113588828901610f8c565b935050606061114688828901610f8c565b925050608086013567ffffffffffffffff81111561116357600080fd5b61116f88828901610f62565b9150509295509295909350565b60006020828403121561118e57600080fd5b600061119c84828501610f4d565b91505092915050565b6000602082840312156111b757600080fd5b60006111c584828501610f8c565b91505092915050565b6000602082840312156111e057600080fd5b60006111ee84828501610fa1565b91505092915050565b61120081611643565b82525050565b61120f81611655565b82525050565b61121e81611661565b82525050565b61122d816116d9565b82525050565b61123c816116fd565b82525050565b61124b81611721565b82525050565b61125a81611745565b82525050565b600061126d602683611582565b915061127882611806565b604082019050919050565b6000611290602083611582565b915061129b82611855565b602082019050919050565b60006112b3600083611571565b91506112be8261187e565b600082019050919050565b6112d28161168d565b82525050565b6112e1816116bb565b82525050565b6112f0816116c5565b82525050565b600060208201905061130b60008301846111f7565b92915050565b600060a08201905061132660008301876111f7565b61133360208301866111f7565b6113406040830185611251565b61134d60608301846112d8565b818103608083015261135e816112a6565b905095945050505050565b600060408201905061137e60008301856111f7565b61138b6020830184611251565b9392505050565b60006040820190506113a760008301856111f7565b6113b460208301846112d8565b9392505050565b60006020820190506113d06000830184611206565b92915050565b60006020820190506113eb6000830184611215565b92915050565b60006020820190506114066000830184611224565b92915050565b60006020820190506114216000830184611233565b92915050565b600060208201905061143c6000830184611242565b92915050565b6000602082019050818103600083015261145b81611260565b9050919050565b6000602082019050818103600083015261147b81611283565b9050919050565b600060408201905061149760008301856112c9565b6114a460208301846112e7565b9392505050565b60006020820190506114c060008301846112d8565b92915050565b60006040820190506114db60008301856112d8565b6114e860208301846112d8565b9392505050565b60006114f961150a565b90506115058282611766565b919050565b6000604051905090565b600067ffffffffffffffff82111561152f5761152e6117c6565b5b602082029050602081019050919050565b600067ffffffffffffffff82111561155b5761155a6117c6565b5b611564826117f5565b9050602081019050919050565b600082825260208201905092915050565b600082825260208201905092915050565b600061159e826116bb565b91506115a9836116bb565b9250827fffffffffffffffffffffffffffffffffffffffffffffffffffffffffffffffff038211156115de576115dd611797565b5b828201905092915050565b60006115f4826116bb565b91506115ff836116bb565b9250817fffffffffffffffffffffffffffffffffffffffffffffffffffffffffffffffff048311821515161561163857611637611797565b5b828202905092915050565b600061164e8261169b565b9050919050565b60008115159050919050565b60007fffffffff0000000000000000000000000000000000000000000000000000000082169050919050565b600061ffff82169050919050565b600073ffffffffffffffffffffffffffffffffffffffff82169050919050565b6000819050919050565b600067ffffffffffffffff82169050919050565b60006116e4826116eb565b9050919050565b60006116f68261169b565b9050919050565b60006117088261170f565b9050919050565b600061171a8261169b565b9050919050565b600061172c82611733565b9050919050565b600061173e8261169b565b9050919050565b6000611750826116bb565b9050919050565b82818337600083830152505050565b61176f826117f5565b810181811067ffffffffffffffff8211171561178e5761178d6117c6565b5b80604052505050565b7f4e487b7100000000000000000000000000000000000000000000000000000000600052601160045260246000fd5b7f4e487b7100000000000000000000000000000000000000000000000000000000600052604160045260246000fd5b6000601f19601f8301169050919050565b7f4f776e61626c653a206e6577206f776e657220697320746865207a65726f206160008201527f6464726573730000000000000000000000000000000000000000000000000000602082015250565b7f4f776e61626c653a2063616c6c6572206973206e6f7420746865206f776e6572600082015250565b50565b61188a81611643565b811461189557600080fd5b50565b6118a181611661565b81146118ac57600080fd5b50565b6118b8816116bb565b81146118c357600080fd5b5056fea2646970667358221220a710c7f3f8ab730c5119a0eb67e36dd96d27433b5138d26db67ebaa14d7eed7464736f6c63430008040033",
  "linkReferences": {},
  "deployedLinkReferences": {}
}