{
  "_format": "hh-sol-artifact-1",
  "contractName": "Trader",
  "sourceName": "contracts/Trader.sol",
  "abi": [
    {
      "inputs": [],
      "stateMutability": "nonpayable",
      "type": "constructor"
    },
    {
      "inputs": [
        {
          "internalType": "uint256[]",
          "name": "_itemId",
          "type": "uint256[]"
        },
        {
          "internalType": "uint256[]",
          "name": "_limit",
          "type": "uint256[]"
        },
        {
          "internalType": "uint256[]",
          "name": "_price",
          "type": "uint256[]"
        }
      ],
      "name": "addItemsToShop",
      "outputs": [],
      "stateMutability": "nonpayable",
      "type": "function"
    },
    {
      "inputs": [
        {
          "internalType": "uint256",
          "name": "_itemTrade",
          "type": "uint256"
        },
        {
          "internalType": "uint256",
          "name": "_quantityTrade",
          "type": "uint256"
        },
        {
          "internalType": "uint256",
          "name": "_itemReceived",
          "type": "uint256"
        },
        {
          "internalType": "uint256",
          "name": "_quantityReceived",
          "type": "uint256"
        },
        {
          "internalType": "uint256",
          "name": "_limit",
          "type": "uint256"
        }
      ],
      "name": "addTradeToTrader",
      "outputs": [],
      "stateMutability": "nonpayable",
      "type": "function"
    },
    {
      "inputs": [
        {
          "internalType": "uint256[]",
          "name": "_item",
          "type": "uint256[]"
        },
        {
          "internalType": "uint256[]",
          "name": "_quantity",
          "type": "uint256[]"
        },
        {
          "internalType": "address",
          "name": "_user",
          "type": "address"
        }
      ],
      "name": "buyItems",
      "outputs": [],
      "stateMutability": "payable",
      "type": "function"
    },
    {
      "inputs": [
        {
          "internalType": "uint256",
          "name": "",
          "type": "uint256"
        }
      ],
      "name": "dailyShop",
      "outputs": [
        {
          "internalType": "uint256",
          "name": "",
          "type": "uint256"
        }
      ],
      "stateMutability": "view",
      "type": "function"
    },
    {
      "inputs": [
        {
          "internalType": "address",
          "name": "",
          "type": "address"
        }
      ],
      "name": "dailyShopTimeLimit",
      "outputs": [
        {
          "internalType": "uint256",
          "name": "",
          "type": "uint256"
        }
      ],
      "stateMutability": "view",
      "type": "function"
    },
    {
      "inputs": [
        {
          "internalType": "address",
          "name": "",
          "type": "address"
        }
      ],
      "name": "dailyTradeTimeLimit",
      "outputs": [
        {
          "internalType": "uint256",
          "name": "",
          "type": "uint256"
        }
      ],
      "stateMutability": "view",
      "type": "function"
    },
    {
      "inputs": [
        {
          "internalType": "uint256",
          "name": "",
          "type": "uint256"
        }
      ],
      "name": "dailyTrades",
      "outputs": [
        {
          "internalType": "uint256",
          "name": "",
          "type": "uint256"
        }
      ],
      "stateMutability": "view",
      "type": "function"
    },
    {
      "inputs": [],
      "name": "getDailyShop",
      "outputs": [
        {
          "components": [
            {
              "internalType": "uint256",
              "name": "item",
              "type": "uint256"
            },
            {
              "internalType": "uint256",
              "name": "quantity",
              "type": "uint256"
            },
            {
              "internalType": "uint256",
              "name": "price",
              "type": "uint256"
            }
          ],
          "internalType": "struct Trader.Shop[]",
          "name": "",
          "type": "tuple[]"
        }
      ],
      "stateMutability": "view",
      "type": "function"
    },
    {
      "inputs": [],
      "name": "getDailyTrades",
      "outputs": [
        {
          "components": [
            {
              "internalType": "uint256",
              "name": "itemTrade",
              "type": "uint256"
            },
            {
              "internalType": "uint256",
              "name": "quantityTrade",
              "type": "uint256"
            },
            {
              "internalType": "uint256",
              "name": "itemReceived",
              "type": "uint256"
            },
            {
              "internalType": "uint256",
              "name": "quantityReceived",
              "type": "uint256"
            },
            {
              "internalType": "uint256",
              "name": "limit",
              "type": "uint256"
            }
          ],
          "internalType": "struct Trader.Trade[]",
          "name": "",
          "type": "tuple[]"
        }
      ],
      "stateMutability": "view",
      "type": "function"
    },
    {
      "inputs": [
        {
          "internalType": "address",
          "name": "_user",
          "type": "address"
        }
      ],
      "name": "getShopDailyLimit",
      "outputs": [
        {
          "internalType": "uint256[]",
          "name": "shoplimit",
          "type": "uint256[]"
        }
      ],
      "stateMutability": "view",
      "type": "function"
    },
    {
      "inputs": [
        {
          "internalType": "address",
          "name": "_user",
          "type": "address"
        }
      ],
      "name": "getTradeDailyLimit",
      "outputs": [
        {
          "internalType": "uint256[]",
          "name": "tradeLimit",
          "type": "uint256[]"
        }
      ],
      "stateMutability": "view",
      "type": "function"
    },
    {
      "inputs": [],
      "name": "itemNftInterface",
      "outputs": [
        {
          "internalType": "contract IERC1155",
          "name": "",
          "type": "address"
        }
      ],
      "stateMutability": "view",
      "type": "function"
    },
    {
      "inputs": [
        {
          "internalType": "address",
          "name": "",
          "type": "address"
        },
        {
          "internalType": "address",
          "name": "",
          "type": "address"
        },
        {
          "internalType": "uint256[]",
          "name": "",
          "type": "uint256[]"
        },
        {
          "internalType": "uint256[]",
          "name": "",
          "type": "uint256[]"
        },
        {
          "internalType": "bytes",
          "name": "",
          "type": "bytes"
        }
      ],
      "name": "onERC1155BatchReceived",
      "outputs": [
        {
          "internalType": "bytes4",
          "name": "",
          "type": "bytes4"
        }
      ],
      "stateMutability": "nonpayable",
      "type": "function"
    },
    {
      "inputs": [
        {
          "internalType": "address",
          "name": "",
          "type": "address"
        },
        {
          "internalType": "address",
          "name": "",
          "type": "address"
        },
        {
          "internalType": "uint256",
          "name": "",
          "type": "uint256"
        },
        {
          "internalType": "uint256",
          "name": "",
          "type": "uint256"
        },
        {
          "internalType": "bytes",
          "name": "",
          "type": "bytes"
        }
      ],
      "name": "onERC1155Received",
      "outputs": [
        {
          "internalType": "bytes4",
          "name": "",
          "type": "bytes4"
        }
      ],
      "stateMutability": "nonpayable",
      "type": "function"
    },
    {
      "inputs": [
        {
          "internalType": "address",
          "name": "_items",
          "type": "address"
        },
        {
          "internalType": "address",
          "name": "_monsterGame",
          "type": "address"
        }
      ],
      "name": "setInterface",
      "outputs": [],
      "stateMutability": "nonpayable",
      "type": "function"
    },
    {
      "inputs": [
        {
          "internalType": "address",
          "name": "",
          "type": "address"
        },
        {
          "internalType": "uint256",
          "name": "",
          "type": "uint256"
        }
      ],
      "name": "shopDailyLimit",
      "outputs": [
        {
          "internalType": "uint256",
          "name": "",
          "type": "uint256"
        }
      ],
      "stateMutability": "view",
      "type": "function"
    },
    {
      "inputs": [
        {
          "internalType": "uint256",
          "name": "",
          "type": "uint256"
        }
      ],
      "name": "shopItems",
      "outputs": [
        {
          "internalType": "uint256",
          "name": "item",
          "type": "uint256"
        },
        {
          "internalType": "uint256",
          "name": "quantity",
          "type": "uint256"
        },
        {
          "internalType": "uint256",
          "name": "price",
          "type": "uint256"
        }
      ],
      "stateMutability": "view",
      "type": "function"
    },
    {
      "inputs": [
        {
          "internalType": "bytes4",
          "name": "interfaceId",
          "type": "bytes4"
        }
      ],
      "name": "supportsInterface",
      "outputs": [
        {
          "internalType": "bool",
          "name": "",
          "type": "bool"
        }
      ],
      "stateMutability": "view",
      "type": "function"
    },
    {
      "inputs": [
        {
          "internalType": "address",
          "name": "",
          "type": "address"
        },
        {
          "internalType": "uint256",
          "name": "",
          "type": "uint256"
        }
      ],
      "name": "tradeDailyLimit",
      "outputs": [
        {
          "internalType": "uint256",
          "name": "",
          "type": "uint256"
        }
      ],
      "stateMutability": "view",
      "type": "function"
    },
    {
      "inputs": [
        {
          "internalType": "uint256",
          "name": "_tradeId",
          "type": "uint256"
        },
        {
          "internalType": "uint256",
          "name": "_quantity",
          "type": "uint256"
        },
        {
          "internalType": "address",
          "name": "_user",
          "type": "address"
        }
      ],
      "name": "tradeItem",
      "outputs": [],
      "stateMutability": "nonpayable",
      "type": "function"
    },
    {
      "inputs": [
        {
          "internalType": "uint256",
          "name": "",
          "type": "uint256"
        }
      ],
      "name": "traderTrades",
      "outputs": [
        {
          "internalType": "uint256",
          "name": "itemTrade",
          "type": "uint256"
        },
        {
          "internalType": "uint256",
          "name": "quantityTrade",
          "type": "uint256"
        },
        {
          "internalType": "uint256",
          "name": "itemReceived",
          "type": "uint256"
        },
        {
          "internalType": "uint256",
          "name": "quantityReceived",
          "type": "uint256"
        },
        {
          "internalType": "uint256",
          "name": "limit",
          "type": "uint256"
        }
      ],
      "stateMutability": "view",
      "type": "function"
    },
    {
      "stateMutability": "payable",
      "type": "receive"
    }
  ],
  "bytecode": "0x608060405234801561001057600080fd5b5033600360006101000a81548173ffffffffffffffffffffffffffffffffffffffff021916908373ffffffffffffffffffffffffffffffffffffffff160217905550613107806100616000396000f3fe60806040526004361061012e5760003560e01c80635eef896a116100ab578063c3c1fb021161006f578063c3c1fb021461044e578063cc2fe6101461048b578063ea16efe8146104cc578063f0842232146104f5578063f0c86c5c14610532578063f23a6e611461055d57610135565b80635eef896a146103525780637cccd2a11461038f57806385c8383e146103ab5780639825a3f8146103e8578063bc197c811461041157610135565b80633460973b116100f25780633460973b14610243578063444a9e4a1461026e57806349443a05146102ab5780634dc7eb33146102e85780635ca9e3801461031357610135565b806301ffc9a71461013a578063020af4e91461017757806302d8f2b5146101b457806308ad4b0b146101dd5780631a8324e91461021a57610135565b3661013557005b600080fd5b34801561014657600080fd5b50610161600480360381019061015c91906124cb565b61059a565b60405161016e9190612ae0565b60405180910390f35b34801561018357600080fd5b5061019e600480360381019061019991906124f4565b610614565b6040516101ab9190612bb1565b60405180910390f35b3480156101c057600080fd5b506101db60048036038101906101d691906121d8565b610638565b005b3480156101e957600080fd5b5061020460048036038101906101ff91906121af565b610758565b6040516102119190612abe565b60405180910390f35b34801561022657600080fd5b50610241600480360381019061023c9190612546565b61088d565b005b34801561024f57600080fd5b50610258610bff565b6040516102659190612a9c565b60405180910390f35b34801561027a57600080fd5b50610295600480360381019061029091906124f4565b610d8c565b6040516102a29190612bb1565b60405180910390f35b3480156102b757600080fd5b506102d260048036038101906102cd9190612362565b610db0565b6040516102df9190612bb1565b60405180910390f35b3480156102f457600080fd5b506102fd610dd5565b60405161030a9190612a7a565b60405180910390f35b34801561031f57600080fd5b5061033a600480360381019061033591906124f4565b610f4e565b60405161034993929190612bcc565b60405180910390f35b34801561035e57600080fd5b50610379600480360381019061037491906121af565b610f78565b6040516103869190612abe565b60405180910390f35b6103a960048036038101906103a4919061239e565b6110fe565b005b3480156103b757600080fd5b506103d260048036038101906103cd9190612362565b611371565b6040516103df9190612bb1565b60405180910390f35b3480156103f457600080fd5b5061040f600480360381019061040a9190612427565b611396565b005b34801561041d57600080fd5b5061043860048036038101906104339190612214565b6115cb565b6040516104459190612afb565b60405180910390f35b34801561045a57600080fd5b50610475600480360381019061047091906121af565b6115e0565b6040516104829190612bb1565b60405180910390f35b34801561049757600080fd5b506104b260048036038101906104ad91906124f4565b6115f8565b6040516104c3959493929190612c03565b60405180910390f35b3480156104d857600080fd5b506104f360048036038101906104ee9190612595565b61162e565b005b34801561050157600080fd5b5061051c600480360381019061051791906121af565b611743565b6040516105299190612bb1565b60405180910390f35b34801561053e57600080fd5b5061054761175b565b6040516105549190612b16565b60405180910390f35b34801561056957600080fd5b50610584600480360381019061057f91906122d3565b611781565b6040516105919190612afb565b60405180910390f35b60007f4e2312e0000000000000000000000000000000000000000000000000000000007bffffffffffffffffffffffffffffffffffffffffffffffffffffffff1916827bffffffffffffffffffffffffffffffffffffffffffffffffffffffff1916148061060d575061060c82611796565b5b9050919050565b6005818154811061062457600080fd5b906000526020600020016000915090505481565b600360009054906101000a900473ffffffffffffffffffffffffffffffffffffffff1673ffffffffffffffffffffffffffffffffffffffff163373ffffffffffffffffffffffffffffffffffffffff161461069257600080fd5b816000806101000a81548173ffffffffffffffffffffffffffffffffffffffff021916908373ffffffffffffffffffffffffffffffffffffffff16021790555080600160006101000a81548173ffffffffffffffffffffffffffffffffffffffff021916908373ffffffffffffffffffffffffffffffffffffffff16021790555081600260006101000a81548173ffffffffffffffffffffffffffffffffffffffff021916908373ffffffffffffffffffffffffffffffffffffffff1602179055505050565b6060600060045467ffffffffffffffff81111561079e577f4e487b7100000000000000000000000000000000000000000000000000000000600052604160045260246000fd5b6040519080825280602002602001820160405280156107cc5781602001602082028036833780820191505090505b50905060005b60045481101561088357600a60008573ffffffffffffffffffffffffffffffffffffffff1673ffffffffffffffffffffffffffffffffffffffff168152602001908152602001600020600082815260200190815260200160002054828281518110610866577f4e487b7100000000000000000000000000000000000000000000000000000000600052603260045260246000fd5b6020026020010181815250508061087c90612f2d565b90506107d2565b5080915050919050565b6000600760008581526020019081526020016000206040518060a001604052908160008201548152602001600182015481526020016002820154815260200160038201548152602001600482015481525050905060008382602001516108f39190612dfb565b905060008483606001516109079190612dfb565b90506000600a60008673ffffffffffffffffffffffffffffffffffffffff1673ffffffffffffffffffffffffffffffffffffffff168152602001908152602001600020600088815260200190815260200160002054905061096785611800565b6109728787876118b6565b858161097e9190612da5565b600a60008773ffffffffffffffffffffffffffffffffffffffff1673ffffffffffffffffffffffffffffffffffffffff16815260200190815260200160002060008981526020019081526020016000208190555082600260009054906101000a900473ffffffffffffffffffffffffffffffffffffffff1673ffffffffffffffffffffffffffffffffffffffff1662fdd58e8787600001516040518363ffffffff1660e01b8152600401610a33929190612a1a565b60206040518083038186803b158015610a4b57600080fd5b505afa158015610a5f573d6000803e3d6000fd5b505050506040513d601f19601f82011682018060405250810190610a83919061251d565b11610ac3576040517f08c379a0000000000000000000000000000000000000000000000000000000008152600401610aba90612b71565b60405180910390fd5b610acc8561197b565b600260009054906101000a900473ffffffffffffffffffffffffffffffffffffffff1673ffffffffffffffffffffffffffffffffffffffff1663f242432a86308760000151876040518563ffffffff1660e01b8152600401610b319493929190612979565b600060405180830381600087803b158015610b4b57600080fd5b505af1158015610b5f573d6000803e3d6000fd5b5050505060008054906101000a900473ffffffffffffffffffffffffffffffffffffffff1673ffffffffffffffffffffffffffffffffffffffff1663ea59796a868660400151856040518463ffffffff1660e01b8152600401610bc493929190612a43565b600060405180830381600087803b158015610bde57600080fd5b505af1158015610bf2573d6000803e3d6000fd5b5050505050505050505050565b60606000600680549050905060008167ffffffffffffffff811115610c4d577f4e487b7100000000000000000000000000000000000000000000000000000000600052604160045260246000fd5b604051908082528060200260200182016040528015610c8657816020015b610c73611fc3565b815260200190600190039081610c6b5790505b50905060005b82811015610d8357600060068281548110610cd0577f4e487b7100000000000000000000000000000000000000000000000000000000600052603260045260246000fd5b90600052602060002001549050600760008281526020019081526020016000206040518060a001604052908160008201548152602001600182015481526020016002820154815260200160038201548152602001600482015481525050838381518110610d66577f4e487b7100000000000000000000000000000000000000000000000000000000600052603260045260246000fd5b60200260200101819052505080610d7c90612f2d565b9050610c8c565b50809250505090565b60068181548110610d9c57600080fd5b906000526020600020016000915090505481565b6009602052816000526040600020602052806000526040600020600091509150505481565b60606000600580549050905060008167ffffffffffffffff811115610e23577f4e487b7100000000000000000000000000000000000000000000000000000000600052604160045260246000fd5b604051908082528060200260200182016040528015610e5c57816020015b610e49611ff2565b815260200190600190039081610e415790505b50905060005b82811015610f4557600060058281548110610ea6577f4e487b7100000000000000000000000000000000000000000000000000000000600052603260045260246000fd5b90600052602060002001549050600860008281526020019081526020016000206040518060600160405290816000820154815260200160018201548152602001600282015481525050838381518110610f28577f4e487b7100000000000000000000000000000000000000000000000000000000600052603260045260246000fd5b60200260200101819052505080610f3e90612f2d565b9050610e62565b50809250505090565b60086020528060005260406000206000915090508060000154908060010154908060020154905083565b60606000600580549050905060008167ffffffffffffffff811115610fc6577f4e487b7100000000000000000000000000000000000000000000000000000000600052604160045260246000fd5b604051908082528060200260200182016040528015610ff45781602001602082028036833780820191505090505b50905060005b828110156110f35760006005828154811061103e577f4e487b7100000000000000000000000000000000000000000000000000000000600052603260045260246000fd5b90600052602060002001549050600960008773ffffffffffffffffffffffffffffffffffffffff1673ffffffffffffffffffffffffffffffffffffffff1681526020019081526020016000206000828152602001908152602001600020548383815181106110d5577f4e487b7100000000000000000000000000000000000000000000000000000000600052603260045260246000fd5b60200260200101818152505050806110ec90612f2d565b9050610ffa565b508092505050919050565b600061110c86868686611ac8565b9050600086869050905061111f83611800565b61112c8787878787611bbc565b60005b81811015611288576000888883818110611172577f4e487b7100000000000000000000000000000000000000000000000000000000600052603260045260246000fd5b90506020020135905060008787848181106111b6577f4e487b7100000000000000000000000000000000000000000000000000000000600052603260045260246000fd5b9050602002013590506000600960008873ffffffffffffffffffffffffffffffffffffffff1673ffffffffffffffffffffffffffffffffffffffff168152602001908152602001600020600084815260200190815260200160002054905080826112209190612da5565b600960008973ffffffffffffffffffffffffffffffffffffffff1673ffffffffffffffffffffffffffffffffffffffff1681526020019081526020016000206000858152602001908152602001600020819055505050508061128190612f2d565b905061112f565b5061129283611ce8565b813410156112d5576040517f08c379a00000000000000000000000000000000000000000000000000000000081526004016112cc90612b51565b60405180910390fd5b60008054906101000a900473ffffffffffffffffffffffffffffffffffffffff1673ffffffffffffffffffffffffffffffffffffffff1663e3fd44ee84898989896040518663ffffffff1660e01b81526004016113369594939291906129d1565b600060405180830381600087803b15801561135057600080fd5b505af1158015611364573d6000803e3d6000fd5b5050505050505050505050565b600a602052816000526040600020602052806000526040600020600091509150505481565b600360009054906101000a900473ffffffffffffffffffffffffffffffffffffffff1673ffffffffffffffffffffffffffffffffffffffff163373ffffffffffffffffffffffffffffffffffffffff16146113f057600080fd5b60005b868690508110156115c2576005878783818110611439577f4e487b7100000000000000000000000000000000000000000000000000000000600052603260045260246000fd5b90506020020135908060018154018082558091505060019003906000526020600020016000909190919091505560405180606001604052808888848181106114aa577f4e487b7100000000000000000000000000000000000000000000000000000000600052603260045260246000fd5b9050602002013581526020018686848181106114ef577f4e487b7100000000000000000000000000000000000000000000000000000000600052603260045260246000fd5b905060200201358152602001848484818110611534577f4e487b7100000000000000000000000000000000000000000000000000000000600052603260045260246000fd5b905060200201358152506008600089898581811061157b577f4e487b7100000000000000000000000000000000000000000000000000000000600052603260045260246000fd5b905060200201358152602001908152602001600020600082015181600001556020820151816001015560408201518160020155905050806115bb90612f2d565b90506113f3565b50505050505050565b600063bc197c8160e01b905095945050505050565b600b6020528060005260406000206000915090505481565b60076020528060005260406000206000915090508060000154908060010154908060020154908060030154908060040154905085565b600360009054906101000a900473ffffffffffffffffffffffffffffffffffffffff1673ffffffffffffffffffffffffffffffffffffffff163373ffffffffffffffffffffffffffffffffffffffff161461168857600080fd5b600660045490806001815401808255809150506001900390600052602060002001600090919091909150556040518060a001604052808681526020018581526020018481526020018381526020018281525060076000600454815260200190815260200160002060008201518160000155602082015181600101556040820151816002015560608201518160030155608082015181600401559050506004600081548092919061173790612f2d565b91905055505050505050565b600c6020528060005260406000206000915090505481565b600260009054906101000a900473ffffffffffffffffffffffffffffffffffffffff1681565b600063f23a6e6160e01b905095945050505050565b60007f01ffc9a7000000000000000000000000000000000000000000000000000000007bffffffffffffffffffffffffffffffffffffffffffffffffffffffff1916827bffffffffffffffffffffffffffffffffffffffffffffffffffffffff1916149050919050565b6000600b60008373ffffffffffffffffffffffffffffffffffffffff1673ffffffffffffffffffffffffffffffffffffffff1681526020019081526020016000205490506000811180156118545750428111155b156118b2576000811180156118695750428111155b6118a8576040517f08c379a000000000000000000000000000000000000000000000000000000000815260040161189f90612b31565b60405180910390fd5b6118b182611e73565b5b5050565b600082600a60008473ffffffffffffffffffffffffffffffffffffffff1673ffffffffffffffffffffffffffffffffffffffff1681526020019081526020016000206000868152602001908152602001600020546119149190612da5565b905060006007600086815260200190815260200160002060040154905080821115611974576040517f08c379a000000000000000000000000000000000000000000000000000000000815260040161196b90612b91565b60405180910390fd5b5050505050565b60008060005b600454811015611a67576000600a60008673ffffffffffffffffffffffffffffffffffffffff1673ffffffffffffffffffffffffffffffffffffffff16815260200190815260200160002060008381526020019081526020016000205490506000600760008481526020019081526020016000206040518060a00160405290816000820154815260200160018201548152602001600282015481526020016003820154815260200160048201548152505090508185611a409190612da5565b9450806080015184611a529190612da5565b9350505080611a6090612f2d565b9050611981565b5080821415611ac3576201518042611a7f9190612da5565b600c60008573ffffffffffffffffffffffffffffffffffffffff1673ffffffffffffffffffffffffffffffffffffffff168152602001908152602001600020819055505b505050565b600080600086869050905060005b81811015611bae576000868683818110611b19577f4e487b7100000000000000000000000000000000000000000000000000000000600052603260045260246000fd5b9050602002013590506000898984818110611b5d577f4e487b7100000000000000000000000000000000000000000000000000000000600052603260045260246000fd5b9050602002013590506000600860008381526020019081526020016000206002015490508281611b8d9190612dfb565b86611b989190612da5565b955050505080611ba790612f2d565b9050611ad6565b508192505050949350505050565b600085859050905060005b81811015611cdf576000858583818110611c0a577f4e487b7100000000000000000000000000000000000000000000000000000000600052603260045260246000fd5b90506020020135600960008673ffffffffffffffffffffffffffffffffffffffff1673ffffffffffffffffffffffffffffffffffffffff168152602001908152602001600020600084815260200190815260200160002054611c6c9190612da5565b905060006008600084815260200190815260200160002060010154905080821115611ccc576040517f08c379a0000000000000000000000000000000000000000000000000000000008152600401611cc390612b91565b60405180910390fd5b505080611cd890612f2d565b9050611bc7565b50505050505050565b60008060058054905090506000805b82811015611e11576000600960008773ffffffffffffffffffffffffffffffffffffffff1673ffffffffffffffffffffffffffffffffffffffff1681526020019081526020016000206000838152602001908152602001600020549050600060058381548110611d90577f4e487b7100000000000000000000000000000000000000000000000000000000600052603260045260246000fd5b90600052602060002001549050600060086000838152602001908152602001600020604051806060016040529081600082015481526020016001820154815260200160028201548152505090508287611de99190612da5565b9650806020015185611dfb9190612da5565b945050505080611e0a90612f2d565b9050611cf7565b5080831415611e6d576201518042611e299190612da5565b600b60008673ffffffffffffffffffffffffffffffffffffffff1673ffffffffffffffffffffffffffffffffffffffff168152602001908152602001600020819055505b50505050565b6000600b60008373ffffffffffffffffffffffffffffffffffffffff1673ffffffffffffffffffffffffffffffffffffffff168152602001908152602001600020549050428111158015611ec75750600081115b611f06576040517f08c379a0000000000000000000000000000000000000000000000000000000008152600401611efd90612b91565b60405180910390fd5b600b60008373ffffffffffffffffffffffffffffffffffffffff1673ffffffffffffffffffffffffffffffffffffffff1681526020019081526020016000206000905560005b600580549050811015611fbe57600960008473ffffffffffffffffffffffffffffffffffffffff1673ffffffffffffffffffffffffffffffffffffffff16815260200190815260200160002060008281526020019081526020016000206000905580611fb790612f2d565b9050611f4c565b505050565b6040518060a0016040528060008152602001600081526020016000815260200160008152602001600081525090565b60405180606001604052806000815260200160008152602001600081525090565b600061202661202184612c7b565b612c56565b9050808382526020820190508285602086028201111561204557600080fd5b60005b85811015612075578161205b8882612185565b845260208401935060208301925050600181019050612048565b5050509392505050565b600061209261208d84612ca7565b612c56565b9050828152602081018484840111156120aa57600080fd5b6120b5848285612eed565b509392505050565b6000813590506120cc8161308c565b92915050565b60008083601f8401126120e457600080fd5b8235905067ffffffffffffffff8111156120fd57600080fd5b60208301915083602082028301111561211557600080fd5b9250929050565b600082601f83011261212d57600080fd5b813561213d848260208601612013565b91505092915050565b600081359050612155816130a3565b92915050565b600082601f83011261216c57600080fd5b813561217c84826020860161207f565b91505092915050565b600081359050612194816130ba565b92915050565b6000815190506121a9816130ba565b92915050565b6000602082840312156121c157600080fd5b60006121cf848285016120bd565b91505092915050565b600080604083850312156121eb57600080fd5b60006121f9858286016120bd565b925050602061220a858286016120bd565b9150509250929050565b600080600080600060a0868803121561222c57600080fd5b600061223a888289016120bd565b955050602061224b888289016120bd565b945050604086013567ffffffffffffffff81111561226857600080fd5b6122748882890161211c565b935050606086013567ffffffffffffffff81111561229157600080fd5b61229d8882890161211c565b925050608086013567ffffffffffffffff8111156122ba57600080fd5b6122c68882890161215b565b9150509295509295909350565b600080600080600060a086880312156122eb57600080fd5b60006122f9888289016120bd565b955050602061230a888289016120bd565b945050604061231b88828901612185565b935050606061232c88828901612185565b925050608086013567ffffffffffffffff81111561234957600080fd5b6123558882890161215b565b9150509295509295909350565b6000806040838503121561237557600080fd5b6000612383858286016120bd565b925050602061239485828601612185565b9150509250929050565b6000806000806000606086880312156123b657600080fd5b600086013567ffffffffffffffff8111156123d057600080fd5b6123dc888289016120d2565b9550955050602086013567ffffffffffffffff8111156123fb57600080fd5b612407888289016120d2565b9350935050604061241a888289016120bd565b9150509295509295909350565b6000806000806000806060878903121561244057600080fd5b600087013567ffffffffffffffff81111561245a57600080fd5b61246689828a016120d2565b9650965050602087013567ffffffffffffffff81111561248557600080fd5b61249189828a016120d2565b9450945050604087013567ffffffffffffffff8111156124b057600080fd5b6124bc89828a016120d2565b92509250509295509295509295565b6000602082840312156124dd57600080fd5b60006124eb84828501612146565b91505092915050565b60006020828403121561250657600080fd5b600061251484828501612185565b91505092915050565b60006020828403121561252f57600080fd5b600061253d8482850161219a565b91505092915050565b60008060006060848603121561255b57600080fd5b600061256986828701612185565b935050602061257a86828701612185565b925050604061258b868287016120bd565b9150509250925092565b600080600080600060a086880312156125ad57600080fd5b60006125bb88828901612185565b95505060206125cc88828901612185565b94505060406125dd88828901612185565b93505060606125ee88828901612185565b92505060806125ff88828901612185565b9150509295509295909350565b600061261883836128b1565b60608301905092915050565b600061263083836128f3565b60a08301905092915050565b6000612648838361295b565b60208301905092915050565b61265d81612e55565b82525050565b600061266e82612d08565b6126788185612d50565b935061268383612cd8565b8060005b838110156126b457815161269b888261260c565b97506126a683612d29565b925050600181019050612687565b5085935050505092915050565b60006126cc82612d13565b6126d68185612d61565b93506126e183612ce8565b8060005b838110156127125781516126f98882612624565b975061270483612d36565b9250506001810190506126e5565b5085935050505092915050565b600061272b8385612d72565b93507f07ffffffffffffffffffffffffffffffffffffffffffffffffffffffffffffff83111561275a57600080fd5b60208302925061276b838584612eed565b82840190509392505050565b600061278282612d1e565b61278c8185612d72565b935061279783612cf8565b8060005b838110156127c85781516127af888261263c565b97506127ba83612d43565b92505060018101905061279b565b5085935050505092915050565b6127de81612e67565b82525050565b6127ed81612e73565b82525050565b6127fc81612ec9565b82525050565b600061280f601383612d94565b915061281a82612fe5565b602082019050919050565b6000612832601983612d94565b915061283d8261300e565b602082019050919050565b6000612855601783612d94565b915061286082613037565b602082019050919050565b6000612878600083612d83565b915061288382613060565b600082019050919050565b600061289b601283612d94565b91506128a682613063565b602082019050919050565b6060820160008201516128c7600085018261295b565b5060208201516128da602085018261295b565b5060408201516128ed604085018261295b565b50505050565b60a082016000820151612909600085018261295b565b50602082015161291c602085018261295b565b50604082015161292f604085018261295b565b506060820151612942606085018261295b565b506080820151612955608085018261295b565b50505050565b61296481612ebf565b82525050565b61297381612ebf565b82525050565b600060a08201905061298e6000830187612654565b61299b6020830186612654565b6129a8604083018561296a565b6129b5606083018461296a565b81810360808301526129c68161286b565b905095945050505050565b60006060820190506129e66000830188612654565b81810360208301526129f981868861271f565b90508181036040830152612a0e81848661271f565b90509695505050505050565b6000604082019050612a2f6000830185612654565b612a3c602083018461296a565b9392505050565b6000606082019050612a586000830186612654565b612a65602083018561296a565b612a72604083018461296a565b949350505050565b60006020820190508181036000830152612a948184612663565b905092915050565b60006020820190508181036000830152612ab681846126c1565b905092915050565b60006020820190508181036000830152612ad88184612777565b905092915050565b6000602082019050612af560008301846127d5565b92915050565b6000602082019050612b1060008301846127e4565b92915050565b6000602082019050612b2b60008301846127f3565b92915050565b60006020820190508181036000830152612b4a81612802565b9050919050565b60006020820190508181036000830152612b6a81612825565b9050919050565b60006020820190508181036000830152612b8a81612848565b9050919050565b60006020820190508181036000830152612baa8161288e565b9050919050565b6000602082019050612bc6600083018461296a565b92915050565b6000606082019050612be1600083018661296a565b612bee602083018561296a565b612bfb604083018461296a565b949350505050565b600060a082019050612c18600083018861296a565b612c25602083018761296a565b612c32604083018661296a565b612c3f606083018561296a565b612c4c608083018461296a565b9695505050505050565b6000612c60612c71565b9050612c6c8282612efc565b919050565b6000604051905090565b600067ffffffffffffffff821115612c9657612c95612fa5565b5b602082029050602081019050919050565b600067ffffffffffffffff821115612cc257612cc1612fa5565b5b612ccb82612fd4565b9050602081019050919050565b6000819050602082019050919050565b6000819050602082019050919050565b6000819050602082019050919050565b600081519050919050565b600081519050919050565b600081519050919050565b6000602082019050919050565b6000602082019050919050565b6000602082019050919050565b600082825260208201905092915050565b600082825260208201905092915050565b600082825260208201905092915050565b600082825260208201905092915050565b600082825260208201905092915050565b6000612db082612ebf565b9150612dbb83612ebf565b9250827fffffffffffffffffffffffffffffffffffffffffffffffffffffffffffffffff03821115612df057612def612f76565b5b828201905092915050565b6000612e0682612ebf565b9150612e1183612ebf565b9250817fffffffffffffffffffffffffffffffffffffffffffffffffffffffffffffffff0483118215151615612e4a57612e49612f76565b5b828202905092915050565b6000612e6082612e9f565b9050919050565b60008115159050919050565b60007fffffffff0000000000000000000000000000000000000000000000000000000082169050919050565b600073ffffffffffffffffffffffffffffffffffffffff82169050919050565b6000819050919050565b6000612ed482612edb565b9050919050565b6000612ee682612e9f565b9050919050565b82818337600083830152505050565b612f0582612fd4565b810181811067ffffffffffffffff82111715612f2457612f23612fa5565b5b80604052505050565b6000612f3882612ebf565b91507fffffffffffffffffffffffffffffffffffffffffffffffffffffffffffffffff821415612f6b57612f6a612f76565b5b600182019050919050565b7f4e487b7100000000000000000000000000000000000000000000000000000000600052601160045260246000fd5b7f4e487b7100000000000000000000000000000000000000000000000000000000600052604160045260246000fd5b6000601f19601f8301169050919050565b7f54696d65206c696d6974206e6f7420646f6e6500000000000000000000000000600082015250565b7f57726f6e672076616c7565206f662065746865722073656e7400000000000000600082015250565b7f4e6f7420656e6f756768206974656d73206e6565646564000000000000000000600082015250565b50565b7f596f752068697420796f7572206c696d69740000000000000000000000000000600082015250565b61309581612e55565b81146130a057600080fd5b50565b6130ac81612e73565b81146130b757600080fd5b50565b6130c381612ebf565b81146130ce57600080fd5b5056fea26469706673582212201aaa56c4d6aacc151cb3ef666cfcec0a956aba33ed335cc97ca282134e9c16be64736f6c63430008040033",
  "linkReferences": {},
  "deployedLinkReferences": {}
}