{
  "_format": "hh-sol-artifact-1",
  "contractName": "Trader",
  "sourceName": "contracts/Trader.sol",
  "abi": [
    {
      "anonymous": false,
      "inputs": [
        {
          "indexed": true,
          "internalType": "address",
          "name": "previousOwner",
          "type": "address"
        },
        {
          "indexed": true,
          "internalType": "address",
          "name": "newOwner",
          "type": "address"
        }
      ],
      "name": "OwnershipTransferred",
      "type": "event"
    },
    {
      "inputs": [
        {
          "internalType": "uint256[]",
          "name": "_items",
          "type": "uint256[]"
        },
        {
          "internalType": "uint256[]",
          "name": "_limits",
          "type": "uint256[]"
        },
        {
          "internalType": "uint256[]",
          "name": "_prices",
          "type": "uint256[]"
        }
      ],
      "name": "addItemsToShop",
      "outputs": [],
      "stateMutability": "nonpayable",
      "type": "function"
    },
    {
      "inputs": [
        {
          "internalType": "uint256",
          "name": "_itemTrade",
          "type": "uint256"
        },
        {
          "internalType": "uint256",
          "name": "_quantityTrade",
          "type": "uint256"
        },
        {
          "internalType": "uint256",
          "name": "_itemReceived",
          "type": "uint256"
        },
        {
          "internalType": "uint256",
          "name": "_quantityReceived",
          "type": "uint256"
        },
        {
          "internalType": "uint256",
          "name": "_limit",
          "type": "uint256"
        }
      ],
      "name": "addNewTrade",
      "outputs": [],
      "stateMutability": "nonpayable",
      "type": "function"
    },
    {
      "inputs": [
        {
          "internalType": "uint256[]",
          "name": "_items",
          "type": "uint256[]"
        },
        {
          "internalType": "uint256[]",
          "name": "_quantity",
          "type": "uint256[]"
        },
        {
          "internalType": "address",
          "name": "_user",
          "type": "address"
        }
      ],
      "name": "buyItems",
      "outputs": [],
      "stateMutability": "payable",
      "type": "function"
    },
    {
      "inputs": [
        {
          "internalType": "address",
          "name": "",
          "type": "address"
        }
      ],
      "name": "dailyShopTimeLimit",
      "outputs": [
        {
          "internalType": "uint256",
          "name": "",
          "type": "uint256"
        }
      ],
      "stateMutability": "view",
      "type": "function"
    },
    {
      "inputs": [
        {
          "internalType": "address",
          "name": "",
          "type": "address"
        }
      ],
      "name": "dailyTradeTimeLimit",
      "outputs": [
        {
          "internalType": "uint256",
          "name": "",
          "type": "uint256"
        }
      ],
      "stateMutability": "view",
      "type": "function"
    },
    {
      "inputs": [],
      "name": "erc1155Interface",
      "outputs": [
        {
          "internalType": "contract IERC1155",
          "name": "",
          "type": "address"
        }
      ],
      "stateMutability": "view",
      "type": "function"
    },
    {
      "inputs": [],
      "name": "getDailyShop",
      "outputs": [
        {
          "components": [
            {
              "internalType": "uint8",
              "name": "item",
              "type": "uint8"
            },
            {
              "internalType": "uint8",
              "name": "limit",
              "type": "uint8"
            },
            {
              "internalType": "uint64",
              "name": "price",
              "type": "uint64"
            }
          ],
          "internalType": "struct Trader.Shop[]",
          "name": "dailyShop",
          "type": "tuple[]"
        }
      ],
      "stateMutability": "view",
      "type": "function"
    },
    {
      "inputs": [],
      "name": "getDailyTrades",
      "outputs": [
        {
          "components": [
            {
              "internalType": "uint8",
              "name": "itemTrade",
              "type": "uint8"
            },
            {
              "internalType": "uint8",
              "name": "quantityTrade",
              "type": "uint8"
            },
            {
              "internalType": "uint8",
              "name": "itemReceived",
              "type": "uint8"
            },
            {
              "internalType": "uint8",
              "name": "quantityReceived",
              "type": "uint8"
            },
            {
              "internalType": "uint8",
              "name": "limit",
              "type": "uint8"
            }
          ],
          "internalType": "struct Trader.Trade[]",
          "name": "dailyTrades",
          "type": "tuple[]"
        }
      ],
      "stateMutability": "view",
      "type": "function"
    },
    {
      "inputs": [
        {
          "internalType": "address",
          "name": "_user",
          "type": "address"
        }
      ],
      "name": "getShopDailyLimit",
      "outputs": [
        {
          "internalType": "uint256[]",
          "name": "shopLimit",
          "type": "uint256[]"
        }
      ],
      "stateMutability": "view",
      "type": "function"
    },
    {
      "inputs": [
        {
          "internalType": "address",
          "name": "_user",
          "type": "address"
        }
      ],
      "name": "getTradeDailyLimit",
      "outputs": [
        {
          "internalType": "uint256[]",
          "name": "tradeLimit",
          "type": "uint256[]"
        }
      ],
      "stateMutability": "view",
      "type": "function"
    },
    {
      "inputs": [],
      "name": "itemsInterface",
      "outputs": [
        {
          "internalType": "contract IItems",
          "name": "",
          "type": "address"
        }
      ],
      "stateMutability": "view",
      "type": "function"
    },
    {
      "inputs": [
        {
          "internalType": "address",
          "name": "",
          "type": "address"
        },
        {
          "internalType": "address",
          "name": "",
          "type": "address"
        },
        {
          "internalType": "uint256[]",
          "name": "",
          "type": "uint256[]"
        },
        {
          "internalType": "uint256[]",
          "name": "",
          "type": "uint256[]"
        },
        {
          "internalType": "bytes",
          "name": "",
          "type": "bytes"
        }
      ],
      "name": "onERC1155BatchReceived",
      "outputs": [
        {
          "internalType": "bytes4",
          "name": "",
          "type": "bytes4"
        }
      ],
      "stateMutability": "nonpayable",
      "type": "function"
    },
    {
      "inputs": [
        {
          "internalType": "address",
          "name": "",
          "type": "address"
        },
        {
          "internalType": "address",
          "name": "",
          "type": "address"
        },
        {
          "internalType": "uint256",
          "name": "",
          "type": "uint256"
        },
        {
          "internalType": "uint256",
          "name": "",
          "type": "uint256"
        },
        {
          "internalType": "bytes",
          "name": "",
          "type": "bytes"
        }
      ],
      "name": "onERC1155Received",
      "outputs": [
        {
          "internalType": "bytes4",
          "name": "",
          "type": "bytes4"
        }
      ],
      "stateMutability": "nonpayable",
      "type": "function"
    },
    {
      "inputs": [],
      "name": "owner",
      "outputs": [
        {
          "internalType": "address",
          "name": "",
          "type": "address"
        }
      ],
      "stateMutability": "view",
      "type": "function"
    },
    {
      "inputs": [],
      "name": "renounceOwnership",
      "outputs": [],
      "stateMutability": "nonpayable",
      "type": "function"
    },
    {
      "inputs": [
        {
          "internalType": "address",
          "name": "_itemsContract",
          "type": "address"
        }
      ],
      "name": "setInterface",
      "outputs": [],
      "stateMutability": "nonpayable",
      "type": "function"
    },
    {
      "inputs": [
        {
          "internalType": "address",
          "name": "",
          "type": "address"
        },
        {
          "internalType": "uint256",
          "name": "",
          "type": "uint256"
        }
      ],
      "name": "shopDailyLimit",
      "outputs": [
        {
          "internalType": "uint256",
          "name": "",
          "type": "uint256"
        }
      ],
      "stateMutability": "view",
      "type": "function"
    },
    {
      "inputs": [
        {
          "internalType": "uint256",
          "name": "",
          "type": "uint256"
        }
      ],
      "name": "shopItems",
      "outputs": [
        {
          "internalType": "uint8",
          "name": "item",
          "type": "uint8"
        },
        {
          "internalType": "uint8",
          "name": "limit",
          "type": "uint8"
        },
        {
          "internalType": "uint64",
          "name": "price",
          "type": "uint64"
        }
      ],
      "stateMutability": "view",
      "type": "function"
    },
    {
      "inputs": [
        {
          "internalType": "bytes4",
          "name": "interfaceId",
          "type": "bytes4"
        }
      ],
      "name": "supportsInterface",
      "outputs": [
        {
          "internalType": "bool",
          "name": "",
          "type": "bool"
        }
      ],
      "stateMutability": "view",
      "type": "function"
    },
    {
      "inputs": [
        {
          "internalType": "address",
          "name": "",
          "type": "address"
        },
        {
          "internalType": "uint256",
          "name": "",
          "type": "uint256"
        }
      ],
      "name": "tradeDailyLimit",
      "outputs": [
        {
          "internalType": "uint256",
          "name": "",
          "type": "uint256"
        }
      ],
      "stateMutability": "view",
      "type": "function"
    },
    {
      "inputs": [
        {
          "internalType": "uint256",
          "name": "_tradeId",
          "type": "uint256"
        },
        {
          "internalType": "uint256",
          "name": "_quantity",
          "type": "uint256"
        },
        {
          "internalType": "address",
          "name": "_user",
          "type": "address"
        }
      ],
      "name": "tradeItem",
      "outputs": [],
      "stateMutability": "nonpayable",
      "type": "function"
    },
    {
      "inputs": [
        {
          "internalType": "uint256",
          "name": "",
          "type": "uint256"
        }
      ],
      "name": "traderTrades",
      "outputs": [
        {
          "internalType": "uint8",
          "name": "itemTrade",
          "type": "uint8"
        },
        {
          "internalType": "uint8",
          "name": "quantityTrade",
          "type": "uint8"
        },
        {
          "internalType": "uint8",
          "name": "itemReceived",
          "type": "uint8"
        },
        {
          "internalType": "uint8",
          "name": "quantityReceived",
          "type": "uint8"
        },
        {
          "internalType": "uint8",
          "name": "limit",
          "type": "uint8"
        }
      ],
      "stateMutability": "view",
      "type": "function"
    },
    {
      "inputs": [
        {
          "internalType": "address",
          "name": "newOwner",
          "type": "address"
        }
      ],
      "name": "transferOwnership",
      "outputs": [],
      "stateMutability": "nonpayable",
      "type": "function"
    },
    {
      "stateMutability": "payable",
      "type": "receive"
    }
  ],
  "bytecode": "0x60806040523480156200001157600080fd5b5062000032620000266200003860201b60201c565b6200004060201b60201c565b62000104565b600033905090565b60008060009054906101000a900473ffffffffffffffffffffffffffffffffffffffff169050816000806101000a81548173ffffffffffffffffffffffffffffffffffffffff021916908373ffffffffffffffffffffffffffffffffffffffff1602179055508173ffffffffffffffffffffffffffffffffffffffff168173ffffffffffffffffffffffffffffffffffffffff167f8be0079c531659141344cd1fd0a4f28419497f9722a3daafe3b4186f6b6457e060405160405180910390a35050565b61378680620001146000396000f3fe6080604052600436106101445760003560e01c8063715018a6116100b6578063bc197c811161006f578063bc197c811461046e578063c3c1fb02146104ab578063cc2fe610146104e8578063f084223214610529578063f23a6e6114610566578063f2fde38b146105a35761014b565b8063715018a6146103815780637cccd2a11461039857806385c8383e146103b45780638da5cb5b146103f157806397492c461461041c5780639825a3f8146104455761014b565b80633460973b116101085780633460973b146102475780633a759c8a1461027257806349443a051461029d5780634dc7eb33146102da5780635ca9e380146103055780635eef896a146103445761014b565b806301ffc9a71461015057806308ad4b0b1461018d5780631a6e805a146101ca5780631a8324e9146101f3578063302f3dfc1461021c5761014b565b3661014b57005b600080fd5b34801561015c57600080fd5b5061017760048036038101906101729190612965565b6105cc565b6040516101849190613035565b60405180910390f35b34801561019957600080fd5b506101b460048036038101906101af9190612685565b610646565b6040516101c19190613013565b60405180910390f35b3480156101d657600080fd5b506101f160048036038101906101ec9190612a2f565b61078f565b005b3480156101ff57600080fd5b5061021a600480360381019061021591906129e0565b6108fa565b005b34801561022857600080fd5b50610231610cd3565b60405161023e9190613086565b60405180910390f35b34801561025357600080fd5b5061025c610cf9565b6040516102699190612ff1565b60405180910390f35b34801561027e57600080fd5b50610287610ea2565b604051610294919061306b565b60405180910390f35b3480156102a957600080fd5b506102c460048036038101906102bf91906127fc565b610ec8565b6040516102d19190613161565b60405180910390f35b3480156102e657600080fd5b506102ef610eed565b6040516102fc9190612fcf565b60405180910390f35b34801561031157600080fd5b5061032c6004803603810190610327919061298e565b611077565b60405161033b9392919061317c565b60405180910390f35b34801561035057600080fd5b5061036b60048036038101906103669190612685565b6110cf565b6040516103789190613013565b60405180910390f35b34801561038d57600080fd5b50610396611218565b005b6103b260048036038101906103ad9190612838565b6112a0565b005b3480156103c057600080fd5b506103db60048036038101906103d691906127fc565b611515565b6040516103e89190613161565b60405180910390f35b3480156103fd57600080fd5b5061040661153a565b6040516104139190612eb3565b60405180910390f35b34801561042857600080fd5b50610443600480360381019061043e9190612685565b611563565b005b34801561045157600080fd5b5061046c600480360381019061046791906128c1565b611664565b005b34801561047a57600080fd5b50610495600480360381019061049091906126ae565b611895565b6040516104a29190613050565b60405180910390f35b3480156104b757600080fd5b506104d260048036038101906104cd9190612685565b6118aa565b6040516104df9190613161565b60405180910390f35b3480156104f457600080fd5b5061050f600480360381019061050a919061298e565b6118c2565b6040516105209594939291906131b3565b60405180910390f35b34801561053557600080fd5b50610550600480360381019061054b9190612685565b611939565b60405161055d9190613161565b60405180910390f35b34801561057257600080fd5b5061058d6004803603810190610588919061276d565b611951565b60405161059a9190613050565b60405180910390f35b3480156105af57600080fd5b506105ca60048036038101906105c59190612685565b611966565b005b60007f4e2312e0000000000000000000000000000000000000000000000000000000007bffffffffffffffffffffffffffffffffffffffffffffffffffffffff1916827bffffffffffffffffffffffffffffffffffffffffffffffffffffffff1916148061063f575061063e82611a5e565b5b9050919050565b60606000600260149054906101000a900460ff1660ff1690508067ffffffffffffffff81111561069f577f4e487b7100000000000000000000000000000000000000000000000000000000600052604160045260246000fd5b6040519080825280602002602001820160405280156106cd5781602001602082028036833780820191505090505b50915060005b81811015610788576000600660008673ffffffffffffffffffffffffffffffffffffffff1673ffffffffffffffffffffffffffffffffffffffff16815260200190815260200160002060008381526020019081526020016000205490508084838151811061076a577f4e487b7100000000000000000000000000000000000000000000000000000000600052603260045260246000fd5b602002602001018181525050508061078190613534565b90506106d3565b5050919050565b610797611ac8565b73ffffffffffffffffffffffffffffffffffffffff166107b561153a565b73ffffffffffffffffffffffffffffffffffffffff161461080b576040517f08c379a000000000000000000000000000000000000000000000000000000000815260040161080290613121565b60405180910390fd5b6000600260149054906101000a900460ff1660ff1690506000600360008381526020019081526020016000209050868160000160006101000a81548160ff021916908360ff160217905550858160000160016101000a81548160ff021916908360ff160217905550848160000160026101000a81548160ff021916908360ff160217905550838160000160036101000a81548160ff021916908360ff160217905550828160000160046101000a81548160ff021916908360ff1602179055506001826108d79190613355565b600260146101000a81548160ff021916908360ff16021790555050505050505050565b6000600360008581526020019081526020016000206040518060a00160405290816000820160009054906101000a900460ff1660ff1660ff1681526020016000820160019054906101000a900460ff1660ff1660ff1681526020016000820160029054906101000a900460ff1660ff1660ff1681526020016000820160039054906101000a900460ff1660ff1660ff1681526020016000820160049054906101000a900460ff1660ff1660ff16815250509050600083826020015160ff166109c291906133ab565b9050600084836060015160ff166109d991906133ab565b90506000600660008673ffffffffffffffffffffffffffffffffffffffff1673ffffffffffffffffffffffffffffffffffffffff168152602001908152602001600020600088815260200190815260200160002054905082600260009054906101000a900473ffffffffffffffffffffffffffffffffffffffff1673ffffffffffffffffffffffffffffffffffffffff1662fdd58e8787600001516040518363ffffffff1660e01b8152600401610a91929190612f6f565b60206040518083038186803b158015610aa957600080fd5b505afa158015610abd573d6000803e3d6000fd5b505050506040513d601f19601f82011682018060405250810190610ae191906129b7565b11610b21576040517f08c379a0000000000000000000000000000000000000000000000000000000008152600401610b1890613101565b60405180910390fd5b610b2a85611ad0565b610b35878787611b86565b8581610b419190613355565b600660008773ffffffffffffffffffffffffffffffffffffffff1673ffffffffffffffffffffffffffffffffffffffff168152602001908152602001600020600089815260200190815260200160002081905550610b9e85611c5b565b600260009054906101000a900473ffffffffffffffffffffffffffffffffffffffff1673ffffffffffffffffffffffffffffffffffffffff1663f242432a86308760000151876040518563ffffffff1660e01b8152600401610c039493929190612ece565b600060405180830381600087803b158015610c1d57600080fd5b505af1158015610c31573d6000803e3d6000fd5b50505050600160009054906101000a900473ffffffffffffffffffffffffffffffffffffffff1673ffffffffffffffffffffffffffffffffffffffff1663ea59796a868660400151856040518463ffffffff1660e01b8152600401610c9893929190612f98565b600060405180830381600087803b158015610cb257600080fd5b505af1158015610cc6573d6000803e3d6000fd5b5050505050505050505050565b600160009054906101000a900473ffffffffffffffffffffffffffffffffffffffff1681565b60606000600260149054906101000a900460ff1660ff1690508067ffffffffffffffff811115610d52577f4e487b7100000000000000000000000000000000000000000000000000000000600052604160045260246000fd5b604051908082528060200260200182016040528015610d8b57816020015b610d7861247a565b815260200190600190039081610d705790505b50915060005b81811015610e9d57600360008281526020019081526020016000206040518060a00160405290816000820160009054906101000a900460ff1660ff1660ff1681526020016000820160019054906101000a900460ff1660ff1660ff1681526020016000820160029054906101000a900460ff1660ff1660ff1681526020016000820160039054906101000a900460ff1660ff1660ff1681526020016000820160049054906101000a900460ff1660ff1660ff1681525050838281518110610e81577f4e487b7100000000000000000000000000000000000000000000000000000000600052603260045260246000fd5b602002602001018190525080610e9690613534565b9050610d91565b505090565b600260009054906101000a900473ffffffffffffffffffffffffffffffffffffffff1681565b6005602052816000526040600020602052806000526040600020600091509150505481565b60606000600260159054906101000a900460ff1660ff1690508067ffffffffffffffff811115610f46577f4e487b7100000000000000000000000000000000000000000000000000000000600052604160045260246000fd5b604051908082528060200260200182016040528015610f7f57816020015b610f6c6124b8565b815260200190600190039081610f645790505b50915060005b81811015611072576000600460008381526020019081526020016000206040518060600160405290816000820160009054906101000a900460ff1660ff1660ff1681526020016000820160019054906101000a900460ff1660ff1660ff1681526020016000820160029054906101000a900467ffffffffffffffff1667ffffffffffffffff1667ffffffffffffffff1681525050905080848381518110611055577f4e487b7100000000000000000000000000000000000000000000000000000000600052603260045260246000fd5b6020026020010181905250508061106b90613534565b9050610f85565b505090565b60046020528060005260406000206000915090508060000160009054906101000a900460ff16908060000160019054906101000a900460ff16908060000160029054906101000a900467ffffffffffffffff16905083565b60606000600260159054906101000a900460ff1660ff1690508067ffffffffffffffff811115611128577f4e487b7100000000000000000000000000000000000000000000000000000000600052604160045260246000fd5b6040519080825280602002602001820160405280156111565781602001602082028036833780820191505090505b50915060005b81811015611211576000600560008673ffffffffffffffffffffffffffffffffffffffff1673ffffffffffffffffffffffffffffffffffffffff1681526020019081526020016000206000838152602001908152602001600020549050808483815181106111f3577f4e487b7100000000000000000000000000000000000000000000000000000000600052603260045260246000fd5b602002602001018181525050508061120a90613534565b905061115c565b5050919050565b611220611ac8565b73ffffffffffffffffffffffffffffffffffffffff1661123e61153a565b73ffffffffffffffffffffffffffffffffffffffff1614611294576040517f08c379a000000000000000000000000000000000000000000000000000000000815260040161128b90613121565b60405180910390fd5b61129e6000611e20565b565b60006112ae86868686611ee4565b905060008686905090506112c183611ad0565b6112ce8787878787611ff0565b60005b8181101561142a576000888883818110611314577f4e487b7100000000000000000000000000000000000000000000000000000000600052603260045260246000fd5b9050602002013590506000878784818110611358577f4e487b7100000000000000000000000000000000000000000000000000000000600052603260045260246000fd5b9050602002013590506000600560008873ffffffffffffffffffffffffffffffffffffffff1673ffffffffffffffffffffffffffffffffffffffff168152602001908152602001600020600084815260200190815260200160002054905080826113c29190613355565b600560008973ffffffffffffffffffffffffffffffffffffffff1673ffffffffffffffffffffffffffffffffffffffff1681526020019081526020016000206000858152602001908152602001600020819055505050508061142390613534565b90506112d1565b5061143483612177565b81341015611477576040517f08c379a000000000000000000000000000000000000000000000000000000000815260040161146e906130e1565b60405180910390fd5b600160009054906101000a900473ffffffffffffffffffffffffffffffffffffffff1673ffffffffffffffffffffffffffffffffffffffff1663e3fd44ee84898989896040518663ffffffff1660e01b81526004016114da959493929190612f26565b600060405180830381600087803b1580156114f457600080fd5b505af1158015611508573d6000803e3d6000fd5b5050505050505050505050565b6006602052816000526040600020602052806000526040600020600091509150505481565b60008060009054906101000a900473ffffffffffffffffffffffffffffffffffffffff16905090565b61156b611ac8565b73ffffffffffffffffffffffffffffffffffffffff1661158961153a565b73ffffffffffffffffffffffffffffffffffffffff16146115df576040517f08c379a00000000000000000000000000000000000000000000000000000000081526004016115d690613121565b60405180910390fd5b80600160006101000a81548173ffffffffffffffffffffffffffffffffffffffff021916908373ffffffffffffffffffffffffffffffffffffffff16021790555080600260006101000a81548173ffffffffffffffffffffffffffffffffffffffff021916908373ffffffffffffffffffffffffffffffffffffffff16021790555050565b61166c611ac8565b73ffffffffffffffffffffffffffffffffffffffff1661168a61153a565b73ffffffffffffffffffffffffffffffffffffffff16146116e0576040517f08c379a00000000000000000000000000000000000000000000000000000000081526004016116d790613121565b60405180910390fd5b6000600260159054906101000a900460ff1660ff16905060005b878790508110156118705760006004600084815260200190815260200160002090506000898984818110611757577f4e487b7100000000000000000000000000000000000000000000000000000000600052603260045260246000fd5b905060200201359050600088888581811061179b577f4e487b7100000000000000000000000000000000000000000000000000000000600052603260045260246000fd5b90506020020135905060008787868181106117df577f4e487b7100000000000000000000000000000000000000000000000000000000600052603260045260246000fd5b905060200201359050828460000160006101000a81548160ff021916908360ff160217905550808460000160026101000a81548167ffffffffffffffff021916908367ffffffffffffffff160217905550818460000160016101000a81548160ff021916908360ff160217905550858061185890613534565b965050505050508061186990613534565b90506116fa565b5080600260156101000a81548160ff021916908360ff16021790555050505050505050565b600063bc197c8160e01b905095945050505050565b60076020528060005260406000206000915090505481565b60036020528060005260406000206000915090508060000160009054906101000a900460ff16908060000160019054906101000a900460ff16908060000160029054906101000a900460ff16908060000160039054906101000a900460ff16908060000160049054906101000a900460ff16905085565b60086020528060005260406000206000915090505481565b600063f23a6e6160e01b905095945050505050565b61196e611ac8565b73ffffffffffffffffffffffffffffffffffffffff1661198c61153a565b73ffffffffffffffffffffffffffffffffffffffff16146119e2576040517f08c379a00000000000000000000000000000000000000000000000000000000081526004016119d990613121565b60405180910390fd5b600073ffffffffffffffffffffffffffffffffffffffff168173ffffffffffffffffffffffffffffffffffffffff161415611a52576040517f08c379a0000000000000000000000000000000000000000000000000000000008152600401611a49906130a1565b60405180910390fd5b611a5b81611e20565b50565b60007f01ffc9a7000000000000000000000000000000000000000000000000000000007bffffffffffffffffffffffffffffffffffffffffffffffffffffffff1916827bffffffffffffffffffffffffffffffffffffffffffffffffffffffff1916149050919050565b600033905090565b6000600760008373ffffffffffffffffffffffffffffffffffffffff1673ffffffffffffffffffffffffffffffffffffffff168152602001908152602001600020549050600081118015611b245750428111155b15611b8257600081118015611b395750428111155b611b78576040517f08c379a0000000000000000000000000000000000000000000000000000000008152600401611b6f906130c1565b60405180910390fd5b611b8182612317565b5b5050565b600082600660008473ffffffffffffffffffffffffffffffffffffffff1673ffffffffffffffffffffffffffffffffffffffff168152602001908152602001600020600086815260200190815260200160002054611be49190613355565b905060006003600086815260200190815260200160002060000160049054906101000a900460ff1660ff16905080821115611c54576040517f08c379a0000000000000000000000000000000000000000000000000000000008152600401611c4b90613141565b60405180910390fd5b5050505050565b6000806000600260149054906101000a900460ff1660ff16905060005b81811015611dbe576000600660008773ffffffffffffffffffffffffffffffffffffffff1673ffffffffffffffffffffffffffffffffffffffff16815260200190815260200160002060008381526020019081526020016000205490506000600360008481526020019081526020016000206040518060a00160405290816000820160009054906101000a900460ff1660ff1660ff1681526020016000820160019054906101000a900460ff1660ff1660ff1681526020016000820160029054906101000a900460ff1660ff1660ff1681526020016000820160039054906101000a900460ff1660ff1660ff1681526020016000820160049054906101000a900460ff1660ff1660ff168152505090508185611d949190613355565b9450806080015160ff1686611da99190613355565b9550505080611db790613534565b9050611c78565b5082821415611e1a576201518042611dd69190613355565b600860008673ffffffffffffffffffffffffffffffffffffffff1673ffffffffffffffffffffffffffffffffffffffff168152602001908152602001600020819055505b50505050565b60008060009054906101000a900473ffffffffffffffffffffffffffffffffffffffff169050816000806101000a81548173ffffffffffffffffffffffffffffffffffffffff021916908373ffffffffffffffffffffffffffffffffffffffff1602179055508173ffffffffffffffffffffffffffffffffffffffff168173ffffffffffffffffffffffffffffffffffffffff167f8be0079c531659141344cd1fd0a4f28419497f9722a3daafe3b4186f6b6457e060405160405180910390a35050565b60008085859050905060005b81811015611fe6576000858583818110611f33577f4e487b7100000000000000000000000000000000000000000000000000000000600052603260045260246000fd5b9050602002013590506000888884818110611f77577f4e487b7100000000000000000000000000000000000000000000000000000000600052603260045260246000fd5b90506020020135905060006004600083815260200190815260200160002060000160029054906101000a900467ffffffffffffffff1667ffffffffffffffff1690508281611fc591906133ab565b86611fd09190613355565b955050505080611fdf90613534565b9050611ef0565b5050949350505050565b600085859050905060005b8181101561216e57600087878381811061203e577f4e487b7100000000000000000000000000000000000000000000000000000000600052603260045260246000fd5b9050602002013590506000868684818110612082577f4e487b7100000000000000000000000000000000000000000000000000000000600052603260045260246000fd5b905060200201359050600081600560008873ffffffffffffffffffffffffffffffffffffffff1673ffffffffffffffffffffffffffffffffffffffff1681526020019081526020016000206000858152602001908152602001600020546120e99190613355565b905060006004600085815260200190815260200160002060000160019054906101000a900460ff1660ff16905080821115612159576040517f08c379a000000000000000000000000000000000000000000000000000000000815260040161215090613141565b60405180910390fd5b505050508061216790613534565b9050611ffb565b50505050505050565b6000806000600260159054906101000a900460ff1660ff16905060005b818110156122b5576000600560008773ffffffffffffffffffffffffffffffffffffffff1673ffffffffffffffffffffffffffffffffffffffff16815260200190815260200160002060008381526020019081526020016000205490506000600460008481526020019081526020016000206040518060600160405290816000820160009054906101000a900460ff1660ff1660ff1681526020016000820160019054906101000a900460ff1660ff1660ff1681526020016000820160029054906101000a900467ffffffffffffffff1667ffffffffffffffff1667ffffffffffffffff16815250509050818561228b9190613355565b9450806020015160ff16866122a09190613355565b95505050806122ae90613534565b9050612194565b50828214156123115762015180426122cd9190613355565b600760008673ffffffffffffffffffffffffffffffffffffffff1673ffffffffffffffffffffffffffffffffffffffff168152602001908152602001600020819055505b50505050565b6000600760008373ffffffffffffffffffffffffffffffffffffffff1673ffffffffffffffffffffffffffffffffffffffff1681526020019081526020016000205490506000600260159054906101000a900460ff1660ff1690504282111580156123825750600082115b6123c1576040517f08c379a00000000000000000000000000000000000000000000000000000000081526004016123b890613141565b60405180910390fd5b600760008473ffffffffffffffffffffffffffffffffffffffff1673ffffffffffffffffffffffffffffffffffffffff1681526020019081526020016000206000905560005b8181101561247457600560008573ffffffffffffffffffffffffffffffffffffffff1673ffffffffffffffffffffffffffffffffffffffff1681526020019081526020016000206000828152602001908152602001600020600090558061246d90613534565b9050612407565b50505050565b6040518060a00160405280600060ff168152602001600060ff168152602001600060ff168152602001600060ff168152602001600060ff1681525090565b6040518060600160405280600060ff168152602001600060ff168152602001600067ffffffffffffffff1681525090565b60006124fc6124f78461322b565b613206565b9050808382526020820190508285602086028201111561251b57600080fd5b60005b8581101561254b5781612531888261265b565b84526020840193506020830192505060018101905061251e565b5050509392505050565b600061256861256384613257565b613206565b90508281526020810184848401111561258057600080fd5b61258b8482856134f4565b509392505050565b6000813590506125a28161370b565b92915050565b60008083601f8401126125ba57600080fd5b8235905067ffffffffffffffff8111156125d357600080fd5b6020830191508360208202830111156125eb57600080fd5b9250929050565b600082601f83011261260357600080fd5b81356126138482602086016124e9565b91505092915050565b60008135905061262b81613722565b92915050565b600082601f83011261264257600080fd5b8135612652848260208601612555565b91505092915050565b60008135905061266a81613739565b92915050565b60008151905061267f81613739565b92915050565b60006020828403121561269757600080fd5b60006126a584828501612593565b91505092915050565b600080600080600060a086880312156126c657600080fd5b60006126d488828901612593565b95505060206126e588828901612593565b945050604086013567ffffffffffffffff81111561270257600080fd5b61270e888289016125f2565b935050606086013567ffffffffffffffff81111561272b57600080fd5b612737888289016125f2565b925050608086013567ffffffffffffffff81111561275457600080fd5b61276088828901612631565b9150509295509295909350565b600080600080600060a0868803121561278557600080fd5b600061279388828901612593565b95505060206127a488828901612593565b94505060406127b58882890161265b565b93505060606127c68882890161265b565b925050608086013567ffffffffffffffff8111156127e357600080fd5b6127ef88828901612631565b9150509295509295909350565b6000806040838503121561280f57600080fd5b600061281d85828601612593565b925050602061282e8582860161265b565b9150509250929050565b60008060008060006060868803121561285057600080fd5b600086013567ffffffffffffffff81111561286a57600080fd5b612876888289016125a8565b9550955050602086013567ffffffffffffffff81111561289557600080fd5b6128a1888289016125a8565b935093505060406128b488828901612593565b9150509295509295909350565b600080600080600080606087890312156128da57600080fd5b600087013567ffffffffffffffff8111156128f457600080fd5b61290089828a016125a8565b9650965050602087013567ffffffffffffffff81111561291f57600080fd5b61292b89828a016125a8565b9450945050604087013567ffffffffffffffff81111561294a57600080fd5b61295689828a016125a8565b92509250509295509295509295565b60006020828403121561297757600080fd5b60006129858482850161261c565b91505092915050565b6000602082840312156129a057600080fd5b60006129ae8482850161265b565b91505092915050565b6000602082840312156129c957600080fd5b60006129d784828501612670565b91505092915050565b6000806000606084860312156129f557600080fd5b6000612a038682870161265b565b9350506020612a148682870161265b565b9250506040612a2586828701612593565b9150509250925092565b600080600080600060a08688031215612a4757600080fd5b6000612a558882890161265b565b9550506020612a668882890161265b565b9450506040612a778882890161265b565b9350506060612a888882890161265b565b9250506080612a998882890161265b565b9150509295509295909350565b6000612ab28383612da0565b60608301905092915050565b6000612aca8383612de2565b60a08301905092915050565b6000612ae28383612e4a565b60208301905092915050565b612af781613405565b82525050565b6000612b08826132b8565b612b128185613300565b9350612b1d83613288565b8060005b83811015612b4e578151612b358882612aa6565b9750612b40836132d9565b925050600181019050612b21565b5085935050505092915050565b6000612b66826132c3565b612b708185613311565b9350612b7b83613298565b8060005b83811015612bac578151612b938882612abe565b9750612b9e836132e6565b925050600181019050612b7f565b5085935050505092915050565b6000612bc58385613322565b93507f07ffffffffffffffffffffffffffffffffffffffffffffffffffffffffffffff831115612bf457600080fd5b602083029250612c058385846134f4565b82840190509392505050565b6000612c1c826132ce565b612c268185613322565b9350612c31836132a8565b8060005b83811015612c62578151612c498882612ad6565b9750612c54836132f3565b925050600181019050612c35565b5085935050505092915050565b612c7881613417565b82525050565b612c8781613423565b82525050565b612c968161349a565b82525050565b612ca5816134be565b82525050565b6000612cb8602683613344565b9150612cc3826135ec565b604082019050919050565b6000612cdb601383613344565b9150612ce68261363b565b602082019050919050565b6000612cfe601983613344565b9150612d0982613664565b602082019050919050565b6000612d21601783613344565b9150612d2c8261368d565b602082019050919050565b6000612d44602083613344565b9150612d4f826136b6565b602082019050919050565b6000612d67600083613333565b9150612d72826136df565b600082019050919050565b6000612d8a601283613344565b9150612d95826136e2565b602082019050919050565b606082016000820151612db66000850182612e95565b506020820151612dc96020850182612e95565b506040820151612ddc6040850182612e68565b50505050565b60a082016000820151612df86000850182612e95565b506020820151612e0b6020850182612e95565b506040820151612e1e6040850182612e95565b506060820151612e316060850182612e95565b506080820151612e446080850182612e95565b50505050565b612e538161346f565b82525050565b612e628161346f565b82525050565b612e7181613479565b82525050565b612e8081613479565b82525050565b612e8f816134e2565b82525050565b612e9e8161348d565b82525050565b612ead8161348d565b82525050565b6000602082019050612ec86000830184612aee565b92915050565b600060a082019050612ee36000830187612aee565b612ef06020830186612aee565b612efd6040830185612e86565b612f0a6060830184612e59565b8181036080830152612f1b81612d5a565b905095945050505050565b6000606082019050612f3b6000830188612aee565b8181036020830152612f4e818688612bb9565b90508181036040830152612f63818486612bb9565b90509695505050505050565b6000604082019050612f846000830185612aee565b612f916020830184612e86565b9392505050565b6000606082019050612fad6000830186612aee565b612fba6020830185612e86565b612fc76040830184612e59565b949350505050565b60006020820190508181036000830152612fe98184612afd565b905092915050565b6000602082019050818103600083015261300b8184612b5b565b905092915050565b6000602082019050818103600083015261302d8184612c11565b905092915050565b600060208201905061304a6000830184612c6f565b92915050565b60006020820190506130656000830184612c7e565b92915050565b60006020820190506130806000830184612c8d565b92915050565b600060208201905061309b6000830184612c9c565b92915050565b600060208201905081810360008301526130ba81612cab565b9050919050565b600060208201905081810360008301526130da81612cce565b9050919050565b600060208201905081810360008301526130fa81612cf1565b9050919050565b6000602082019050818103600083015261311a81612d14565b9050919050565b6000602082019050818103600083015261313a81612d37565b9050919050565b6000602082019050818103600083015261315a81612d7d565b9050919050565b60006020820190506131766000830184612e59565b92915050565b60006060820190506131916000830186612ea4565b61319e6020830185612ea4565b6131ab6040830184612e77565b949350505050565b600060a0820190506131c86000830188612ea4565b6131d56020830187612ea4565b6131e26040830186612ea4565b6131ef6060830185612ea4565b6131fc6080830184612ea4565b9695505050505050565b6000613210613221565b905061321c8282613503565b919050565b6000604051905090565b600067ffffffffffffffff821115613246576132456135ac565b5b602082029050602081019050919050565b600067ffffffffffffffff821115613272576132716135ac565b5b61327b826135db565b9050602081019050919050565b6000819050602082019050919050565b6000819050602082019050919050565b6000819050602082019050919050565b600081519050919050565b600081519050919050565b600081519050919050565b6000602082019050919050565b6000602082019050919050565b6000602082019050919050565b600082825260208201905092915050565b600082825260208201905092915050565b600082825260208201905092915050565b600082825260208201905092915050565b600082825260208201905092915050565b60006133608261346f565b915061336b8361346f565b9250827fffffffffffffffffffffffffffffffffffffffffffffffffffffffffffffffff038211156133a05761339f61357d565b5b828201905092915050565b60006133b68261346f565b91506133c18361346f565b9250817fffffffffffffffffffffffffffffffffffffffffffffffffffffffffffffffff04831182151516156133fa576133f961357d565b5b828202905092915050565b60006134108261344f565b9050919050565b60008115159050919050565b60007fffffffff0000000000000000000000000000000000000000000000000000000082169050919050565b600073ffffffffffffffffffffffffffffffffffffffff82169050919050565b6000819050919050565b600067ffffffffffffffff82169050919050565b600060ff82169050919050565b60006134a5826134ac565b9050919050565b60006134b78261344f565b9050919050565b60006134c9826134d0565b9050919050565b60006134db8261344f565b9050919050565b60006134ed8261348d565b9050919050565b82818337600083830152505050565b61350c826135db565b810181811067ffffffffffffffff8211171561352b5761352a6135ac565b5b80604052505050565b600061353f8261346f565b91507fffffffffffffffffffffffffffffffffffffffffffffffffffffffffffffffff8214156135725761357161357d565b5b600182019050919050565b7f4e487b7100000000000000000000000000000000000000000000000000000000600052601160045260246000fd5b7f4e487b7100000000000000000000000000000000000000000000000000000000600052604160045260246000fd5b6000601f19601f8301169050919050565b7f4f776e61626c653a206e6577206f776e657220697320746865207a65726f206160008201527f6464726573730000000000000000000000000000000000000000000000000000602082015250565b7f54696d65206c696d6974206e6f7420646f6e6500000000000000000000000000600082015250565b7f57726f6e672076616c7565206f662065746865722073656e7400000000000000600082015250565b7f4e6f7420656e6f756768206974656d73206e6565646564000000000000000000600082015250565b7f4f776e61626c653a2063616c6c6572206973206e6f7420746865206f776e6572600082015250565b50565b7f596f752068697420796f7572206c696d69740000000000000000000000000000600082015250565b61371481613405565b811461371f57600080fd5b50565b61372b81613423565b811461373657600080fd5b50565b6137428161346f565b811461374d57600080fd5b5056fea26469706673582212201d6c6cc96e822b831005723e3bd273d8e20bcc2ecee925ea98a60cf030db8f8164736f6c63430008040033",
  "linkReferences": {},
  "deployedLinkReferences": {}
}