{
  "_format": "hh-sol-artifact-1",
  "contractName": "UsersData",
  "sourceName": "contracts/UsersData.sol",
  "abi": [
    {
      "inputs": [
        {
          "internalType": "bool",
          "name": "_status",
          "type": "bool"
        }
      ],
      "name": "NotRegistered",
      "type": "error"
    },
    {
      "inputs": [
        {
          "internalType": "bool",
          "name": "_status",
          "type": "bool"
        }
      ],
      "name": "isRegistered",
      "type": "error"
    },
    {
      "anonymous": false,
      "inputs": [
        {
          "indexed": false,
          "internalType": "bytes32",
          "name": "_name",
          "type": "bytes32"
        }
      ],
      "name": "Registered",
      "type": "event"
    },
    {
      "inputs": [
        {
          "internalType": "address",
          "name": "_user",
          "type": "address"
        }
      ],
      "name": "checkRegister",
      "outputs": [],
      "stateMutability": "view",
      "type": "function"
    },
    {
      "inputs": [
        {
          "internalType": "bytes32",
          "name": "_name",
          "type": "bytes32"
        },
        {
          "internalType": "bytes32",
          "name": "_profile",
          "type": "bytes32"
        }
      ],
      "name": "register",
      "outputs": [],
      "stateMutability": "nonpayable",
      "type": "function"
    },
    {
      "inputs": [
        {
          "internalType": "address",
          "name": "",
          "type": "address"
        }
      ],
      "name": "registrationStatus",
      "outputs": [
        {
          "internalType": "bool",
          "name": "",
          "type": "bool"
        }
      ],
      "stateMutability": "view",
      "type": "function"
    },
    {
      "inputs": [
        {
          "internalType": "address",
          "name": "",
          "type": "address"
        }
      ],
      "name": "userDataDetails",
      "outputs": [
        {
          "internalType": "address",
          "name": "user",
          "type": "address"
        },
        {
          "internalType": "bytes32",
          "name": "profile_image",
          "type": "bytes32"
        },
        {
          "internalType": "bytes32",
          "name": "name",
          "type": "bytes32"
        }
      ],
      "stateMutability": "view",
      "type": "function"
    },
    {
      "inputs": [
        {
          "internalType": "uint256",
          "name": "",
          "type": "uint256"
        }
      ],
      "name": "users",
      "outputs": [
        {
          "internalType": "address",
          "name": "",
          "type": "address"
        }
      ],
      "stateMutability": "view",
      "type": "function"
    }
  ],
  "bytecode": "0x608060405234801561001057600080fd5b506106e4806100206000396000f3fe608060405234801561001057600080fd5b50600436106100575760003560e01c80632f9267321461005c578063365b98b2146100785780633cea1fd2146100a8578063602e03b4146100da578063f5d8bcb41461010a575b600080fd5b610076600480360381019061007191906104fd565b610126565b005b610092600480360381019061008d9190610539565b61031c565b60405161009f919061058f565b60405180910390f35b6100c260048036038101906100bd91906104d4565b61035b565b6040516100d1939291906105aa565b60405180910390f35b6100f460048036038101906100ef91906104d4565b6103a5565b60405161010191906105e1565b60405180910390f35b610124600480360381019061011f91906104d4565b6103c5565b005b6000600260003373ffffffffffffffffffffffffffffffffffffffff1673ffffffffffffffffffffffffffffffffffffffff16815260200190815260200160002060009054906101000a900460ff16905080156101ba57806040517fe7de76020000000000000000000000000000000000000000000000000000000081526004016101b191906105e1565b60405180910390fd5b60405180606001604052803373ffffffffffffffffffffffffffffffffffffffff16815260200183815260200184815250600160003373ffffffffffffffffffffffffffffffffffffffff1673ffffffffffffffffffffffffffffffffffffffff16815260200190815260200160002060008201518160000160006101000a81548173ffffffffffffffffffffffffffffffffffffffff021916908373ffffffffffffffffffffffffffffffffffffffff16021790555060208201518160010155604082015181600201559050506001600260003373ffffffffffffffffffffffffffffffffffffffff1673ffffffffffffffffffffffffffffffffffffffff16815260200190815260200160002060006101000a81548160ff0219169083151502179055507f10906fae603eebfac53ddc0f103bee8a044dd7643c425c7a90f921dfa15ef62c8360405161030f91906105fc565b60405180910390a1505050565b6000818154811061032c57600080fd5b906000526020600020016000915054906101000a900473ffffffffffffffffffffffffffffffffffffffff1681565b60016020528060005260406000206000915090508060000160009054906101000a900473ffffffffffffffffffffffffffffffffffffffff16908060010154908060020154905083565b60026020528060005260406000206000915054906101000a900460ff1681565b6000600260008373ffffffffffffffffffffffffffffffffffffffff1673ffffffffffffffffffffffffffffffffffffffff16815260200190815260200160002060009054906101000a900460ff16905080158061044f5750600073ffffffffffffffffffffffffffffffffffffffff168273ffffffffffffffffffffffffffffffffffffffff16145b1561049157806040517f465ae89600000000000000000000000000000000000000000000000000000000815260040161048891906105e1565b60405180910390fd5b5050565b6000813590506104a481610669565b92915050565b6000813590506104b981610680565b92915050565b6000813590506104ce81610697565b92915050565b6000602082840312156104e657600080fd5b60006104f484828501610495565b91505092915050565b6000806040838503121561051057600080fd5b600061051e858286016104aa565b925050602061052f858286016104aa565b9150509250929050565b60006020828403121561054b57600080fd5b6000610559848285016104bf565b91505092915050565b61056b81610617565b82525050565b61057a81610629565b82525050565b61058981610635565b82525050565b60006020820190506105a46000830184610562565b92915050565b60006060820190506105bf6000830186610562565b6105cc6020830185610580565b6105d96040830184610580565b949350505050565b60006020820190506105f66000830184610571565b92915050565b60006020820190506106116000830184610580565b92915050565b60006106228261063f565b9050919050565b60008115159050919050565b6000819050919050565b600073ffffffffffffffffffffffffffffffffffffffff82169050919050565b6000819050919050565b61067281610617565b811461067d57600080fd5b50565b61068981610635565b811461069457600080fd5b50565b6106a08161065f565b81146106ab57600080fd5b5056fea26469706673582212204b1393a10baa2478115fc0208cac4679fc1685262a3da3d7487c6df0097ca02064736f6c63430008040033",
  "linkReferences": {},
  "deployedLinkReferences": {}
}